:020000040800F2
:1000000000180020AD340008490500084D0500081F
:1000100000000000000000000000000000000000E0
:100020000000000000000000000000002D35000866
:1000300000000000000000002D35000851050008F8
:100040002D3500082D3500082D3500082D35000808
:100050002D350008890500082D3500087D050008AC
:100060002D3500082D3500082D3500082D350008E8
:100070005D0500082D3500082D3500082D350008D8
:100080002D35000800000000000000002D3500089C
:10009000000000002D3500082D3500082D35000822
:1000A000000000002D3500082D3500082D35000812
:1000B0002D350008000000006D05000895050008BA
:1000C000002934D00123002210B488422CD301240B
:1000D0002407A14204D2814202D209011B01F8E7A0
:1000E000E400A14204D2814202D249005B00F8E759
:1000F000884201D3401A1A434C08A04202D3001B85
:100100005C0822438C08A04202D3001B9C082243B7
:10011000CC08A04202D3001BDC082243002803D0F5
:100120001B0901D00909E3E7101C10BC704701B599
:10013000002000F00BF802BD0029F8D003B5FFF74E
:10014000C1FF0EBC4243891A1847C0467047C046DB
:10015000011C343138C9043B9C461D60A646011C75
:1001600020313CC990469946A246AB46011C083155
:10017000FCC941680068E54600BDC0467047C046FE
:100180007047C0467047C0467047C0467047C0467B
:100190007047C0467047C0467047C0467047C0466B
:1001A0007047C04601B401A801B585B0FFB408A8E6
:1001B00041464A4653465C4665463EC001A83EC895
:1001C0000F98009000230CB401A903F08DFC109B44
:1001D00012B0184701B401A801B585B0FFB408A852
:1001E00041464A4653465C4665463EC001A83EC865
:1001F0000F98009000230CB401A903F0A6FC109BFB
:1002000012B0184701B401A801B585B0FFB408A821
:1002100041464A4653465C4665463EC001A83EC834
:100220000F98009000230CB401A903F0AFFC109BC1
:1002300012B0184701B401A801B585B0FFB408A8F1
:1002400041464A4653465C4665463EC001A83EC804
:100250000F98009000230CB401AB03F06CFC109BD2
:1002600012B0184701B401A801B585B0FFB408A8C1
:1002700041464A4653465C4665463EC001A83EC8D4
:100280000F98009000230CB401AA03F0D7FC109B38
:1002900012B0184702B4714649084900095C490088
:1002A0008E4402BC7047C04610B5064C2378002B24
:1002B00007D1054B002B02D0044800E000BF01230A
:1002C000237010BD3004002000000000A846000884
:1002D000044B10B5002B03D00349044800E000BFD5
:1002E00010BDC0460000000034040020A8460008ED
:1002F0000100872310B59B00ED31FF31C05802F09B
:1003000087FD10BDCB005B1A9B00C3181933FF3368
:100310001A68872310B59B00C05802F0ADFD10BDD0
:10032000CB005B1A9B00C3189A6B872310B59B0008
:10033000C05802F0DDFD10BD872310B59B00C058EA
:1003400002F06AFE10BDC04670B587240500A40007
:100350000121005902F048FE285902F021FE70BD2B
:10036000872310B504009B00C05802F041FEA3692A
:10037000002B04D00621024A13690B43136110BD00
:1003800000ED00E0836910B50400002B05D1872340
:100390009B00E05802F038FE10BD0621034A1369A5
:1003A0008B43136103F008F9F1E7C04600ED00E06C
:1003B00010B514001A0088239B00C058230000F0D9
:1003C00061FC0223032801D8014B1B5C180010BDFF
:1003D000E046000888239B00C05810B501F0BAFB26
:1003E0000223032801D8024B1B5C180010BDC04635
:1003F000E046000888239B00C05810B501F008FCB7
:100400000223032801D8024B1B5C180010BDC04614
:10041000E046000888234AB29B00C358002A07DB45
:10042000CA00511A89005B180B33FF3318787047E4
:100430007F221140CA00511A89005B182A331878AC
:10044000F5E7C04688239B00C05810B500F000FCBB
:100450000223032801D8024B1B5C180010BDC046C4
:10046000E046000810B58824A400005900F0B4FE4E
:100470000223032801D8024B1B5C180010BDC046A4
:10048000E046000810B58824A400005900F070FD73
:100490000223032801D8024B1B5C180010BDC04684
:1004A000E0460008012305200E4A00B5916983B09B
:1004B0001943916192690021134001930022404247
:1004C000019B01F055FE022000220021404201F074
:1004D0004FFE012000220021404201F049FE03B0FE
:1004E00000BDC0460010024000B5144B026887B042
:1004F0009A4201D007B000BD8020114A8004D16922
:100500000143D161D36901A903400093009BC0233B
:100510009B0001930223029300230393033304936C
:1005200008480133059301F035FD002200211E200B
:1005300001F01EFE1E2001F047FEDBE700640040D4
:1005400000100240000400487047C046FEE7C04665
:1005500010B501F089FC01F06DFE10BD10B5024828
:1005600001F0A8FC10BDC046DC04002010B5024814
:1005700001F082FF10BDC0462805002010B5802084
:1005800001F0EAFD10BDC04610B5012001F0E4FD08
:1005900010BDC04610B5024800F03CFF10BDC0467B
:1005A000800500200121114B11481A680A431A6086
:1005B0005A6802405A601A680E4802401A601A6867
:1005C0000D4802401A605A680C4802400F205A60D9
:1005D000DA6A8243DA621A6B094802401A635A6B7C
:1005E0008A435A6300229A607047C0460010024056
:1005F0000CB8FF08FFFFF6FEFFFFFBFFFFFFC0FF89
:100600002CFEFFFF0722084B08491A80084B1A707E
:100610000623084A1370084A11600021074A117026
:10062000074A13707047C0469604002000640040DB
:100630004C0400204D0400205004002094040020AD
:100640009504002030B5204C87B02378062B06D0C7
:10065000002280211D4801F077FD07B030BD8023C6
:100660001B4A9B04D16901250B43D361802301936D
:10067000002301A9154803930493029501F08AFC15
:100680001448FFF731FF0121134B1A682A431A60FF
:100690005A681142FCD002201A6882431A600F483F
:1006A0000F4A007812780004120502430D480088B2
:1006B0000243DA611A688A431A60012206494B68CC
:1006C0001340FCD12370C3E79504002000040048C8
:1006D0000010024050040020006400404C04002040
:1006E0004D0400209604002008280CD82D4B8000D3
:1006F0001B589F4601222C4B1A802C4B01321A703A
:100700002B4B01321A70704702210223264A1180B6
:10071000264A1370264A1370F5E79F22224B1A804F
:10072000224B9C3A1A70224B01321A70EBE763227B
:100730001D4B1A801D4B613A1A701D4B01321A7005
:10074000E1E71F22184B1A80184B1B3A1A70184BFE
:10075000013A1A70D7E71322134B1A80134B103A41
:100760001A70134B013A1A70CDE707220E4B1A800C
:100770000E4B1A7006220E4B1A70C4E707220A4B62
:100780001A800A4B063A1A70094B03321A70BAE7FC
:100790000122054B1A80054B06321A70044B013AB0
:1007A0001A70B0E7F4460008960400204C040020BC
:1007B0004D040020F0B557464E464546DE46002122
:1007C0000122E0B588468DB0812108920A9200226C
:1007D00000238727890092469146002401268C46F3
:1007E000474D019003930293059304930993069355
:1007F0000B93BF00E9598B4631005846994001429E
:100800006AD060462858084226D03D4A9020934638
:10081000D900800059440A58120C501E8241902081
:100820008000085800281ED1079343460592002BEC
:1008300003D04B46029353460493019B02A93148CF
:100840000134039301F0FAFCE0B20DB03CBC9046D9
:100850009946A246AB46F0BD0234E4B201330C2BFC
:10086000C8D12948F1E7912080000858000C0BD02E
:10087000912080000958002921D001210434E4B2DC
:100880008A4689468846E9E70592424607930396D9
:10089000002A01D04A460292002204921B4ADB0041
:1008A000944663445B68002B28D10293019B02A904
:1008B00014480234049301F0C1FCE0B2C5E7079389
:1008C000019B02A90F4803340592039604960293F4
:1008D00001F0B4FCE0B2B8E74146002904D005922B
:1008E0004A46029252460492019A02A9500103908C
:1008F0000448079301F0A2FCA0B2A6E70123D4E7C5
:100900000064004050040020FFFF000040660040EB
:10091000C022274B520070B59C58803AFF3A002104
:10092000224235D1224A09018D18C0220388520083
:100930005B05AB500379002B25D10F23827805305E
:100940001340C2225200AB501A4A1B4B9446CC189B
:1009500000230022614423600B60037926689340E2
:100960003343236003780E689340083233430B60AF
:100970000130202AF1D1012100206132FF32AB5831
:100980000B43AB5070BD0224AB582343AB50D4E7AC
:100990009131FF315C589039FF392242C2D0A032E8
:1009A000FF329B58194201D10131BBE70520E9E72D
:1009B00000640040886500408C6500401B4B30B5EA
:1009C000DA6892072FD0D82149005A58520D028078
:1009D000002202715B589B0722D4DA220F231349AD
:1009E00052008C58DE25234083708B58DC241B0A70
:1009F000C370002305306D0064004A59DA4002716B
:100A00000A59DA40083302700130202BF5D100205A
:100A1000CA681343064ACB601378013B137030BD9C
:100A200001230371D9E70220F9E7C04600640040C2
:100A3000940400200320034BDB681840431E9841B8
:100A4000C0B2704700640040F8B5234E050033780B
:100A50000C00002B35D0214F00263B001A68002ADD
:100A600005D001360433082EF8D12800F8BD29003E
:100A7000280000222B1D1C3118301A80023304C1BB
:100A80008342FAD1B300FD50AA64EA642C802000AE
:100A9000FFF790FE601C80B2FFF78CFEA01C80B2B6
:100AA0000334FFF787FEA0B2FFF784FE0122B240B5
:100AB0000B4BD117186802431A605A6811435960EA
:100AC000D3E7FFF79FFD0620FFF70EFEFFF7BAFD05
:100AD00001233370BFE7C046CA0400209C040020F5
:100AE000D00400200F4B70B599420AD8002A08D0D4
:100AF0000023041D2588002D06D0013302340A2B63
:100B0000F8D10024200070BD5C0006339B0004195E
:100B1000C318A1805A6001243429F3D90800FFF7D3
:100B200049FEEFE7FF07000010B584B06B466A4648
:100B3000188000230C1E13712BD02A3353716A4680
:100B400023789371002B1AD00223013407322178C5
:100B500001331170DBB2002912D001340132082BAD
:100B6000F5D16A46052168469370FFF7D1FE322021
:100B700001F088F96A4623789371002BE4D10223AF
:100B80006A46052168469370FFF7C2FE322001F0E5
:100B900079F904B010BDC046F8B5FFF74BFF002847
:100BA00000D1F8BD274D05212800FFF707FF264E8D
:100BB0003700203711E05C1C1900A04237D0023109
:100BC00081421ED1297900291BD00233D16C98B201
:100BD000FFF7AAFF0436B7420FD03268002AF9D0D7
:100BE000288813889842E6D12979002928D093696A
:100BF000280004369847B742EFD10022134B1A70F1
:100C0000CFE7002407E0E978994209D001340A2CA3
:100C1000E0D0288832686300D3189B888342F2D1E1
:100C2000A31D9B00D218536828009847EEE72B7944
:100C30000024002BEFD0916C80B2FFF775FFC9E75D
:100C40000100BCE7BC0400209C04002098040020A4
:100C5000F4235B00C25C012A11D00122C254002996
:100C600007D02423C154F42300225B00C254002087
:100C700070479D3B0168FF3B7F32CA52F3E7022079
:100C8000F6E7C046F0B5C6467F254CB200B50D402C
:100C9000002C00DAB0E0CE00711A89000931FF3172
:100CA0004118CB70F423E40F0D704C70CA605B00E8
:100CB000C45C012C00D141E10124C454CC78036808
:100CC000012C00D124E1002C00D12CE1022C00D118
:100CD00016E1032C00D1F7E00F78994EBD005D19A5
:100CE0002C8834403C43974F3C432C808C7A002C1A
:100CF00028D101270D788C88ED00AC464D78BC4397
:100D0000002D00D1AFE050229D5A80225D19D20003
:100D10006544944665442C800A7892009A18148899
:100D2000650607D52640884C264316800A7892002F
:100D30009A181488854E344020267440814E3443DE
:100D4000148051E050270A78814D92009A18148837
:100D50002540804C2C4314800A78DC5BD2001219A9
:100D60008024E400A4460125CC88D2186244AC4318
:100D700014800A78DC5BD2001219774CD218A44692
:100D80000C896244AC4314804A78002A3AD10A782C
:100D900094001C1925886F0404D52E406F4D2E43F6
:100DA00026800A7894001C1925886E0600D5A0E0DC
:100DB00092009A181488624D2540634C2C4314808D
:100DC0000A78674D92009A1814882540C024A4011F
:100DD0006C405C4D2C4314800A785C4992009B184F
:100DE0001A880A4015431D80F42300225B00C25478
:100DF000002004BC9046F0BDE900491B8900283161
:100E000041184EE70A7892009A1815882C00344051
:100E10006F0408D5514D2C43148034000A78920099
:100E20009A1815882C406D0608D5474D2C43148020
:100E30000A78434D92009A1814882C40474D2C4351
:100E400014800A78414D92009A1814882C403D4D28
:100E50002C4314800A78424992009B181A880A4051
:100E600015431D80C0E750269D5B5D196544A8466B
:100E7000394DAC46454665442C800C789D5BE400BA
:100E80006419384D5D1964193E2A28D8550817424F
:100E900000D00135AD0225800A7892009A18148896
:100EA000650408D5264D2C402C4D2C4314800A781F
:100EB00092009A1814882A4B1C40C0239B0163405F
:100EC000204C1C4314808FE70C78274EA4001C197B
:100ED00025882E40C025ED0035432580FCE65509C8
:100EE000D20601D1013DADB2204AAD0215432580A5
:100EF000D2E7134A1540144A154325800A7857E76C
:100F00000C78194EA4001C19258835402580E3E68D
:100F10000C78154EA4001C1925882E408025ED0064
:100F200035432580D8E60C780F4EA4001C1925887F
:100F30002E408025AD0035432580CDE6022058E7C0
:100F40000F0F00008080FFFFC080FFFFBF8FFFFFFB
:100F50000F0E00008081FFFF0404000080C0FFFF2F
:100F60008FBFFFFF060400008F89FFFF0080FFFF97
:100F7000F0B57F244646D6464F462140C0B5CE0048
:100F8000741AA400041925001935FF352A602200BF
:100F90001D32FF3213600023AB600F3D2B70230026
:100FA0000933FF331970F4235B00C55C012D00D1B8
:100FB000E9E001251534FF34C55415682368002283
:100FC0009D4201D9EA1A1D00731A9B00C3181C0028
:100FD0001D34FF3422601A001332FF321278046885
:100FE000002A2FD10933FF3350321B78A25ADB007D
:100FF0009B18744AA2189B183E2D6AD96A0992B2AE
:10100000ED0600D18FE0704D92022A43711A8900DB
:10101000411809311A80FF310B789B00E3181988B9
:101020006A4A1140C02292015140694A0A431A801B
:10103000F42300225B00C25400201CBC9046994659
:10104000A246F0BD0A22FF329046984442461778E5
:101050008422520094469C4463461B78002F40D162
:10106000B83AA75ADA00D21991465A4BE318994474
:101070003E2D5BD801232B409C4662466F08BFB2D1
:101080003B00002A01D07B1C9BB24A469B02138086
:10109000731A9B00C3181A000A32FF321278002A12
:1010A00073D150220933FF331B78A25ADB009B18FF
:1010B000444AA2189B186246002A01D00137BFB2E9
:1010C000BF021F80731A9B00C3180933FF331B78BC
:1010D000A3E76A0892B2ED0701D5013292B29202FB
:1010E00094E7012F99D150229146A25A9246DA00F4
:1010F000384B52449A4643461219524415801A7886
:10110000002A57D14B46E25A63461B78DB009B18F6
:101110002C4AA2189B183E2D47D91F222A406D0940
:101120009446AFB225E0013A92B26CE71F232B4000
:101130009C4662466F09BFB23B00002A01D17B1E6C
:101140009BB2214A9B0213434A461380731A9B00A9
:10115000C3181A000A32FF321278002A15D1502221
:101160000933FF331B78A25ADB009B18154AA218DB
:101170009B186246002A01D1013FBFB2124ABF024A
:1011800017431F809EE7022057E70933FF331B7880
:10119000012A00D041E74F32A25ADB00E3189B1826
:1011A000084A944663441D808CE72F406D08BC4676
:1011B000AFB280E71C234B43C3180933FF331B78BE
:1011C000E6E7C046060400000080FFFF8FBFFFFF78
:1011D0008080FFFF02040000F0B57F24CE46474622
:1011E0002140CD006C1AA400041980B5E3630023EC
:1011F00023642300A263012229331A70013B197072
:10120000F4235B00C65C012E00D1DEE0C254E76B24
:10121000636B00249F4201D9FC1A1F0080236A1AC5
:1012200092008218DB009C461300D4633E043233E4
:101230000468360C1B7801367608A444002B37D19D
:10124000936B928DBFB2B8466244002E0DD07600EB
:10125000B146D71A99441A78944666465A781202CB
:101260003243DA5302339945F5D150236A1A614962
:1012700092008C46414682182832E65A1378DB00E9
:101280009B19E3186344198013789B00E3181A88AC
:1012900059490A4030214A4058490A431A80F423E8
:1012A00000225B00C25400200CBC90469946F0BD61
:1012B000130028331B78293298461378424692004F
:1012C000125B520645D5002B6BD15033E25A434690
:1012D000DB009B184A4AA2189B183E2F00D87FE0DB
:1012E0007A0992B2FF0601D1013A92B2454F9202B9
:1012F0003A431A806B1A9B00C3181A8E6B1A9B0014
:10130000C3189B6B6244002E0CD0D21A9446760010
:101310009E195A781F7812023A436746DA5302330D
:10132000B342F6D1691A890041180B0028312933DC
:101330001D780B789B00E3181A88002D3ED1324DA2
:101340002A40324D2A431A800B789B00E3181A88F2
:101350009EE7002B18D15033E25A4346DB009B181E
:10136000244AA2189B183E2F31D97A0992B2FF065F
:1013700001D1013A92B2234F92023A431A806B1A7A
:101380009B00C318DA8DB9E7012BF8D14F33E25A2D
:101390004346DB009B18174A1B19904643441F80A5
:1013A000EDE7012BA6D14F33E25A4346DB009B18F1
:1013B000134A1B19904643441F809BE7012D00D020
:1013C00066E7114D2A40124DBCE702206CE77A080F
:1013D00092B2FF0701D5013292B292021A80CEE793
:1013E0007A0892B2FF0701D5013292B292021A80B6
:1013F00080E7C04602040000BF8FFFFF8080FFFF30
:10140000060400000080FFFF0F0F0000C080FFFFF8
:1014100080C0FFFFF0B5DE4657464E4645464422A3
:10142000E0B5036885B09A5A040012B2002A00DAC7
:1014300078E04422995A490500D55FE04422995A40
:10144000490403D5995AC348014099524422995AF4
:1014500089043BD444255A5BD2043FD44422995A90
:10146000090512D44422995A890526D44422995A4E
:10147000C90503D5995AB8480140995205B03CBCFA
:1014800090469946A246AB46F0BD995AB348082506
:10149000014099524021585A284304255852585A1D
:1014A000284358529A5AD204DCD42000FEF758FF41
:1014B00044222368995A8905D8D5995AA8480140E9
:1014C00099522000FEF738FF2368CFE74425995A48
:1014D000A448014099525A5BD204BFD5402204204F
:1014E000995A81439952A04920009952FEF74AFF28
:1014F00023689E495A5B0A405A53AFE7995A9C4861
:10150000014099522000FEF71FFFF4225200A35C15
:10151000012B00D1C9E24C218020236858520021C0
:10152000A1548BE7002202A9CA8085229200121AD8
:10153000934644229A5A02A992B28A8012B2002A91
:1015400000DB76E70F2502AA9288154046D102AA51
:101550009288D20600D4CEE0198802AAD180D2881F
:10156000120500D55BE202AAD28812B2002AE0DAA4
:10157000804A2500114050221980995AB832A25C45
:101580000935D20052187C49D2188C46624417881B
:10159000FF35BA05920DAA6100D016E200212000A5
:1015A000FEF7B0FE5022236873499A5A59188A18D8
:1015B000E9683E2900D9A8E1480880B2C90701D5E9
:1015C000013080B28002108019886C4A1140C0221C
:1015D000920151406A4A0A431A80AAE7AE0098195C
:1015E000018802AAD180D28812B2002A3CDB02AA6A
:1015F000D28812069DD59E19328862490A403280EF
:10160000614A9818EA00511B89006618310032318E
:101610000978002900D0B9E050315F5A31002831F3
:101620000978C900C919095A8905890D316400D0A2
:101630007BE15021551BAD0065195E5A2900283108
:101640000B78DB009B191A5AAB6B92059C46920DE6
:101650002A64EB6B6244AA6309782000002B74D1E2
:10166000FEF75EFE236864E7424A1140EA0001800B
:10167000511B8900611808001330FF3000780028E2
:1016800000D0A7E050301F5A08000930FF30007822
:10169000C000C019384FC018BC466044008880465E
:1016A0008005800D844667460020002F00D05FE152
:1016B000571BBF00E7193A002132FF3213681B188D
:1016C00013603B001933FF331A6812181A60043391
:1016D0001B68002B00D1E0E139001537FF370931D5
:1016E0003F68FF310978874200D819E12000FEF7F2
:1016F00009FE23687BE71A88224920000A401A80E5
:101700005022995A283AA25CD2009B181E4A5B18B4
:101710009446A26B634494461B8800219B059B0D55
:1017200023646344A363FEF7FBFD2422A35C002B28
:101730000DD0E16B2368002900D0FAE68025A05C7B
:101740002843343D5853A154F3E6FFF745FD236881
:10175000EFE6C046FFBFFFFFFFFEFFFFFFF7FFFF03
:10176000FFFDFFFFFFDFFFFF00BDFFFFFFEFFFFFFC
:10177000FFFBFFFF8F0F0000060400008FBFFFFF7D
:101780008080FFFF0F8FFFFF02040000310028312F
:101790000978CF008900BC46CF5A79063FD4502142
:1017A000595AD14F59186144BC4661440F88BF054E
:1017B000BF0D376400D07AE1511B890061182831D0
:1017C0000978CA4F890059180E883740C84E3E43E1
:1017D0000E802EE708000930FF3000788700B846F9
:1017E000984447463F88C000B9467F043FD45027FD
:1017F000DF5BDF193818BC4FBC46604400888705A2
:101800008446BF0D0020002F00D07BE14946B74B36
:1018100019400B00B7490B4341460B8048E7502164
:101820006746595A4118CF5BBF05BF0D3764C3D017
:10183000B16BF68D0137B0468026F600B4464646B9
:101840006644F618761AB04616007F087F00CF1956
:101850009C4642463B00B0464E780F7836023E43E7
:101860008E5202319942F7D163464246A4E750278F
:10187000DF5BDF193818A04FBC466044008887053D
:101880008446BF0D0020002FC0D008000F31FF316B
:10189000098819308A468021C90089465146494441
:1018A0008946FF3000689944804678080090494690
:1018B00016D0019041464846401A824610005246D2
:1018C0008246019B505A013B0870000A4870023161
:1018D000002BF7D149465246009B5B00C91898443B
:1018E00063463800DB0702D50B8841460B70216840
:1018F000531B88469B00E3180933FF331B789B007A
:10190000984443461B88994680E7480980B2C90637
:1019100001D1013880B2794980020843108053E632
:101920002000FFF725FB236861E6B76BB68D013118
:10193000B0468026F600B44646466644B44649089A
:101940009C44490088466146C91B8C461100B84436
:1019500062463E009C4643468846717837780902C5
:101960003943B15202369E42F7D16346424660E6A1
:1019700008001930FF3000680D3182467808802752
:10198000FF00B946FF3109880090494489469944CF
:101990004946002810D051464B4607005B1A585A5A
:1019A000013F0870000A48700231002FF7D1494604
:1019B000009B5B00C9189A4443466046DB0700D48D
:1019C00076E60B8851460B7072E652089046AA885C
:1019D0002969D3188022D200914642468C46994408
:1019E000002A10D080204646C000401A5A18125AC9
:1019F000013E0A70120A4A700231002EF6D14346A7
:101A0000580081448444FB0703D54B4662461B883B
:101A10001370AA692B69944663442B61BEE550227A
:101A2000995AB832A25C2600D20052182E49D21818
:101A30008C46624417882200BD050932AD0DFF3285
:101A400095619288ED36D3188022D2009446FF36F5
:101A50006D089C44002D11D0A046320028005C4641
:101A60009918095B01381170090A51700232002877
:101A7000F6D1A34644466D00AC447619FB0702D567
:101A800063461B88337022681D49138820000B4071
:101A90001380FEF72DFC23684BE50937FF373978B3
:101AA0002000FEF72FFC2368A1E52368C6E4B16B94
:101AB000368E0137B0468026F600B4464646664468
:101AC000F618761AB04616007F087F00CF199C469C
:101AD00042463B00B0464E780F7836023E438E5267
:101AE00002319942F7D1BFE6060400000F0F000053
:101AF00080C0FFFFC080FFFF020400000080FFFFE6
:101B00008F0F000008001131FF31098819308A4613
:101B10008021C9008946514649448946FF30006802
:101B20009944804678080090494600D1D8E6019053
:101B300041464846401A8246100052468246019B62
:101B4000505A013B0870000A48700231002BF7D14F
:101B5000C0E6C046F42330B55B00C25C012A4AD01F
:101B60000125C5546A3BFF3B4AB20B400468002A7A
:101B700029DBCA00511A890041180A000B32FF32D2
:101B80001570023A137000220A31FF310A70002BDF
:101B90000DD12288194B1A40194B5A40194B134347
:101BA0002380F42300225B00C254002030BD9B0040
:101BB000E3181988144A1140802252015140114AF9
:101BC0000A431A80EDE7DA00D21A92008218110057
:101BD0002A310D70293202390B701570002BD8D0C4
:101BE0009B00E4182288094B1A4010235A40054BE9
:101BF0001A432280D5E70220D8E7C046BFBFFFFFC7
:101C0000101000008080FFFF8FBFFFFFBF8FFFFF1E
:101C100030B57F244BB20C40002B49DBCA00511A6F
:101C200089000931FF314118DB0F00224B70F4238A
:101C30008A700C705B00C25C012A3FD00122C25442
:101C40004B780468002B1CD10B789B00E3181A8892
:101C5000550408D51A4D2A401A4D2A431A800B788C
:101C60009B00E3181A8818490A40C0218901514095
:101C7000164A0A431A80F42300225B00C254002053
:101C800030BD0B789B00E3181A88550608D50C4D1B
:101C90002A400F4D2A431A800B789B00E3181A88BC
:101CA0000C490A4030214A4008490A431A80E2E7B9
:101CB000E100091B890028314118B5E70220DFE760
:101CC0000F0F000080C0FFFF8FBFFFFF8080FFFF6E
:101CD000C080FFFFBF8FFFFFF0B5CE46474680B5FF
:101CE000036883B00400DA032ED58022474B5205E7
:101CF000D9690027114251D08026454D76002B68C6
:101D0000334259D0C021414D89002A6A60680A4097
:101D100011D0014091420ED08022296A2E6A5202CF
:101D200032432A622A6A3B4B3B4E0B4032402A62C6
:101D30002B62CB0758D4354A3649136A0B4003430C
:101D400013622368012F48D0DA0706D503202F49F4
:101D50000A6B8243A06802430A639A0606D51020E4
:101D60002A490A6B8243E06802430A639A0306D554
:101D7000802026490A6B8243606902430A6300207F
:101D80005B0506D54021214A136B8B4321690B4328
:101D9000136303B00CBC90469946F0BD8026D96908
:101DA0001B4D1143D961DB6976001A400192019BFA
:101DB0002B6801373342A5D12B6833432B6000F0E9
:101DC0005BF880462B6833429CD100F055F84346BF
:101DD000C01A6428F6D90320DBE7D1690F48014017
:101DE000D161DA07B9D5B1E700F046F80C4B80466F
:101DF0000226994605E000F03FF84346C01A4845E0
:101E0000E9D82B6A1E42F6D0606894E700100240C1
:101E100000700040FFFCFFFFFFFFFEFFFFFFFFEF32
:101E20008813000010B5040000F0D6FFFA218900E5
:101E3000FEF746F900F0D2F90120002221004042CD
:101E400000F096F9002010BD1021064A10B5136865
:101E500000200B431360FFF7E5FFFEF723FB002094
:101E600010BDC04600200240024A136801331360CF
:101E70007047C046A0070020014B18687047C04655
:101E8000A007002030B583B00190FFF7F5FF019C5B
:101E90000500631C5A1E9341E418FFF7EDFF401B39
:101EA000A042FAD303B030BD7047C0467047C04669
:101EB0007047C0460422036870B5196804000A42DE
:101EC0004AD059680A4247D0626CD20604D48022B4
:101ED000616C92000A436264C022D9681201114207
:101EE00013D1226A002A10D11A6812070DD59A68F8
:101EF000520744D40C215A688A435A60636C244ABE
:101F000013400432FF32134363642000FFF7CCFF19
:101F10000C2223681A6080251A68154202D05A687C
:101F2000154221D1102219680A4214D059680A4278
:101F300011D0626B012A02D0DA68D20709D50221DA
:101F4000A26C20000A43A26410221A60FFF7B0FFBF
:101F5000236810221A6070BD082219680A42DAD07C
:101F600059680A42D7D0AFE78023626C5B02134303
:101F700063642000FFF79AFF23681D60D2E72022E8
:101F8000636C13436364A36C1F3A1343A364BCE7FD
:101F9000FEFEFFFFF0B54546DE4657464E46E0B52D
:101FA0008846096885B00023002900D1B3E0614A62
:101FB0008A469346604A944664E002685D00914612
:101FC0000322AA404C46D2431440270003240C406D
:101FD000AC40A1463C004F463C43019F0460013F9A
:101FE000012F7AD94446C6683240A668AE403243D3
:101FF000C26080225205114240D05A4601245D46FB
:1020000003260F2792691E402243AA61AA69B600DF
:1020100022404A4CB740A14690240392039A9A0862
:1020200092004A449568E405BD43A0420AD0444F5B
:10203000B84200D176E0434FB84200D176E00527A0
:10204000B7403D4395606246009C1268E543CC036F
:102050005ED42A406446226062688C0355D42A40CC
:1020600064466260A268CC024CD42A406446A260F6
:10207000E268890243D42A406146CA60524601336D
:10208000DA4048D0012654469E4034400094F5D0B2
:102090004246516810220F0097430197022F8CD1BE
:1020A00007250F241D40AD00AC40DA0892008218CD
:1020B000176AA74344462469AC4025003D43156296
:1020C00003225D00AA40D24307681740B9460327A0
:1020D0000F40AF404C46274307608768444617408F
:1020E000B946E7684C46AF402743012487604768FC
:1020F000B7430E0926409E403E43466072E7009972
:102100000A43B9E7009C2243B0E7009C2243A7E7BB
:10211000009C22439EE705B03CBC90469946A246EF
:10212000AB46F0BD0124B44025438BE70227B740FE
:102130003D4387E7001002400004014000000140D9
:102140000004004800080048002A01D0816170475F
:102150008162FCE77047C046044B10B55A691042D3
:1021600000D110BD5861FFF7F5FFFAE70004014008
:10217000FF22032330B51400C5B22B40DB009C4086
:1021800089010A40E4439A4000280BDB0C4B80088D
:102190009C46C023800060449B00C1580C402243F1
:1021A000C25030BD0F2307492B408C46083B9B088B
:1021B0009B006344D9690C402243DA61F1E7C046D1
:1021C00000E100E000ED00E01F2318401E3B8340CB
:1021D000014A13607047C04600E100E00A4A431E0E
:1021E000012093420ED8C021084A09485360036A6F
:1021F00009061B021B0A0B430362002300209360A5
:10220000073313607047C046FFFFFF0010E000E097
:1022100000ED00E0054A1368042803D004218B4335
:102220001360704718431060FBE7C04610E000E001
:102230007047C04610B5FFF7FBFF10BDF0B5012792
:102240004A6A80261202C6463D0090460368B600E0
:1022500098594C69364AA540104042460243E8432B
:102260003A4300B59A511C369A5902409A51CA69AC
:10227000002A35D1103E9A59E40002409A51CA68AA
:102280008E881204324390261C19B600A2518A6827
:102290000E88120432439126B600A25181248A6925
:1022A000A400002A38D11A5902401A510A69002A9A
:1022B00038D18524A4001A59104018510A6A012AFD
:1022C00004D1872189005A5815435D50802101208F
:1022D00089005A5882435A50002004BC9046F0BDF1
:1022E000012ADBD18326B6009A59E4002A439A5189
:1022F0000A688E881204324390261C19B600A25137
:102300008A688E89120432439126B600A251812434
:102310008A69A400002AC6D01A592A431A510A69A8
:10232000002AC6D0852080001A582A431A50C5E7D3
:10233000FFC0FFFF7047C0467047C046F0B5C646B5
:1023400000B5002900D081E0436BD82704680A015A
:10235000A5187F00EE599046B44604266246164002
:102360009E6054D0EE59F6085E60D8267600AE59CD
:10237000DA27B607F60FDE600F267F00EA59ED591F
:10238000164042462D042D0EA218DD611500B93508
:10239000FF351E612E68BD321E752E68FF32360A6B
:1023A0005E752E681962360C9E752D682D0EDD75D2
:1023B00015681D7615682D0A5D7615682D0C9D76BD
:1023C0001268120EDA76002937D12022E36813430F
:1023D000E3606369163A934363613D23C25C222A3A
:1023E00019D0C35C322B16D03D22835CDBB20029AE
:1023F0001AD1622B38D0722B33D0422B2ED001232E
:102400008354FFF799FF002004BC9046F0BDEE59BD
:10241000760D1E60A9E76369154A13403D2263618A
:10242000835CDBB20029E4D0622B14D0722B0FD076
:10243000522BE4D1403B8354E3E72022236913432A
:1024400023616369303293436361C6E7836B7CE742
:1024500042238354D5E722238354D2E7303B83546D
:10246000CFE752238354CCE732238354C9E7C046D5
:10247000FF70FFFF7047C0461022036870B5D9682F
:10248000040000250A4205D05969090702D58025B4
:10249000DA60AD00102219690A4206D0596949066E
:1024A00003D58021C9000D431A615A69D2070ED5A0
:1024B0009A6876490A408A4263D09A6874490A4009
:1024C0008A425ED09A6873490A408A4259D05A6952
:1024D000920703D5DA68920700D08EE05A69D206D7
:1024E00003D51A69920700D091E0226C2A43226436
:1024F000012299690A4208D05969C90505D5596967
:10250000090402D5216C0A432264022299690A4215
:1025100008D05969890505D55969090402D5216C86
:102520000A432264042299690A4208D0596949057C
:1025300005D55969090402D5216C0A432264702229
:1025400099690A4219D05969090516D559690904CA
:1025500013D599690A40302A00D17EE000D86FE097
:10256000502A00D18DE0602A00D184E0402A00D1B9
:102570007DE070219A698A439A61226C002A2DD1EC
:1025800070BD9A68920709D49A68920506D49A6831
:10259000920303D480221201154316E001215A69E7
:1025A0008A435A613D22A25C122A3ED03D22A35C9E
:1025B000DBB2522B4ED0722B3FD0422B3AD00123AC
:1025C000A3542000FFF7B6FE23689968324A0A43F5
:1025D0009A605A69920700D480E77BE704215A6821
:1025E00020000A435A603D220339A1545A692B49FD
:1025F0000A405A61FFF73EFFC2E700212000FFF7C3
:102600009DFE23685A69D20600D46EE769E701216E
:102610002000FFF793FE226C23682A4322640122E4
:1026200099690A4200D170E766E75A691C490A4075
:102630005A61BBE7203BA354C3E76223A354C0E71E
:10264000102A0FD0202A00D093E71021226C0A43D1
:1026500022648EE73223A354B3E72021226C0A437D
:10266000226486E70821226C0A43226481E7216CF8
:102670000A4322647DE78022216C52000A432264CF
:1026800077E78021226C0A43226472E7010000048C
:10269000000100080000011019050100A470FFFFEF
:1026A000FF70FFFFF0B5CE46474680B5036883B0A4
:1026B0000400DA072FD50C21C44842680A40042AD6
:1026C00000D121E142681140082900D113E163687B
:1026D000012B00D152E1002B00D168E1052B00D184
:1026E00057E2BA4BBA491A680A401A601A68B949DF
:1026F0000A401A60FFF7C0FB80250700B34EAD0209
:1027000005E0FFF7B9FBC01B642800D94DE1336831
:102710002B42F6D023689A0729D50C22AB4948688A
:10272000024200D104E148680240082A00D1F6E0E4
:10273000E368002B00D17AE10122A44F02253B6817
:1027400013433B60FFF798FB060005E0FFF794FB9F
:10275000801B022800D928E13B681D42F6D0F821F1
:102760003A6823698A43DB0013433B6023681A07F6
:1027700017D5E369954D002B00D1ECE001226B6A7F
:10278000022613436B62FFF777FB070005E0FFF7B4
:1027900073FBC01B022800D907E16B6A1E42F6D00A
:1027A00023685A0748D580220020884B5205D969F2
:1027B0008046114208D1D9691143D961DB691A40B9
:1027C0000192019B012398468026834F76003B6847
:1027D000334200D1D9E0A368012B0FD0002B00D1E8
:1027E0000CE1052B00D174E10121784B1A6A8A4370
:1027F0001A621A6A03318A431A6203E073490A6A49
:1028000013430B62FFF738FB704F81460226734D6E
:1028100006E0FFF731FB4B46C01AA84200D9C4E0DE
:102820003B6A1E42F5D042462368012A04D167491B
:102830006B48CA690240CA61DA0612D56269012A88
:1028400000D150E1053200D005E10420F8255F49B0
:102850004A6B82434A63486BA269A843D200024391
:102860004A639B0622D50C2258494B6813400C2B17
:1028700000D10FE14B681A40082A00D103E1236A16
:10288000524D002B00D110E180266B6B7602334352
:102890006B63FFF7F1FA070005E0FFF7EDFAC01BE5
:1028A000022800D981E06B6B3342F6D0636A002BBB
:1028B0001BD00C22454D69680A40082A2DD0022BF6
:1028C00000D12FE12B68474A2C0013402B60FFF703
:1028D000D3FA80250600AD0404E0FFF7CDFA801B93
:1028E000022862D823682B42F7D1002003B00CBC29
:1028F00090469946F0BDC021426849020A408021B5
:1029000049028A4200D0E2E6304A1268920300D4BB
:1029100001E76268002A00D0FDE60120E6E74A6888
:10292000C02149020A40802109028A4200D0FFE604
:10293000264A1268920702D5E268012AEDD1F825ED
:10294000224822690168D200A9430A4302601A079B
:1029500000D426E70DE701226B6A022693436B62DF
:10296000FFF78AFA070004E0FFF786FAC01B022887
:102970001BD86B6A1E42F7D1236812E78023134AE3
:102980005B0211680B431360B4E63B6833433B6062
:10299000FFF772FA050004E0FFF76EFA401B6428A7
:1029A00003D83B683342F7D015E703209EE7074D75
:1029B000074A2B68802613402B602B68054AB60215
:1029C00013402B60FFF758FA070012E00010024096
:1029D000FFFFFEFFFFFFFBFF0070004088130000B9
:1029E000FFFFFFEFFFFFFFFEFFF746FAC01B642863
:1029F000DBD82B683342F7D123688CE601226B4E7B
:102A00000227336A6A4D93433362336A0332934336
:102A10003362FFF731FA814605E0FFF72DFA4B46A6
:102A2000C01AA842C1D8336A1F42F6D1FBE6012280
:102A30005E4D02262B6893432B60FFF71DFA0700BB
:102A400004E0FFF719FAC01B0228AED82B681E421B
:102A5000F7D123688BE60422544D02266B6B134397
:102A60006B636B6B033A93436B63FFF705FA0700E5
:102A700004E0FFF701FAC01B022896D86B6B1E42D8
:102A8000F7D12368EDE6C0224B685202134093420F
:102A900000D0F4E6454B5B6BDB0300D406E7236A0A
:102AA000012B00D102E7012020E76B6B414A802611
:102AB00013406B63FFF7E0F97602070005E0FFF7CC
:102AC000DBF9C01B022800D96FE76B6B3342F6D1EC
:102AD000ECE60421354B1A6A0A431A621A6A033972
:102AE0000A431A628EE60421304D02266B6B0B43BB
:102AF0006B636B6B1A436A63FFF7BEF9070005E06F
:102B0000FFF7BAF9C01B022800D94EE76B6B1E42D3
:102B1000F6D0F8216A6BA3698A43DB0013436B6329
:102B200023689EE62B68244A802613402B60FFF71B
:102B3000A3F9B604070005E0FFF79EF9C01B0228C1
:102B400000D932E72B683342F6D10F22EB6A934368
:102B5000226B1343EB62A16AE36A6A680B4317496D
:102B600080240A4013436B6080232A685B0413436C
:102B70002B60FFF781F90D4D0600A40405E0FFF777
:102B80007BF9801B022800D90FE72B682342F6D07F
:102B9000ABE68022054BD20219680A431A608022F4
:102BA000196852020A431A60A4E5C04600100240A8
:102BB00088130000FFFFFEFFFFFFFFFEFF7FC2FF45
:102BC00070B588B069461C4B0A00180070C870C206
:102BD00000681033106004AA100070CB70C01B682E
:102BE000164D03600C206B68184008280AD00C387A
:102BF00043425841124B40421840124B9C4660449D
:102C000008B070BD0F209C0C04400C5DE96A0840C0
:102C1000115CC0228020520213404002834201D046
:102C2000934204D00748FDF74BFA6043E8E70648B3
:102C3000FDF746FA6043E3E7C04600080010024093
:102C4000005A620200127A00006CDC02F8B5CE462F
:102C5000474601230D005A4980B50A6806001A400C
:102C6000AA4209D20A689A432A430A600A681340B2
:102C7000AB4201D0012054E033689A0706D5F0201A
:102C800050494A688243B06802434A60DB0729D54D
:102C900072684C4B012A55D0022A4ED0032A00D12B
:102CA00077E01B689B07E5D50321464C63688B439F
:102CB00013436360FFF7E0F873680700012B48D007
:102CC000022B56D0032B6AD00C2398463E4B9946D4
:102CD00004E0FFF7D1F8C01B484538D84246636886
:102CE0001A42F6D10121364A13680B40AB421CD878
:102CF00033685B0706D5334A344953680B40F168A3
:102D00000B435360FFF75CFF2E4B314A5B681B0699
:102D10001B0FD35CD8402F4B18600020FFF782F8C0
:102D200000200CBC90469946F8BD13688B43136095
:102D300013681942DCD00120F3E71B689B01B3D470
:102D40000120EEE71B689B03AED40120E9E70320D6
:102D5000E7E70B3398461C4B994604E0FFF78CF8E5
:102D6000C01B4845F3D8424663681340042BF5D195
:102D7000B8E70A339846144B994604E0FFF77CF80D
:102D8000C01B4845E3D8424663681340082BF5D181
:102D9000A8E75B6BDB0300D586E70120C1E70933B9
:102DA0009846094B994604E0FFF766F8C01B484572
:102DB000CDD84246636813400C2BF5D192E7C0464C
:102DC000002002400010024088130000FFF8FFFFBF
:102DD000E446000800000020014B18687047C04618
:102DE0000000002085239B00C35810B5002B04D0A1
:102DF0001B689847002800D110BD0220FCE7C046A0
:102E0000852310B59B00C3585B689847002010BD10
:102E100082239B0070B5C5180400280000F0FCFA5E
:102E2000FA2301225B00E250124BE25A163BE250B9
:102E30001033E15CEA3BFF3B0B40012B0AD0002B37
:102E400012D0022B0BD07F2320009943FDF7C2FA4A
:102E5000002070BD2900200000F04AFAF8E72900A0
:102E6000200000F067FAF3E72900200000F0E4F802
:102E7000EEE7C0460E02000010B513000400002962
:102E800006D1FA2252008258032A0ED0002010BD2B
:102E900085239B00C3589B69002BF7D0FE2252006C
:102EA000825C032AF2D19847F0E70530FF30816851
:102EB000C268914210D885239B00E3581B69002B00
:102EC00006D0FE225200A25C032A01D120009847BE
:102ED000200000F0D3FAD9E7891A81608A4205D828
:102EE00092B21900200000F0C1FACFE70A00F7E71C
:102EF000F8B50400130000290DD1FA2252008258BF
:102F0000022A15D080239B00E25C012A01D1002215
:102F1000E2540020F8BD85239B00C3585B69002B59
:102F2000F7D0FE225200825C032AF2D19847F0E7E4
:102F3000C269056AAA4223D8866929003000FDF7D4
:102F4000FBF80F1E0DD1B5420BD8FC256D0063595F
:102F50009E4206D200220021200000F07FFA675135
:102F600014E085239B00E358DB68002B04D0FE228D
:102F70005200A25C032A10D0200000F08BFAC1E7B7
:102F8000521BC261190092B200F068FA00230022BD
:102F900000212000FDF776FAB4E720009847EBE720
:102FA00070B54023002200210400FDF701FA8823B8
:102FB00040255B00E5500022D03B80212000FDF73A
:102FC000F7F9FE2301225B002562E2541C33E3582B
:102FD000002B06D085239B00E35821795B682000F5
:102FE0009847002070BDC046017400207047C0465D
:102FF000FE23FE225B00C15CFF328154FA3AFF3AA5
:10300000C25400207047C046FE23FF33C25C013B20
:10301000C25400207047C046FE2310B55B00C35C5D
:10302000032B01D0002010BD85239B00C358DB6912
:10303000002BF7D09847F5E770B54B7882B00400C5
:103040000D00092B0AD8A64A9B00D3589F468B88AF
:10305000002B03D1CB88002B00D176E0802120000B
:10306000FDF7B8F900212000FDF7B4F9002002B007
:1030700070BD8B789B4D2B70012BEFD8FE21490042
:10308000425C022A79D0032AE8D1002B00D11DE14D
:10309000416801293CD0C9B2FFF7B2FE297820006F
:1030A0006160FFF79FFE022832D1D7E7FE235B0065
:1030B000C35C023B012BD1D80123C36081239B0059
:1030C000C358002B01D00323C360210002220C311E
:1030D000200000F0B5F9C9E7FE235B00C35C023BAA
:1030E000012BBBD84B88012BC0D1812300229B0030
:1030F000C250103307E04B88012BB7D181229200D8
:10310000835085239B00E35829009B682000984743
:10311000200000F0B3F9A9E74A88130A072B9DD8CD
:1031200071499B00CB589F46CB88012B00D095E777
:10313000FC33FF33C35C022B2BD0032B00D08DE775
:10314000011D012200F07CF990E7FE267600835DE8
:10315000032B00D182E77F254B881D40FF235B00B6
:10316000C5542900FDF76EF9200000F087F9002D05
:1031700000D1A0E00223A35578E7002BC8D001239B
:103180004360023343540121FFF72CFE0228BFD1D4
:1031900064E70023010083600831012200F050F948
:1031A00064E76B469E1D84239B00E358007C1B68EC
:1031B000310098473388002B00D157E7EA88002A6E
:1031C00000D153E7191C934200D9111C8AB23180F7
:1031D0000100200000F034F948E7037C002B00D008
:1031E0003CE76B469E1D85239B00C35830001B6B3C
:1031F000984707234370DDE7037C002B00D02DE7C1
:103200006B469E1D85239B00C35830005B6B98471F
:10321000D0E7D2B2052A00D920E7344B92009B5860
:103220009F468523027C9B00C358002A46D16A46EC
:10323000961D9B6A3000984702234370BAE76B469D
:103240009E1D84239B00E35831005B69007C9847F6
:10325000B0E76B469E1D84239B00E35831005B68FA
:10326000007C9847A6E76B469E1D84239B00E3588D
:1032700031009B69007C98479CE76B469E1D842328
:103280009B00E3583100DB68007C984792E76B466F
:103290009E1D84239B00E35831009B68007C984767
:1032A00088E76B469E1D84239B00E35831001B6911
:1032B000007C98477EE70123A355D7E66A46961D12
:1032C000DB6A300098470223437073E702224254BE
:1032D00043600021FFF794FD200000F0CFF8C5E621
:1032E00018470008D804002040470008604700083D
:1032F000FE2370B55B00C35C04000D00032B0ED1F0
:103300000B79012B0BD885239B00C3589B689847EA
:10331000EB88002B0BD1200000F0B0F807E08021F3
:103320002000FDF757F800212000FDF753F800209A
:1033300070BDC04670B50C00602305008A882078F7
:10334000D1B20340202B21D06378012B35D0002B44
:1033500043D0032B18D1FA33FF33EB5C022B26D07A
:10336000032B1BD16388002B04D14B0602D028000D
:10337000FDF730F885239B00EB5821009B6828005F
:103380009847280000F07AF8002070BDF533FF332D
:10339000EB5821009B6828009847F5E7802128001A
:1033A000FDF718F800212800FDF714F8ECE74B06AC
:1033B000EAD02800FDF70EF8E6E7FE235B00EB5CA1
:1033C000022BF4D0032BE9D16388002BDCD14B0610
:1033D000D7D02800FDF70EF8CCE7FE235B00EB5CAE
:1033E000022BE4D0032BD9D17F240C4024011306F7
:1033F0000ED40534FF342C192800FDF70BF8431EBA
:103400009841022220602100280000F019F8BBE753
:1034100014342C19F0E7C0460B7803704B784370D6
:10342000CA788B7812029B1843804A790B79120272
:103430009B188380CA798B7912029B18C3807047CE
:103440001300FA2210B50224520084500A0083614E
:10345000C3610021FDF706F8002010BD10B5130070
:103460000A000021FCF7FEFF002010BD10B513007C
:103470000A000021FDF706F8002010BDFA230422FF
:1034800010B55B00C250002100230022FCF7EAFFC8
:10349000002010BDFA23052210B55B00C2500021A8
:1034A00000230022FCF7EEFF002010BD13488546E4
:1034B00013480168090E134A914205D11248134975
:1034C0000160134813490160002103E0124B5B586F
:1034D000435004311148124B42189A42F6D3114A14
:1034E00002E00023136004320F4B9A42F9D3FDF738
:1034F00059F800F095FF00F025F9FEE700180020CC
:10350000040000001F00000018100240010000002D
:103510000000014000000000A0480008000000205A
:103520003004002030040020A8070020FEE700003F
:103530007047C046902010B5094C00228021C0057C
:10354000FEF702FE200000220121FEF7FDFD002211
:10355000044B182120001A70FEF7F6FD10BDC0467E
:1035600000040048780500200E4B10B51B78002B96
:1035700004D0FEF781FC0C4B186010BD0122012124
:103580000A48FEF7E1FD902001228021C005FEF7E8
:10359000DBFD074B074A18211A6004480122FEF799
:1035A000D3FDE6E778050020700500200004004800
:1035B0007C05002088130000382330B599B00B93A8
:1035C000373B139310931293C0235B021022002405
:1035D0000225159305230BA81192179314951694A1
:1035E000FFF760F80723002101A8019302950394D7
:1035F0000494FFF72BFBC0239B020593802305A8AF
:103600009B0006930A94FEF767FBFFF7E5FBFA21A0
:103610008900FCF755FDFEF7E1FD0420FEF7FAFDF9
:103620000120002200214042FEF7A2FD19B030BD6A
:103630008021F0B53A4C090362698BB00A4362619C
:10364000636900250B4080210193019B6269C903D6
:103650000A436261636903260B400293029BE023E5
:1036600090271B0205A92F48059306960795FEF79C
:1036700091FC2D4B05A92D4805930696FF0507954E
:10368000FEF788FC2A4B05A9380005930696079596
:10369000FEF780FC0696274E274B05A930000593C0
:1036A0000795FEF777FC80216369244A890213405D
:1036B00063616369224A30001340636162690A43AF
:1036C000626163690B4080210393039B6269C902B5
:1036D0000A436261636901240B400493049B18232D
:1036E00005A90593069407950895FEF753FC00225B
:1036F00030001821FEF728FD802305A93800059326
:10370000069407950895FEF745FC05A93000069438
:10371000079508950594FEF73DFC0BB0F0BDC0463B
:103720000010024000080048030800000014004890
:103730007F87000000040048E6FC0000FFFFF7FF61
:10374000FFFFBFFFF0B50023CE4647463C4A80B599
:103750003C4C13703C4E3D4A2660914613703C4AE7
:1037600095B013603B4A1360FEF76EFBFFF724FF32
:10377000FFF75EFF9621384AC9006846FDF764F9F5
:10378000E5216B46354D364A890068462B60FDF7CA
:10379000A9F9E421334F89003A002868FDF7A2F91E
:1037A000E6213A0089002868FDF79CF901221821DA
:1037B0002D48FEF7C9FCC820FEF764FB0022182143
:1037C0002948FEF7C1FCC820FEF75CFB0122182146
:1037D0002548FEF7B9FCC820FEF754FB002218214B
:1037E0002148FEF7B1FC0023002798460AE0236831
:1037F000B34203DA4B46424626601A700120FEF7B8
:1038000041FB2F00FEF738FB0500FDF7C5F92368E3
:103810005B1BDB1923602368002BE8DA2368313354
:10382000E5DB002201211048FEF78EFC4A46012309
:10383000102113700C480022FEF786FCDEE7C0461C
:10384000D90400207C05002018FCFFFF780500202B
:103850007405002070050020313500086C0500203B
:1038600069350008353500080004004803685A002F
:1038700004D5802212061343C01870475B005B0812
:10388000FAE7F0B585B0029015000E1E26D000278D
:103890004B1E01930093009BFB18DC0FE41864108F
:1038A000E3000393029BE2009E183000FFF7DEFF67
:1038B000019BA34215D0A84204D9A7420DD0631E94
:1038C0000093E8E70398029B08301818FFF7CEFF33
:1038D0000138A84202D2671CDDE70026300005B09F
:1038E000F0BDA842E9D8F9E7054B012806D0054B01
:1038F000022803D00023984200D1034B18007047E0
:10390000FF3E0008093F0008F53E0008214B37B58F
:1039100004008D1E002B09D001A9280000E000BF83
:10392000002808D100232361093313E01A481B4BF8
:103930001B1ADB1001932A000199FFF7A2FF051E55
:10394000F0D0FFF793FF6B68A064012B04D1002334
:103950002361053318003EBD281D002B0FDA01231B
:10396000E064E06C23650368002B0DDA1801000F9A
:10397000FFF7BAFF002320619842EBD1D4E7FFF7AD
:1039800075FF0023E064ECE7FFF770FF0023206180
:10399000E0E7C04600000000944700089448000893
:1039A000036810B50400DA0704D448309B0719D522
:1039B000FCF7E8FB23685B0703D42000D030FCF75A
:1039C000E5FB23681B0704D420005130FF30FCF7CF
:1039D000E1FB2368DB0604D42000D130FF30FCF784
:1039E000DDFB10BDFCF7CAFBE4E70368002B00D049
:1039F0001B1818007047704770B505000C00216C4B
:103A00002800FFF783FF061E01D000F0E5FC236CC1
:103A100022006B61290001202B6998470828EED00D
:103A20000728F2D13000216CFFF7E5FF201DFCF7DD
:103A30008FFB0000F0B52B4CC368A5440493836949
:103A4000060015000431402207A8059300F00AFD86
:103A5000002306AC06930293216C3000FFF756FF5B
:103A60006B1E9D4107000390093500282FD1F022DD
:103A7000236C5200736121007EA800F0F3FC3369CF
:103A80007EAA3100280098478C9B02906364059BB6
:103A9000290001930094330032000120049DA847BF
:103AA000002818D1002F18D1F0227EA95200200042
:103AB00000F0D8FC029B3D00082BCDD0072B0AD18B
:103AC0003800216CFFF797FF07A8FCF741FB102394
:103AD0001D43A36BDAE7092303930398F7239B00A5
:103AE0009D44F0BD24FCFFFF70B5CB6BF8B00B64B8
:103AF00004000D004022043101A800F0B3FC0123B2
:103B00005B42009310992000FFF700FF00280FD1BF
:103B10006A4621002369984706000828F2D06846C3
:103B2000FFF73EFF062E03D129002000FFF764FFB8
:103B3000092078B070BD10B58261DA6BC1601A647B
:103B400019000022FFF776FF10BD70B54369C66803
:103B500005000C000B64002E04D00122FFF76AFF61
:103B600000F03AFC0A002B69010002209847072860
:103B700005D00828F4D121002800FFF73DFF3000D0
:103B8000216CFFF738FF201DFCF7E2FAC36810B57F
:103B9000002B02D1FFF7A8FF10BDCB6B00220B64F6
:103BA000FFF748FFF8E710B50400042905D808001E
:103BB000FCF770FB051103111100022010BD02205B
:103BC000002BFBD10F2AF9D88240A2185168029A23
:103BD00018001160F2E70120F0E71FB503AB009376
:103BE00000230A001900FFF7DEFF039805B000BDAF
:103BF00010B50400042905D80800FCF74BFB05119B
:103C000003111100022010BD0220002BFBD10F2A4E
:103C1000F9D882400299A218096818005160F2E7A9
:103C20000120F0E71FB503AB0093002303920A00C5
:103C30001900FFF7DDFF05B000BD000070B5184C9E
:103C4000D36BA544136404000D0017A8111D402276
:103C500000F008FC01235B42169326996846FFF7A3
:103C600055FE002813D10C2116A86A46FFF7DAFF8B
:103C7000290016A8A047002809D1049B16AA694666
:103C8000083098470600052802D00928E5D1092602
:103C900016A8FFF785FE30008E239B009D4470BD63
:103CA000C8FDFFFFF0B50C008DB0079303210300A2
:103CB000E76C0B4006900193079808CF160009AAFD
:103CC0005760002823D11B0209931181019B022B0D
:103CD00000D1A76B0122236D134000D105E1002321
:103CE000059309A9300000F03AFA002800D0AAE0B4
:103CF000059B0820002B57D00F213000FFF76DFFE8
:103D00000E2102003000FFF78DFF794A21E0190CE7
:103D10001B04099302235172C9B2994013727F1890
:103D2000D4E73B883D1D02937B88049368E0019BA8
:103D30002F1D002B57D0002A55D02800FFF796FDE5
:103D4000A7630500200000E000BF002800D17AE052
:103D50002A000F2140E00199002929D1002A40D0F2
:103D60002A68D70F6A68911C00D16CE02100583195
:103D7000089101321AD0281DFFF737FE3A000100E2
:103D800008AB200000E000BF071E2AD00D21300044
:103D9000FFF723FF089B2062022F02D1E36223007A
:103DA0002C3306206362A5620DB0F0BD1F00EDE765
:103DB0000D213000276AFFF710FF874211D1A36A57
:103DC0009D420ED12800FFF751FD0F210200300067
:103DD000FFF728FF220000213000FFF723FF072014
:103DE000E2E708352F003B680293002B00D178E70B
:103DF000079B022B00D094E73D007B6808350493B5
:103E0000039B049F0F219F43A36C3000FF18FFF713
:103E1000E4FE0022874206D8029A039B9A43D719F0
:103E2000B84280414242049B03995F0002231F4035
:103E3000029B0B403B43012B00D18CE7002B00D1B0
:103E400075E7022B01D00920AEE72B685800430824
:103E50000293019B002B2BD1002A20D0069B1B072D
:103E600009D5029B002B1AD10D213000FFF7B5FEBA
:103E7000089B206295E7019F029B9F42F4D023009C
:103E80000137B800583328180893FFF7AEFD08AB88
:103E900001000022200000E000BF0028ECD02B68C9
:103EA000002B00DA0435029F0137BF00EF199AE7B3
:103EB0000D213000276AFFF790FE8742EFD1A36AF9
:103EC0009D42ECD1029B0027A36204232363EB18DD
:103ED000E76263632B68BB4204DA0298013080001A
:103EE000281870E7039B0593D9E7059303927AE7B7
:103EF0000000000010B50023FFF7D4FE10BD10B580
:103F00000123FFF7CFFE10BD10B50223FFF7CAFE55
:103F100010BDF0B50400C5B016001D0004295AD824
:103F20000800FCF7B7F9031B58AAD1000220002BA8
:103F300012D1A36B92B2201D0127AF403A4204D0A8
:103F400080CBBC466146AF00C1510135102DF3D185
:103F50000020B20400D4A36345B0F0BD93B2170CA7
:103F600001932A0004239A43012A34D1019BFE18AD
:103F7000012D00D0CDE0102E2DD80F2F2BD80026EC
:103F80000122236813420BD01900200091432160C5
:103F90004830052D21D102230B432360FCF7F4F8B0
:103FA000002E09D004222368134205D02000934339
:103FB0002360D030FCF7ECF8012D14D122A8FCF7D7
:103FC000DFF8002E19D1019B002618E0102ED6D95B
:103FD000103E052DD4D00220BEE703229343236078
:103FE000FCF7CEF8DCE70F2F02D822A8FCF7CCF8BC
:103FF000002EE8D002A8FCF7CBF81023DB1BA16B46
:104000000A00002B0CDDDB00CA1894460A00F800F9
:104010000193401A22AB181862451FD1019BCA18A0
:10402000002E10D03B00102F00D21023103B02A90D
:10403000DB005B18F1008C460021505858500431C9
:104040008C45FAD16244012D00D10432A263012DC6
:1040500008D122A8FCF792F800207DE7136883506E
:104060000432D9E70F2F02D822A8FCF78BF8002ED4
:10407000F2D002A8FCF78AF8EEE7032BABD1150CBF
:1040800096B2AB19102BA6D808222368134206D08B
:104090002000934351302360FF30FCF77DF822A8C5
:1040A000FCF77AF8A36BED00F600ED1A22AA9E1930
:1040B00055199E4204D1A66322A8FCF76BF8CBE702
:1040C0001A68EA500433F4E7002B84D1102A82D80E
:1040D00010222368134206D020009343D13023607E
:1040E000FF30FCF75DF822AD2800FCF759F80022FC
:1040F0000121A36B08009040064202D080CB9000C3
:104100002F500132042AF5D1A3632800FCF746F8AA
:10411000A2E7202E00D95EE70F2F00D856E7019EB8
:10412000002E00D14FE7052D00D054E73AE7027A80
:104130000300002A11D1427AB020002A0CD0013AA3
:104140005A725A68111D126859601A6003221A7255
:104150001A68100E12021A607047013AF7E7F0B5BC
:10416000002305000F0087B002933800FFF7DFFF40
:104170000400B02815D10024029BA3420ED105AE45
:1041800023000E22210000962800FFF70CFD009668
:1041900023000F2221002800FFF72AFD200007B08E
:1041A000F0BD03061AD4FF2386001E4005AB009322
:1041B00000230D2219002800FFF7F5FC059A0436AC
:1041C000B318610600D5931B059305AB009300233C
:1041D0000D2219002800FFF70BFDC6E703000F2290
:1041E0009343DBB2802B1AD104023800FFF79FFF04
:1041F000802604433602B44201D10924CEE72301CC
:10420000039300232405220C19002800FFF781FEE8
:104210000028F2D1039B3342A7D00123A4E7902BBF
:104220000FD10D2603003340B342E6D000230F2206
:1042300005AC0240009419002800FFF7B4FC00947C
:10424000C5E7A02B0FD1FF2307221B0119008243D2
:1042500011410A001A40030702D58023DB011A43EB
:10426000002319000FE0B02B56D1B12812D138002D
:10427000FFF75DFF021EC0D001000F239943C9B2B2
:104280000029BAD10B002800FFF743FE002800D117
:104290006BE7B2E7B22823D1002305AC0D22190049
:1042A00000942800FFF77FFC3800FFF740FF02264C
:1042B0007F230340B3408021059A01409B180029C9
:1042C00008D1812292009B18F83A059300940B00C4
:1042D000FF3A7FE7380005930736FFF728FFE7E747
:1042E000B3280CD13800FFF722FFF02302031B0391
:1042F00013400F22024001321A430123B1E7FC238D
:104300000340B42B00D178E7072380221C400134FE
:1043100012032243063BA4E7C02B4ED1C6280CD182
:104320003800FFF704FFF02302031B0313400F22A2
:10433000024001321A43032393E7C7280ED1380005
:10434000FFF7F5FE021E00D157E703000F218B4354
:10435000DBB2002B00D050E70B3994E703000722B3
:104360009343DBB2C02B07D1A022B13B1C400134E8
:10437000120322430C3B74E7C8280ED13800FFF724
:10438000D6FE0F2302009A43D2B218401032120315
:10439000013002430A3B012175E7C92800D02CE710
:1043A0003800FFF7C4FEF02302031B0313400F2263
:1043B000024001321A430523EDE70300072293432D
:1043C000DBB2D02B00D018E7144080220134120356
:1043D0002243CB3BDFE7000010B5062000F0BCF81D
:1043E000012000F05FF9C04610B501000023002253
:1043F000002000F0D3F810BD70B5074D074C641BCA
:10440000A41005D0013CA300EB589847002CF9D12B
:1044100000F050F970BDC0469C480008A048000854
:1044200070B50C4D0C4E761BB61005D0002408CD8F
:1044300001349847A642FAD100F036F9074D084EEC
:10444000761BB61005D0002408CD01349847A6424B
:10445000FAD170BD944800089448000894480008B8
:104460009C480008F0B50F2A3DD90C0004430D000C
:104470000300A4073CD11400103C240927013F1875
:1044800000E033002E681E606E685E60AE689E605D
:10449000EE681035DE601E001036BB42F1D10F25EC
:1044A0000C2301342401091915400419134222D0A8
:1044B0000023CE58E6500433EE1A032EF9D8032316
:1044C000043DAD080135AD001A4064194919551E67
:1044D000002A07D0002300E01300CA5CE2545A1CF3
:1044E0009D42F9D1F0BD0400551E002AF2D1F9E732
:1044F000551E0400EEE72A00F6E7C04670B5050039
:104500000C001F2922D8B7239B00C358002B0ED0C4
:104510008A009B181A68002A09D0012A14D0511C5D
:104520000ED00021200019609047002070BD2800A7
:1045300000F030F822000100280000F017F8F5E73D
:10454000162303600120F1E70020EFE71623036044
:1045500001204042EAE7C04610B5034B010018684D
:10456000FFF7CCFF10BDC04604000020002370B54B
:10457000074C050008001100236000F08BF8431C75
:1045800000D070BD2368002BFBD02B60F9E7C0463C
:10459000A407002010B500F075F810BDF8B5DE4690
:1045A0009B46304B45461C68A4234E4657465B004D
:1045B000E0B50500E0580E00904600284AD0436858
:1045C0001F2B31DC5C1C002D0AD102339B004460A0
:1045D0001E5000203CBC90469946A246AB46F8BD12
:1045E0009A0091468144424688214F467A50C4221F
:1045F00052009046804442468739994012688A4664
:104600000A439446424661461160842249465F4609
:1046100052008F50022DD8D1020055468D32FF3204
:1046200011680D431560D0E70F4B002B17D0C82041
:10463000400000E000BF002811D0A4220023520057
:10464000A15843600160A05040328350043283502F
:104650000124B8E720004D30FF30E050AFE70120E3
:104660004042B7E77847000800000000034B10B550
:10467000002B02D00248FFF7B7FE10BD000000007B
:10468000F943000858220120014B40421A6070474C
:10469000A407002058220120014B40421A607047B5
:1046A000A4070020FEE7C046F8B5C046F8BC08BC29
:1046B0009E467047F8B5C046F8BC08BC9E46704799
:1046C00002030405060708090A0B0C0D0E0F101053
:1046D0000102030405060708090A0B0C0D0E0F1052
:1046E00000020102000000000000000001020304BB
:1046F000060708091A0700082E07000842070008E5
:10470000560700086A0700087C07000890070008A1
:1047100008070008F4060008AC300008D83000088C
:104720005C300008F63000085C3000084E300008AD
:10473000183100085C300008283100087230000889
:104740005C300008A2310008223200081232000852
:104750005C3000085C300008F8310008DA310008ED
:10476000523200088E3200087A320008A232000865
:0C4770003E3200086632000808000020FD
:10477C00800C0181B0B0ABF000000000801401810E
:08478C00B0B0AB3000000000EA
:1047940070BEFF7F01000000A8BEFF7FB0A90680A5
:1047A40044BFFF7F0100000008C0FF7FCCFFFF7FF4
:1047B4005CC1FF7F010000008CC2FF7FAB08B180A9
:1047C40020C3FF7FB0B0AA805CC3FF7FB0A8038082
:1047D400C4C3FF7FAB08B18074C4FF7F0100000035
:1047E40050EDFF7FB0B0A880CCEDFF7FB0A918805A
:1047F4003CEEFF7FB0AB0A8048EFFF7F88FFFF7F6E
:1048040068F0FF7F0100000000F1FF7FA907B1807D
:104814008CF1FF7FB0B0A880CEF1FF7F01000000D3
:10482400D4F1FF7FB0B0AA8008F2FF7FAB76B280EC
:10483400B4F2FF7FAA3F3780FAF2FF7FB0B0A880BE
:1048440006F3FF7FB0B0AA8040F3FF7FB0B0A8802A
:1048540052F3FF7F01000000E0F3FF7FAA0DB28056
:1048640040F4FF7FB0AB0C8088F6FF7FB0B0A88027
:104874009EF6FF7FAB3F0480B2F8FF7F010000008B
:10488400DAF8FF7FB0AB06804AFBFF7F010000002F
:084894006D460008D102000886
:04489C00A902000865
:1048A00000127A000800002000000000F40200203E
:1048B0005C030020C4030020000000000000000092
:1048C00000000000000000000000000000000000E8
:1048D00000000000000000000000000000000000D8
:1048E00000000000000000000000000000000000C8
:1048F00000000000000000000000000000000000B8
:1049000000000000000000000000000000000000A7
:104910000000000000000000000000000000000097
:104920000000000000000000000000000000000087
:104930000000000000000000000000000000000077
:104940000000000000000000000000000000000067
:1049500001000000000000000E33CDAB34126DE604
:10496000ECDE05000B00000000000000000000006D
:104970000000000000000000000000000000000037
:104980000000000000000000000000000000000027
:104990000000000000000000000000000000000017
:1049A0000000000000000000000000000000000007
:04000005080034AD0E
:00000001FF
