:020000040800F2
:1000000000180020953C0008090700080D070008AB
:1000100000000000000000000000000000000000E0
:10002000000000000000000000000000153D000876
:100030000000000000000000153D00081107000846
:10004000153D0008153D0008153D0008153D000848
:10005000153D000849070008153D00083D07000848
:10006000153D0008153D0008153D0008153D000828
:100070001D070008153D0008153D0008153D000846
:10008000153D00080000000000000000153D0008BC
:1000900000000000153D0008153D0008153D000852
:1000A00000000000153D0008153D0008153D000842
:1000B000153D0008000000002D0700085507000846
:1000C00002B4714649084900095C49008E4402BCEB
:1000D0007047C046002934D00123002210B4884262
:1000E0002CD301242407A14204D2814202D2090167
:1000F0001B01F8E7E400A14204D2814202D2490088
:100100005B00F8E7884201D3401A1A434C08A0422A
:1001100002D3001B5C0822438C08A04202D3001BC0
:100120009C082243CC08A04202D3001BDC082243D7
:10013000002803D01B0901D00909E3E7101C10BCFB
:10014000704701B5002000F00BF802BD0029F8D07F
:1001500003B5FFF7C1FF0EBC4243891A1847C046DA
:100160007047C046011C343138C9043B9C461D60B1
:10017000A646011C20313CC990469946A246AB4692
:10018000011C0831FCC941680068E54600BDC04655
:100190007047C0467047C0467047C0467047C0466B
:1001A0007047C0467047C0467047C0467047C0465B
:1001B0007047C0467047C04601B401A801B585B07C
:1001C000FFB408A841464A4653465C4665463EC0D1
:1001D00001A83EC80F98009000230CB401A904F0B8
:1001E000F9F8109B12B0184701B401A801B585B009
:1001F000FFB408A841464A4653465C4665463EC0A1
:1002000001A83EC80F98009000230CB401A904F087
:1002100012F9109B12B0184701B401A801B585B0BE
:10022000FFB408A841464A4653465C4665463EC070
:1002300001A83EC80F98009000230CB401A904F057
:100240001BF9109B12B0184701B401A801B585B085
:10025000FFB408A841464A4653465C4665463EC040
:1002600001A83EC80F98009000230CB401AB04F025
:10027000D8F8109B12B0184701B401A801B585B099
:10028000FFB408A841464A4653465C4665463EC010
:1002900001A83EC80F98009000230CB401AA04F0F6
:1002A00043F9109B12B0184710B5064C2378002B69
:1002B00007D1054B002B02D0044800E000BF01230A
:1002C000237010BD8805002000000000FC500008CD
:1002D000044B10B5002B03D00349044800E000BFD5
:1002E00010BDC046000000008C050020FC50000836
:1002F0000020704710B5024803F0B0FC002010BD8C
:10030000680B002010B50449044803F083FC012267
:10031000034B00201A7010BDE8080020680B002075
:100320004208002020280AD10023C2220B704A7004
:10033000CB70C13A0B714B7108338A708B710020FE
:100340007047C0460A000D4970B50D000B0000242F
:1003500040351C700133AB42FBD1002A06D000238C
:10036000C45CCC5401339CB2A242F9D8044C2000A6
:1003700003F044FC200003F055FC70BD0809002088
:10038000680B002000B50D4B026883B09A4201D083
:1003900003B000BD80200A4A0004D1690143D16145
:1003A000D36900210340019300221F20019B02F02A
:1003B00013F91F2002F03CF9EAE7C046005C004058
:1003C000001002400100872310B59B00ED31FF3182
:1003D000C05802F07BFF10BDCB005B1A9B00C31816
:1003E0001933FF331A68872310B59B00C05802F0F9
:1003F000A1FF10BDCB005B1A9B00C3189A6B87232B
:1004000010B59B00C05802F0D1FF10BD872310B576
:100410009B00C05803F05EF810BDC04670B587243D
:100420000500A4000121005903F03CF8285903F00D
:1004300015F870BD872310B504009B00C05803F069
:1004400035F8A369002B04D00621024A13690B4337
:10045000136110BD00ED00E0836910B50400002BAE
:1004600005D187239B00E05803F02CF810BD06212E
:10047000034A13698B43136103F09AFCF1E7C0460A
:1004800000ED00E0872370B504001F489B00C450B6
:100490000433E0501D4B0222036008234360002315
:1004A0008260C36002618361C361036200F0B8FCD3
:1004B000002823D18825AD0060591823002200218F
:1004C00001F008FF605958230022802101F002FF4B
:1004D0006059C0230022812101F0FCFE882360596D
:1004E0005B000022012101F0F5FE802360595B00D2
:1004F0000022822101F0EEFE002070BD922104480E
:10050000490003F01FFED5E748090020005C0040C9
:100510003851000888239B00C05810B500F0CEFC6D
:100520000223032801D8024B1B5C180010BDC046F3
:100530003451000810B514001A0088239B00C058DD
:10054000230000F0DFFC0223032801D8014B1B5CD1
:10055000180010BD3451000888239B00C05810B506
:1005600000F046FE0223032801D8024B1B5C180052
:1005700010BDC0463451000888239B00C05810B5F8
:1005800001F0FEFC0223032801D8024B1B5C18007B
:1005900010BDC0463451000888239B00C05810B5D8
:1005A00001F04CFD0223032801D8024B1B5C18000C
:1005B00010BDC0463451000888234AB29B00C3587E
:1005C000002A07DBCA00511A89005B180B33FF337E
:1005D000187870477F221140CA00511A89005B18B1
:1005E0002A331878F5E7C04688239B00C05810B519
:1005F00000F06EFC0223032801D8024B1B5C18009C
:1006000010BDC0463451000810B58824A40000591C
:1006100000F0F8FF0223032801D8024B1B5C1800EE
:1006200010BDC0463451000810B58824A4000059FC
:1006300000F0A8FE0223032801D8024B1B5C18001F
:1006400010BDC04634510008882310B59B00C05827
:1006500000F0CCFF10BDC04600487047A405002044
:100660007047C046012305200E4A00B5916983B04A
:100670001943916192690021134001930022404285
:10068000019B01F0A9FF022000220021404201F05D
:10069000A3FF012000220021404201F09DFF03B092
:1006A00000BDC0460010024000B5144B026887B080
:1006B0009A4201D007B000BD8020114A8004D16960
:1006C0000143D161D36901A903400093009BC0237A
:1006D0009B000193022302930023039303330493AB
:1006E00008480133059301F089FE002200211E20F5
:1006F00001F072FF1E2001F09BFFDBE70064004069
:1007000000100240000400487047C046FEE7C046A3
:1007100010B501F0BFFD01F0C1FF10BD10B50248DA
:1007200001F0FCFD10BDC0464408002010B5024891
:1007300002F0D6F810BDC0469008002010B5802009
:1007400001F03EFF10BDC04610B5012001F038FF9A
:1007500010BDC04610B5024801F072F810BDC04689
:100760004809002010B5094C00220949200002F078
:100770006DFD0849200002F083FD0749200003F0C9
:1007800033FA200002F086FD10BDC046680B002041
:100790001000002048000020000000201223014823
:1007A0000B8070472C000020042301480B80704709
:1007B0004000002010B5044C0A000448210003F05A
:1007C0009DF8200010BDC0468C0D0020645100082B
:1007D00010B5044C0A000448210003F08FF82000F3
:1007E00010BDC0468C0D00207C51000810B5044C93
:1007F0000A000448210003F081F8200010BDC04623
:100800008C0D00209051000810B5044C0A000448DB
:10081000210003F073F8200010BDC0468C0D0020AD
:100820004851000810B5044C0A000448210003F0A8
:1008300065F8200010BDC0468C0D00205451000802
:100840000121114B11481A680A431A605A68024084
:100850005A601A680E4802401A601A680D48024031
:100860001A605A680C4802400F205A60DA6A8243C4
:10087000DA621A6B094802401A635A6B8A435A6358
:1008800000229A607047C046001002400CB8FF0872
:10089000FFFFF6FEFFFFFBFFFFFFC0FF2CFEFFFF89
:1008A00030B51F4C87B02378062B31D180231D4AE9
:1008B0009B04D16901250B43D3618023019300235D
:1008C00001A9194803930493029501F097FD174875
:1008D000FFF7EAFE164B1A682A431A605A682A4242
:1008E000FCD0022001211A6882431A601148124A82
:1008F0000078127800041205024310480088024371
:10090000DA611A68AA431A605A680A40FCD1227058
:1009100000228021044801F04BFE07B030BDC046E4
:100920000D0800200010024000040048C807002005
:1009300000640040C4070020C50700200E08002006
:1009400000B5082832D81B491B4A1C4BFFF7B8FBDF
:10095000050B0F151C21252A2F009F20088003213D
:10096000117004220EE063200880022102E01F20A3
:10097000088004211170032204E013200880032161
:10098000117002221A7011E00720088010700622F0
:10099000F8E7072008800121E2E70120088007210D
:1009A0001170F4E7022008801070187000BD01205B
:1009B000DAE7C0460E080020C4070020C507002063
:1009C00010B50420FFF7BCFF044B054A1A60002253
:1009D000044B1A70044B06321A7010BDC807002071
:1009E000006400400C0800200D08002000230121B5
:1009F000F0B51A009C461C000D008FB001900593C5
:100A00000493079306930A910B9308930D930C910B
:100A1000039302938720374E800037582800984070
:100A2000384254D08127BF00F65906424CD0314A93
:100A3000DE00B6183C37F259120C501E8241F059B4
:100A4000002812D1099363460792002B03D0029B22
:100A50000693039B0493019B04A92748059301F087
:100A600021FE0134E0B20FB0F0BD9127BF00F05974
:100A7000F65984463700781E87416046000C0BD13A
:100A80000993019B04A91C480792059504970693B6
:100A9000023401F007FEE5E7002E0BD10993019B1C
:100AA00004A915480792059506950493033401F0AF
:100AB000F9FDD7E78C460434E4B203950291013383
:100AC0000C2BA7D10D48CEE70234E4B2F7E761461C
:100AD000002904D00792029A0692039A0492019A7E
:100AE00004A9500105900448099301F0DBFDA0B270
:100AF000B9E7C04600640040C8070020FFFF0000BF
:100B0000C0230121234A5B0070B5D45800230C4256
:100B10000CD09133FF33D4580B000C4206D0A031D7
:100B2000FF3151580522194232D1DB18194A1B01F5
:100B30009918C0220488520064058C500479002C56
:100B400003D002248D582C438C500F24827805301A
:100B500022407634FF340A510F4A104C9D1800226F
:100B60001B192A601A6004792E68944034432C6063
:100B700004781E689440083234431C600130202AF7
:100B8000F1D101236132FF32885803438B50002298
:100B9000100070BD006400408C6500408865004016
:100BA0001A4B30B5D968022289072CD0D8214900C8
:100BB0005A58520D0280002202715A58920701D5EC
:100BC00001220271DA210F2449005A58DE25224001
:100BD00082705A58AA34120AC270002205306D0081
:100BE000FF345959D14001711959D140083201706F
:100BF0000130202AF5D1D9680A43DA60044A137813
:100C0000013B13700022100030BDC046006400405C
:100C10000C080020034BD86803231840431E98415A
:100C2000C0B2704700640040F7B5244E0500337829
:100C30000C00002B08D1FFF7C3FE0620FFF780FE53
:100C4000FFF72EFE0123337000261D4BB000C35862
:100C5000002B04D00136042EF7D12800FEBD290058
:100C60001831019169428C462A1D674651001431A2
:100C70001380CB51019902328A42F6D1104AAB64FB
:100C80001550EB642C802000FFF7B0FE601C80B292
:100C9000FFF7ACFEA01C80B20334FFF7A7FEA0B2A2
:100CA000FFF7A4FE0122B240064BD1171868024399
:100CB0001A605A6811435960CFE7C04632080020D5
:100CC00014080020380800200F4B70B5002499420A
:100CD00013D8141E11D00023051D5C002E5B002EBE
:100CE0000DD106339B000419C318A1805A6001245A
:100CF000342902D90800FFF779FE200070BD0133C6
:100D00000A2BEAD10024F8E7FF0700007FB56B4605
:100D10001880A8236A469B010C00938001250029B6
:100D200014D06A460123217801339171DBB201327C
:100D300000290CD16A462E00937005216846FFF702
:100D4000DFFE322001F0B4FA002EEAD07FBD01347C
:100D5000082BE8D16A4600269370EEE7038810B5A9
:100D600001339BB2816C1800FFF7D0FF10BD0388E0
:100D700010B502339BB2C16C1800FFF7C7FF10BD5E
:100D8000F8B5FFF747FF00281AD0224C05212000B4
:100D9000FFF706FF204E370010373068002809D0D3
:100DA000228803889A420CD12179002909D08369CD
:100DB000200098470436BE42EFD10022174B1A702C
:100DC000F8BD591C8A4205D12179002902D0FFF7CC
:100DD000C5FFEFE702339A4205D12579002D03D0F4
:100DE000FFF7C5FFE6E7002533686A009A18928886
:100DF0002188914206D1AA1D92009B185B682000B1
:100E0000984702E0E1789142F5D001350A2DEBD107
:100E1000D0E7C04624080020140800201008002055
:100E200070B5041E45D0EA23FF33C35CDBB2002B50
:100E300039D0EA2303226068FF33E25400281DD032
:100E400023000021012500222833197001315D7033
:100E5000DA70DA601A615A611C338142F5D12300DD
:100E6000002100220933FF33197001315A70DA7002
:100E7000DA601A615A611C338142F5D140220121A6
:100E80002368442099520021995219520C3019526A
:100E900009490020995200222423E254EA23012226
:100EA000FF33E25470BDF42252008354FFF76AFA14
:100EB000BFE70120F6E7C04600BFFFFF58220168E8
:100EC00080208B5A000203438B5200207047C0469B
:100ED000F4235B00C25C012A11D00122C254002914
:100EE00007D02423C154F42300225B00C254002005
:100EF00070479D3B0168FF3B7F32CA52F3E70220F7
:100F0000F6E7C046F0B5C6467F254CB200B50D40A9
:100F1000002C00DAB0E0CE00711A89000931FF31EF
:100F20004118CB70F423E40F0D704C70CA605B0065
:100F3000C45C012C00D141E10124C454CC78036885
:100F4000012C00D124E1002C00D12CE1022C00D195
:100F500016E1032C00D1F7E00F78994EBD005D1922
:100F60002C8834403C43974F3C432C808C7A002C97
:100F700028D101270D788C88ED00AC464D78BC4314
:100F8000002D00D1AFE050229D5A80225D19D20081
:100F90006544944665442C800A7892009A18148817
:100FA000650607D52640884C264316800A789200AD
:100FB0009A181488854E344020267440814E34435C
:100FC000148051E050270A78814D92009A181488B5
:100FD0002540804C2C4314800A78DC5BD200121927
:100FE0008024E400A4460125CC88D2186244AC4396
:100FF00014800A78DC5BD2001219774CD218A44610
:101000000C896244AC4314804A78002A3AD10A78A9
:1010100094001C1925886F0404D52E406F4D2E4373
:1010200026800A7894001C1925886E0600D5A0E059
:1010300092009A181488624D2540634C2C4314800A
:101040000A78674D92009A1814882540C024A4019C
:101050006C405C4D2C4314800A785C4992009B18CC
:101060001A880A4015431D80F42300225B00C254F5
:10107000002004BC9046F0BDE900491B89002831DE
:1010800041184EE70A7892009A1815882C003440CF
:101090006F0408D5514D2C43148034000A78920017
:1010A0009A1815882C406D0608D5474D2C4314809E
:1010B0000A78434D92009A1814882C40474D2C43CF
:1010C00014800A78414D92009A1814882C403D4DA6
:1010D0002C4314800A78424992009B181A880A40CF
:1010E00015431D80C0E750269D5B5D196544A846E9
:1010F000394DAC46454665442C800C789D5BE40038
:101100006419384D5D1964193E2A28D855081742CC
:1011100000D00135AD0225800A7892009A18148813
:10112000650408D5264D2C402C4D2C4314800A789C
:1011300092009A1814882A4B1C40C0239B016340DC
:10114000204C1C4314808FE70C78274EA4001C19F8
:1011500025882E40C025ED0035432580FCE6550945
:10116000D20601D1013DADB2204AAD021543258022
:10117000D2E7134A1540144A154325800A7857E7E9
:101180000C78194EA4001C19258835402580E3E60B
:101190000C78154EA4001C1925882E408025ED00E2
:1011A00035432580D8E60C780F4EA4001C192588FD
:1011B0002E408025AD0035432580CDE6022058E73E
:1011C0000F0F00008080FFFFC080FFFFBF8FFFFF79
:1011D0000F0E00008081FFFF0404000080C0FFFFAD
:1011E0008FBFFFFF060400008F89FFFF0080FFFF15
:1011F0007F224BB2F0B50A40002B5FDBCC00611AB6
:1012000089000931FF314118DB0F4B70F4230A705C
:101210005B00C25C012A5ED00122C2548B7A046852
:10122000002B14D10B784E789A00A2181588002E46
:1012300053D06B0600D58FE04C4B1D404C4B1D43EB
:101240001580F42300225B00C2540020F0BD8026EC
:101250000B784F789A00A2181588F6012E40002FBF
:101260004CD1002E05D0434B1D40434B1D431580F0
:101270000B789A00A21815886E0605D53D4B1D40C7
:101280003E4B1D4315800B789A00A2181388394DE8
:101290001D403A4B2B4313800B78394D9B00E318CC
:1012A0001A882A40324D2A431A800B782F499B0016
:1012B000E3181A880A4015431D80C2E7D100891A35
:1012C000890028314118DB0F4B70F4230A705B0052
:1012D000C25C012AA0D10220B8E76E0405D5254BD7
:1012E0001D40254B1D4315800B789B00E3181A8881
:1012F000234911401E4A0A431A80A2E72B001D4FC2
:101300003B40002E08D01C4D2B4313803B000A7835
:101310009200A21815882B406D0608D5174D2B4357
:1013200013800A78134D9200A21813882B40124D97
:101330002B4313800B780D4D9B00E3181A882A402D
:101340000B4D2A431A800B780D499B00E3181A882D
:101350000A4015431D8074E7064B1D40074B1D4393
:1013600015800A789200A218158865E7BF8FFFFFE5
:101370008080FFFF0F0F000080C0FFFFC080FFFFD5
:101380008FBFFFFFF0B57F244646D6464F4621402B
:10139000C0B5CE00741AA400041925001935FF3514
:1013A0002A6022001D32FF3213600023AB600F3D24
:1013B0002B7023000933FF331970F4235B00C55CE5
:1013C000012D00D1E9E001251534FF34C55415681D
:1013D000236800229D4201D9EA1A1D00731A9B005E
:1013E000C3181C001D34FF3422601A001332FF3270
:1013F00012780468002A2FD10933FF3350321B784A
:10140000A25ADB009B18744AA2189B183E2D6AD979
:101410006A0992B2ED0600D18FE0704D92022A4324
:10142000711A8900411809311A80FF310B789B002D
:10143000E31819886A4A1140C02292015140694A52
:101440000A431A80F42300225B00C25400201CBC13
:1014500090469946A246F0BD0A22FF329046984433
:10146000424617788422520094469C4463461B7877
:10147000002F40D1B83AA75ADA00D21991465A4BF8
:10148000E31899443E2D5BD801232B409C466246CD
:101490006F08BFB23B00002A01D07B1C9BB24A46BA
:1014A0009B021380731A9B00C3181A000A32FF3282
:1014B0001278002A73D150220933FF331B78A25AC5
:1014C000DB009B18444AA2189B186246002A01D0F0
:1014D0000137BFB2BF021F80731A9B00C3180933C4
:1014E000FF331B78A3E76A0892B2ED0701D50132FA
:1014F00092B2920294E7012F99D150229146A25ABA
:101500009246DA00384B52449A46434612195244E6
:1015100015801A78002A57D14B46E25A63461B7849
:10152000DB009B182C4AA2189B183E2D47D91F227E
:101530002A406D099446AFB225E0013A92B26CE7B9
:101540001F232B409C4662466F09BFB23B00002A16
:1015500001D17B1E9BB2214A9B0213434A46138052
:10156000731A9B00C3181A000A32FF321278002A3D
:1015700015D150220933FF331B78A25ADB009B1888
:10158000154AA2189B186246002A01D1013FBFB23A
:10159000124ABF0217431F809EE7022057E7093314
:1015A000FF331B78012A00D041E74F32A25ADB00FB
:1015B000E3189B18084A944663441D808CE72F402B
:1015C0006D08BC46AFB280E71C234B43C3180933F8
:1015D000FF331B78E6E7C046060400000080FFFFEB
:1015E0008FBFFFFF8080FFFF020400000B007F2100
:1015F0001940CB00591A890040182130FF3000886B
:101600007047C046F0B57F24CE4647462140CD0006
:101610006C1AA400041980B5E3630023236423003B
:10162000A263012229331A70013B1970F4235B0075
:10163000C65C012E00D1DEE0C254E76B636B002470
:101640009F4201D9FC1A1F0080236A1A9200821857
:10165000DB009C461300D4633E0432330468360C2E
:101660001B7801367608A444002B37D1936B928DFA
:10167000BFB2B8466244002E0DD07600B146D71AEC
:1016800099441A78944666465A7812023243DA53DD
:1016900002339945F5D150236A1A614992008C466C
:1016A000414682182832E65A1378DB009B19E3186A
:1016B0006344198013789B00E3181A8859490A403B
:1016C00030214A4058490A431A80F42300225B0023
:1016D000C25400200CBC90469946F0BD130028333C
:1016E0001B7829329846137842469200125B5206C4
:1016F00045D5002B6BD15033E25A4346DB009B1893
:101700004A4AA2189B183E2F00D87FE07A0992B26D
:10171000FF0601D1013A92B2454F92023A431A8034
:101720006B1A9B00C3181A8E6B1A9B00C3189B6B15
:101730006244002E0CD0D21A944676009E195A7834
:101740001F7812023A436746DA530233B342F6D1A6
:10175000691A890041180B00283129331D780B784C
:101760009B00E3181A88002D3ED1324D2A40324D9D
:101770002A431A800B789B00E3181A889EE7002BF7
:1017800018D15033E25A4346DB009B18244AA21872
:101790009B183E2F31D97A0992B2FF0601D1013A46
:1017A00092B2234F92023A431A806B1A9B00C318DD
:1017B000DA8DB9E7012BF8D14F33E25A4346DB000B
:1017C0009B18174A1B19904643441F80EDE7012BD5
:1017D000A6D14F33E25A4346DB009B18134A1B192C
:1017E000904643441F809BE7012D00D066E7114DD2
:1017F0002A40124DBCE702206CE77A0892B2FF073C
:1018000001D5013292B292021A80CEE77A0892B2E2
:10181000FF0701D5013292B292021A8080E7C046DA
:1018200002040000BF8FFFFF8080FFFF060400005E
:101830000080FFFF0F0F0000C080FFFF80C0FFFF90
:10184000F0B5DE4657464E4645464422E0B50368AD
:1018500085B09A5A040012B2002A00DA78E04422D5
:10186000995A490500D55FE04422995A490403D5A5
:10187000995AC348014099524422995A89043BD449
:1018800044255A5BD2043FD44422995A090512D404
:101890004422995A890526D44422995AC90503D568
:1018A000995AB8480140995205B03CBC90469946B7
:1018B000A246AB46F0BD995AB3480825014099525B
:1018C0004021585A284304255852585A2843585200
:1018D0009A5AD204DCD42000FEF7ACFD44222368DF
:1018E000995A8905D8D5995AA8480140995220009B
:1018F000FEF78CFD2368CFE74425995AA4480140A0
:1019000099525A5BD204BFD540220420995A814390
:101910009952A04920009952FEF79EFD23689E49E6
:101920005A5B0A405A53AFE7995A9C480140995272
:101930002000FEF773FDF4225200A35C012B00D1BE
:10194000C9E24C218020236858520021A1548BE722
:10195000002202A9CA8085229200121A93464422CC
:101960009A5A02A992B28A8012B2002A00DB76E764
:101970000F2502AA9288154046D102AA9288D20663
:1019800000D4CEE0198802AAD180D288120500D5F1
:101990005BE202AAD28812B2002AE0DA804A25006D
:1019A000114050221980995AB832A25C0935D200F0
:1019B00052187C49D2188C4662441788FF35BA0504
:1019C000920DAA6100D016E200212000FEF704FD6E
:1019D0005022236873499A5A59188A18E9683E298F
:1019E00000D9A8E1480880B2C90701D5013080B20A
:1019F0008002108019886C4A1140C0229201514027
:101A00006A4A0A431A80AAE7AE009819018802AA16
:101A1000D180D28812B2002A3CDB02AAD2881206F8
:101A20009DD59E19328862490A403280614A9818D1
:101A3000EA00511B8900661831003231097800290B
:101A400000D0B9E050315F5A310028310978C9001F
:101A5000C919095A8905890D316400D07BE15021EB
:101A6000551BAD0065195E5A290028310B78DB0043
:101A70009B191A5AAB6B92059C46920D2A64EB6B2C
:101A80006244AA6309782000002B74D1FEF7B2FCEF
:101A9000236864E7424A1140EA000180511B890033
:101AA000611808001330FF300078002800D0A7E04C
:101AB00050301F5A08000930FF300078C000C019AC
:101AC000384FC018BC466044008880468005800DB1
:101AD000844667460020002F00D05FE1571BBF00FF
:101AE000E7193A002132FF3213681B1813603B00DC
:101AF0001933FF331A6812181A6004331B68002B5D
:101B000000D1E0E139001537FF3709313F68FF3177
:101B10000978874200D819E12000FEF75DFC2368B0
:101B20007BE71A88224920000A401A805022995ADD
:101B3000283AA25CD2009B181E4A5B189446A26BFE
:101B4000634494461B8800219B059B0D23646344DA
:101B5000A363FEF74FFC2422A35C002B0DD0E16BA6
:101B60002368002900D0FAE68025A05C2843343D94
:101B70005853A154F3E6FFF745FD2368EFE6C0464E
:101B8000FFBFFFFFFFFEFFFFFFF7FFFFFFFDFFFFB0
:101B9000FFDFFFFF00BDFFFFFFEFFFFFFFFBFFFFCA
:101BA0008F0F0000060400008FBFFFFF8080FFFF43
:101BB0000F8FFFFF02040000310028310978CF00A9
:101BC0008900BC46CF5A79063FD45021595AD14F8B
:101BD00059186144BC4661440F88BF05BF0D376486
:101BE00000D07AE1511B8900611828310978CA4F69
:101BF000890059180E883740C84E3E430E802EE7A4
:101C000008000930FF3000788700B84698444746FE
:101C10003F88C000B9467F043FD45027DF5BDF19FF
:101C20003818BC4FBC466044008887058446BF0D09
:101C30000020002F00D07BE14946B74B19400B0034
:101C4000B7490B4341460B8048E750216746595A34
:101C50004118CF5BBF05BF0D3764C3D0B16BF68DA4
:101C60000137B0468026F600B44646466644F6186C
:101C7000761AB04616007F087F00CF199C46424670
:101C80003B00B0464E780F7836023E438E5202310A
:101C90009942F7D163464246A4E75027DF5BDF193C
:101CA0003818A04FBC466044008887058446BF0DA5
:101CB0000020002FC0D008000F31FF3109881930F3
:101CC0008A468021C9008946514649448946FF30E9
:101CD00000689944804678080090494616D00190E3
:101CE00041464846401A8246100052468246019BB1
:101CF000505A013B0870000A48700231002BF7D19E
:101D000049465246009B5B00C91898446346380018
:101D1000DB0702D50B8841460B702168531B8846B0
:101D20009B00E3180933FF331B789B00984443461C
:101D30001B88994680E7480980B2C90601D101385D
:101D400080B2794980020843108053E62000FFF7F3
:101D500019FB236861E6B76BB68D0131B04680266A
:101D6000F600B44646466644B44649089C444900D9
:101D700088466146C91B8C461100B84462463E0045
:101D80009C46434688467178377809023943B152F8
:101D900002369E42F7D16346424660E6080019309B
:101DA000FF3000680D31824678088027FF00B94671
:101DB000FF310988009049448946994449460028E2
:101DC00010D051464B4607005B1A585A013F087025
:101DD000000A48700231002FF7D14946009B5B0092
:101DE000C9189A4443466046DB0700D476E60B8860
:101DF00051460B7072E652089046AA882969D3189A
:101E00008022D200914642468C469944002A10D046
:101E100080204646C000401A5A18125A013E0A70E5
:101E2000120A4A700231002EF6D14346580081440E
:101E30008444FB0703D54B4662461B881370AA698E
:101E40002B69944663442B61BEE55022995AB832FF
:101E5000A25C2600D20052182E49D2188C46624449
:101E600017882200BD050932AD0DFF3295619288B9
:101E7000ED36D3188022D2009446FF366D089C447C
:101E8000002D11D0A046320028005C469918095B4D
:101E900001381170090A517002320028F6D1A346A8
:101EA00044466D00AC447619FB0702D563461B8897
:101EB000337022681D49138820000B401380FEF701
:101EC00081FA23684BE50937FF3739782000FEF7A0
:101ED00083FA2368A1E52368C6E4B16B368E013727
:101EE000B0468026F600B44646466644F618761A92
:101EF000B04616007F087F00CF199C4642463B0043
:101F0000B0464E780F7836023E438E5202319942E7
:101F1000F7D1BFE6060400000F0F000080C0FFFFEE
:101F2000C080FFFF020400000080FFFF8F0F000051
:101F300008001131FF31098819308A468021C90013
:101F40008946514649448946FF3000689944804695
:101F500078080090494600D1D8E6019041464846AD
:101F6000401A8246100052468246019B505A013B5D
:101F70000870000A48700231002BF7D1C0E6C04655
:101F8000F42330B55B00C25C012A4AD00125C55458
:101F90006A3BFF3B4AB20B400468002A29DBCA00B7
:101FA000511A890041180A000B32FF321570023AAB
:101FB000137000220A31FF310A70002B0DD12288E4
:101FC000194B1A40194B5A40194B13432380F423E1
:101FD00000225B00C254002030BD9B00E31819882A
:101FE000144A1140802252015140114A0A431A807A
:101FF000EDE7DA00D21A9200821811002A310D7032
:10200000293202390B701570002BD8D09B00E418D0
:102010002288094B1A4010235A40054B1A4322804C
:10202000D5E70220D8E7C046BFBFFFFF1010000071
:102030008080FFFF8FBFFFFFBF8FFFFF30B57F2482
:102040004BB20C40002B49DBCA00511A8900093100
:10205000FF314118DB0F00224B70F4238A700C70A3
:102060005B00C25C012A3FD00122C2544B78046855
:10207000002B1CD10B789B00E3181A88550408D557
:102080001A4D2A401A4D2A431A800B789B00E318F8
:102090001A8818490A40C02189015140164A0A434A
:1020A0001A80F42300225B00C254002030BD0B785C
:1020B0009B00E3181A88550608D50C4D2A400F4D91
:1020C0002A431A800B789B00E3181A880C490A40AF
:1020D00030214A4008490A431A80E2E7E100091B1F
:1020E000890028314118B5E70220DFE70F0F000013
:1020F00080C0FFFF8FBFFFFF8080FFFFC080FFFF1A
:10210000BF8FFFFFF0B5CE46474680B5036883B06A
:102110000400DA032ED58022474B5205D9690027E7
:10212000114251D08026454D76002B68334259D05C
:10213000C021414D89002A6A60680A4011D00140DF
:1021400091420ED08022296A2E6A520232432A62BC
:102150002A6A3B4B3B4E0B4032402A622B62CB0734
:1021600058D4354A3649136A0B4003431362236837
:10217000012F48D0DA0706D503202F490A6B824386
:10218000A06802430A639A0606D510202A490A6B02
:102190008243E06802430A639A0306D580202649F9
:1021A0000A6B8243606902430A6300205B0506D51F
:1021B0004021214A136B8B4321690B43136303B006
:1021C0000CBC90469946F0BD8026D9691B4D114341
:1021D000D961DB6976001A400192019B2B680137B7
:1021E0003342A5D12B6833432B6000F05BF8804667
:1021F0002B6833429CD100F055F84346C01A64283E
:10220000F6D90320DBE7D1690F480140D161DA0735
:10221000B9D5B1E700F046F80C4B80460226994646
:1022200005E000F03FF84346C01A4845E9D82B6A5C
:102230001E42F6D0606894E7001002400070004033
:10224000FFFCFFFFFFFFFEFFFFFFFFEF8813000013
:1022500010B5040000F0F4FFFA218900FDF73AFF01
:1022600000F0F0F9012000222100404200F0B4F912
:10227000002010BD1021064A10B5136800200B4342
:102280001360FFF7E5FFFEF7EDF9002010BDC04633
:1022900000200240024A1368013313607047C046B1
:1022A0008C0F0020014B18687047C0468C0F00202F
:1022B00030B583B00190FFF7F5FF019C0500631C6A
:1022C0005A1E9341E418FFF7EDFF401BA042FAD3DA
:1022D00003B030BD30B50C0613D57F242140CD00AE
:1022E000691A89002831401899B2002A03D18272F4
:1022F0008180002030BD01221B0C8272C1800381CD
:10230000F7E7CC00641AA4000934FF340019EBE7A6
:102310007047C0467047C0467047C04604220368F5
:1023200070B5196804000A424AD059680A4247D079
:10233000626CD20604D48022616C92000A4362640B
:10234000C022D9681201114213D1226A002A10D189
:102350001A6812070DD59A68520744D40C215A689E
:102360008A435A60636C244A13400432FF32134399
:1023700063642000FFF7CCFF0C2223681A608025DD
:102380001A68154202D05A68154221D110221968E4
:102390000A4214D059680A4211D0626B012A02D055
:1023A000DA68D20709D50221A26C20000A43A26490
:1023B00010221A60FFF7B0FF236810221A6070BD68
:1023C000082219680A42DAD059680A42D7D0AFE722
:1023D0008023626C5B02134363642000FFF79AFF63
:1023E00023681D60D2E72022636C13436364A36CEF
:1023F0001F3A1343A364BCE7FEFEFFFFF0B545465A
:10240000DE4657464E46E0B58846096885B000234B
:10241000002900D1B3E0614A8A469346604A944657
:1024200064E002685D0091460322AA404C46D24314
:102430001440270003240C40AC40A1463C004F460A
:102440003C43019F0460013F012F7AD94446C6688E
:102450003240A668AE403243C2608022520511422B
:1024600040D05A4601245D4603260F2792691E403C
:102470002243AA61AA69B60022404A4CB740A1464D
:1024800090240392039A9A0892004A449568E405BE
:10249000BD43A0420AD0444FB84200D176E0434F3A
:1024A000B84200D176E00527B7403D4395606246CB
:1024B000009C1268E543CC035ED42A406446226047
:1024C00062688C0355D42A4064466260A268CC02DC
:1024D0004CD42A406446A260E268890243D42A4070
:1024E0006146CA6052460133DA4048D0012654465C
:1024F0009E4034400094F5D04246516810220F00AF
:1025000097430197022F8CD107250F241D40AD0062
:10251000AC40DA0892008218176AA743444624693F
:10252000AC4025003D43156203225D00AA40D24322
:1025300007681740B94603270F40AF404C46274372
:102540000760876844461740B946E7684C46AF4085
:102550002743012487604768B7430E0926409E4001
:102560003E43466072E700990A43B9E7009C224364
:10257000B0E7009C2243A7E7009C22439EE705B0FA
:102580003CBC90469946A246AB46F0BD0124B440FF
:1025900025438BE70227B7403D4387E70010024001
:1025A0000004014000000140000400480008004809
:1025B000002A01D0816170478162FCE77047C04604
:1025C000044B10B55A69104200D110BD5861FFF795
:1025D000F5FFFAE700040140FF22032330B51400A1
:1025E000C5B22B40DB009C4089010A40E4439A407D
:1025F00000280BDB0C4B80089C46C0238000604405
:102600009B00C1580C402243C25030BD0F230749E4
:102610002B408C46083B9B089B006344D9690C40C7
:102620002243DA61F1E7C04600E100E000ED00E09E
:102630001F2318401E3B8340014A13607047C04669
:1026400000E100E00A4A431E012093420ED8C02157
:10265000084A09485360036A09061B021B0A0B4318
:102660000362002300209360073313607047C04665
:10267000FFFFFF0010E000E000ED00E0054A1368F6
:10268000042803D004218B43136070471843106063
:10269000FBE7C04610E000E07047C04610B5FFF70A
:1026A000FBFF10BDF0B501274A6A80261202C6461C
:1026B0003D0090460368B60098594C69364AA540DB
:1026C000104042460243E8433A4300B59A511C3653
:1026D0009A5902409A51CA69002A35D1103E9A5936
:1026E000E40002409A51CA688E8812043243902650
:1026F0001C19B600A2518A680E8812043243912632
:10270000B600A25181248A69A400002A38D11A593E
:1027100002401A510A69002A38D18524A4001A59A6
:10272000104018510A6A012A04D1872189005A5899
:1027300015435D508021012089005A5882435A5028
:10274000002004BC9046F0BD012ADBD18326B600F0
:102750009A59E4002A439A510A688E881204324337
:1027600090261C19B600A2518A688E891204324341
:102770009126B600A25181248A69A400002AC6D0FD
:102780001A592A431A510A69002AC6D085208000A6
:102790001A582A431A50C5E7FFC0FFFF7047C046CA
:1027A0007047C046F0B5C64600B5002900D081E0AC
:1027B000436BD82704680A01A5187F00EE5990469C
:1027C000B4460426624616409E6054D0EE59F60880
:1027D0005E60D8267600AE59DA27B607F60FDE60BF
:1027E0000F267F00EA59ED59164042462D042D0E62
:1027F000A218DD611500B935FF351E612E68BD32A6
:102800001E752E68FF32360A5E752E681962360C08
:102810009E752D682D0EDD7515681D7615682D0ABF
:102820005D7615682D0C9D761268120EDA760029F9
:1028300037D12022E3681343E3606369163A934378
:1028400063613D23C25C222A19D0C35C322B16D0AF
:102850003D22835CDBB200291AD1622B38D0722B67
:1028600033D0422B2ED001238354FFF799FF002051
:1028700004BC9046F0BDEE59760D1E60A9E7636971
:10288000154A13403D226361835CDBB20029E4D02A
:10289000622B14D0722B0FD0522BE4D1403B8354C7
:1028A000E3E72022236913432361636930329343B2
:1028B0006361C6E7836B7CE742238354D5E7222319
:1028C0008354D2E7303B8354CFE752238354CCE781
:1028D00032238354C9E7C046FF70FFFF7047C046EC
:1028E0001022036870B5D968040000250A4205D09B
:1028F0005969090702D58025DA60AD0010221969EF
:102900000A4206D05969490603D58021C9000D4302
:102910001A615A69D2070ED59A6876490A408A42E6
:1029200063D09A6874490A408A425ED09A687349B3
:102930000A408A4259D05A69920703D5DA68920749
:1029400000D08EE05A69D20603D51A69920700D0EA
:1029500091E0226C2A432264012299690A4208D03C
:102960005969C90505D55969090402D5216C0A437D
:102970002264022299690A4208D05969890505D55D
:102980005969090402D5216C0A4322640422996919
:102990000A4208D05969490505D55969090402D583
:1029A000216C0A432264702299690A4219D059693C
:1029B000090516D55969090413D599690A40302AC1
:1029C00000D17EE000D86FE0502A00D18DE0602A6F
:1029D00000D184E0402A00D17DE070219A698A43C9
:1029E0009A61226C002A2DD170BD9A68920709D491
:1029F0009A68920506D49A68920303D48022120141
:102A0000154316E001215A698A435A613D22A25CAE
:102A1000122A3ED03D22A35CDBB2522B4ED0722B49
:102A20003FD0422B3AD00123A3542000FFF7B6FE3B
:102A300023689968324A0A439A605A69920700D417
:102A400080E77BE704215A6820000A435A603D2250
:102A50000339A1545A692B490A405A61FFF73EFFD6
:102A6000C2E700212000FFF79DFE23685A69D206C5
:102A700000D46EE769E701212000FFF793FE226C86
:102A800023682A432264012299690A4200D170E72F
:102A900066E75A691C490A405A61BBE7203BA354C8
:102AA000C3E76223A354C0E7102A0FD0202A00D026
:102AB00093E71021226C0A4322648EE73223A35449
:102AC000B3E72021226C0A43226486E70821226CA6
:102AD0000A43226481E7216C0A4322647DE7802255
:102AE000216C52000A43226477E78021226C0A435A
:102AF000226472E7010000040001000800000110D8
:102B000019050100A470FFFFFF70FFFFF0B5CE466E
:102B1000474680B5036883B00400DA072FD50C213F
:102B2000C44842680A40042A00D121E142681140A9
:102B3000082900D113E16368012B00D152E1002B79
:102B400000D168E1052B00D157E2BA4BBA491A68A7
:102B50000A401A601A68B9490A401A60FFF7A2FBD6
:102B600080250700B34EAD0205E0FFF79BFBC01BBD
:102B7000642800D94DE133682B42F6D023689A07C8
:102B800029D50C22AB494868024200D104E14868CB
:102B90000240082A00D1F6E0E368002B00D17AE178
:102BA0000122A44F02253B6813433B60FFF77AFBE9
:102BB000060005E0FFF776FB801B022800D928E11C
:102BC0003B681D42F6D0F8213A6823698A43DB004E
:102BD00013433B6023681A0717D5E369954D002B13
:102BE00000D1ECE001226B6A022613436B62FFF70F
:102BF00059FB070005E0FFF755FBC01B022800D971
:102C000007E16B6A1E42F6D023685A0748D5802236
:102C10000020884B5205D9698046114208D1D969F4
:102C20001143D961DB691A400192019B0123984647
:102C30008026834F76003B68334200D1D9E0A368F9
:102C4000012B0FD0002B00D10CE1052B00D174E13A
:102C50000121784B1A6A8A431A621A6A03318A433D
:102C60001A6203E073490A6A13430B62FFF71AFB07
:102C7000704F81460226734D06E0FFF713FB4B466B
:102C8000C01AA84200D9C4E03B6A1E42F5D04246B1
:102C90002368012A04D167496B48CA690240CA61A6
:102CA000DA0612D56269012A00D150E1053200D05E
:102CB00005E10420F8255F494A6B82434A63486B6B
:102CC000A269A843D20002434A639B0622D50C2284
:102CD00058494B6813400C2B00D10FE14B681A4048
:102CE000082A00D103E1236A524D002B00D110E1E4
:102CF00080266B6B760233436B63FFF7D3FA0700D2
:102D000005E0FFF7CFFAC01B022800D981E06B6B0A
:102D10003342F6D0636A002B1BD00C22454D696804
:102D20000A40082A2DD0022B00D12FE12B68474AF8
:102D30002C0013402B60FFF7B5FA80250600AD0488
:102D400004E0FFF7AFFA801B022862D823682B4209
:102D5000F7D1002003B00CBC90469946F0BDC021CD
:102D6000426849020A40802149028A4200D0E2E6D4
:102D7000304A1268920300D401E76268002A00D04A
:102D8000FDE60120E6E74A68C02149020A408021A9
:102D900009028A4200D0FFE6264A1268920702D54D
:102DA000E268012AEDD1F825224822690168D200A3
:102DB000A9430A4302601A0700D426E70DE701225F
:102DC0006B6A022693436B62FFF76CFA070004E01C
:102DD000FFF768FAC01B02281BD86B6A1E42F7D1A6
:102DE000236812E78023134A5B0211680B431360C8
:102DF000B4E63B6833433B60FFF754FA050004E058
:102E0000FFF750FA401B642803D83B683342F7D0E1
:102E100015E703209EE7074D074A2B6880261340DD
:102E20002B602B68054AB60213402B60FFF73AFA75
:102E3000070012E000100240FFFFFEFFFFFFFBFF54
:102E40000070004088130000FFFFFFEFFFFFFFFE50
:102E5000FFF728FAC01B6428DBD82B683342F7D170
:102E600023688CE601226B4E0227336A6A4D934336
:102E70003362336A033293433362FFF713FA8146B6
:102E800005E0FFF70FFA4B46C01AA842C1D8336AD3
:102E90001F42F6D1FBE601225E4D02262B689343CA
:102EA0002B60FFF7FFF9070004E0FFF7FBF9C01BF9
:102EB0000228AED82B681E42F7D123688BE6042285
:102EC000544D02266B6B13436B636B6B033A934356
:102ED0006B63FFF7E7F9070004E0FFF7E3F9C01BB6
:102EE000022896D86B6B1E42F7D12368EDE6C0220C
:102EF0004B6852021340934200D0F4E6454B5B6BA3
:102F0000DB0300D406E7236A012B00D102E701208E
:102F100020E76B6B414A802613406B63FFF7C2F9D1
:102F20007602070005E0FFF7BDF9C01B022800D9B3
:102F30006FE76B6B3342F6D1ECE60421354B1A6A2E
:102F40000A431A621A6A03390A431A628EE6042196
:102F5000304D02266B6B0B436B636B6B1A436A63DA
:102F6000FFF7A0F9070005E0FFF79CF9C01B022856
:102F700000D94EE76B6B1E42F6D0F8216A6BA3694D
:102F80008A43DB0013436B6323689EE62B68244A65
:102F9000802613402B60FFF785F9B604070005E093
:102FA000FFF780F9C01B022800D932E72B683342B3
:102FB000F6D10F22EB6A9343226B1343EB62A16AB3
:102FC000E36A6A680B43174980240A4013436B6025
:102FD00080232A685B0413432B60FFF763F90D4DD0
:102FE0000600A40405E0FFF75DF9801B022800D964
:102FF0000FE72B682342F6D0ABE68022054BD202C6
:1030000019680A431A608022196852020A431A603A
:10301000A4E5C0460010024088130000FFFFFEFF39
:10302000FFFFFFFEFF7FC2FF70B588B069461C4BF3
:103030000A00180070C870C200681033106004AA3B
:10304000100070CB70C01B68164D03600C206B68BD
:10305000184008280AD00C3843425841124B4042CD
:103060001840124B9C46604408B070BD0F209C0C69
:1030700004400C5DE96A0840115CC02280205202C5
:1030800013404002834201D0934204D00748FDF729
:1030900021F86043E8E70648FDF71CF86043E3E7E2
:1030A0001451000800100240005A620200127A0017
:1030B000006CDC02F8B5CE46474601230D005A49A4
:1030C00080B50A6806001A40AA4209D20A689A43E3
:1030D0002A430A600A681340AB4201D0012054E041
:1030E00033689A0706D5F02050494A688243B06891
:1030F00002434A60DB0729D572684C4B012A55D040
:10310000022A4ED0032A00D177E01B689B07E5D541
:103110000321464C63688B4313436360FFF7C2F897
:1031200073680700012B48D0022B56D0032B6AD0BE
:103130000C2398463E4B994604E0FFF7B3F8C01BBA
:10314000484538D8424663681A42F6D10121364ACA
:1031500013680B40AB421CD833685B0706D5334A73
:10316000344953680B40F1680B435360FFF75CFF31
:103170002E4B314A5B681B061B0FD35CD8402F4B8C
:1031800018600020FFF764F800200CBC90469946B8
:10319000F8BD13688B43136013681942DCD001201B
:1031A000F3E71B689B01B3D40120EEE71B689B0388
:1031B000AED40120E9E70320E7E70B3398461C4B28
:1031C000994604E0FFF76EF8C01B4845F3D8424625
:1031D00063681340042BF5D1B8E70A339846144BC3
:1031E000994604E0FFF75EF8C01B4845E3D8424625
:1031F00063681340082BF5D1A8E75B6BDB0300D5B0
:1032000086E70120C1E709339846094B994604E057
:10321000FFF748F8C01B4845CDD8424663681340C5
:103220000C2BF5D192E7C04600200240001002406E
:1032300088130000FFF8FFFFA051000844000020A1
:10324000014B18687047C0464400002010B50028A4
:1032500014D085239B00C458002C01D00024C450F6
:10326000002902D084239B00C150FE2301215B0072
:10327000C1540270FDF706F9002010BD0220FCE7E2
:10328000002904D085239B00C150002070470220F4
:10329000FCE7C04610B5FDF73DF9002010BDC04663
:1032A00085239B00C35810B5002B04D01B6898479A
:1032B000002800D110BD0220FCE7C046852310B5D0
:1032C0009B00C3585B689847002010BD82239B0079
:1032D00070B5C5180400280000F0FCFAFA2301229A
:1032E0005B00E250124BE25A163BE2501033E15CB5
:1032F000EA3BFF3B0B40012B0AD0002B12D0022BE4
:103300000BD07F2320009943FDF736F9002070BDD4
:103310002900200000F04AFAF8E72900200000F018
:1033200067FAF3E72900200000F0E4F8EEE7C04672
:103330000E02000010B513000400002906D1FA2285
:1033400052008258032A0ED0002010BD85239B0016
:10335000C3589B69002BF7D0FE225200825C032ADF
:10336000F2D19847F0E70530FF308168C26891429A
:1033700010D885239B00E3581B69002B06D0FE2242
:103380005200A25C032A01D120009847200000F0DF
:103390000DFBD9E7891A81608A4205D892B21900DB
:1033A000200000F0FBFACFE70A00F7E7F8B50400C9
:1033B000130000290DD1FA2252008258022A15D09A
:1033C00080239B00E25C012A01D10022E25400200C
:1033D000F8BD85239B00C3585B69002BF7D0FE2204
:1033E0005200825C032AF2D19847F0E7C269056A6D
:1033F000AA4223D8866929003000FCF7A7FE0F1ED9
:103400000DD1B5420BD8FC256D0063599E4206D202
:1034100000220021200000F0A9FA675114E0852362
:103420009B00E358DB68002B04D0FE225200A25C14
:10343000032A10D0200000F0C5FAC1E7521BC26178
:10344000190092B200F092FA00230022002120001D
:10345000FDF7EAF8B4E720009847EBE770B54023A2
:10346000002200210400FDF765F8882340255B0059
:10347000E5500022D03B80212000FDF75BF8FE23C1
:1034800001225B002562E2541C33E358002B06D076
:1034900085239B00E35821795B6820009847002032
:1034A00070BDC046017400207047C046FE23FE2256
:1034B0005B00C15CFF328154FA3AFF3AC2540020EB
:1034C0007047C046FE23FF33C25C013BC25400205C
:1034D0007047C046FE2310B55B00C35C032B01D0D0
:1034E000002010BD85239B00C358DB69002BF7D05B
:1034F0009847F5E770B54B7882B004000D00092BB2
:103500000AD8A64A9B00D3589F468B88002B03D12C
:10351000CB88002B00D176E080212000FDF72CF82D
:1035200000212000FDF728F8002002B070BD8B7844
:103530009B4D2B70012BEFD8FE214900425C022AE3
:1035400079D0032AE8D1002B00D11DE1416801297F
:103550003CD0C9B2FFF7B2FE297820006160FFF7C6
:103560009FFE022832D1D7E7FE235B00C35C023BFB
:10357000012BD1D80123C36081239B00C358002BAA
:1035800001D00323C360210002220C31200000F08F
:10359000DFF9C9E7FE235B00C35C023B012BBBD80C
:1035A0004B88012BC0D1812300229B00C2501033D5
:1035B00007E04B88012BB7D18122920083508523ED
:1035C0009B00E35829009B6820009847200000F0EA
:1035D000EDF9A9E74A88130A072B9DD871499B008A
:1035E000CB589F46CB88012B00D095E7FC33FF33A7
:1035F000C35C022B2BD0032B00D08DE7011D0122D1
:1036000000F0A6F990E7FE267600835D032B00D13B
:1036100082E77F254B881D40FF235B00C5542900AE
:10362000FCF7E2FF200000F0C1F9002D00D1A0E07E
:103630000223A35578E7002BC8D00123436002334F
:1036400043540121FFF72CFE0228BFD164E7002379
:10365000010083600831012200F07AF964E76B46CB
:103660009E1D84239B00E358007C1B683100984713
:103670003388002B00D157E7EA88002A00D153E7AE
:10368000191C934200D9111C8AB23180010020001C
:1036900000F05EF948E7037C002B00D03CE76B4666
:1036A0009E1D85239B00C35830001B6B9847072342
:1036B0004370DDE7037C002B00D02DE76B469E1D99
:1036C00085239B00C35830005B6B9847D0E7D2B28C
:1036D000052A00D920E7344B92009B589F4685234A
:1036E000027C9B00C358002A46D16A46961D9B6AFD
:1036F0003000984702234370BAE76B469E1D84232F
:103700009B00E35831005B69007C9847B0E76B464B
:103710009E1D84239B00E35831005B68007C984722
:10372000A6E76B469E1D84239B00E35831009B69EE
:10373000007C98479CE76B469E1D84239B00E358C2
:103740003100DB68007C984792E76B469E1D84231E
:103750009B00E35831009B68007C984788E76B46E4
:103760009E1D84239B00E35831001B69007C984711
:103770007EE70123A355D7E66A46961DDB6A300033
:1037800098470223437073E70222425443600021AA
:10379000FFF794FD200000F009F9C5E6B0510008DC
:1037A00040080020D8510008F8510008FE2370B5E9
:1037B0005B00C35C04000D00032B0ED10B79012BC1
:1037C0000BD885239B00C3589B689847EB88002B38
:1037D0000BD1200000F0EAF807E080212000FCF780
:1037E000CBFE00212000FCF7C7FE002070BDC046C4
:1037F00070B50C00602305008A882078D1B20340A0
:10380000202B21D06378012B35D0002B43D0032B04
:1038100018D1FA33FF33EB5C022B26D0032B1BD1DC
:103820006388002B04D14B0602D02800FCF7A4FECD
:1038300085239B00EB5821009B68280098472800AF
:1038400000F0B4F8002070BDF533FF33EB582100D1
:103850009B6828009847F5E780212800FCF78CFE3C
:1038600000212800FCF788FEECE74B06EAD0280090
:10387000FCF782FEE6E7FE235B00EB5C022BF4D054
:10388000032BE9D16388002BDCD14B06D7D028006D
:10389000FCF782FECCE7FE235B00EB5C022BE4D05E
:1038A000032BD9D17F240C40240113060ED40534F8
:1038B000FF342C192800FCF77FFE431E984102229A
:1038C00020602100280000F043F8BBE714342C19D5
:1038D000F0E7C0460B7803704B784370CA788B785A
:1038E00012029B1843804A790B7912029B1883803D
:1038F000CA798B7912029B18C380704770B5002873
:1039000021D00378002B1FD001260300361A9C1902
:1039100001331D78E4B2002DF9D101346400E3B223
:1039200014800B7003234B700478002C0BD00025FF
:10393000013B5A1CD2B2CC5401308D54047802336E
:10394000DBB2002CF5D170BD02230224E8E7C046AB
:103950001300FA2210B50224520084500A00836139
:10396000C3610021FCF750FE002010BD10B513000C
:103970000A000021FCF748FE002010BD1300FA22C7
:1039800010B5032452008450EC3A83500432835023
:103990000A000021FCF748FE002010BD10B51300FE
:1039A0000A000021FCF740FE002010BDFA2304228B
:1039B00010B55B00C250002100230022FCF724FE5A
:1039C000002010BDFA23052210B55B00C250002173
:1039D00000230022FCF728FE002010BD86239B0058
:1039E000C358002B05D08522002100209200995059
:1039F00070470220FCE7C04687239B00C35870B580
:103A0000002B0ED08622802592008458AD00605D88
:103A1000FF2806D0044A9B68A25C21009847FF2338
:103A20006355002070BDC04601020000432303809F
:103A300000487047800000204323038000487047FF
:103A4000C400002043230380004870471401002075
:103A50000A230380004870470801002070B58626BD
:103A6000B60004008559FCF7EFFD83239B00E85066
:103A7000A359002B0AD083239B00E918083BE85880
:103A80001833E358DB689847002070BD0220FCE73C
:103A9000602370B50C00097805000B4017D0202B6F
:103AA00013D1E2886078002A19D0F933FF3349B284
:103AB000EE5800291BDA0433EB5831009B68984715
:103AC000E28831002800FFF743FF002070BD6378D3
:103AD0000A2BFAD101220B49FFF73AFFF5E78723BA
:103AE0009B00EB5800229B6821009847EDE780235C
:103AF0009B00F054044B3100F2542800FFF73EFFC6
:103B0000E3E7C046410800200102000070B5040050
:103B100086258121FCF720FD01212000FCF71CFDFA
:103B2000AD0082212000FCF717FD6359002B09D05E
:103B300087239B00E3585B6898476059FCF790FD2A
:103B400000236351002070BDF8B5037C0400002BF6
:103B50003CD1802302229B008121FCF7EBFC8023D7
:103B600002229B0001212000FCF7E4FC87270823A8
:103B7000032282212000BF00FCF7DCFC86263800EF
:103B8000FCF76AFDB600051EA0512BD0E3591B6857
:103B90009847852200239200AB50AB51237C002B29
:103BA0000AD081239B00EA58C53BFF3B012120003E
:103BB000FCF73AFD0020F8BD81239B00EA58012163
:103BC000043B2000FCF730FD0020F4E740230222F4
:103BD0008121FCF7AFFC4023022201212000FCF7E9
:103BE000A9FCC3E70120E6E7002904D087239B0056
:103BF000C150002070470220FCE7C04686239B008E
:103C0000C3588220800019508421890000205A5016
:103C10007047C04686239B00C258143B0020D150F9
:103C20007047C04686239B00C25810B5002A13D0A7
:103C30008521890054580123002C01D0180010BDA3
:103C4000535084230C399B00D35A52588839FF397A
:103C5000FCF7DAFC0023F1E70223EFE786239B0061
:103C6000C35810B5002B12D0812292009A58037CC1
:103C7000002B05D040230121FCF7D6FC002010BD0D
:103C8000802301219B00FCF7CFFC0020F7E70220F6
:103C9000F5E7C0461348854613480168090E134AE4
:103CA000914205D11248134901601348134901603C
:103CB000002103E0124B5B58435004311148124B72
:103CC00042189A42F6D3114A02E0002313600432EC
:103CD0000F4B9A42F9D3FCF7B3FD01F017F800F04F
:103CE0002DF9FEE700180020040000001F0000006E
:103CF0001810024001000000000001400000000018
:103D00006C53000800000020880500208805002072
:103D1000940F0020FEE700007047C046902010B5C9
:103D2000094C00228021C005FEF742FC2000002241
:103D30000121FEF73DFC0022044B182120001A70DF
:103D4000FEF736FC10BDC04600040048E008002025
:103D500070B5134D134C2B68002B03DB2378002B1D
:103D600019D070BD2378002BF8D1012201210E4813
:103D7000FEF71EFC902001228021C005FEF718FCF2
:103D8000FA230122DB00182107482B60FEF710FC04
:103D90002378002BE5D1FEF785FA044B1860E0E7A5
:103DA000E4080020E008002000040048D8080020B3
:103DB000382330B599B00B93373B1393109312937C
:103DC000C0235B02102200240225159305230BA8B3
:103DD0001192179314951694FEF798FE072300216D
:103DE00001A80193029503940494FFF763F9C0239B
:103DF0009B020593802305A89B0006930A94FEF777
:103E000081F9FFF71DFAFA218900FCF763F9FEF743
:103E100019FC0420FEF732FC012000220021404260
:103E2000FEF7DAFB19B030BD8021F0B53A4C09033A
:103E300062698BB00A436261636900250B4080218F
:103E40000193019B6269C9030A43626163690326A6
:103E50000B400293029BE02390271B0205A92F48E9
:103E6000059306960795FEF7C9FA2D4B05A92D482F
:103E700005930696FF050795FEF7C0FA2A4B05A99C
:103E80003800059306960795FEF7B8FA0696274E72
:103E9000274B05A9300005930795FEF7AFFA80215F
:103EA0006369244A8902134063616369224A3000CE
:103EB0001340636162690A43626163690B40802158
:103EC0000393039B6269C9020A4362616369012427
:103ED0000B400493049B182305A9059306940795AA
:103EE0000895FEF78BFA002230001821FEF760FBE0
:103EF000802305A938000593069407950895FEF7D9
:103F00007DFA05A930000694079508950594FEF7FB
:103F100075FA0BB0F0BDC046001002400008004822
:103F200003080000001400487F87000000040048D8
:103F3000E6FC0000FFFFF7FFFFFFBFFF734BF0B58C
:103F4000DE469B46574600234E4645465A46E0B558
:103F500013706F4E6F4A704D9246356013706F4A02
:103F6000A9B013606E4A14AF13609146FEF782F950
:103F7000FFF71EFFFCF7F6FBFFF756FF9621694A95
:103F8000C9003800FCF750FEE521674C674A8900FC
:103F900038002760FCF798FEE421654F89003A005D
:103FA0002068FCF791FEE6213A0020688900FCF7C2
:103FB0008BFE012218215F48FEF7FAFAC820FEF7AF
:103FC00077F9002218215B48FEF7F2FAC820FEF7C5
:103FD0006FF9012218215748FEF7EAFAC820FEF7C8
:103FE00067F9002218215348FEF7E2FA002408AFCF
:103FF000A8465CE04B46F4221B68FF32EB1A934262
:1040000003D953461B78002B5DD14B461B68EB1A36
:10401000AE2B5ED953461B78002B5AD13268464BE3
:104020009A4260DD5B461B78002B3CD0F4212800CF
:10403000FF31FCF78BF8002935D10A2239003068AE
:1040400000F09EFE380000F05FFF03223B49381865
:1040500000F09AFE4B4618680A2204A9281A00F0BC
:104060008FFE380000F050FF04A9381800F028FF38
:104070000322324900F088FE6B460A22188804A900
:1040800000F07EFE380000F03FFF04A9381800F071
:1040900017FFC41B2A490222013400F075FEA1B2A9
:1040A0003800FCF74FF90120FEF702F92C00FEF76B
:1040B000F9F80500FCF764FE33685B1B1C193460DB
:1040C0003368434596DA43460022336053461A70FC
:1040D000A8E73368002BA5DA33683133A2DB3268F6
:1040E000154B9A429EDC002201211248FEF760FA2D
:1040F0003368002B01DD0023336052460123102179
:1041000013700C480022FEF753FA8BE74208002098
:10411000E4080020E00800200CFEFFFFDC0800207F
:10412000D8080020193D0008D4080020513D00089F
:104130001D3D000800040048E7030000105200087D
:104140001452000810B5002218210248FEF730FA78
:1041500010BDC0460004004803685A0004D5802200
:1041600012061343C01870475B005B08FAE7F0B50E
:1041700085B0029015000E1E26D000274B1E01931D
:104180000093009BFB18DC0FE4186410E30003931A
:10419000029BE2009E183000FFF7DEFF019BA34266
:1041A00015D0A84204D9A7420DD0631E0093E8E7BA
:1041B0000398029B08301818FFF7CEFF0138A84279
:1041C00002D2671CDDE70026300005B0F0BDA84232
:1041D000E9D8F9E7054B012806D0054B022803D0A2
:1041E0000023984200D1034B18007047EB470008AA
:1041F000F5470008E1470008214B37B504008D1E44
:10420000002B09D001A9280000E000BF002808D138
:1042100000232361093313E01A481B4B1B1ADB10E0
:1042200001932A000199FFF7A2FF051EF0D0FFF7C6
:1042300093FF6B68A064012B04D100232361053335
:1042400018003EBD281D002B0FDA0123E064E06C4E
:1042500023650368002B0DDA1801000FFFF7BAFF82
:10426000002320619842EBD1D4E7FFF775FF0023CC
:10427000E064ECE7FFF770FF00232061E0E7C04651
:10428000000000005052000860530008036810B599
:104290000400DA0704D448309B0719D5FBF77CFFEC
:1042A00023685B0703D42000D030FBF779FF236835
:1042B0001B0704D420005130FF30FBF775FF236843
:1042C000DB0604D42000D130FF30FBF771FF10BDB6
:1042D000FBF75EFFE4E70368002B00D01B18180013
:1042E0007047704770B505000C00216C2800FFF77F
:1042F00083FF061E01D000F0E5FC236C22006B61F9
:10430000290001202B6998470828EED00728F2D110
:104310003000216CFFF7E5FF201DFBF723FF0000B5
:10432000F0B52B4CC368A5440493836906001500BF
:104330000431402207A8059300F026FD002306ACB7
:1043400006930293216C3000FFF756FF6B1E9D41D0
:1043500007000390093500282FD1F022236C52006A
:10436000736121007EA800F00FFD33697EAA310041
:10437000280098478C9B02906364059B2900019359
:104380000094330032000120049DA847002818D172
:10439000002F18D1F0227EA95200200000F0F4FC7A
:1043A000029B3D00082BCDD0072B0AD13800216C91
:1043B000FFF797FF07A8FBF7D5FE10231D43A36B5C
:1043C000DAE7092303930398F7239B009D44F0BD8C
:1043D00024FCFFFF70B5CB6BF8B00B6404000D003C
:1043E0004022043101A800F0CFFC01235B4200937E
:1043F00010992000FFF700FF00280FD16A46210026
:104400002369984706000828F2D06846FFF73EFF68
:10441000062E03D129002000FFF764FF092078B0A1
:1044200070BD10B58261DA6BC1601A641900002298
:10443000FFF776FF10BD70B54369C66805000C0034
:104440000B64002E04D00122FFF76AFF00F03AFC53
:104450000A002B69010002209847072805D0082888
:10446000F4D121002800FFF73DFF3000216CFFF759
:1044700038FF201DFBF776FEC36810B5002B02D174
:10448000FFF7A8FF10BDCB6B00220B64FFF748FFBE
:10449000F8E710B50400042905D80800FBF710FE62
:1044A000051103111100022010BD0220002BFBD1C9
:1044B0000F2AF9D88240A2185168029A1800116098
:1044C000F2E70120F0E71FB503AB009300230A00D9
:1044D0001900FFF7DEFF039805B000BD10B504001A
:1044E000042905D80800FBF7EBFD051103111100A5
:1044F000022010BD0220002BFBD10F2AF9D88240E8
:104500000299A218096818005160F2E70120F0E74B
:104510001FB503AB0093002303920A001900FFF7B5
:10452000DDFF05B000BD000070B5184CD36BA5448D
:10453000136404000D0017A8111D402200F024FC94
:1045400001235B42169326996846FFF755FE002823
:1045500013D10C2116A86A46FFF7DAFF290016A826
:10456000A047002809D1049B16AA6946083098473D
:104570000600052802D00928E5D1092616A8FFF76C
:1045800085FE30008E239B009D4470BDC8FDFFFF5B
:10459000F0B50C008DB0079303210300E76C0B40CE
:1045A00006900193079808CF160009AA57600028C3
:1045B00023D11B0209931181019B022B00D1A76B10
:1045C0000122236D134000D105E10023059309A9C1
:1045D000300000F03AFA002800D0AAE0059B08203D
:1045E000002B57D00F213000FFF76DFF0E21020086
:1045F0003000FFF78DFF794A21E0190C1B04099365
:1046000002235172C9B2994013727F18D4E73B88D4
:104610003D1D02937B88049368E0019B2F1D002BB6
:1046200057D0002A55D02800FFF796FDA763050054
:10463000200000E000BF002800D17AE02A000F210E
:1046400040E00199002929D1002A40D02A68D70FDB
:104650006A68911C00D16CE0210058310891013248
:104660001AD0281DFFF737FE3A00010008AB2000E2
:1046700000E000BF071E2AD00D213000FFF723FF06
:10468000089B2062022F02D1E36223002C33062014
:104690006362A5620DB0F0BD1F00EDE70D21300093
:1046A000276AFFF710FF874211D1A36A9D420ED1FE
:1046B0002800FFF751FD0F2102003000FFF728FF0F
:1046C000220000213000FFF723FF0720E2E7083532
:1046D0002F003B680293002B00D178E7079B022B49
:1046E00000D094E73D007B6808350493039B049F4A
:1046F0000F219F43A36C3000FF18FFF7E4FE002258
:10470000874206D8029A039B9A43D719B842804140
:104710004242049B03995F0002231F40029B0B400F
:104720003B43012B00D18CE7002B00D175E7022B16
:1047300001D00920AEE72B68580043080293019B83
:10474000002B2BD1002A20D0069B1B0709D5029BEA
:10475000002B1AD10D213000FFF7B5FE089B206217
:1047600095E7019F029B9F42F4D023000137B800D8
:10477000583328180893FFF7AEFD08AB010000225C
:10478000200000E000BF0028ECD02B68002B00DAEE
:104790000435029F0137BF00EF199AE70D21300061
:1047A000276AFFF790FE8742EFD1A36A9D42ECD1C2
:1047B000029B0027A36204232363EB18E762636371
:1047C0002B68BB4204DA029801308000281870E799
:1047D000039B0593D9E7059303927AE70000000055
:1047E00010B50023FFF7D4FE10BD10B50123FFF76D
:1047F000CFFE10BD10B50223FFF7CAFE10BDF0B505
:104800000400C5B016001D0004295AD80800FBF7A3
:1048100057FC031B58AAD1000220002B12D1A36B16
:1048200092B2201D0127AF403A4204D080CBBC4653
:104830006146AF00C1510135102DF3D10020B20403
:1048400000D4A36345B0F0BD93B2170C01932A00C6
:1048500004239A43012A34D1019BFE18012D00D074
:10486000CDE0102E2DD80F2F2BD800260122236843
:1048700013420BD019002000914321604830052DD0
:1048800021D102230B432360FBF788FC002E09D0C3
:1048900004222368134205D0200093432360D030C4
:1048A000FBF780FC012D14D122A8FBF773FC002E2E
:1048B00019D1019B002618E0102ED6D9103E052DE7
:1048C000D4D00220BEE7032293432360FBF762FCAF
:1048D000DCE70F2F02D822A8FBF760FC002EE8D0FF
:1048E00002A8FBF75FFC1023DB1BA16B0A00002B67
:1048F0000CDDDB00CA1894460A00F8000193401A48
:1049000022AB181862451FD1019BCA18002E10D087
:104910003B00102F00D21023103B02A9DB005B18D4
:10492000F1008C4600215058585004318C45FAD182
:104930006244012D00D10432A263012D08D122A8C6
:10494000FBF726FC00207DE7136883500432D9E78B
:104950000F2F02D822A8FBF71FFC002EF2D002A8CE
:10496000FBF71EFCEEE7032BABD1150C96B2AB198F
:10497000102BA6D808222368134206D020009343A8
:1049800051302360FF30FBF711FC22A8FBF70EFC2F
:10499000A36BED00F600ED1A22AA9E1955199E424E
:1049A00004D1A66322A8FBF7FFFBCBE71A68EA5005
:1049B0000433F4E7002B84D1102A82D81022236814
:1049C000134206D020009343D1302360FF30FBF721
:1049D000F1FB22AD2800FBF7EDFB00220121A36BC8
:1049E00008009040064202D080CB90002F50013248
:1049F000042AF5D1A3632800FBF7DAFBA2E7202EF7
:104A000000D95EE70F2F00D856E7019E002E00D197
:104A10004FE7052D00D054E73AE7027A0300002A59
:104A200011D1427AB020002A0CD0013A5A725A6849
:104A3000111D126859601A6003221A721A68100E4A
:104A400012021A607047013AF7E7F0B5002305003B
:104A50000F0087B002933800FFF7DFFF0400B02893
:104A600015D10024029BA3420ED105AE23000E22D5
:104A7000210000962800FFF70CFD009623000F226E
:104A800021002800FFF72AFD200007B0F0BD030633
:104A90001AD4FF2386001E4005AB009300230D228D
:104AA00019002800FFF7F5FC059A0436B3186106D3
:104AB00000D5931B059305AB009300230D2219002D
:104AC0002800FFF70BFDC6E703000F229343DBB27C
:104AD000802B1AD104023800FFF79FFF8026044381
:104AE0003602B44201D10924CEE723010393002307
:104AF0002405220C19002800FFF781FE0028F2D1BE
:104B0000039B3342A7D00123A4E7902B0FD10D269E
:104B100003003340B342E6D000230F2205AC02402D
:104B2000009419002800FFF7B4FC0094C5E7A02BFF
:104B30000FD1FF2307221B011900824311410A00F4
:104B40001A40030702D58023DB011A430023190012
:104B50000FE0B02B56D1B12812D13800FFF75DFF1E
:104B6000021EC0D001000F239943C9B20029BAD157
:104B70000B002800FFF743FE002800D16BE7B2E7E7
:104B8000B22823D1002305AC0D221900009428007F
:104B9000FFF77FFC3800FFF740FF02267F2303402A
:104BA000B3408021059A01409B18002908D1812239
:104BB00092009B18F83A059300940B00FF3A7FE7A8
:104BC000380005930736FFF728FFE7E7B3280CD135
:104BD0003800FFF722FFF02302031B0313400F22CC
:104BE000024001321A430123B1E7FC230340B42BF6
:104BF00000D178E7072380221C40013412032243AE
:104C0000063BA4E7C02B4ED1C6280CD13800FFF7D5
:104C100004FFF02302031B0313400F220240013262
:104C20001A43032393E7C7280ED13800FFF7F5FE98
:104C3000021E00D157E703000F218B43DBB2002B8C
:104C400000D050E70B3994E7030007229343DBB20F
:104C5000C02B07D1A022B13B1C40013412032243D8
:104C60000C3B74E7C8280ED13800FFF7D6FE0F239F
:104C700002009A43D2B218401032120301300243AC
:104C80000A3B012175E7C92800D02CE73800FFF75F
:104C9000C4FEF02302031B0313400F220240013223
:104CA0001A430523EDE7030007229343DBB2D02B21
:104CB00000D018E714408022013412032243CB3B7A
:104CC000DFE7000010B5062000F0D8F8012000F062
:104CD00013FAC04610B5010000230022002000F0A6
:104CE00087F910BD70B5074D074C641BA41005D0A3
:104CF000013CA300EB589847002CF9D100F004FACE
:104D000070BDC046685300086C53000870B50C4D68
:104D10000C4E761BB61005D0002408CD0134984700
:104D2000A642FAD100F0EAF9074D084E761BB610FC
:104D300005D0002408CD01349847A642FAD170BDB1
:104D4000605300086053000860530008685300086F
:104D5000931E10B50C00222B0DD80A2A04D0210076
:104D600000F006F9200010BD0028F8DA2D2340429B
:104D70000B700131F4E7002300200B70F3E7C0460D
:104D800010B5FFF7E5FF10BDF0B50F2A3DD90C00B7
:104D900004430D000300A4073CD11400103C240977
:104DA00027013F1800E033002E681E606E685E60C9
:104DB000AE689E60EE681035DE601E001036BB42A5
:104DC000F1D10F250C2301342401091915400419D0
:104DD000134222D00023CE58E6500433EE1A032E9D
:104DE000F9D80323043DAD080135AD001A4064191C
:104DF0004919551E002A07D0002300E01300CA5CA1
:104E0000E2545A1C9D42F9D1F0BD0400551E002AFF
:104E1000F2D1F9E7551E0400EEE72A00F6E7C04696
:104E200070B505000C001F2922D8B7239B00C3587A
:104E3000002B0ED08A009B181A68002A09D0012A7C
:104E400014D0511C0ED00021200019609047002082
:104E500070BD280000F030F822000100280000F0AA
:104E600017F8F5E7162303600120F1E70020EFE7CC
:104E70001623036001204042EAE7C04610B5034B09
:104E800001001868FFF7CCFF10BDC0465801002094
:104E9000002370B5074C050008001100236000F0E6
:104EA00023F9431C00D070BD2368002BFBD02B607E
:104EB000F9E7C046900F002010B500F00DF910BDC5
:104EC0000B00034330B504009B0710D10B680C4A5C
:104ED0000C4D9A189A432A4209D104312360084A9A
:104EE0000B6804309A189A4304002A42F5D0030054
:104EF0000A7818001A7001310133002AF8D130BD48
:104F0000FFFEFEFE8080808010B5830727D00378E7
:104F1000002B26D00300032102E01A78002A1CD0BF
:104F200001330B42F9D119680F4A104C8A188A4391
:104F300022420FD1043319680B4A8A188A4322424D
:104F400008D104331968084A8A188A432242F1D0EA
:104F500000E001331A78002AFBD1181A10BD0300B3
:104F6000E1E70020FAE7C046FFFEFEFE8080808079
:104F7000F0B54746CE4680B58BB0E84617004246AE
:104F80001A4B06000D0013CB13C213CB13C213CB65
:104F900013C21B781370BB1E222B23D86B1E002458
:104FA000994601E01C00060039003000FBF7CEF8FE
:104FB0004246525C4946631CCA54B742F2D90022A9
:104FC000EA540023002C07D0EA5C295DE9542A55F5
:104FD0000133013CA342F7DB28000BB00CBC904628
:104FE0009946F0BD002300202B70F6E71C52000804
:104FF000F8B5DE469B46304B45461C68A4234E461A
:1050000057465B00E0B50500E0580E0090460028CA
:105010004AD043681F2B31DC5C1C002D0AD10233BF
:105020009B0044601E5000203CBC90469946A2461E
:10503000AB46F8BD9A0091468144424688214F46CE
:105040007A50C422520090468044424687399940A3
:1050500012688A460A439446424661461160842299
:1050600049465F4652008F50022DD8D10200554666
:105070008D32FF3211680D431560D0E70F4B002BC6
:1050800017D0C820400000E000BF002811D0A422A3
:1050900000235200A15843600160A0504032835069
:1050A000043283500124B8E720004D30FF30E05037
:1050B000AFE701204042B7E71852000800000000A7
:1050C000034B10B5002B02D00248FFF703FE10BDC2
:1050D00000000000E54C000858220120014B40422E
:1050E0001A607047900F002058220120014B404267
:1050F0001A607047900F0020FEE7C046F8B5C04622
:10510000F8BC08BC9E467047F8B5C046F8BC08BC61
:045110009E46704700
:1051140002030405060708090A0B0C0D0E0F1010F4
:105124000102030405060708090A0B0C0D0E0F10F3
:10513400000201025372632F757362645F636F6EC2
:10514400662E630043444320436F6E666967000024
:1051540043444320496E74657266616365000000D0
:10516400436564617276696C6C6520556E69766519
:10517400727369747900000043616E4E6F64652038
:1051840043414E2044657669636500003030303019
:105194003030303030303141000000000000000079
:1051A400000000000102030406070809683500082E
:1051B4009435000818350008B23500081835000881
:1051C4000A350008D435000818350008E43500080D
:1051D4002E350008183500085E360008DE36000853
:1051E400CE3600081835000818350008B436000813
:1051F400963600080E3700084A370008363700088C
:105204005E370008FA360008223700082C20000018
:105214000A00000060010020303132333435363763
:1052240038396162636465666768696A6B6C6D6E60
:105234006F707172737475767778797A00000000F4
:0C52440080280181B0B0ABF00000000039
:1052500050B6FF7FB0A90680E8B6FF7F01000000CE
:105260008CB7FF7FB0AB0E8098B8FF7F01000000C5
:10527000B8B9FF7FAB07B18050BAFF7FB0B0AA804A
:105280008CBAFF7FAA0FB180D4BAFF7FB0B0A880DC
:10529000F0BAFF7FAB08B18088BBFF7F0100000040
:1052A0007CEAFF7FB0B0A880A8EAFF7FB0B0AA80F8
:1052B00000EBFF7FB0A9188070EBFF7FB0AB0A80D6
:1052C0007CECFF7F80FFFF7F7CEEFF7FB0B0A8808B
:1052D00088EEFF7F0100000020EFFF7FA907B1806B
:1052E000ACEFFF7FB0B0A880EEEFFF7F01000000C1
:1052F000F4EFFF7FB0B0AA8028F0FF7FAB76B280DA
:10530000D4F0FF7FAA3F37801AF1FF7FB0B0A880AA
:1053100026F1FF7FB0B0AA8060F1FF7FB0B0A88017
:1053200072F1FF7F0100000000F2FF7FAA0DB28042
:1053300060F2FF7FB0AB0C80A8F4FF7FB0B0A88014
:10534000BEF4FF7FAB3F0480D2F6FF7F0100000078
:10535000FAF6FF7FB0AB06806AF9FF7F010000001C
:08536000C1500008D102000851
:04536800A90200088E
:10536C0005030008F102000825030008F5020008F7
:10537C009D070008A9070008B5070008D107000819
:10538C00ED070008090800082508000812010002B2
:10539C000202004083044057000201020301000096
:1053AC000403090400127A00493B00080D3B000875
:1053BC00913A000800000000F9390008DD390008B6
:1053CC005D3A000800000000000000000000000032
:1053DC00393A00082D3A0008453A0008513A0008BD
:1053EC0009024300020100C032090400000102025C
:1053FC00010005240010010524010001042402020F
:10540C0005240600010705820308001009040100A9
:10541C00020A000000070501024000000705810296
:10542C004000000009024300020100C032090400E0
:10543C0000010202010005240010010524010001F5
:10544C00042402020524060001070582030800104B
:10545C0009040100020A0000000705010200020015
:10546C0007058102000200000A060002000000404D
:10547C000100000009074300020104C032090400C6
:10548C0000010202010005240010010524010001A5
:10549C00042402020524060001070582030800FF0C
:1054AC0009040100020A0000000705010240000087
:1054BC000705810240000000600100200000000090
:1054CC00000000004C040020B40400201C05002047
:1054DC0000000000000000000000000000000000C0
:1054EC0000000000000000000000000000000000B0
:1054FC0000000000000000000000000000000000A0
:10550C00000000000000000000000000000000008F
:10551C00000000000000000000000000000000007F
:10552C00000000000000000000000000000000006F
:10553C00000000000000000000000000000000005F
:10554C00000000000000000000000000000000004F
:10555C00000000000000000000000000000000003F
:10556C00000000000000000001000000000000002E
:10557C000E33CDAB34126DE6ECDE05000B000000F3
:10558C00000000000000000000000000000000000F
:10559C0000000000000000000000000000000000FF
:1055AC0000000000000000000000000000000000EF
:1055BC0000000000000000000000000000000000DF
:0400000508003C951E
:00000001FF
