:020000040800F2
:1000000000180020993F0008D1070008D507000814
:1000100000000000000000000000000000000000E0
:10002000000000000000000000000000E9070008D8
:100030000000000000000000EB070008ED070008CA
:10004000194000081940000819400008194000082C
:10005000194000081940000819400008194000081C
:100060001940000819400008F907000809080008AD
:1000700019400008194000081940000819400008FC
:1000800019400008000000000000000019400008AE
:10009000000000001940000819400008194000083D
:1000A000000000001940000819400008194000082D
:1000B000194000080000000019080008290800087D
:1000C00002B4714649084900095C49008E4402BCEB
:1000D0007047C04603B47146490840004900095AB8
:1000E00049008E4403BC7047002934D0012300220C
:1000F00010B488422CD301242407A14204D28142A7
:1001000002D209011B01F8E7E400A14204D28142B6
:1001100002D249005B00F8E7884201D3401A1A4333
:100120004C08A04202D3001B5C0822438C08A0426A
:1001300002D3001B9C082243CC08A04202D3001B20
:10014000DC082243002803D01B0901D00909E3E79A
:10015000101C10BC704701B5002000F00BF802BD68
:100160000029F8D003B5FFF7C1FF0EBC4243891A3E
:100170001847C0467047C046011C343138C9043B9B
:100180009C461D60A646011C20313CC990469946FC
:10019000A246AB46011C0831FCC941680068E5462F
:1001A00000BDC0467047C0467047C0467047C04655
:1001B0007047C0467047C0467047C0467047C0464B
:1001C0007047C0467047C0467047C04601B401A89A
:1001D00001B585B0FFB408A841464A4653465C467F
:1001E00065463EC001A83EC80F98009000230CB49D
:1001F00001A904F07FFB109B12B0184701B401A8BD
:1002000001B585B0FFB408A841464A4653465C464E
:1002100065463EC001A83EC80F98009000230CB46C
:1002200001A904F098FB109B12B0184701B401A873
:1002300001B585B0FFB408A841464A4653465C461E
:1002400065463EC001A83EC80F98009000230CB43C
:1002500001A904F0A1FB109B12B0184701B401A83A
:1002600001B585B0FFB408A841464A4653465C46EE
:1002700065463EC001A83EC80F98009000230CB40C
:1002800001AB04F05EFB109B12B0184701B401A84B
:1002900001B585B0FFB408A841464A4653465C46BE
:1002A00065463EC001A83EC80F98009000230CB4DC
:1002B00001AA04F0C9FB109B12B0184710B5064CF8
:1002C0002378002B07D1054B002B02D0044800E017
:1002D00000BF0123237010BD88050020000000002E
:1002E000DC540008044B10B5002B03D0034904482C
:1002F00000E000BF10BDC046000000008C050020DB
:10030000DC540008002070470020704710B5054CF1
:100310000100200003F020FE200003F024FE002056
:1003200010BDC046840D002010B5064C00220649C1
:10033000200003F006FE0549200003F00DFE00201A
:1003400010BDC046840D0020240B0020140B00209B
:1003500007B50B4B02689A4211D18020094A00046C
:10036000D1690143D161D3690022034001931F2069
:100370001100019B01F07EFE1F2001F0A5FE07BDCC
:10038000005C0040001002400100872310B59B0074
:10039000ED31FF31C05803F0ADF910BD1C234B43C4
:1003A000C318FC33DA69872310B59B00C05803F0EB
:1003B000D5F910BD1C234B43C3189A6B872310B586
:1003C0009B00C05803F004FA10BD872310B59B00B2
:1003D000C05803F08CFA10BD70B587240500A40046
:1003E0000121005903F06EFA285903F047FA70BD55
:1003F000872310B504009B00C05803F066FAA36978
:10040000002B04D00623024A11690B43136110BD6F
:1004100000ED00E0836910B50400002B06D0062132
:10042000054A13698B43136103F01CFF87239B006C
:10043000E05803F055FA10BD00ED00E0872370B5D9
:1004400005001E489B00C5501D4B882403600823EF
:10045000022243600023A40028518260C36002612D
:100460008361C361036200F063FD002804D0922120
:100470001448490004F0EAF8002228591100182312
:1004800001F0DEFD285958230022802101F0D8FD1B
:100490002859C0230022812101F0D2FD8823285948
:1004A0005B000022012101F0CBFD802328595B0075
:1004B0000022822101F0C4FD002070BD640B0020E9
:1004C000005C00401855000888239B00C05810B5F8
:1004D00000F074FD0223032801D8024B1B5C1800B6
:1004E00010BDC0461455000810B514001A002300B2
:1004F0008824A400005900F081FD0223032801D8BC
:10050000014B1B5C180010BD1455000888239B008C
:10051000C05810B500F0BCFE0223032801D8024BDE
:100520001B5C180010BDC0461455000888239B00B2
:10053000C05810B500F0FAFF0223032801D8024B7F
:100540001B5C180010BDC0461455000888239B0092
:10055000C05810B501F034F80223032801D8024B2B
:100560001B5C180010BDC0461455000888239B0072
:10057000C35848B21C22002806DA7F2001404A43B3
:100580009B182A33187870474A439B18FF33D87A50
:10059000F9E7000088239B00C05810B500F017FD54
:1005A0000223032801D8024B1B5C180010BDC04673
:1005B0001455000810B58824A400005901F06EF805
:1005C0000223032801D8024B1B5C180010BDC04653
:1005D0001455000810B58824A400005900F0F8FE56
:1005E0000223032801D8024B1B5C180010BDC04633
:1005F00014550008882310B59B00C05800F08CFFEC
:1006000010BD000000487047A4050020704700009E
:1006100007B501200D4A9169014391619369002258
:1006200003400430110001934042019B01F022FD80
:10063000002202201100404201F01CFD0022012096
:100640001100404201F016FD07BDC04600100240F7
:1006500010B5144B026886B09A4220D18020124A0D
:100660008004D16900240143D161D36901A9034009
:100670000093009BC0239B0001930223029301334C
:1006800004930A4801330593039401F025FC1E20CE
:100690002200210001F0EEFC1E2001F015FD06B045
:1006A00010BDC04600640040001002400004004835
:1006B0007FB5104B02689A4219D1C023DB00019329
:1006C000122390200293113B03930233049301A958
:1006D0000133C005059301F0FFFB8020064A80032B
:1006E000D1690143D161D36903400093009B07B0F6
:1006F00000BDC046005400400010024037B5154B05
:10070000026805009A4224D18020134A00019169B1
:10071000124C014391619369802203400193019B34
:10072000E2600F4B92182261802223600023D200E6
:1007300020006360A3606261A361E36101F05CFD7E
:10074000002803D0DC21074803F080FF2C62EC6214
:10075000656237BD002C01400010024044090020B2
:10076000580002402855000837B5144B02680500B0
:100770009A4222D10220124A124CD1690143D1611E
:10078000D369802203400193019B0F4BE2602360F9
:1007900010236360002392182000A360226163612C
:1007A000A361E36101F028FD002804D081210748FE
:1007B000490003F04BFFEC62656237BD0004004066
:1007C00000100240880900201C0002402855000843
:1007D0007047000010B501220821024801F026FCF4
:1007E000FEE7C046000400487047704710B501F0AE
:1007F00055FB01F09CFC10BD10B5024801F06EFDE8
:1008000010BDC0468809002010B5024801F066FD01
:1008100010BDC0464409002010B5024801F0A4FEF6
:1008200010BDC0460009002010B5024801F03CF898
:1008300010BDC046640B002010B5094C00220949C8
:10084000200002F019FF0849200002F02FFF07499D
:10085000200003F06DFB200002F031FF10BDC04608
:10086000840D00201000002048000020000000201F
:10087000122301480B8070472C00002004230148FC
:100880000B8070474000002010B5044C0A0004485B
:10089000210003F0F1F9200010BDC046A80F002090
:1008A0005955000810B5044C0A000448210003F013
:1008B000E3F9200010BDC046A80F00206F550008C6
:1008C00010B5044C0A000448210003F0D5F92000BB
:1008D00010BDC046A80F00208255000810B5044C7A
:1008E0000A000448210003F0C7F9200010BDC046EB
:1008F000A80F00204055000810B5044C0A00044819
:10090000210003F0B9F9200010BDC046A80F002057
:100910004B5500080121114B11481A680A431A600F
:100920005A6802405A601A680E4802401A601A68F3
:100930000D4802401A605A680C4802400F205A6065
:10094000DA6A8243DA621A6B094802401A635A6B08
:100950008A435A6300229A607047C04600100240E2
:100960000CB8FF08FFFFF6FEFFFFFBFFFFFFC0FF15
:100970002CFEFFFF30B51F4C87B02378062B31D1FA
:1009800080231D4A9B04D16901250B43D361802339
:100990000193002301A9194803930493029501F0E0
:1009A0009BFA1748FFF754FE164B1A682A431A6041
:1009B0005A682A42FCD0022001211A6882431A6038
:1009C0001148124A007812780004120502431048B8
:1009D00000880243DA611A68AA431A605A680A401A
:1009E000FCD1227000228021044801F01FFB07B0D7
:1009F00030BDC0460D080020001002400004004831
:100A0000C807002000640040C4070020C50700207C
:100A10000E08002000B5082832D81B491B4A1C4B81
:100A2000FFF74EFB050B0F151C21252A2F009F20D9
:100A300008800321117004220EE063200880022147
:100A400002E01F20088004211170032204E013201B
:100A500008800321117002221A7011E0072008801B
:100A600010700622F8E7072008800121E2E7012044
:100A7000088007211170F4E70220088010701870B8
:100A800000BD0120DAE7C0460E080020C4070020A0
:100A9000C507002010B50420FFF7BCFF044B054A32
:100AA0001A600022044B1A70044B06321A7010BDF3
:100AB000C8070020006400400C0800200D0800203A
:100AC000F0B501268DB008960A960196902600236F
:100AD000B60019001A001C00B44603930293059354
:100AE0000493099306930B9300938726304DB60029
:100AF000AE593700019E9E403E424AD08127BF003A
:100B0000EF59374242D06246DE007619B758B258E4
:100B1000120C12D091256246AD00B2587159120CD8
:100B200000291AD14001059002A922480793039792
:100B30000292023401F01CFC0CE00793009B039727
:100B4000002B00D005914001029002A9194801F044
:100B50000FFC0134E0B20DB0F0BD715975592D0C88
:100B60000BD140010591049002A912480793039705
:100B70000292033401F0FCFBECE7019D0434E4B283
:100B8000009501330C2BB0D10B48E4E70234E4B2FA
:100B9000F7E7009D002D01D00292059140010390DE
:100BA00002A90448079301F0E3FBA0B2D3E7C046D3
:100BB00000640040C8070020FFFF0000C02301219F
:100BC000234A5B0070B5D45800230C420CD09133FB
:100BD000FF33D4580B000C4206D0A031FF315158DE
:100BE0000522194232D1DB18194A1B019918C0227B
:100BF0000488520064058C500479002C03D0022430
:100C00008D582C438C500F24827805302240763446
:100C1000FF340A510F4A104C9D1800221B192A60FC
:100C20001A6004792E68944034432C6004781E685E
:100C30009440083234431C600130202AF1D1012352
:100C40006132FF32885803438B500022100070BD80
:100C5000006400408C650040886500401A4B30B548
:100C6000D968022289072CD0D82149005A58520D40
:100C70000280002202715A58920701D501220271A6
:100C8000DA210F2449005A58DE25224082705A5832
:100C9000AA34120AC270002205306D00FF3459597F
:100CA000D14001711959D140083201700130202A18
:100CB000F5D1D9680A43DA60044A1378013B13700E
:100CC0000022100030BDC046006400400C08002027
:100CD000034BD86803231840431E9841C0B27047A5
:100CE00000640040F8B5224E050033780C00002B5C
:100CF00008D1FFF7CFFE0620FFF78CFEFFF73AFE84
:100D00000123337000261B4BB1005B58002B04D02D
:100D10000136322EF7D12800F8BD18202F00844666
:100D20002A1D1C37AC441380023208C76245FAD131
:100D3000104A20005550AB64EB642C80FFF7C0FED6
:100D4000601C80B2FFF7BCFEA01C80B20334FFF72A
:100D5000B7FEA0B2FFF7B4FE0122B240064BD11796
:100D6000186802431A605A6811435960D3E7C046B5
:100D7000EA08002014080020F00800200F4B70B58E
:100D80000024994212D8A24210D023005C0004191A
:100D9000A588002D0CD106339B00C318A1805A6092
:100DA0000124342902D90800FFF78AFE200070BD13
:100DB00001330A2BEAD10024F8E7C046FF07000000
:100DC000020010B50120002A11D0537902305C11C5
:100DD000022C0CD19478844209D11F24234006D1DF
:100DE00090790880D279120210430880180010BD53
:100DF0007FB56B466A461880002313712A330C1E98
:100E000053711CD001256B4600219D700123DAB27D
:100E1000082B18D018002178684401324171D2B2F1
:100E2000013300290CD16B462E009A7005216846CB
:100E3000FFF7C4FE322001F03FF8002EE3D07FBD63
:100E400001342900E3E7002901D06A4693700026A7
:100E5000ECE7038810B501339BB2816C1800FFF7F3
:100E6000C7FF10BD038810B502339BB2C16C1800D8
:100E7000FFF7BEFF10BD0000F8B5FFF729FF0028FF
:100E80001AD0284C05212000FFF7E8FE264E370037
:100E9000C8373068002823D0228803889A420CD1B2
:100EA0002179002909D08369200098470436BE4281
:100EB000EFD100221D4B1A70F8BD591C8A4205D192
:100EC0002179002902D0FFF7C4FFEFE702339A42ED
:100ED00006D100252379AB4203D0FFF7C3FFE5E736
:100EE00000253368002B0DD06A009A18918822885B
:100EF0008A420BD1AA1D92009A185268002A05D086
:100F00002000904701350A2DEBD1CFE7E2788A42E5
:100F1000F8D1AA1D92009B185B68002BF2D020002C
:100F20009847EFE7DC080020140800201008002094
:100F300070B504000120002C2BD0EA25FF35635D3D
:100F4000DBB2002B05D1F4225200A3542000FFF79E
:100F5000FFF9032300226355230011000126606876
:100F60002833904216D10021230008000933FF33B3
:100F70008A4218D10020012123689A1C9E1D5033FB
:100F8000D187D087F08718800B4BD387631DD87724
:100F9000615570BD1A705E70D970D9601961596160
:100FA00001321C33DDE719705870D870D8601861B1
:100FB000586101311C33DBE700BFFFFF802103686C
:100FC000090258331A8800200A431A807047F42215
:100FD00010B55200835C04000220012B09D00123CC
:100FE000A354002906D1236880314C331980002096
:100FF000A05410BD631DD977F9E70000F7B57F262F
:101000004DB204000E401C20002D1DDA704301007B
:1010100028316118CB70F423ED0F0E704D70CA604B
:101020005B00E55C0220012D00D1EDE00138E054C9
:10103000C8782368032814D80D78894EAD005D194F
:10104000FFF73EF806500C4B41430931FF31E0E712
:10105000288830408026B600064301E028880640F4
:101060002E8008787F4E8446674685005D19288863
:1010700030407D4E3743384328808D7A794F087849
:10108000BC460196002D64D101268D88C000B54371
:101090004E7837001E005036002F27D032889A181D
:1010A00010188022D200801805800A7892009A18C1
:1010B0001088450604D5674607406C4807431780EB
:1010C0000A786B4992009B181A88114020224A40E6
:1010D000019911430A001A8092E028883040C02606
:1010E000F600B9E7288830408026F9E73788DF190D
:1010F0003818604FC019058008783588C00040193D
:101100005D4D5D1940193E2A1CD95509D20601D101
:10111000013DADB2594AAD02154305800A789200EF
:101120009A181088450404D565462840544D284334
:1011300010800A78534992009B181A881140C022E7
:101140009201C4E701265508324200D0AD19AD0224
:10115000E3E78000181802884B4D454F15404B4A75
:101160002A431D0002800A7850352888D2001218C0
:101170008020D218C00012180120CE888643168025
:1011800080260A782D88D20052193A4DD218521969
:101190000D89F601854315800A78487892009A18DF
:1011A000002832D11088304204D065462840344DA2
:1011B000284310800A782D4892009A1815886E06E8
:1011C00003D5664635400543158066460A78920089
:1011D0009A1815883540284310800A7829489200CB
:1011E0009A1815880540C02080016840019D284359
:1011F00010800A7892009B181A8817402F431F808E
:10120000F42300205B00E054FEBD10881C4D3042EA
:1012100003D066463040284310800A7892009A181E
:101220001088460604D566463040104E3043108084
:1012300066460A7892009A18108830400543158057
:101240000A7892009A18108807400198074317807F
:101250000A780C4992009B181A880A4002433AE720
:101260008F89FFFF0F0F00008080FFFFC080FFFF0E
:10127000BF8FFFFF04040000060400000080FFFF92
:1012800080C0FFFF8FBFFFFF0F0E00008081FFFFB8
:10129000F0B506007F204AB208401C23002A2EDA4F
:1012A000434328331900F4237118D20F08704A7091
:1012B0005B00F25C0220012A20D00122F2540A785D
:1012C0003368887A92004F783B4D9A18002827D1CE
:1012D0001088002F17D0440604D5384C2040384CD5
:1012E000204310800A78374992009B181A880A40D8
:1012F00015431D80F42300205B00F054F0BD5943DA
:101300000931FF31CFE7440404D52C4C20402E4C4A
:10131000204310800A782D4992009B181A88E6E72E
:1013200080201488C001204084462448002F22D108
:101330006746002F03D0244F04403C4314800A78B2
:101340001F4C92009A181788A4467C0603D5644661
:1013500007402743178064460A7892009A18178836
:101360003840044314800A78184C92009A18108868
:1013700020402843B5E76746002F03D0124F0440B2
:101380003C4314800A7892009A181488670603D5A3
:101390000B4F04403C4314800A780B4F92009A187C
:1013A00014882040074317800A78064C92009A1848
:1013B000108820402843ACE78080FFFF0F0F00001B
:1013C000C080FFFFBF8FFFFF80C0FFFF8FBFFFFF09
:1013D00070B504007F2001406338484320180500A1
:1013E000FC35EA612B620022F423FF306A625B0065
:1013F00082724172E65C0220012E38D00138E0543E
:101400002B6AA869834233D91B1A2B621C224A43D8
:10141000A218FF32D67C2568537A002E2BD12A00E1
:1014200050321288DB009B18364AAA189B183E28B7
:1014300060D9420992B2C00601D1013A92B2324853
:10144000920202431A801C2359436118FF314B7AE0
:101450002E4A9B00EB18198800201140C0229201EF
:1014600051402B4A0A431A80F4235B00E05470BDBC
:101470002A621800CAE7927A002A2FD12A00503235
:101480001288DB009B18234AAA189B183E281DD9F6
:10149000420992B2C60601D1013A92B21A4E9202A4
:1014A00032431A801C234B43E318FF339A7A5B7A4A
:1014B000002AB4D0012AC6D12A0050321288DB009B
:1014C000EB189B180F4A9B181880BCE7420892B291
:1014D000C60701D5013292B29202E2E7012AE1D1B8
:1014E0002A0050321688DA00AA180A4B9219D2182C
:1014F0001080D7E7420892B2C00701D5013292B2FC
:1015000092029FE7060400000080FFFF8FBFFFFFED
:101510008080FFFF020400007F230B401C21594301
:101520004018FC30406A80B270470000F42330B5A8
:101530005B00C25C04000220012A20D0012248B2D4
:10154000E2547E32CD3B0A40FF3B002818DA534379
:1015500028331900012361188B70C30F0A704B7078
:1015600025681249002A0FD12B88114A1A40114BC5
:10157000534019432980F42300205B00E05430BD20
:1015800059430931FF31E5E79200AA181388002872
:1015900006DA094803401020434019431180EAE766
:1015A0000648034080204001F6E7C0468080FFFFE8
:1015B000BFBFFFFF10100000BF8FFFFF8FBFFFFFF7
:1015C00070B57F24020048B20C401C2300282FDA9B
:1015D000634328331900002351188B70C00FE9337F
:1015E00048700C70FF33D45C0220012C1FD00138EE
:1015F000D0544B7808781568184C8000002B1BD00D
:10160000281803885E0604D5154E3340154E334323
:1016100003800B7814489B00EB1819880840302190
:1016200041400C431C80F42300205B00D05470BD6B
:1016300059430931FF31CEE72B181888460404D5E9
:10164000074E3040094E304318800B7808489B0005
:10165000EB1819880840C0218901E1E78080FFFF6D
:101660000F0F0000C080FFFFBF8FFFFF80C0FFFF94
:101670008FBFFFFF30B58024E400001901338218CA
:101680005B08521A5418002B00D130BD48780D78F1
:10169000000228432080013B0231F3E7F8B57F25A3
:1016A0000D401C2169434118CB630B008A6300265F
:1016B000012229330E64013B5A701D70F4235B0034
:1016C000C75C04000220974236D0E254CB6B4A6BD1
:1016D000934232D99B1ACB631C21694361180B00DA
:1016E0000F0032331B78206896B22837002B27D1A1
:1016F0008A8D3300896BFFF7BDFF23681A005032D3
:1017000011883A78D2009B18514A5B189B181E80AA
:101710001C214D43651928352B7822689B00D3186E
:1017200019884C4A00201140302251404A4A0A434D
:101730001A80F4235B00E054F8BDCE631A00CBE7B7
:101740003B7829319F003F5A09787F0645D500290B
:1017500037D1010050310988DB005B183F4941183F
:101760005B183E2A25D9510989B2D20601D1013927
:1017700089B23B4A8902114319801C236B43E31849
:101780001A8E1C276F43E7193300B96BFFF772FFFE
:101790003B0029331B782168002B4DD128373B783B
:1017A0009B00CB181A882F4911402F4A0A431A80F0
:1017B000AEE7510889B2D20701D5013189B2890259
:1017C000DAE70129D9D1020050321288DB00C318B0
:1017D0009B18224A9B181E80CFE7002920D10100C8
:1017E00050310988DB005B18194941185B183E2A03
:1017F0000ED9510989B2D20601D1013989B2184AEC
:101800008902114319801C236B43E318DA8DB8E772
:10181000510889B2D20701D5013189B28902F1E7B5
:101820000129F0D1020050321288DB00C3189B1846
:10183000074A9B181E80E6E7012B00D068E728378F
:101840003A7892008B181A8806491140074AADE78A
:1018500002040000BF8FFFFF8080FFFF060400002E
:101860000080FFFF0F0F0000C080FFFF80C0FFFF60
:10187000F0B58025ED0040195C08821826000800AC
:10188000571A3D18002E07D1640009191219DB07F9
:1018900001D513880B70F0BD2D88013E05702D0A0F
:1018A00045700230EDE70000F0B5036885B00633FF
:1018B000DB8F04001BB2002B00DA61E023680633E3
:1018C000DA8F52050AD5DA8F864920000A40DA8776
:1018D000FEF782FD00212000FFF779FB2268931DAF
:1018E000D98F490403D5D98F7F480140D987D98F33
:1018F000890403D5D98F7D480140D987DB8FDB046C
:101900000FD50421931CDA8F20008A43DA87784AA6
:10191000DA87FEF77FFD236876490633DA8F0A40BF
:10192000DA8723689A1DD18F090512D5D18F7248A5
:1019300002330140D1870821D88F0143D987042180
:10194000D88F0143D987D38FDB0402D42000FEF760
:101950004FFD23680633DA8F920506D5DA8F674983
:1019600020000A40DA87FEF730FD23680633DA8F5D
:10197000D20503D5DA8F62490A40DA8705B0F0BD97
:1019800002AB9F1D00233B80206803AA831DDB8FD1
:101990009BB213801BB2002B00DB8FE70F2316884E
:1019A0001E4000D0BCE01021138819400388002994
:1019B00026D1544A13400380030050331A88230071
:1019C00028331B78DB00C0184F4B8018C0180388E1
:1019D000A26B9B059B0D2364D318A3632000FEF725
:1019E000E9FC631DDA7F002ACED0E06B0028CBD162
:1019F0008022D97F114322684C321180D877C3E707
:101A00003B803A88120520D5030050331A8884237E
:101A10005B00E35C2100DB00C3189B183B4AED31FF
:101A20009B1822001B8809329B059B0DFF32936196
:101A3000FF319288FFF71CFF226835491388200088
:101A40000B401380FEF7A0FC9EE73A8812B2002AF2
:101A50009ADA2F4A250013400380030050331A8876
:101A600084235B00E35C0935DB00C3189B18274A1D
:101A7000FF359B181B889B059B0DAB6107D0AA887F
:101A80002969FFF7F5FE2B69AA699B182B610021D4
:101A90002000FEF783FC22681C49130050331B888A
:101AA000E8685118C9183E2813D943099BB2C006EB
:101AB00001D1013B9BB217489B0203430B80118865
:101AC000154B1940C0239B015940144B0B43138005
:101AD0005AE743089BB2C00701D501339BB29B0272
:101AE000ECE7C046FFFBFFFFFFBFFFFFFFDFFFFF8D
:101AF00000BDFFFFFFEFFFFFFFF7FFFFFFFDFFFF51
:101B0000FFFEFFFF0F8FFFFF02040000060400002E
:101B10008F0F00000080FFFF8FBFFFFF8080FFFF5F
:101B2000B300C11801930B883B803A8812B2002A97
:101B30003BDA774A050013400B801C237343E318FC
:101B40001A00FF32D17C5035527A002973D129888E
:101B5000D20052186F49121852181588AD05AD0DF4
:101B600008D01A00FC331900FE32D2892B00C96953
:101B7000FFF77EFE1C231900714361180800FC303A
:101B8000426A52194262C26952190192C261026AE2
:101B9000002A03D08069854200D37FE07343E318B5
:101BA000FF33597A2000FEF7F9FB80223B8813426D
:101BB00000D1E9E62068B300C3181A885649050029
:101BC0000A401C21714361181A800B0032331A78C5
:101BD00050350A3B002A69D11B782A88DB009B1804
:101BE0004E4A1B189B181B889B059B0D0B6403D04A
:101BF0008A8D896BFFF73EFD2268130050331888E9
:101C00001C235E43A619310028310B78DB00D31862
:101C1000424A1B189B181A88B36B9205920D3264C6
:101C20009A18F36BB26309782000002B00D06CE0A7
:101C3000FEF7C0FBA8E6D1009200125A520420D54C
:101C40002A8882185218354952181588AD05AD0DED
:101C500008D01A00FE32128AFC3319002B00C96921
:101C6000FFF706FE1C237343E318FF335B7A2268F9
:101C70009B00D3181A882A4911402A4A0A431A801D
:101C800078E72A8882185218224952181588AD051B
:101C9000AD0DE7D01A00FE32528ADDE7FF311300A6
:101CA000497A019A2000FFF793FB7EE71B78DA0060
:101CB0009B001B5A5B061CD52B88C3189B18174A20
:101CC0009B181B889B059B0D0B6403D0CA8D896BE9
:101CD000FFF7D0FC1C237343E31828331B782268DA
:101CE0009B00D3181A880E4911400F4A0A431A80E4
:101CF00082E72B88C3189B18064A9B181B889B05F4
:101D00009B0D0B64E6D00A8EE1E7FFF7C7FC3BE6CC
:101D10008F0F0000060400000F8FFFFF0204000079
:101D20000F0F0000C080FFFF80C0FFFFF0B5036809
:101D300085B00500DB0328D580220021404C5205E8
:101D4000E3690091134208D1E3691343E361E36956
:101D500013400393039B012300938027394E7F0098
:101D600033683B4238D0C022236A92001340364E7B
:101D700044D1236A1E406B681E43009B2662012BE0
:101D800003D1E369314A1340E3612A68D30706D5DA
:101D900003202B490B6B8343A86803430B63930613
:101DA00006D5102026490B6B8343E86803430B6379
:101DB000930306D5802022490B6B83436869034354
:101DC0000B630020530517D540211D4A136B8B432D
:101DD00029690B4313630FE033683B43336000F022
:101DE00065F8019033683B42BDD100F05FF8019B7C
:101DF000C01A6428F6D9032005B0F0BD69680A400E
:101E00009A42B6D08023226A206A11005B02034303
:101E10002362236A0E483140034023622162D307C4
:101E2000A7D500F043F807000222236A1342A0D18D
:101E300000F03CF8074BC01B9842F5D9DBE7C046E1
:101E40000010024000700040FFFCFFFFFFFFFFEFAB
:101E5000FFFFFEFF8813000010B5040001F0BCFB7B
:101E6000FA218900FEF740F900F038F9012000223C
:101E70002100404200F0FEF8002010BD1023064A69
:101E800010B5116800200B431360FFF7E5FFFEF764
:101E9000BFFB002010BDC04600200240024A13686C
:101EA000013313607047C046A8110020014B186829
:101EB0007047C046A811002037B50190FFF7F6FF24
:101EC000019C0500631C5A1E9341E418FFF7EEFFC6
:101ED000401BA042FAD337BDF0B50B6887B003931F
:101EE00000230191039ADA4001D107B0F0BD01222D
:101EF0009A4002920299039A0A40009200D188E027
:101F0000019A1021526816008E43022E0ED1072529
:101F10001D40AD000139A940DC08A4000419276A5E
:101F20008F4301990969A9400F43276203245F0089
:101F3000BC40E4430568013E2540AC4603251540FE
:101F4000BD4061460D430560012E0FD8019986689A
:101F5000CD682640BD403543856046680299150925
:101F60008E4301210D409D4035434560C568019970
:101F70002C408D688021BD4049052C43C4600A4235
:101F800047D00121244C0326A5691E400D43A561BD
:101F9000A4699D080C400594059C0F241F49AD00C1
:101FA000B6006D18B4409021AF68C905A74300245E
:101FB000884208D01A490134884204D019490434AF
:101FC000884200D1033CB44000993C430E00AC6011
:101FD000154CCD4327683E43D10301D43E002E402B
:101FE00026606768009E3E43910301D43E002E4068
:101FF0006660A768009E3E43D10201D43E002E4099
:10200000A660E668009F3743920201D42E40370055
:10201000E760013366E7C04600100240000001405F
:10202000000400480008004800040140002A01D0D4
:10203000816170478162FCE74369594041617047A3
:1020400030B51C240D060BD57F252940614328316E
:10205000411898B2002A07D18A728880002030BDCA
:1020600061430931FF31F3E701221B0C8A72C880FA
:102070000B81F3E730B5FF2503242A00C3B21C40CF
:10208000E400A24089012940D243A14000280BDA94
:102090000F200340083B0A489B089B001B18D86987
:1020A00002401143D96130BD064B80088000C01842
:1020B000C0239B00C45822401143C150F3E7C046DF
:1020C00000ED00E000E100E01F2318401E3B8340CC
:1020D000014A13607047C04600E100E0094A431E10
:1020E000012093420DD8C021074A08485360036A73
:1020F00009061B021B0A0B430362002007239060A2
:1021000013607047FFFFFF0010E000E000ED00E00B
:10211000054B1A68042802D1104318607047042147
:102120008A431A60FAE7C04610E000E0704710B535
:10213000FFF7FCFF10BD30B5040002223C342578C7
:1021400003001000012D17D01D001B683D352A70BB
:102150005A686E3082435A605A6808684968024378
:1021600080205A609A6882439A609A6800200A43E5
:102170009A6001232B70207030BD000030B5040040
:1021800002233C34257802001800012D24D01000D1
:102190003D30CD680370114B12682B408D682B4386
:1021A0000F4D2B404D682B430E4D2B400D682B439C
:1021B0000D4D2B400D692B430C4D2B404D6989690A
:1021C0002B430B4D2B400B4D0B432B400B435364C8
:1021D000012303700020207030BDC046FFFCFFFFCC
:1021E000FFFBFFFFFFF7FFFFFFEFFFFFFFDFFFFF3B
:1021F000FFBFFFFFFF7FFFFF70B504000125002830
:1022000028D00223861C0068F3770268124BA1686D
:102210001A4063680B43E1680B4321690B43616912
:102220000B43A1690B43E1690B43134303600B4B61
:102230001421C018FDF758FF094B8000E363002309
:102240002064A362E36223636363A363F577641985
:102250001D00E377280070BD0FC0FFFFF8FFFDBF32
:1022600000000240F0B5441CE67F05000220012E6C
:1022700027D00138E077A81CC67F8446F6B202203A
:102280000027012E28D16446E0772C68AF632068D0
:102290002F6CB043BE402060E86B466063606B68A3
:1022A0002868102B0ED1A260E160EB6A2268002B37
:1022B0000BD00E23134323600123026813430360F2
:1022C0000020F0BDA160E260EFE70A23134304227F
:1022D000236023689343EEE7E777F2E7F8B5042736
:1022E0003E00016CC26B8E40156803681C68354265
:1022F0000DD03C420BD01968890602D41968B94345
:102300001960C36A5660002B19D0984717E002275E
:102310003E008E40354213D03C4211D019688906E8
:1023200006D40A241968A14319600121C319D97779
:1023300056600022431CDA77836A9342E5D1F8BDE8
:10234000082637008F403D42F9D03442F7D00E25A1
:102350001C68AC431C6001231C008C405460821C30
:102360008363D3770022C318DA77036BE5E70000B5
:10237000F7B50126802734000368BF00D8594D6A9D
:10238000009028020190009D31484A6905402800CC
:102390009440019D284330438726E543D851B60039
:1023A000985928409851C869002835D1103E98594D
:1023B000D20028409851C8684E680004B6B2304335
:1023C00090269A18B600905188680E680004B6B23C
:1023D00030439126B60090518122886992000028EE
:1023E0002FD19858284098508522086992000028DB
:1023F0002AD1985805409D500A6A012A04D18721A4
:1024000089005A5814435C508021012089005A5891
:1024100082435A500020FEBD0128DDD18326B6003C
:102420009859D2002043985108684E680004B6B20B
:10243000304390269A18B60090518868CE68000400
:10244000C5E798582043CEE7985820439850D3E7E3
:10245000FFC0FFFF70477047F7B5002961D1436B9C
:10246000D82602680C011519019404247600AF598E
:1024700027409F6057D1AF597F0D1F60DA270F2487
:10248000AE597F00B607F60FDE60EE59ED592640D3
:102490002D0A0C01EDB21419DD612500B935FF35A7
:1024A0001E612E68BD341E752E68FF34360A5E75B7
:1024B0002E681962360C9E752D682D0EDD75256807
:1024C0001D7625682D0A5D7625682D0C9D7624687D
:1024D000240EDC762023002929D1D46823430A2442
:1024E000D3605369A343536103003D331A78222A12
:1024F00002D01A78322A04D10468194D62692A4040
:1025000062611A78D2B200291BD1622A15D0722AD0
:1025100015D0422A21D1303A1A70FFF79CFF0020D3
:10252000FEBD836B9CE7AF59FF085F60A6E71469A7
:102530002343136153695024D4E73222ECE752223B
:10254000EAE7622A05D0722A05D0522A05D1403A1C
:10255000E2E72222E0E74222DEE70122DCE7C04692
:10256000FF70FFFF704700001022036870B5D96844
:1025700004000025114205D05969090702D58025BC
:10258000DA60AD0010221969114206D05969490676
:1025900003D58021C9000D431A615A69D2073AD583
:1025A0009A6864490A408A4209D09A6862490A4096
:1025B0008A4204D09A6861490A408A422BD19A68BB
:1025C000920706D49A68920503D49A68920300D4BD
:1025D00092E001215A698A435A6122003D32117802
:1025E000122903D159695648014059611378DBB269
:1025F000522B00D17AE0722B00D179E0422B00D02F
:1026000078E0203B13702000FFF724FF22684D4B39
:1026100091680B43936023685A69920706D5DB687B
:102620009B0703D000212000FFF716FF23685A699B
:10263000D20606D51B699B0703D001212000FFF7B6
:102640000BFF0122236C1D43236825649969114205
:1026500008D05969C90505D55969090402D5216C05
:102660000A43226402229969114208D059698905F6
:1026700005D55969090402D5216C0A432264042254
:102680009969114208D05969490505D55969090464
:1026900002D5216C0A43226470219A690A4212D041
:1026A0005A6912050FD55A6912040CD59A690A4065
:1026B000302A35D024D8102A2AD0202A2DD07021B3
:1026C0009A698A439A61226C002A0ED004225968C2
:1026D00020000A435A60220001213D3211705A69DC
:1026E00019490A405A61FFF73DFF70BD322389E75F
:1026F000622387E7012385E780231B011D4385E7CC
:10270000502A10D0602A11D0402AD8D1216C01E083
:102710000822216C0A432264D1E7216C1022F9E7D8
:10272000216C2022F6E7216C8022F3E78022216CC5
:102730005200EFE701000004000100080000011052
:10274000FF70FFFF19050100A470FFFF70B50400C2
:102750000120002C3FD0250041352B78DBB2002B27
:1027600005D12200403213702000FDF7A1FF242381
:1027700001212B702368E0681A68A6688A431A60F2
:1027800061681A4A0A401A619968194A11409960A9
:10279000012821D1802109023143996058681549E7
:1027A00001435960D96800200A40DA6061692269F2
:1027B0000A43A16909020A43DA60216AE2690A430D
:1027C0001A60012219680A431A60202360642B7082
:1027D00020634234207070BD842109023143996026
:1027E0000228DBD1802109015960D7E7FFFFFFF004
:1027F000FF7FFFFF008000020122036A70B5934350
:102800000362036A44688569723295430A68154316
:10281000022293438A681343114A904205D0114E15
:10282000B04202D0104EB04213D10826B343CE6856
:1028300033430426B343904205D00A4A904202D063
:10284000094A904205D1094A8E6922404C693443B5
:1028500014434A68446085614263036270BDC046A8
:10286000002C01400044014000480140FFFCFFFFF4
:1028700070B57325036A164A13400362036A4268FF
:10288000C469AC430D682C43124D2B408D682D025A
:102890002B43114DA8420ED1104D1D40CB681B0299
:1028A0002B430F4D2B400F4D4E6915408A69324323
:1028B00012012A4305E00C4DA842F4D00B4DA8426A
:1028C000F1D042604A68C461C263036270BDC04611
:1028D000FFFEFFFFFFFDFFFF002C0140FFF7FFFFA2
:1028E000FFFBFFFFFFCFFFFF004401400048014016
:1028F000036A124A30B513400362026A104C4368FF
:10290000C56925400C68240225430E4C22408C6882
:10291000240322430C4CA04205D00C4CA04202D010
:102920000B4CA04204D10B4C23404C69A40123431F
:1029300043604B68C5610364026230BDFFEFFFFF77
:10294000FF8CFFFFFFDFFFFF002C01400044014030
:1029500000480140FFBFFFFF704710B5446A0123E4
:1029600022003D321370626A824206D12377200032
:1029700001F032FC0023237710BDA36A834201D10A
:102980000223F3E7E36A834201D10423EEE7236BDA
:102990008342ECD10823E9E77047406A0122030033
:1029A00010B53D331A70FFF7F7FF10BD1D4A10B583
:1029B0000368904206D08024E405A04202D01A4C5D
:1029C000A0420CD17024A3434C68234390420FD003
:1029D0008024E405A0420BD0134CA04208D0134C35
:1029E000A04205D0124CA04202D0124CA04203D10A
:1029F000114C2340CC6823438024A3434C692343D8
:102A000003608B68C3620B688362904205D0084BF9
:102A1000984202D0074B984201D10B69036301230E
:102A2000436110BD002C0140000400400020004024
:102A30000044014000480140FFFCFFFF70B5040066
:102A40000120002C14D025003D352B78DBB2002B63
:102A500005D122003C3213702000FDF74FFE022307
:102A600020682B70211DFFF7A1FF012300202B7090
:102A700070BD70B504000120002C14D025003D3538
:102A80002B78DBB2002B05D122003C3213702000E2
:102A9000FFF762FF022320682B70211DFFF786FFDE
:102AA000012300202B7070BD70B504000120002CA4
:102AB00014D025003D352B78DBB2002B05D1220048
:102AC0003C3213702000FDF74FFE022320682B706C
:102AD000211DFFF76BFF012300202B7070BD00004C
:102AE0001022036A70B593430362026A154D43686E
:102AF00084692C400D682D022C432025AA438D6843
:102B00002D012A43104DA8420FD18025AA4315005C
:102B1000CA6812012A434025AA430C4D4E691D4044
:102B20008B6933439B002B4305E0094DA842F4D049
:102B3000084DA842F1D043604B6884618363026210
:102B400070BDC046FF8CFFFF002C0140FFF3FFFF6C
:102B5000004401400048014070B5040002263C34A6
:102B6000257803003000012D17D01D0001383D35B8
:102B700020702E700C2A0CD81000FDF7A1FA070A5D
:102B80000A0A0F0A0A0A130A0A0A17001868FFF746
:102B900033FE012300202B70207070BD1868FFF7F2
:102BA0009FFFF6E71868FFF763FEF2E71868FFF784
:102BB0009FFEEEE7F8B5060002233C360D003178A3
:102BC00004001800012925D0270001213D3731706C
:102BD0003B700C2A1AD81000FDF772FA0718181863
:102BE0001D1818182F181818410029002068FFF721
:102BF00003FE0822236899690A4304219A619A69AD
:102C00008A439A619A6929690A439A6101230020DB
:102C10003B703070F8BD29002068FFF761FF80220B
:102C20002368120199690A439A619A6915490A4011
:102C30009A612A6999691202E6E729002068FFF77C
:102C400017FE08222368D9690A430421DA61DA6988
:102C50008A43DA61DA6929690A43DA61D6E7290029
:102C60002068FFF745FE802223681201D9690A43D4
:102C7000DA61DA6903490A40DA612A69D96912021C
:102C8000EAE7C046FFFBFFFF30B58468034D0A4307
:102C90001B022C4013432343836030BDFF00FFFF22
:102CA000F8B5050002233C352A7804001800012AF3
:102CB00019D02600012720683D362F7033708368B5
:102CC0004F4A134083600B68402B00D16FE016D849
:102CD000102B00D187E007D8002B00D17DE0012325
:102CE000002033702870F8BD202B00D181E0302BFC
:102CF000F5D17022836893431A00372355E0702B77
:102D000033D01BD8502B3BD0602BE8D110244B681C
:102D1000CA68016A3B4FA1430162846912033C40C7
:102D20002243A024016A82617022A1431B010B434C
:102D30000362836893431A00672336E080225201BE
:102D400093420DD0802292019342C8D1CB684A6849
:102D50008968FFF799FF80232268DB0191680CE006
:102D60000722836893438360B9E7CB684A68896820
:102D7000FFF78AFF7721226893680B439360AEE7E1
:102D80004A68CB68016A046A1B01BC43F0270462ED
:102D90008469BC4323430A24A1430A43836102623A
:102DA0007022836893431A0057231343DBE74A6872
:102DB000CB68016A046A1B01BC43F0270462846982
:102DC000BC4323430A24A1430A4383610262702265
:102DD000836893431A004723E7E77022836893438D
:102DE0001A000723E1E77022836893431A00172330
:102DF000DBE77022836893431A002723D5E7C04698
:102E00008800FFFFFF0FFFFF10B501248C408A40B0
:102E1000036AA3430362036A1A43026210BD0000FF
:102E200070B506003D360D00110032780400D2B2B4
:102E30001000022A3DD03078C0B2012805D1002907
:102E400001D1002B35D10222327022680C2D17D807
:102E50002800FDF735F9071515152F1515153C1523
:102E600015154900606A274E34328662264E066385
:102E7000FFF7F8F9802322689B00D1680B43D360E9
:102E8000012229002068FFF7BFFF23681F4A9342F1
:102E900005D01F4A934202D01E4A934204D1802299
:102EA000596C12020A435A640122002019680A432D
:102EB0001A6070BDA06A134E38328662124E0663E5
:102EC000FFF7D0F980232268DB00D168D6E7E06AFB
:102ED0000C4E3C3286620C4E0663FFF7C3F980232A
:102EE00022681B01D168C9E7206B064E403286621A
:102EF000054E0663FFF7B6F9802322685B01D168AF
:102F0000BCE7C0465B2900089B290008002C014053
:102F1000004401400048014010B5FFF781FF10BD9B
:102F200010B5040000220068FFF76EFF2368124A04
:102F30001249934205D0124A934202D0114A934259
:102F40000AD11A6A0A4207D1186A0F4A104203D1FD
:102F50005A6C0E4802405A641A6A0A4207D1196A2A
:102F6000094A114203D101211A688A431A600123D8
:102F70003D340020237010BD002C014011110000D1
:102F8000004401400048014044040000FF7FFFFF6F
:102F9000F0B5036885B00500DB0733D42B689B07C9
:102FA00000D58AE02B681B0700D5CAE02B685B07B9
:102FB00000D5EDE02B68DB061AD56A69BC4C04230A
:102FC000012A00D059E1616B02260B436363636BF6
:102FD0001A436263FEF76AFF0700636B334200D156
:102FE00044E1F821626BAB698A43DB0013436363FE
:102FF0002B689B0600D567E1696A002900D0A4E12F
:10300000002018E00C21AA4C62680A40042A0BD068
:1030100063680B40082B10D1C02263685202134032
:1030200080225202934208D123689B03B6D56B6875
:10303000002BB3D1012005B0F0BD6B68012B13D17B
:10304000802322685B0213432360FEF72FFF802654
:103050000700B60223683342A0D1FEF727FFC01B4A
:103060006428F7D90320E6E7002B16D12368914A9C
:1030700080261340236023688F4AB60213402360E2
:10308000FEF714FF07002368334200D186E7FEF7FE
:103090000DFFC01B6428F6D9E4E7052B05D180237A
:1030A0002268DB0213432360CAE72368814A134086
:1030B00023602368804A1340C6E70C227C4C636877
:1030C00013420BD063681340082B15D1C0226368EC
:1030D000520213408022120293420DD123689B07B3
:1030E00002D5EB68012BA5D1F82122682B698A4310
:1030F000DB001343236055E7EA680123002A0FD061
:103100002268022613432360FEF7D0FE07002368DF
:103110003342E9D1FEF7CAFEC01B0228F7D9A1E766
:10312000226802269A432260FEF7C0FE0700236849
:10313000334200D136E7FEF7B9FEC01B0228F6D9AC
:1031400090E7EA6901235A4C002A10D0626A0226ED
:1031500013436362FEF7AAFE0700636A334200D09E
:1031600024E7FEF7A3FEC01B0228F6D97AE7626ABD
:1031700002269A436262FEF799FE0700636A3342B1
:1031800000D113E7FEF792FEC01B0228F6D969E7CB
:1031900080220021464C5205E3690091134208D178
:1031A000E3691343E361E36913400393039B012342
:1031B00000938027414E7F0033683B4206D0AB68C6
:1031C000012B13D1226A1343236230E033683B435F
:1031D0003360FEF76BFE019033683B42EFD1FEF7A0
:1031E00065FE019BC01A6428F6D93BE70122002B3B
:1031F00014D1236A022793432362236A0332934341
:103200002362FEF753FE0600236A3B4225D0FEF7F9
:103210004DFE2B4B801B9842F6D923E7052B0BD193
:10322000216A013B0B432362236A1A432262FEF7A1
:103230003DFE022706000DE0236A93430422236229
:10324000236A9343C0E7FEF731FE1D4B801B984273
:1032500000D907E7236A3B42F5D0009B012B00D041
:10326000A8E6E369174A1340E361A3E6FEF71EFEF2
:10327000C01B022800D8B0E6F4E6053203D1626B29
:103280009A436263ADE6626B0226134301226363D5
:10329000636B93436363FEF709FE0700636B33427E
:1032A00000D1A5E6FEF702FEC01B0228F6D9D9E63A
:1032B00000100240FFFFFEFFFFFFFBFF0070004019
:1032C00088130000FFFFFFEF0C21464C62680A40A4
:1032D0008A4209D063680B40082B0ED1C022636874
:1032E00052021340934208D1636BDB0300D483E6A0
:1032F0002B6A012B00D09DE67EE62B6A002B11D0B5
:103300008026636B760233436363FEF7CFFD0700CD
:10331000636B334200D06FE6FEF7C8FDC01B022886
:10332000F6D99FE6636B304A802613406363FEF74D
:10333000BDFD07007602636B334200D15CE6FEF709
:10334000B5FDC01B0228F6D98CE60C22254C63681B
:103350001340082B00D16DE62368244A13402360F4
:1033600002292FD1FEF7A2FD80260700B6042368AC
:10337000334221D10F22E36A93432A6B1343E36262
:10338000A96AEB6A62680B43194980250A40134316
:103390006360802322685B0413432360FEF786FD8D
:1033A0000600AD0423682B4200D029E6FEF77EFD1F
:1033B000801B0228F6D955E6FEF778FDC01B0228CF
:1033C000D5D94FE6FEF772FD80250600AD042368CF
:1033D0002B4200D114E6FEF769FD801B0228F6D9C6
:1033E00040E6C04600100240FFFFFEFFFFFFFFFE69
:1033F000FF7FC2FF30B51B4C89B010222100684608
:1034000001F050FF210004AD10221031280001F01E
:1034100049FF0C20144A53681840082809D00C387A
:1034200043425841114B40421840114BC01809B05B
:1034300030BD0F206C46D26A990C01400240645C9A
:10344000A95CC0228020520213404002834201D175
:10345000074802E09342FBD10648FCF745FE604373
:10346000E5E7C046F454000800100240005A62022A
:1034700000127A00006CDC02F7B50122504C060005
:103480002368019113408B421FD33268930728D4DD
:10349000D3072ED40123226801991A408A4200D909
:1034A0007EE03368474C5B0700D581E0FFF7A2FF61
:1034B0006368454A1B061B0FD35CD840434B18601A
:1034C0000020FEF7C9FC00200AE02368019993431D
:1034D0000B43236023681340019A9342D5D0012007
:1034E000FEBDF02037494B688343B06803434B600F
:1034F000CEE77268334D012A1AD12B689B03EED5B3
:1035000003216B688B4313436B60FEF7CFFC73683A
:103510000700012B1CD10C226B681340042BB9D07F
:10352000FEF7C4FC2A4BC01B9842F4D90320D7E70E
:10353000022A03D12B689B01E2D4D0E7032A03D1EE
:103540006B6BDB03DCD4CAE72B689B07D8D4C6E7D8
:10355000022B0BD10C226B681340082B9AD0FEF77C
:10356000A5FC1B4BC01B9842F4D9DFE7032B11D0FD
:103570000C226B68134200D18CE7FEF797FC144BCA
:10358000C01B9842F4D9D1E7FEF790FC104BC01B4A
:103590009842CBD80C226B6813409342F4D179E760
:1035A00022689A43226022681A4200D179E796E79E
:1035B0006368084A1340F2681343636076E7C046C5
:1035C00000200240001002408F55000844000020F7
:1035D00088130000FFF8FFFF014B18687047C046D2
:1035E00044000020F0B50400413422780300D2B238
:1035F0000220202A18D11D0040352E78012E13D02C
:103600001B68223020701E68233886431E601E68A7
:10361000064F3E401E601E6831431960196808431A
:103620001860002022702870F0BDC046FFEFFFFF39
:10363000F0B5050041352A780300D2B20220202AD5
:1036400017D11C0040342678012E12D01B6822307E
:1036500028701E68233886431E601E68054F0902C5
:103660003E403143196019680843186000202A70F1
:103670002070F0BDFFF0FFFF10B50223002813D02B
:1036800085239B00C458002C01D00024C45000297D
:1036900002D084239B00C150FE2301215B00C15452
:1036A0000270FCF7CBFE0023180010BD0223002996
:1036B00003D085239B00C15000231800704710B52C
:1036C000FCF702FF002010BD85239B00C35810B5F6
:1036D000002B01D1022010BD1B6898470028FAD0AA
:1036E000F8E7852310B59B00C3585B689847002016
:1036F00010BD000082239B0070B5C518040028008F
:1037000000F0A6FAFA2301225B00E250124BE25AC3
:10371000163BE2501033E15CEA3BFF3B0B40012BD0
:103720000FD0002B07D0022B10D07F23200099430D
:10373000FCF7FCFE03E02900200000F0F1F8002077
:1037400070BD2900200000F0FDF9F8E729002000F5
:1037500000F014FAF3E7C0460E02000070B5040052
:103760001500002927D1FA235B00C358032B0FD182
:103770000530FF308368C26893420BD99B1A83607F
:103780009A4200D91A0092B22900200000F0B7FA3C
:10379000002070BD85239B00E3581B69002B06D0D9
:1037A000FE225200A25C032A01D12000984720008B
:1037B00000F0ADFAECE785239B00C3589B69002B12
:1037C000E6D0FE225200825C032AE1D19847DFE76F
:1037D000F8B50D0004001100002D41D1FA235B0063
:1037E000C358022B0ED1C269066AB24213D9921B8A
:1037F000C26192B200F06BFA2B002A00290020006F
:10380000FCF7E8FE80239B00E25C012A01D1002244
:10381000E2540020F8BD876931003800FCF7A0FCB5
:103820000D1E0CD1BE420AD8FC267600A3599F4239
:1038300005D20A00200000F04AFAA551DCE78523F2
:103840009B00E358DB68002B06D0FE225200A25CEE
:10385000032A01D120009847200000F064FAD1E744
:1038600085239B00C3585B69002BD2D0FE225200F7
:10387000825C032ACDD129009847CAE7002270B59F
:10388000040011004023FCF72FFE23004025FC33E9
:103890005D6100222B0080212000FCF725FEFE2325
:1038A00001225B002562E2541C33E358002B07D051
:1038B00063682000D9B285239B00E3585B68984772
:1038C000002070BD017400207047FE23FE225B00C3
:1038D000C15CFF328154FA3AFF3AC254002070476B
:1038E000FE23FF33C25C013BC25400207047FE231D
:1038F00010B55B00C35C032B06D185239B00C35826
:10390000DB69002B00D09847002010BD10B50400E3
:103910008021FCF70BFE00212000FCF707FE10BD04
:1039200073B5040048780D00092800D97EE0FCF743
:10393000D1FBD400F5007D00E7007D0072000A0095
:103940007D00C30095004B88180A013806286DD801
:10395000FCF7B6FB041F2E6C6C4A550084236A46A4
:103960009B00E358207C1B68911D98476B469E1D69
:103970003188002970D0EA88002A6DD00B1C914252
:1039800000D9131C01009AB23380200000F091F995
:1039900062E08523227C9B00E358002A06D19B6AC3
:1039A0006A46901D984702234370DFE7DB6AF7E71A
:1039B000D8B205283AD884229200237CA258FCF77A
:1039C0007FFB03090B0D0F11526869461800063181
:1039D0009047CBE79268F8E7D268F6E71269F4E718
:1039E0005269F2E79269F0E7237C002B1ED1852310
:1039F0006A469B00E358901D5B6B9847B6E7237CB3
:103A0000002B13D185236A469B00E358901D1B6B46
:103A100098470723C8E78B88002B07D1CB88002B5A
:103A200004D1FE267600A35D032B03D12000FFF70F
:103A30006DFF11E07F234D8820001D408033FF3350
:103A4000E5542900FCF7A6FD200000F060F90223F0
:103A5000002D00D10123A355002076BD8978384D73
:103A600029700129E2D8FE235B00E25C022A0DD016
:103A7000032ADBD1002915D102222000E254616023
:103A8000FFF72FFE200000F042F9E5E70029F9D00A
:103A9000012103226160E2542000FFF715FE022895
:103AA000F0D1C3E761680129ECD0C9B22000FFF76B
:103AB00018FE29786160EFE7CA88012AB6D1FE2393
:103AC0005B00E35C022B03D0032BAFD1211D5CE72D
:103AD00000232100A360083157E7FE235B00E35C6D
:103AE000023B012BA2D80123E36081239B00E35812
:103AF000002B01D00323E360210002220C3144E7B4
:103B00004B88012BA8D181229200A35085239B00D2
:103B1000E35829009B6820009847B3E7FE235B0029
:103B2000E35C023B012B00D980E74B88012B00D0DE
:103B300092E7812300229B00E2501033E8E7C04661
:103B4000F8080020FE2370B55B00C35C04000D0084
:103B5000032B0FD10B79012B0CD885239B00C35865
:103B60009B689847EB88002B02D1200000F0CFF82B
:103B7000002070BD2000FFF7C9FEF9E760220B7836
:103B800070B5134004000D00202B06D1F533FF3330
:103B9000C3589B689847002070BD8A886B78D1B263
:103BA000012B20D0002B2DD0032BF4D1FA33FF337F
:103BB000C35C022B41D0032B03D02000FFF7A6FEED
:103BC000E9E76B88002B03D14B0601D0FCF7AEFC74
:103BD00085239B00E35829009B682000984720001C
:103BE00000F095F8D7E7FE235B00C35C022B24D0DE
:103BF000032BE2D16B88002BCDD14B06EFD0FCF725
:103C0000A5FCE5E7FE235B00C35C022B15D0032B6C
:103C1000D3D17F250D402D01130614D51435200076
:103C20006519FCF7A3FC002810D001232B600222A9
:103C30002900200000F03DF8ADE74B06ABD0200096
:103C4000FCF774FCA7E70535FF35E8E72860EEE7E9
:103C50000B7803704B784370CA788B7812029B18EC
:103C600043804A790B7912029B188380CA798B7939
:103C700012029B18C3807047002330B5984201D1CF
:103C800030BD2B00C45C5D1C002CFAD1DBB20133CB
:103C90005B0013800B7003234B70013B0578002DF4
:103CA000EED05A1CCD54D2B202330130DBB28C5468
:103CB000F4E71300FA2210B50224520084500A00DF
:103CC0008361C3610021FCF775FC002010BD10B5B5
:103CD00013000A000021FCF76DFC002010BD13004A
:103CE000FA2210B50324520084500200FC32D36043
:103CF00013610A000021FCF76DFC002010BD10B517
:103D000013000A000021FCF765FC002010BDFA2317
:103D100004225B0010B5C25000231A001900FCF702
:103D200049FC002010BDFA2305225B0010B5C250EB
:103D300000231A001900FCF74DFC002010BD86235B
:103D40009B00C3580220002B03D085220020920044
:103D50009850704787239B00C35870B5002B0ED036
:103D60008622802592008458AD00605DFF2806D031
:103D7000044A9B68A25C21009847FF2363550020FA
:103D800070BDC04601020000432303800048704715
:103D9000800000204323038000487047C4000020B7
:103DA0004323038000487047140100200A23038046
:103DB000004870470801002070B58626B600040050
:103DC0008559FCF717FC83239B00E850A359022078
:103DD000002B0AD0832381229B00E9181033E3587B
:103DE0009200DB68A8589847002070BD60220B78CD
:103DF00070B51A4004000D00002A28D0202A1ED1D8
:103E0000CA884878002A1CD086215BB2890066588F
:103E1000002B0BDA87239B00E35831009B689847FF
:103E20003100EA882000FFF744FF08E080239B0070
:103E3000F0540A4B3100F2542000FFF750FF0020ED
:103E400070BD87239B00E3589B689847F7E74B7842
:103E50000A2BF4D101220249E4E7C0460102000026
:103E6000F908002070B5040086258121FCF74EFB7F
:103E700001212000FCF74AFBAD0082212000FCF765
:103E800045FB6359002B09D087239B00E3585B68EF
:103E900098476059FCF7BAFB00236351002070BDBE
:103EA000F8B5037C0400002B33D1802302229B0051
:103EB0008121FCF719FB80239B0087250222012129
:103EC0002000FCF711FBAD00082303228221200013
:103ED000FCF70AFB86272800FCF794FBBF000600CE
:103EE000E0510120002E13D0635900251B6898472C
:103EF000852381229B00F550F551277C9200AF422B
:103F00000ED1143BB25801212000FCF763FB3800AE
:103F1000F8BD402302228121FCF7E6FA4023CCE7DA
:103F20004023B25801212000FCF754FB2800EFE7A2
:103F30000223002903D087239B00C15000231800CF
:103F4000704786239B00C35882208000195084212B
:103F5000890000205A50704786239B00C258143BAA
:103F60000020D150704786239B00C25810B5022410
:103F7000002A08D0047C143BD258002C05D1043B05
:103F80000121FCF727FB200010BD40230121FCF795
:103F900021FB0024F7E70000134885461348016819
:103FA000090E134A914205D1124813490160134882
:103FB00013490160002103E0124B5B584350043168
:103FC0001148124B42189A42F6D3114A02E00023DC
:103FD000136004320F4B9A42F9D3FCF79BFC01F0BB
:103FE0003DF900F0A7F9FEE70018002004000000EA
:103FF0001F000000181002400100000000000140F6
:1040000000000000E857000800000020880500209C
:1040100088050020B0110020FEE7704710B501248C
:10402000220008210448FEF701F82200102102486E
:10403000FDF7FCFFF4E7C04600040048054B0022F2
:10404000190030311A705A709A7003338B42F9D1CB
:104050007047C046DA0A0020F7B5050010213A483B
:10406000FDF7EAFF6B469C1D21002800FCF7A8FE27
:104070002688F4B2360AF5B22B006D3B262B41D8C8
:1040800023006D3B262B3DD8102300202F499A009A
:104090009A1A31328A18013B1070002BF7D12C4A42
:1040A0001278002A0FD1033294462A4F6046DA0074
:1040B0005843BA1A8032127801330A54102BF5D1C2
:1040C0000122234B1A70942E22D9224B803DEDB24F
:1040D0005A5D1E4B5A701A71DA719A726B2C26D87F
:1040E00080235B421C1B1B4BE4B21A5D174B991DCE
:1040F000CA77190028310A7019002E332B310A7043
:104100001A70F7BD0022124B1A70FFF797FFDAE71B
:104110006B2EE3D880235B425D1B0E4BEDB25A5DE4
:104120000A4B5A761A77DA770333DA77D6E7942C84
:10413000E7D9084B803CE4B21A5D044B5A731A74F9
:10414000DA749A75DDE7C04600040048DA0A0020F8
:10415000FB0800209F550008F0B5802500230A26A3
:10416000052708492D043400284200D13C000A6884
:104170004000D21801331470182BF4D100220B68C0
:104180001A76F0BDFC08002010B50F4C607823783B
:1041900000041B021843A3781843FFF7DDFF0B4907
:1041A0000B4B08681A6818600A601923082109482F
:1041B000FEF7B2FE2079E37800041B02184363790E
:1041C0001843FFF7C9FF10BDDA0A0020100B0020CA
:1041D000FC080020580A002070B508210500FEF7F1
:1041E0009FFE1B491B4B08681B4C1A6818602378FC
:1041F0000A600F2B1CD8192308212800FEF78CFE1B
:10420000032221782678514325785643134B6A437D
:1042100059184878F15C9B18000409029B78084300
:104220001843FFF799FF23780133DBB2237070BD89
:104230002378102B05D1093308212800FEF76CFEE6
:10424000F1E70223082106482370FDF7F5FEEEE7AB
:10425000100B0020FC080020FA080020DA0A0020D9
:1042600000040048222310B598B00B93213B0E9315
:1042700013930F330F93C0235B0215930023022483
:1042800016930BA8053314941793FEF781FE011EB5
:1042900001D0FFF7C3FE07230390049001A8019308
:1042A0000294FFF7E9F80028F3D10E4B08900A902A
:1042B00005A80593FDF73AFD041EEAD1FFF78CF936
:1042C000FA218900FBF710FFFDF708FF0420FDF736
:1042D0001FFF0120220021004042FDF7CBFE18B055
:1042E00010BDC046200002007FB503680E4A93420D
:1042F0000FD180231B020022019302230392029319
:10430000013201A9094804920593FDF7E5FD07B0C4
:1043100000BD074A9342FAD10222012302920022F1
:10432000019303920332ECE7002C014000040048A3
:10433000000400400120AC4BAC49F0B5AC4A196018
:10434000AC4BB1B01A60AC4B187000231D00CD54BB
:10435000D5540133212BFAD1FDF790FDFFF782FFF1
:104360008021A64E09037269A5480A4372617369E8
:1043700003270B4080210293029B7269C9030A4301
:10438000726173691CAC0B4080210393039B7269BB
:1043900089020A43726173690B4080210493049B74
:1043A0007269C9020A437261736900220B40059366
:1043B0001821059BFDF73AFEE02321001B029148DE
:1043C0001C936760A560FDF787FD8F4B21008F4828
:1043D0001C936760A560FDF77FFD90208C4B21004A
:1043E000C0051C936760A560FDF776FD894B210031
:1043F00083481C936760A560FDF76EFDE023DB0139
:104400001C93022321007E486360E760A56025615C
:10441000FDF762FD1823023F210079481C93676075
:10442000A560E560FDF758FD0022736911003B436C
:10443000736173690A203B400193019BFDF71AFEEB
:104440000A20FDF741FE00220B201100FDF712FEAD
:104450000B20FDF739FEFCF7EFF96F4E6F4B300084
:1044600033606F4BB5607360F76035617561B5613E
:10447000F5613562FEF76AF9011E01D0FFF7CEFD46
:104480003000FFF7AFF8011EF8D13000FFF7D0F889
:104490000028F3D1634D644B6860A860E860286130
:1044A0006861A86128002B60FEF7C8FA0028E5D1F2
:1044B00080230AA95B0128000A93FEF7F1FB00287C
:1044C000DCD12800FEF7D5FA0028D7D16023099067
:1044D00008A928000893FDF72EFE0028CED130232E
:1044E00016901790189019901A901B90082215A9F1
:1044F00028001593FEF730FB0028BFD180232060F1
:104500006060A060E06020619B01A0612100280044
:104510006361FDF733FE0028B0D12800FFF7E4FE09
:10452000424D434B13222B60002328006B60AB608D
:10453000EA602B61AB61FEF7B7FA00289ED10690C6
:10454000079006A92800FDF7F6FD002896D1602304
:104550000F901090129008220EA928000E93FEF7DB
:1045600029FB00288AD12800FFF7BEFE314A3249D4
:104570002000FCF7B7FB314B314A3C2120001C6086
:10458000FCF7FCFB0120FDF797FCFDF78FFC1421E5
:104590000400FBF7E5FD002901D1FCF76DFC322199
:1045A0002000FBF7DDFD0029ECD1264B1B78002B0A
:1045B00017D0254B1D001A001C78587899782D3596
:1045C000D678167016795670567996700332AA42CC
:1045D000F6D11A002D3214701A002F332E321070BB
:1045E0001970FFF7D1FDCDE7100B0020B90A0020AC
:1045F000980A0020FC080020FA0800200010024061
:1046000000040048000800480308000000140048A7
:10461000FF810000670C0000CC090020005400401E
:104620000B020000180A0020002C0140580A00204C
:10463000000400401B400008820400000C0B002016
:1046400059400008FB080020DA0A002010B50124B8
:10465000220008210448FDF7E9FC2200102102484D
:10466000FDF7E4FCF4E7C0460004004803685A0084
:1046700004D5802212061343C01870475B005B0804
:10468000FAE7F0B587B0049015000E1E28D0002779
:104690004B1E02930193019BFB18DC0FE41864107E
:1046A000E3000593049BE2009E183000FFF7DEFF55
:1046B000029B0390A34216D00598049B083018185B
:1046C000FFF7D4FF039BAB4204D9A74207D0631E78
:1046D0000193E0E70138A84202D2671CDBE700261D
:1046E000300007B0F0BD039BAB42EED8F8E7000006
:1046F00003000648012B07D00548022B04D05A427C
:10470000534104485B4218407047C0460F4D0008B3
:10471000194D0008054D0008214B37B504008D1ECA
:10472000002B09D001A9280000E000BF002808D113
:1047300000232361093313E01A481B4B1B1ADB10BB
:1047400001932A000199FFF79CFF051EF0D0FFF7A7
:104750008DFF6B68A064012B04D100232361053316
:1047600018003EBD281D002B0FDA0123E064E06C29
:1047700023650368002B0DDA1801000FFFF7B8FF5F
:10478000002320619842EBD1D4E7FFF76FFF0023AD
:10479000E064ECE7FFF76AFF00232061E0E7C04632
:1047A00000000000A4560008DC570008036810B59C
:1047B0000400DA0704D448309B0719D5FBF7F6FC50
:1047C00023685B0703D42000D030FBF7F3FC236899
:1047D0001B0704D420005130FF30FBF7EFFC2368A7
:1047E000DB0604D42000D130FF30FBF7EBFC10BD1A
:1047F000FBF7D8FCE4E70368002B00D01B18180077
:104800007047704770B505000C00216C2800FFF759
:1048100083FF061E01D000F0F7FC236C22006B61C1
:10482000290001202B6998470828EED00728F2D1EB
:104830003000216CFFF7E5FF201DFBF79DFC000019
:10484000F0B52B4CC368A54404938369060015009A
:104850000431402207A8059300F024FD002306AC94
:1048600006930293216C3000FFF756FF6B1E9D41AB
:1048700007000390093500282FD1F022236C520045
:10488000736121007EA800F00DFD33697EAA31001E
:10489000280098478C9B02906364059B2900019334
:1048A0000094330032000120049DA847002818D14D
:1048B000002F18D1F0227EA95200200000F0F2FC57
:1048C000029B3D00082BCDD0072B0AD13800216C6C
:1048D000FFF797FF07A8FBF74FFC10231D43A36BBF
:1048E000DAE7092303930398F7239B009D44F0BD67
:1048F00024FCFFFF70B5CB6BF8B00B6404000D0017
:104900004022043101A800F0CDFC01235B4200935A
:1049100010992000FFF700FF00280FD16A46210000
:104920002369984706000828F2D06846FFF73EFF43
:10493000062E03D129002000FFF764FF092078B07C
:1049400070BD10B58261DA6BC1601A641900002273
:10495000FFF776FF10BD70B54369C66805000C000F
:104960000B64002E04D00122FFF76AFF00F04CFC1C
:104970000A002B69010002209847072805D0082863
:10498000F4D121002800FFF73DFF3000216CFFF734
:1049900038FF201DFBF7F0FBC36810B5002B02D1D8
:1049A000FFF7A8FF10BDCB6B00220B64FFF748FF99
:1049B000F8E710B50400042905D80800FBF780FBD0
:1049C000051103111100022010BD0220002BFBD1A4
:1049D0000F2AF9D88240A2185168029A1800116073
:1049E000F2E70120F0E71FB503AB009300230A00B4
:1049F0001900FFF7DEFF039805B000BD10B50400F5
:104A0000042905D80800FBF75BFB05110311110011
:104A1000022010BD0220002BFBD10F2AF9D88240C2
:104A20000299A218096818005160F2E70120F0E726
:104A30001FB503AB0093002303920A001900FFF790
:104A4000DDFF05B000BD000070B5184CD36BA54468
:104A5000136404000D0017A8111D402200F022FC71
:104A600001235B42169326996846FFF755FE0028FE
:104A700013D10C2116A86A46FFF7DAFF290016A801
:104A8000A047002809D1049B16AA69460830984718
:104A90000600052802D00928E5D1092616A8FFF747
:104AA00085FE30008E239B009D4470BDC8FDFFFF36
:104AB000F0B58DB00C000793032103000B40019368
:104AC000E36C0690079816001F1D09AA1B68576023
:104AD000002823D11B0209931181019B022B00D1D5
:104AE000A76B0122236D134000D105E1002305933C
:104AF00009A9300000F04AFA002800D0AAE0059B7E
:104B00000820002B72D00F213000FFF76CFF0E2120
:104B100002003000FFF78CFF794A21E0190C1B04DA
:104B2000099302235172C9B2994013727F18D4E7D6
:104B30003B883D1D02937B88049368E0019B2F1DF9
:104B4000002B57D0002A55D02800FFF78FFDA76310
:104B50000500200000E000BF002800D17AE02A0014
:104B60000F213FE00199002928D1002A40D02A686E
:104B7000D70F6A68911C00D16CE021005831089170
:104B8000013219D0281DFFF736FE3A00010008ABAC
:104B9000200000E000BF071E2AD00D213000FFF7E3
:104BA00022FF089B2062022F02D1E36223002C33F4
:104BB0006362A562062019E01F00EEE70D213000B8
:104BC000276AFFF710FF874212D1A36A9D420FD1D7
:104BD0002800FFF74BFD0F2102003000FFF728FFF0
:104BE000220000213000FFF723FF07200DB0F0BDA9
:104BF00008352F003B680293002B00D178E7079B14
:104C0000022B00D094E73D007B6808350493039B9A
:104C1000049F0F219F43A36C3000FF18FFF7E3FEB2
:104C20000022874206D8029A039B9A43D719B842BA
:104C300080414242049B03995F0002231F40029B74
:104C40000B403B43012B00D18CE7002B00D175E7D3
:104C5000022B01D00920C9E72B68580043080293B2
:104C6000019B002B2BD1002A20D0069B1B0709D5C6
:104C7000029B002B1AD10D213000FFF7B4FE089BD8
:104C8000206295E7019F029B9F42F4D023000137E9
:104C9000B800583328180893FFF7ADFD08AB0100A2
:104CA0000022200000E000BF0028ECD02B68002B81
:104CB00000DA0435029F0137BF00EF199AE70D2192
:104CC0003000276AFFF78FFE8742EFD1A36A9D422B
:104CD000ECD1029B0027A36204232363EB18E76255
:104CE00063632B68BB4204DA029801308000281805
:104CF0006FE7039B0593D9E7059303927AE7C046D4
:104D00000000000010B50023FFF7D2FE10BD10B563
:104D10000123FFF7CDFE10BD10B50223FFF7C8FE3B
:104D200010BDF0B50400C5B016001D00042957D809
:104D30000800FBF7C5F9031B556D97000220002BF7
:104D400012D1A36B91B201380200AA40114204D0E3
:104D50001F68AA00A218576004330135102DF3D143
:104D60000020B20400D4A36345B0F0BD04232A00A0
:104D70009A43012A34D1B3B2370C0193FE18012DA6
:104D800000D095E0102E2BD80F2F29D80026012215
:104D9000236813420BD01900200091432160483052
:104DA000052D1FD102230B432360FBF701FA002ED0
:104DB00000D188E004222368134205D020009343E9
:104DC0002360D030FBF7F8F9012D00D083E022A852
:104DD000FBF7EAF989E0102ED8D9103E052DD6D080
:104DE0000220C1E7032293432360FBF7DDF9DEE7EE
:104DF00003681350043086E00F2F02D822A8FBF777
:104E0000D5F9002E00D1A4E002A8FBF7D3F9A0E069
:104E1000032BE5D1150C96B2AB19102BE0D8082264
:104E20002368134206D02000934351302360FF30A3
:104E3000FBF7C6F922A8FBF7C3F9A36B76001A00AB
:104E40003100ED00ED1A22A84519013906D2B6004D
:104E50009E19A66322A8FBF7B1F97AE01068A85062
:104E60000432F2E7002BBBD1102AB9D810222368F4
:104E7000134206D020009343D1302360FF30FBF76C
:104E8000A3F922AD2800FBF79FF900230121A26BB3
:104E900008009840064203D0176898002F5004324B
:104EA0000133042BF4D1A2632800FBF78BF950E007
:104EB000202E95D80F2F8ED9019E002E08D0052DBB
:104EC00000D177E78CE7012D45D122A8FBF76CF9DB
:104ED000019B00260BE00F2F04D822A8FBF768F9EE
:104EE000002EF5D002A8FBF767F91023DB1BA16B9E
:104EF0000A00002B0FDD08005B00FA0001939C46BE
:104F0000521A22AB9A186346013B9C4600D36FE7C6
:104F1000019B9B00CA18002E11D03B00102F00D21D
:104F20001023103B02A9DB005B181900F3009C461C
:104F30000023D058C85004336345FAD1D218012D4C
:104F400000D10432A263012D00D055E722A8FBF75F
:104F500029F9002008E70F2FBAD8BEE7027A03002C
:104F6000002A11D1427AB020002A0CD0013A5A729C
:104F70005A68111D126859601A6003221A721A6861
:104F8000100E12021A607047013AF7E7F0B50023DD
:104F900005000F0087B002933800FFF7DFFF040021
:104FA000B02815D10024029BA3420ED105AE2300E8
:104FB0000E22210000962800FFF7FBFC009623003C
:104FC0000F2221002800FFF719FD200007B0F0BDD7
:104FD00003061BD4FF2386001E4005AB009300236D
:104FE0000D2219002800FFF7E4FC0436059B620639
:104FF0000AD59E1B05AB0596009300230D221900D0
:105000002800FFF7FBFCC7E79E19F3E703000F2218
:105010009343DBB2802B1AD104023800FFF79EFFC6
:10502000802604433602B44201D10924CDE723018E
:10503000039300232405220C19002800FFF771FEBA
:105040000028F2D1039B3342A6D00123A3E7902B83
:105050000FD10D2603003340B342E6D000230F22C8
:1050600005AC0240009419002800FFF7A2FC009450
:10507000C3E7A02B0FD1FF2307221B011900824396
:1050800011410A001A40030702D58023DB011A43AD
:10509000002319000FE0B02B56D1B12812D13800EF
:1050A000FFF75CFF021EC0D001000F239943C9B275
:1050B0000029BAD10B002800FFF733FE002800D1E9
:1050C0006AE7B2E7B22823D1002305AC0D2219000C
:1050D00000942800FFF76DFC3800FFF73FFF022621
:1050E0007F230340B3408021059A0140D318002953
:1050F00008D1812292009B18F83A059300940B0086
:10510000FF3A7DE7380005930736FFF727FFE7E70B
:10511000B3280CD13800FFF721FFF02302031B0353
:1051200013400F22024001321A430123B1E7FC234E
:105130000340B42B00D178E7072380221C400134C0
:1051400012032243063BA4E7C02B4ED1C6280CD144
:105150003800FFF703FFF02302031B0313400F2265
:10516000024001321A43032393E7C7280ED13800C7
:10517000FFF7F4FE021E00D157E703000F218B4317
:10518000DBB2002B00D050E70B3994E70300072275
:105190009343DBB2C02B07D1A022B13B1C400134AA
:1051A000120322430C3B74E7C8280ED13800FFF7E6
:1051B000D5FE0F2302009A43D2B2184010321203D8
:1051C000013002430A3B012175E7C92800D02CE7D2
:1051D0003800FFF7C3FEF02302031B0313400F2226
:1051E000024001321A430523EDE7030007229343EF
:1051F000DBB2D02B00D018E7144080220134120318
:105200002243CB3BDFE7000010B5062000F0BCF8DE
:10521000012000F061F9C04610B501000023002212
:10522000002000F0D3F810BD70B5094B094CE41A0A
:10523000A41009D0084AA518AD00ED182B68013C50
:105240009847043D002CF9D100F04EF970BDC046DE
:10525000E4570008E8570008FFFFFF3F70B50D4E08
:105260000D4DAD1BAD1006D00024A300F358013442
:105270009847A542F9D100F031F9084E084DAD1B11
:10528000AD1006D00024A300F35801349847A5427E
:10529000F9D170BDDC570008DC570008DC57000866
:1052A000E4570008F0B50F2A37D90D0005430C006C
:1052B0000300AD0735D11500103D2D092E0136181C
:1052C000103627681F6067685F60A7689F60E7689F
:1052D0001034DF601033B342F3D10F2401352D01B8
:1052E000491914404519032C1DD90023CE58EE50FE
:1052F0000433E61A032EF9D80323043CA40801342E
:10530000A4001A402D190919002A05D00023CC5CED
:10531000EC5401339342FAD1F0BD0500002AF5D1D7
:10532000FAE70500F2E72200F8E7C04670B505008D
:105330000C001F2922D8B7239B00C358002B0ED086
:105340008A009B181A68002A09D0012A10D0511C23
:1053500010D00021200019609047002070BD280067
:1053600000F030F822000100280000F017F8F5E7FF
:105370000020F3E7162303600120EFE71623036004
:1053800001204042EAE7C04610B5034B010018680F
:10539000FFF7CCFF10BDC04658010020002370B5B8
:1053A000074C050008001100236000F08DF8431C35
:1053B00000D070BD2368002BFBD02B60F9E7C046FE
:1053C000AC11002010B500F077F810BDF8B5DE463E
:1053D0009B46314B45461C68A4234E4657465B000E
:1053E000E0B50500E0580E00904600284BD0436819
:1053F0001F2B0DDC5C1C002D21D102339B0044606F
:105400001E5000203CBC90469946A246AB46F8BDD3
:10541000224B002B3CD0C820400000E000BF0028F9
:1054200036D0A42200235200A15843600160A0504E
:1054300040328350043283500124002DDDD09A0085
:1054400091468144424688214F467A50C4225200F8
:105450009046804442468739994012688A460A43FA
:105460009446424661461160842249465F46520096
:105470008F50022DC1D1020055468D32FF32116886
:105480000D431560B9E720004D30FF30E050AEE726
:1054900001204042B6E7C046A056000800000000C8
:1054A000034B10B5002B02D00248FFF7B5FE10BD2C
:1054B000000000002952000858220120014B404200
:1054C0001A607047AC11002058220120014B404265
:1054D0001A607047AC110020FEE7C046F8B5C04620
:1054E000F8BC08BC9E467047F8B5C046F8BC08BC7E
:0454F0009E4670471D
:1054F40002030405060708090A0B0C0D0E0F101011
:105504000102030405060708090A0B0C0D0E0F100F
:10551400000201025372632F757362645F636F6EDE
:10552400662E63005372632F73746D333266307862
:10553400785F68616C5F6D73702E63004344432031
:10554400436F6E6669670043444320496E74657215
:105554006661636500436564617276696C6C65209D
:10556400556E69766572736974790043616E4E6F26
:1055740064652043414E204465766963650030309C
:105584003030303030303030314100000000000025
:1055940000000001020304060708090000000000DF
:1055A40000000000000000000000000000000000F7
:1055B40000000000000000010101010101010101DE
:1055C40001010101020202020202020203030303B7
:1055D400030303040404040405050505060606067E
:1055E400070707070808080909090A0A0A0B0B0B29
:1055F4000C0C0D0D0D0E0E0F0F10101111121213B5
:105604001314141515161617181819191A1B1B1C20
:105614001D1D1E1F20202122232324252627272861
:10562400292A2B2C2D2E2F30313232333436373871
:10563400393A3B3C3D3E3F40424344454648494A53
:105644004B4D4E4F515253555657595A5C5D5F60FE
:105654006263656668696B6D6E7072737577787A6C
:105664007C7E7F81838587898A8C8E90929496989C
:105674009A9C9EA0A2A4A7A9ABADAFB1B4B6B8BA88
:10568400BDBFC1C4C6C8CBCDD0D2D5D7DADCDFE12B
:10569400E4E7E9ECEFF1F4F7F9FCFF006001002026
:1056A400D0B2FF7FB0A9068068B3FF7F010000007D
:1056B4000CB4FF7FB0AB0C8000B5FF7F010000008D
:1056C40020B6FF7FAB08B180B0B6FF7FB0B0AA8030
:1056D400ECB6FF7F0100000014B7FF7FAA0FB18072
:1056E4006EB7FF7FB0B0A8808CB7FF7FAB08B180E6
:1056F4003CB8FF7F0100000020E9FF7FB0B0A88024
:1057040038E9FF7F010000004CE9FF7FAB07B1805F
:1057140044EAFF7F010000006CEAFF7FB0B0A8807C
:10572400B4EAFF7FB0B0AA8038EBFF7FB0A817803F
:10573400B4EBFF7FAA0FB180F8EBFF7FB0AB3080F2
:1057440008EFFF7FB0B0A88020EFFF7F01000000CA
:10575400C4EFFF7FA907B18050F0FF7FB0B0A880ED
:1057640092F0FF7F0100000098F0FF7FB0B0AA80A4
:10577400CCF0FF7FAB76B28078F1FF7FAA3F378011
:10578400BEF1FF7FB0B0A880CAF1FF7FB0B0AA809D
:1057940004F2FF7FB0B0A88016F2FF7F0100000082
:1057A400A4F2FF7FAA0DB28004F3FF7FB0AB0C809C
:1057B40050F5FF7FB0B0A88066F5FF7FAB3F048053
:1057C40098F7FF7F01000000C0F7FF7FB0AB0680B1
:0857D40032FAFF7F0100000022
:0857DC00A1540008E5020008D9
:0457E400BD020008FA
:1057E8002903000805030008090300080D03000841
:1057F800710800087D08000889080008A508000845
:10580800C1080008DD080008F908000812010002B4
:105818000202004083044057000201020301000015
:105828000403090400127A00A13E0008653E00083E
:10583800ED3D000800000000553D00083F3D000810
:10584800B93D000800000000000000000000000052
:10585800953D0008893D0008A13D0008AD3D0008C0
:1058680009024300020100C03209040000010202DB
:10587800010005240010010524010001042402028E
:105888000524060001070582030800100904010029
:10589800020A000000070501024000000705810216
:1058A8004000000009024300020100C03209040060
:1058B8000001020201000524001001052401000175
:1058C80004240202052406000107058203080010CB
:1058D80009040100020A0000000705010200020095
:1058E80007058102000200000A06000200000040CD
:1058F8000100000009074300020104C03209040046
:105908000001020201000524001001052401000124
:10591800042402020524060001070582030800FF8B
:1059280009040100020A0000000705010240000006
:10593800070581024000000060010020000000000F
:10594800000000004C040020B40400201C050020C6
:10595800000000000000000000000000000000003F
:10596800000000000000000000000000000000002F
:10597800000000000000000000000000000000001F
:10598800000000000000000000000000000000000F
:1059980000000000000000000000000000000000FF
:1059A80000000000000000000000000000000000EF
:1059B80000000000000000000000000000000000DF
:1059C80000000000000000000000000000000000CF
:1059D80000000000000000000000000000000000BF
:1059E80000000000000000000100000000000000AE
:1059F8000E33CDAB34126DE6ECDE05000B00000073
:105A0800000000000000000000000000000000008E
:105A1800000000000000000000000000000000007E
:105A2800000000000000000000000000000000006E
:105A3800000000000000000000000000000000005E
:0400000508003F9917
:00000001FF
