:020000040800F2
:1000000000180020753F00080108000803080008D8
:1000100000000000000000000000000000000000E0
:10002000000000000000000000000000F53F000894
:100030000000000000000000F53F0008050800086F
:10004000F53F0008F53F0008F53F0008F53F0008C0
:10005000F53F0008F53F0008F53F0008F53F0008B0
:10006000F53F0008F53F0008F53F0008F53F0008A0
:1000700011080008F53F0008F53F0008F53F0008AB
:10008000F53F00080000000000000000F53F0008F8
:1000900000000000F53F0008F53F0008F53F0008AC
:1000A00000000000F53F0008F53F0008F53F00089C
:1000B000F53F000800000000210800083108000892
:1000C00002B4714649084900095C49008E4402BCEB
:1000D0007047C04603B47146490840004900095AB8
:1000E00049008E4403BC7047002934D0012300220C
:1000F00010B488422CD301242407A14204D28142A7
:1001000002D209011B01F8E7E400A14204D28142B6
:1001100002D249005B00F8E7884201D3401A1A4333
:100120004C08A04202D3001B5C0822438C08A0426A
:1001300002D3001B9C082243CC08A04202D3001B20
:10014000DC082243002803D01B0901D00909E3E79A
:10015000101C10BC704701B5002000F05FF802BD14
:100160000029F8D003B5FFF7C1FF0EBC4243891A3E
:100170001847C046002941D010B4041C4C40A44686
:1001800001230022002900D54942002800D5404221
:1001900088422CD301242407A14204D2814202D2F6
:1001A00009011B01F8E7E400A14204D2814202D216
:1001B00049005B00F8E7884201D3401A1A434C0813
:1001C000A04202D3001B5C0822438C08A04202D349
:1001D000001B9C082243CC08A04202D3001BDC0871
:1001E0002243002803D01B0901D00909E3E7101CB2
:1001F0006446002C00D5404210BC704701B5002079
:1002000000F00CF802BDC0460029F7D003B5FFF797
:10021000B3FF0EBC4243891A1847C0467047C04618
:10022000011C343138C9043B9C461D60A646011CA4
:1002300020313CC990469946A246AB46011C083184
:10024000FCC941680068E54600BDC0467047C0462D
:100250007047C0467047C0467047C0467047C046AA
:100260007047C0467047C0467047C0467047C0469A
:100270007047C04601B401A801B585B0FFB408A815
:1002800041464A4653465C4665463EC001A83EC8C4
:100290000F98009000230CB401A904F015FA109BEC
:1002A00012B0184701B401A801B585B0FFB408A881
:1002B00041464A4653465C4665463EC001A83EC894
:1002C0000F98009000230CB401A904F02EFA109BA3
:1002D00012B0184701B401A801B585B0FFB408A851
:1002E00041464A4653465C4665463EC001A83EC864
:1002F0000F98009000230CB401A904F037FA109B6A
:1003000012B0184701B401A801B585B0FFB408A820
:1003100041464A4653465C4665463EC001A83EC833
:100320000F98009000230CB401AB04F0F4F9109B7B
:1003300012B0184701B401A801B585B0FFB408A8F0
:1003400041464A4653465C4665463EC001A83EC803
:100350000F98009000230CB401AA04F05FFA109BE0
:1003600012B0184710B5064C2378002B07D1054B67
:10037000002B02D0044800E000BF0123237010BD11
:100380008805002000000000B8540008044B10B598
:10039000002B03D00349044800E000BF10BDC04655
:1003A000000000008C050020B854000800207047B1
:1003B0000020704710B5054C0100200003F0A0FD9F
:1003C000200003F0BFFD002010BDC046340C00200B
:1003D00010B5064C00220649200003F086FD0549B1
:1003E000200003F08DFD002010BDC046340C00201D
:1003F000D4090020D00900200A00862110B5084C3D
:10040000890003006058043941580120002906D1B1
:100410001900200003F069FD200003F078FD10BDF5
:10042000340C002007B50B4B02689A4211D1802092
:10043000094A0004D1690143D161D3690022034014
:1004400001931F201100019B02F086F81F2002F08B
:10045000ADF807BD005C004000100240010087239A
:1004600010B59B00ED31FF31C05803F017F910BDF6
:100470001C234B43C318FC33DA69872310B59B0058
:10048000C05803F03FF910BD1C234B43C3189A6BAF
:10049000872310B59B00C05803F06EF910BD872369
:1004A00010B59B00C05803F0F6F910BD70B5872455
:1004B0000500A4000121005903F0D8F9285903F0E0
:1004C000B1F970BD872310B504009B00C05803F03C
:1004D000D0F9A369002B04D00623024A11690B430B
:1004E000136110BD00ED00E0836910B50400002B1E
:1004F00006D00621054A13698B43136103F0E4FD1E
:1005000087239B00E05803F0BFF910BD00ED00E029
:10051000872370B505001E489B00C5501D4B8824DD
:1005200003600823022243600023A4002851826054
:10053000C36002618361C361036200F0FBFC0028B9
:1005400004D092211448490003F07AFF0022285970
:100550001100182301F0C2FC2859582300228021E1
:1005600001F0BCFC2859C0230022812101F0B6FC17
:10057000882328595B000022012101F0AFFC802371
:1005800028595B000022822101F0A8FC002070BDE8
:10059000140A0020005C0040F454000888239B00EB
:1005A000C05810B500F00CFD0223032801D8024BFF
:1005B0001B5C180010BDC046F054000810B51400B4
:1005C0001A0023008824A400005900F019FD02231A
:1005D000032801D8014B1B5C180010BDF054000823
:1005E00088239B00C05810B500F054FE0223032856
:1005F00001D8024B1B5C180010BDC046F054000827
:1006000088239B00C05810B500F092FF02230328F6
:1006100001D8024B1B5C180010BDC046F054000806
:1006200088239B00C05810B500F0CCFF022303289C
:1006300001D8024B1B5C180010BDC046F0540008E6
:1006400088239B00C35848B21C22002806DA7F206A
:1006500001404A439B182A33187870474A439B1835
:10066000FF33D87AF9E7000088239B00C05810B503
:1006700000F0AFFC0223032801D8024B1B5C1800DA
:1006800010BDC046F054000810B58824A4000059DD
:1006900001F006F80223032801D8024B1B5C180066
:1006A00010BDC046F054000810B58824A4000059BD
:1006B00000F090FE0223032801D8024B1B5C1800B7
:1006C00010BDC046F0540008882310B59B00C058E8
:1006D00000F024FF10BD000000487047A405002072
:1006E0007047000007B501200D4A916901439161EF
:1006F0009369002203400430110001934042019BA2
:1007000001F02AFF002202201100404201F024FFE4
:10071000002201201100404201F01EFF07BDC0462B
:100720000010024010B5114B026886B09A421BD1EE
:1007300080200F4A800091690024014391619369F0
:1007400001A903400093009B01230A48019302334F
:100750000293039401F04CFE0C202200210001F0D2
:10076000FBFE0C2001F022FF06B010BD002401406A
:10077000001002400004004810B5144B026886B017
:100780009A4220D18020124A8004D169002401437A
:10079000D161D36901A903400093009BC0239B0052
:1007A000019302230293013304930A480133059312
:1007B000039401F01DFE1E202200210001F0CCFE5A
:1007C0001E2001F0F3FE06B010BDC04600640040DC
:1007D0000010024000040048074B026882B09A42B1
:1007E00008D10220054AD1690143D161D369034090
:1007F0000193019B02B070470004004000100240CA
:100800007047FEE710B501F04BFB01F002FF10BD91
:1008100010B5024801F0FCFC10BDC046FC080020E9
:1008200010B5024802F018F810BDC0464809002073
:1008300010B5024801F03AF810BDC046140A002075
:1008400010B5094C00220949200002F0E9FE0849D0
:10085000200002F0FFFE0749200003F03DFB2000CE
:1008600002F001FF10BDC046340C00201000002033
:100870004800002000000020122301480B80704730
:100880002C000020042301480B807047400000200A
:1008900010B5044C0A000448210003F0C1F92000FF
:1008A00010BDC046580E00201D55000810B5044C60
:1008B0000A000448210003F0B3F9200010BDC0462F
:1008C000580E00203355000810B5044C0A000448A7
:1008D000210003F0A5F9200010BDC046580E0020ED
:1008E0004655000810B5044C0A000448210003F0E6
:1008F00097F9200010BDC046580E0020045500088E
:1009000010B5044C0A000448210003F089F92000C6
:1009100010BDC046580E00200F5500080121114B94
:1009200011481A680A431A605A6802405A601A68E5
:100930000E4802401A601A680D4802401A605A6850
:100940000C4802400F205A60DA6A8243DA621A6B5E
:10095000094802401A635A6B8A435A6300229A601C
:100960007047C046001002400CB8FF08FFFFF6FEBB
:10097000FFFFFBFFFFFFC0FF2CFEFFFF30B51F4C4A
:1009800087B02378062B31D180231D4A9B04D1697F
:1009900001250B43D36180230193002301A919484A
:1009A00003930493029501F023FD1748FFF7E4FE3B
:1009B000164B1A682A431A605A682A42FCD0022051
:1009C00001211A6882431A601148124A007812788D
:1009D000000412050243104800880243DA611A68D5
:1009E000AA431A605A680A40FCD122700022802172
:1009F000044801F0A7FD07B030BDC0460D08002037
:100A00000010024000040048C807002000640040B5
:100A1000C4070020C50700200E08002000B50828E4
:100A200032D81B491B4A1C4BFFF74AFB050B0F151D
:100A30001C21252A2F009F200880032111700422E9
:100A40000EE063200880022102E01F2008800421BC
:100A50001170032204E01320088003211170022288
:100A60001A7011E00720088010700622F8E70720AE
:100A700008800121E2E70120088007211170F4E7D6
:100A8000022008801070187000BD0120DAE7C0460F
:100A90000E080020C4070020C507002010B5042060
:100AA000FFF7BCFF044B054A1A600022044B1A7082
:100AB000044B06321A7010BDC807002000640040C5
:100AC0000C0800200D080020F0B501268DB0089616
:100AD0000A96019690260023B60019001A001C0001
:100AE000B4460393029305930493099306930B93DF
:100AF00000938726304DB600AE593700019E9E40C8
:100B00003E424AD08127BF00EF59374242D0624669
:100B1000DE007619B758B258120C12D091256246F1
:100B2000AD00B2587159120C00291AD1400105903C
:100B300002A92248079303970292023401F090FD24
:100B40000CE00793009B0397002B00D00591400118
:100B5000029002A9194801F083FD0134E0B20DB002
:100B6000F0BD715975592D0C0BD1400105910490C0
:100B700002A91248079303970292033401F070FD13
:100B8000ECE7019D0434E4B2009501330C2BB0D1A5
:100B90000B48E4E70234E4B2F7E7009D002D01D0F2
:100BA000029205914001039002A90448079301F0C5
:100BB00057FDA0B2D3E7C04600640040C80700203C
:100BC000FFFF0000C0230121234A5B0070B5D45809
:100BD00000230C420CD09133FF33D4580B000C424D
:100BE00006D0A031FF3151580522194232D1DB180D
:100BF000194A1B019918C0220488520064058C50C0
:100C00000479002C03D002248D582C438C500F24DF
:100C10008278053022407634FF340A510F4A104C56
:100C20009D1800221B192A601A6004792E689440CE
:100C300034432C6004781E689440083234431C60AE
:100C40000130202AF1D101236132FF328858034359
:100C50008B500022100070BD006400408C65004085
:100C6000886500401A4B30B5D968022289072CD01C
:100C7000D82149005A58520D0280002202715A5858
:100C8000920701D501220271DA210F2449005A5836
:100C9000DE25224082705A58AA34120AC2700022FD
:100CA00005306D00FF345959D14001711959D140B7
:100CB000083201700130202AF5D1D9680A43DA6080
:100CC000044A1378013B13700022100030BDC04667
:100CD000006400400C080020034BD8680323184030
:100CE000431E9841C0B2704700640040F8B5224EE0
:100CF000050033780C00002B08D1FFF7CFFE06204B
:100D0000FFF78CFEFFF73AFE0123337000261B4BE2
:100D1000B1005B58002B04D00136322EF7D12800E9
:100D2000F8BD18202F0084462A1D1C37AC441380C0
:100D3000023208C76245FAD1104A20005550AB6410
:100D4000EB642C80FFF7C0FE601C80B2FFF7BCFE96
:100D5000A01C80B20334FFF7B7FEA0B2FFF7B4FEC9
:100D60000122B240064BD117186802431A605A6834
:100D700011435960D3E7C046EA0800201408002058
:100D8000F00800200F4B70B50024994212D8A242FF
:100D900010D023005C000419A588002D0CD1063367
:100DA0009B00C318A1805A600124342902D908008D
:100DB000FFF78AFE200070BD01330A2BEAD1002420
:100DC000F8E7C046FF0700001FB580236A4653714D
:100DD0000B0AD3710B0C137200239171090E51721F
:100DE000052113710388684691701380FFF7EAFEAE
:100DF00005B000BD7FB56B466A46188000231371AD
:100E00002A330C1E53711CD001256B4600219D70A6
:100E10000123DAB2082B18D0180021786844013277
:100E20004171D2B2013300290CD16B462E009A7069
:100E300005216846FFF7C6FE322001F03FF8002E7C
:100E4000E3D07FBD01342900E3E7002901D06A46E1
:100E500093700026ECE7038810B501339BB2816CD8
:100E60001800FFF7C7FF10BD038810B502339BB20F
:100E7000C16C1800FFF7BEFF10BD0000F8B5FFF70A
:100E80002BFF00281AD0284C05212000FFF7EAFE8E
:100E9000264E3700C8373068002823D022880388C0
:100EA0009A420CD12179002909D083692000984702
:100EB0000436BE42EFD100221D4B1A70F8BD591CFA
:100EC0008A4205D12179002902D0FFF7C4FFEFE75C
:100ED00002339A4206D100252379AB4203D0FFF7B3
:100EE000C3FFE5E700253368002B0DD06A009A1890
:100EF000918822888A420BD1AA1D92009A185268C2
:100F0000002A05D02000904701350A2DEBD1CFE70C
:100F1000E2788A42F8D1AA1D92009B185B68002BE8
:100F2000F2D020009847EFE7DC08002014080020EA
:100F30001008002070B504000120002C2BD0EA25F9
:100F4000FF35635DDBB2002B05D1F4225200A354C0
:100F50002000FFF767FA03230022635523001100E6
:100F6000012660682833904216D100212300080032
:100F70000933FF338A4218D10020012123689A1CCB
:100F80009E1D5033D187D087F08718800B4BD387B5
:100F9000631DD877615570BD1A705E70D970D960C5
:100FA0001961596101321C33DDE719705870D8702E
:100FB000D8601861586101311C33DBE700BFFFFFC7
:100FC00080210368090258331A8800200A431A80D6
:100FD0007047F42210B55200835C04000220012BFC
:100FE00009D00123A354002906D1236880314C3352
:100FF00019800020A05410BD631DD977F9E70000C7
:10100000F7B57F264DB204000E401C20002D1DDADE
:101010007043010028316118CB70F423ED0F0E707E
:101020004D70CA605B00E55C0220012D00D1EDE04F
:101030000138E054C8782368032814D80D78894E05
:10104000AD005D19FFF73CF806500C4B41430931E8
:10105000FF31E0E7288830408026B600064301E0F3
:10106000288806402E8008787F4E84466746850093
:101070005D19288830407D4E3743384328808D7A6B
:10108000794F0878BC460196002D64D101268D88E1
:10109000C000B5434E7837001E005036002F27D0D1
:1010A00032889A1810188022D200801805800A7899
:1010B00092009A181088450604D5674607406C4888
:1010C000074317800A786B4992009B181A881140D1
:1010D00020224A40019911430A001A8092E0288890
:1010E0003040C026F600B9E7288830408026F9E76E
:1010F0003788DF193818604FC0190580087835889F
:10110000C00040195D4D5D1940193E2A1CD9550992
:10111000D20601D1013DADB2594AAD021543058059
:101120000A7892009A181088450404D5654628402C
:10113000544D284310800A78534992009B181A880E
:101140001140C0229201C4E701265508324200D066
:10115000AD19AD02E3E78000181802884B4D454FEA
:1011600015404B4A2A431D0002800A7850352888D2
:10117000D20012188020D218C00012180120CE8888
:101180008643168080260A782D88D20052193A4D5F
:10119000D21852190D89F601854315800A784878CE
:1011A00092009A18002832D11088304204D0654647
:1011B0002840344D284310800A782D4892009A1810
:1011C00015886E0603D5664635400543158066468C
:1011D0000A7892009A1815883540284310800A78BA
:1011E000294892009A1815880540C020800168405F
:1011F000019D284310800A7892009B181A88174096
:101200002F431F80F42300205B00E054FEBD1088B4
:101210001C4D304203D066463040284310800A7887
:1012200092009A181088460604D566463040104E43
:101230003043108066460A7892009A181088304031
:10124000054315800A7892009A1810880740019883
:10125000074317800A780C4992009B181A880A40A5
:1012600002433AE78F89FFFF0F0F00008080FFFFE6
:10127000C080FFFFBF8FFFFF0404000006040000D2
:101280000080FFFF80C0FFFF8FBFFFFF0F0E000039
:101290008081FFFFF0B506007F204AB208401C2382
:1012A000002A2EDA434328331900F4237118D20F91
:1012B00008704A705B00F25C0220012A20D00122F3
:1012C000F2540A783368887A92004F783B4D9A1826
:1012D000002827D11088002F17D0440604D5384C99
:1012E0002040384C204310800A78374992009B18E0
:1012F0001A880A4015431D80F42300205B00F05437
:10130000F0BD59430931FF31CFE7440404D52C4CDB
:1013100020402E4C204310800A782D4992009B18C3
:101320001A88E6E780201488C001204084462448BB
:10133000002F22D16746002F03D0244F04403C43A6
:1013400014800A781F4C92009A181788A4467C06CD
:1013500003D5644607402743178064460A78920005
:101360009A1817883840044314800A78184C920061
:101370009A18108820402843B5E76746002F03D00D
:10138000124F04403C4314800A7892009A18148843
:10139000670603D50B4F04403C4314800A780B4F7B
:1013A00092009A1814882040074317800A78064C48
:1013B00092009A18108820402843ACE78080FFFFF5
:1013C0000F0F0000C080FFFFBF8FFFFF80C0FFFF37
:1013D0008FBFFFFF70B504007F2001406338484392
:1013E00020180500FC35EA612B620022F423FF304F
:1013F0006A625B0082724172E65C0220012E38D084
:101400000138E0542B6AA869834233D91B1A2B6236
:101410001C224A43A218FF32D67C2568537A002E3C
:101420002BD12A0050321288DB009B18364AAA18AA
:101430009B183E2860D9420992B2C00601D1013AF8
:1014400092B23248920202431A801C235943611817
:10145000FF314B7A2E4A9B00EB181988002011406F
:10146000C022920151402B4A0A431A80F4235B00A8
:10147000E05470BD2A621800CAE7927A002A2FD180
:101480002A0050321288DB009B18234AAA189B18A6
:101490003E281DD9420992B2C60601D1013A92B244
:1014A0001A4E920232431A801C234B43E318FF3337
:1014B0009A7A5B7A002AB4D0012AC6D12A00503227
:1014C0001288DB00EB189B180F4A9B181880BCE7AA
:1014D000420892B2C60701D5013292B29202E2E707
:1014E000012AE1D12A0050321688DA00AA180A4BE4
:1014F0009219D2181080D7E7420892B2C00701D5DE
:10150000013292B292029FE7060400000080FFFFC2
:101510008FBFFFFF8080FFFF020400007F230B408E
:101520001C2159434018FC30406A80B270470000CB
:10153000F42330B55B00C25C04000220012A20D0F5
:10154000012248B2E2547E32CD3B0A40FF3B0028E4
:1015500018DA534328331900012361188B70C30F25
:101560000A704B7025681249002A0FD12B88114A46
:101570001A40114B534019432980F42300205B008B
:10158000E05430BD59430931FF31E5E79200AA1814
:101590001388002806DA0948034010204340194305
:1015A0001180EAE70648034080204001F6E7C04684
:1015B0008080FFFFBFBFFFFF10100000BF8FFFFF45
:1015C0008FBFFFFF70B57F24020048B20C401C2380
:1015D00000282FDA634328331900002351188B7039
:1015E000C00FE93348700C70FF33D45C0220012C2B
:1015F0001FD00138D0544B7808781568184C8000FB
:10160000002B1BD0281803885E0604D5154E3340E6
:10161000154E334303800B7814489B00EB18198850
:101620000840302141400C431C80F42300205B0023
:10163000D05470BD59430931FF31CEE72B181888BB
:10164000460404D5074E3040094E304318800B78CD
:1016500008489B00EB1819880840C0218901E1E780
:101660008080FFFF0F0F0000C080FFFFBF8FFFFFD4
:1016700080C0FFFF8FBFFFFF30B58024E40000195A
:10168000013382185B08521A5418002B00D130BD68
:1016900048780D78000228432080013B0231F3E7AF
:1016A000F8B57F250D401C2169434118CB630B0021
:1016B0008A630026012229330E64013B5A701D7093
:1016C000F4235B00C75C04000220974236D0E2544A
:1016D000CB6B4A6B934232D99B1ACB631C21694373
:1016E00061180B000F0032331B78206896B2283740
:1016F000002B27D18A8D3300896BFFF7BDFF23684C
:101700001A00503211883A78D2009B18514A5B185F
:101710009B181E801C214D43651928352B782268A3
:101720009B00D31819884C4A0020114030225140A8
:101730004A4A0A431A80F4235B00E054F8BDCE63A2
:101740001A00CBE73B7829319F003F5A09787F0682
:1017500045D5002937D1010050310988DB005B18DD
:101760003F4941185B183E2A25D9510989B2D20652
:1017700001D1013989B23B4A8902114319801C23E6
:101780006B43E3181A8E1C276F43E7193300B96BBC
:10179000FFF772FF3B0029331B782168002B4DD1E6
:1017A00028373B789B00CB181A882F4911402F4AC5
:1017B0000A431A80AEE7510889B2D20701D5013138
:1017C00089B28902DAE70129D9D1020050321288A0
:1017D000DB00C3189B18224A9B181E80CFE7002904
:1017E00020D1010050310988DB005B1819494118EC
:1017F0005B183E2A0ED9510989B2D20601D10139AE
:1018000089B2184A8902114319801C236B43E318DB
:10181000DA8DB8E7510889B2D20701D5013189B212
:101820008902F1E70129F0D1020050321288DB0071
:10183000C3189B18074A9B181E80E6E7012B00D0AF
:1018400068E728373A7892008B181A8806491140C1
:10185000074AADE702040000BF8FFFFF8080FFFF53
:10186000060400000080FFFF0F0F0000C080FFFF94
:1018700080C0FFFFF0B58025ED0040195C0882189C
:1018800026000800571A3D18002E07D164000919D8
:101890001219DB0701D513880B70F0BD2D88013EAE
:1018A00005702D0A45700230EDE70000F0B50368C1
:1018B00085B00633DB8F04001BB2002B00DA61E039
:1018C00023680633DA8F52050AD5DA8F864920005D
:1018D0000A40DA87FEF7EAFD00212000FFF779FBD6
:1018E0002268931DD98F490403D5D98F7F480140C1
:1018F000D987D98F890403D5D98F7D480140D987ED
:10190000DB8FDB040FD50421931CDA8F20008A4380
:10191000DA87784ADA87FEF7E7FD236876490633E7
:10192000DA8F0A40DA8723689A1DD18F090512D50C
:10193000D18F724802330140D1870821D88F0143EB
:10194000D9870421D88F0143D987D38FDB0402D4F0
:101950002000FEF7B7FD23680633DA8F920506D51F
:10196000DA8F674920000A40DA87FEF798FD23687E
:101970000633DA8FD20503D5DA8F62490A40DA8757
:1019800005B0F0BD02AB9F1D00233B80206803AA79
:10199000831DDB8F9BB213801BB2002B00DB8FE714
:1019A0000F2316881E4000D0BCE010211388194078
:1019B0000388002926D1544A134003800300503382
:1019C0001A88230028331B78DB00C0184F4B80187F
:1019D000C0180388A26B9B059B0D2364D318A363D7
:1019E0002000FEF751FD631DDA7F002ACED0E06BA8
:1019F0000028CBD18022D97F114322684C3211803C
:101A0000D877C3E73B803A88120520D503005033CE
:101A10001A8884235B00E35C2100DB00C3189B1859
:101A20003B4AED319B1822001B8809329B059B0D18
:101A3000FF329361FF319288FFF71CFF226835491E
:101A4000138820000B401380FEF708FD9EE73A88BC
:101A500012B2002A9ADA2F4A2500134003800300AD
:101A600050331A8884235B00E35C0935DB00C3181C
:101A70009B18274AFF359B181B889B059B0DAB6164
:101A800007D0AA882969FFF7F5FE2B69AA699B1878
:101A90002B6100212000FEF7EBFC22681C4913009B
:101AA00050331B88E8685118C9183E2813D94309D8
:101AB0009BB2C00601D1013B9BB217489B02034376
:101AC0000B801188154B1940C0239B015940144BC2
:101AD0000B4313805AE743089BB2C00701D501337B
:101AE0009BB29B02ECE7C046FFFBFFFFFFBFFFFF7F
:101AF000FFDFFFFF00BDFFFFFFEFFFFFFFF7FFFF6F
:101B0000FFFDFFFFFFFEFFFF0F8FFFFF020400003E
:101B1000060400008F0F00000080FFFF8FBFFFFF53
:101B20008080FFFFB300C11801930B883B803A8887
:101B300012B2002A3BDA774A050013400B801C23BF
:101B40007343E3181A00FF32D17C5035527A0029D2
:101B500073D12988D20052186F491218521815886B
:101B6000AD05AD0D08D01A00FC331900FE32D28944
:101B70002B00C969FFF77EFE1C2319007143611811
:101B80000800FC30426A52194262C269521901923D
:101B9000C261026A002A03D08069854200D37FE0D7
:101BA0007343E318FF33597A2000FEF761FC80226B
:101BB0003B88134200D1E9E62068B300C3181A88B5
:101BC000564905000A401C21714361181A800B0018
:101BD00032331A7850350A3B002A69D11B782A889B
:101BE000DB009B184E4A1B189B181B889B059B0DFE
:101BF0000B6403D08A8D896BFFF73EFD22681300CA
:101C0000503318881C235E43A619310028310B7805
:101C1000DB00D318424A1B189B181A88B36B920535
:101C2000920D32649A18F36BB26309782000002B8E
:101C300000D06CE0FEF728FCA8E6D1009200125A12
:101C4000520420D52A88821852183549521815880E
:101C5000AD05AD0D08D01A00FE32128AFC33190012
:101C60002B00C969FFF706FE1C237343E318FF33FB
:101C70005B7A22689B00D3181A882A4911402A4AA5
:101C80000A431A8078E72A88821852182249521883
:101C90001588AD05AD0DE7D01A00FE32528ADDE79A
:101CA000FF311300497A019A2000FFF793FB7EE78A
:101CB0001B78DA009B001B5A5B061CD52B88C318C7
:101CC0009B18174A9B181B889B059B0D0B6403D020
:101CD000CA8D896BFFF7D0FC1C237343E3182833AC
:101CE0001B7822689B00D3181A880E4911400F4AAE
:101CF0000A431A8082E72B88C3189B18064A9B1850
:101D00001B889B059B0D0B64E6D00A8EE1E7FFF76D
:101D1000C7FC3BE68F0F0000060400000F8FFFFF9B
:101D2000020400000F0F0000C080FFFF80C0FFFF13
:101D3000F0B5036885B00500DB0328D580220021BB
:101D4000404C5205E3690091134208D1E369134303
:101D5000E361E36913400393039B0123009380270E
:101D6000394E7F0033683B4238D0C022236A92004C
:101D70001340364E44D1236A1E406B681E43009BBD
:101D80002662012B03D1E369314A1340E3612A68DB
:101D9000D30706D503202B490B6B8343A868034365
:101DA0000B63930606D5102026490B6B8343E86826
:101DB00003430B63930306D5802022490B6B8343B7
:101DC000686903430B630020530517D540211D4A62
:101DD000136B8B4329690B4313630FE033683B4359
:101DE000336000F065F8019033683B42BDD100F0EC
:101DF0005FF8019BC01A6428F6D9032005B0F0BD36
:101E000069680A409A42B6D08023226A206A11008B
:101E10005B0203432362236A0E483140034023627E
:101E20002162D307A7D500F043F807000222236AF6
:101E30001342A0D100F03CF8074BC01B9842F5D9E3
:101E4000DBE7C0460010024000700040FFFCFFFFCF
:101E5000FFFFFFEFFFFFFEFF8813000010B5040037
:101E600001F0D8FBFA218900FEF73EF900F0A8FB4B
:101E7000012000222100404200F06EFB002010BD36
:101E80001023064A10B5116800200B431360FFF7BA
:101E9000E5FFFEF727FC002010BDC04600200240F1
:101EA000024A1368013313607047C046581000207F
:101EB000014B18687047C0465810002037B5019094
:101EC000FFF7F6FF019C0500631C5A1E9341E418BE
:101ED000FFF7EEFF401BA042FAD337BD30B51C24FC
:101EE0000D060BD57F25294061432831411898B252
:101EF000002A07D18A728880002030BD61430931F1
:101F0000FF31F3E701221B0C8A72C8800B81F3E7D3
:101F1000002373B503210193036804009A680A4003
:101F2000012A07D11968114201D0002076BDDA6874
:101F30001204FAD49968194A114208D010230120DA
:101F4000626C13436364A36C0343A364EEE7012252
:101F500099680A439A60124B12491868FEF7C4F850
:101F60000190019B002B15D1FFF7A2FF0125060070
:101F700023681B682B42D8D1FFF79AFF801B0228E9
:101F8000F6D91023626C012013436364A36C2B43C6
:101F9000A364CBE7019B013B0193E2E717000080BC
:101FA0004400002040420F00F8B504000120002C3E
:101FB0007DD0636C002B06D122004032A364200048
:101FC0001370FEF7AFFB636CDB0600D584E00422E0
:101FD00023689868104000D07EE0626C414911404F
:101FE00002220A43032162649A680A40012A05D149
:101FF000196811420ED1DA6812040BD41821DA687C
:102000008A43A1680A43DA6019696268890089080D
:1020100011431961DA683449256A0A40DA60A26915
:102020006F039103E269D2031143626B013A561EBA
:10203000B2411603E268114322690F43022A00D11C
:102040000420226B616A52003A4332430243012961
:1020500004D1002D2CD1802149020A43C220A16A5B
:10206000FF30814202D0E06A01430A438020D968F0
:1020700040051143D960A16B814202D0481E062859
:1020800007D8072558692940A84358615869014372
:102090005961DB6815490B40934211D1002003229E
:1020A000A064636C93431A00012313436364F8BD77
:1020B0002020656C28436064A06C0143A164CDE7D7
:1020C0001222636C012093431A00102313436364AC
:1020D000A36C0343A364EAE71023626C012013435B
:1020E0006364E4E7FDFEFFFF1902FEFFE7FF3F83A5
:1020F000036870B59B68040002205B071AD42500B2
:1021000040352B78012B15D001232B70E369012B6F
:1021100011D1636C0B4A00201A4080235B001343EB
:102120001C2263642368A06428701A609968183AB6
:102130000A439A6070BD2000FFF7EAFE0028E8D04D
:10214000F8E7C046FEF0FFFFF8B5456904000E0051
:10215000082D0DD003680120DB680C25034207D051
:102160002023626C40341343636000232370F8BD66
:10217000FFF79EFE070023681A68154223D08022CD
:10218000616C92000A436264C022D9681201114254
:1021900012D1226A002A0FD11A6812070CD59A6848
:1021A000520723D40C215A688A435A60626C14493E
:1021B000114001220A4362640020A2698242D6D102
:1021C0000C221A60D3E7721CD6D0002E08D104234B
:1021D000626C403413436360002303202370C6E71E
:1021E000FFF766FEC01BB042C5D9F0E72022616C44
:1021F0000A4362640122A16C0A43A264DCE7C04680
:10220000FEFEFFFF0368186C704770477047704709
:102210000422036870B519680400114202D059689D
:10222000114206D108221968114228D0596811427A
:1022300025D0626CD20604D48022616C92000A43DD
:102240006264C022D9681201114212D1226A002AA6
:102250000FD11A6812070CD59A6852073CD40C218A
:102260005A688A435A60636C204A1A400123134318
:1022700063642000FFF7C9FF0C2223681A608025E1
:1022800023681A682A420CD05B682B4209D080234D
:10229000626C5B02134363642000FFF7B7FF23689F
:1022A0001D60102223681968114214D05968114228
:1022B00011D0626B012A02D0DA68D20708D5022257
:1022C000A16C20000A43A26410221A60FFF79FFF4E
:1022D000102223681A6070BD2023626C134363646C
:1022E0000123A26C1343A364C3E7C046FEFEFFFFB5
:1022F000F7B5002204000192403422780300022046
:10230000012A2BD001221D689E6BA868227040070D
:102310005AD40B682F481F00844648689A40103FE3
:1023200060453BD0A86A10438022A86252059642BD
:102330000FD0013E062E0CD98A6807216869084033
:10234000824206D068690A4088436861686902432E
:102350006A61022F03D9002000232370FEBD1E4AAC
:1023600080201168102B15D0112B15D1C00301430B
:102370001160102BEFD1194B19491868FDF7B4FE05
:102380000A2358430190019B002BE4D0019B013BA1
:102390000193F8E70004EAE74004E8E7A96A9143FB
:1023A000A962022FD7D80C4A1168102B0AD0113B12
:1023B000581E83410B485B4203400B481B180B40DF
:1023C0001360C8E7094BFAE72021586C01435964B0
:1023D0001000C1E701100000082701404400002060
:1023E00040420F00000040FFFFFFBFFFFFFF7FFFE5
:1023F000F0B50B6887B0039300230191039ADA408C
:1024000001D107B0F0BD01229A4002920299039ACD
:102410000A40009200D188E0019A1021526816000B
:102420008E43022E0ED107251D40AD000139A94073
:10243000DC08A4000419276A8F4301990969A9409F
:102440000F43276203245F00BC40E4430568013E5C
:102450002540AC4603251540BD4061460D4305604F
:10246000012E0FD801998668CD682640BD403543BE
:1024700085604668029915098E4301210D409D40F3
:1024800035434560C56801992C408D688021BD4069
:1024900049052C43C4600A4247D00121244C03263D
:1024A000A5691E400D43A561A4699D080C400594D3
:1024B000059C0F241F49AD00B6006D18B440902153
:1024C000AF68C905A7430024884208D01A490134DF
:1024D000884204D019490434884200D1033CB440F6
:1024E00000993C430E00AC60154CCD4327683E4339
:1024F000D10301D43E002E4026606768009E3E4313
:10250000910301D43E002E406660A768009E3E43C2
:10251000D10201D43E002E40A660E668009F3743FA
:10252000920201D42E403700E760013366E7C046CF
:10253000001002400000014000040048000800486C
:1025400000040140002A01D0816170478162FCE7EC
:10255000436959404161704730B5FF2503242A0083
:10256000C3B21C40E400A24089012940D243A140EB
:1025700000280BDA0F200340083B0A489B089B0009
:102580001B18D86902401143D96130BD064B800841
:102590008000C018C0239B00C45822401143C15082
:1025A000F3E7C04600ED00E000E100E01F23184023
:1025B0001E3B8340014A13607047C04600E100E0C3
:1025C000094A431E012093420DD8C021074A0848FA
:1025D0005360036A09061B021B0A0B4303620020B7
:1025E0000723906013607047FFFFFF0010E000E0DA
:1025F00000ED00E0054B1A68042802D11043186072
:10260000704704218A431A60FAE7C04610E000E0F0
:10261000704710B5FFF7FCFF10BD30B50400022273
:102620003C34257803001000012D17D01D001B68D5
:102630003D352A705A686E3082435A605A6808687D
:102640004968024380205A609A6882439A609A6877
:1026500000200A439A6001232B70207030BD0000D7
:10266000F7B50126802734000368BF00D8594D6AAA
:10267000009028020190009D31484A6905402800D9
:102680009440019D284330438726E543D851B60046
:10269000985928409851C869002835D1103E98595A
:1026A000D20028409851C8684E680004B6B2304342
:1026B00090269A18B600905188680E680004B6B249
:1026C00030439126B60090518122886992000028FB
:1026D0002FD19858284098508522086992000028E8
:1026E0002AD1985805409D500A6A012A04D18721B1
:1026F00089005A5814435C508021012089005A589F
:1027000082435A500020FEBD0128DDD18326B60049
:102710009859D2002043985108684E680004B6B218
:10272000304390269A18B60090518868CE6800040D
:10273000C5E798582043CEE7985820439850D3E7F0
:10274000FFC0FFFF70477047F7B5002961D1436BA9
:10275000D82602680C011519019404247600AF599B
:1027600027409F6057D1AF597F0D1F60DA270F2494
:10277000AE597F00B607F60FDE60EE59ED592640E0
:102780002D0A0C01EDB21419DD612500B935FF35B4
:102790001E612E68BD341E752E68FF34360A5E75C4
:1027A0002E681962360C9E752D682D0EDD75256814
:1027B0001D7625682D0A5D7625682D0C9D7624688A
:1027C000240EDC762023002929D1D46823430A244F
:1027D000D3605369A343536103003D331A78222A1F
:1027E00002D01A78322A04D10468194D62692A404D
:1027F00062611A78D2B200291BD1622A15D0722ADE
:1028000015D0422A21D1303A1A70FFF79CFF0020E0
:10281000FEBD836B9CE7AF59FF085F60A6E71469B4
:102820002343136153695024D4E73222ECE7522248
:10283000EAE7622A05D0722A05D0522A05D1403A29
:10284000E2E72222E0E74222DEE70122DCE7C0469F
:10285000FF70FFFF704700001022036870B5D96851
:1028600004000025114205D05969090702D58025C9
:10287000DA60AD0010221969114206D05969490683
:1028800003D58021C9000D431A615A69D2073AD590
:102890009A6864490A408A4209D09A6862490A40A3
:1028A0008A4204D09A6861490A408A422BD19A68C8
:1028B000920706D49A68920503D49A68920300D4CA
:1028C00092E001215A698A435A6122003D3211780F
:1028D000122903D159695648014059611378DBB276
:1028E000522B00D17AE0722B00D179E0422B00D03C
:1028F00078E0203B13702000FFF724FF22684D4B47
:1029000091680B43936023685A69920706D5DB6888
:102910009B0703D000212000FFF716FF23685A69A8
:10292000D20606D51B699B0703D001212000FFF7C3
:102930000BFF0122236C1D43236825649969114212
:1029400008D05969C90505D55969090402D5216C12
:102950000A43226402229969114208D05969890503
:1029600005D55969090402D5216C0A432264042261
:102970009969114208D05969490505D55969090471
:1029800002D5216C0A43226470219A690A4212D04E
:102990005A6912050FD55A6912040CD59A690A4072
:1029A000302A35D024D8102A2AD0202A2DD07021C0
:1029B0009A698A439A61226C002A0ED004225968CF
:1029C00020000A435A60220001213D3211705A69E9
:1029D00019490A405A61FFF73DFF70BD322389E76C
:1029E000622387E7012385E780231B011D4385E7D9
:1029F000502A10D0602A11D0402AD8D1216C01E091
:102A00000822216C0A432264D1E7216C1022F9E7E5
:102A1000216C2022F6E7216C8022F3E78022216CD2
:102A20005200EFE70100000400010008000001105F
:102A3000FF70FFFF19050100A470FFFF0122036A68
:102A400070B593430362036A4468856972329543A3
:102A50000A681543022293438A681343114A90423D
:102A600005D0114EB04202D0104EB04213D108260C
:102A7000B343CE6833430426B343904205D00A4A99
:102A8000904202D0094A904205D1094A8E692240FB
:102A90004C69344314434A6844608561426303626D
:102AA00070BDC046002C0140004401400048014078
:102AB000FFFCFFFF70B57325036A164A13400362DB
:102AC000036A4268C469AC430D682C43124D2B4025
:102AD0008D682D022B43114DA8420ED1104D1D4083
:102AE000CB681B022B430F4D2B400F4D4E691540F9
:102AF0008A69324312012A4305E00C4DA842F4D002
:102B00000B4DA842F1D042604A68C461C2630362BF
:102B100070BDC046FFFEFFFFFFFDFFFF002C014020
:102B2000FFF7FFFFFFFBFFFFFFCFFFFF0044014068
:102B300000480140036A124A30B513400362026A3A
:102B4000104C4368C56925400C68240225430E4C8F
:102B500022408C68240322430C4CA04205D00C4C2C
:102B6000A04202D00B4CA04204D10B4C23404C6934
:102B7000A401234343604B68C5610364026230BD16
:102B8000FFEFFFFFFF8CFFFFFFDFFFFF002C014087
:102B90000044014000480140FFBFFFFF70470000B4
:102BA0001D4A10B50368904206D08024E405A04277
:102BB00002D01A4CA0420CD17024A3434C6823438A
:102BC00090420FD08024E405A0420BD0134CA042C9
:102BD00008D0134CA04205D0124CA04202D0124C97
:102BE000A04203D1114C2340CC6823438024A3434B
:102BF0004C69234303608B68C3620B688362904215
:102C000005D0084B984202D0074B984201D10B697E
:102C100003630123436110BD002C01400004004008
:102C2000002000400044014000480140FFFCFFFF3D
:102C300070B504000120002C14D025003D352B7800
:102C4000DBB2002B05D122003C3213702000FDF7CF
:102C5000C3FD022320682B70211DFFF7A1FF012374
:102C600000202B7070BD70B504000120002C14D022
:102C700025003D352B78DBB2002B05D122003C32FC
:102C800013702000FFF78AFF022320682B70211D9C
:102C9000FFF786FF012300202B7070BD1022036A0E
:102CA00070B593430362026A154D436884692C40F2
:102CB0000D682D022C432025AA438D682D012A433F
:102CC000104DA8420FD18025AA431500CA681201F1
:102CD0002A434025AA430C4D4E691D408B6933435E
:102CE0009B002B4305E0094DA842F4D0084DA842B3
:102CF000F1D043604B6884618363026270BDC0465B
:102D0000FF8CFFFF002C0140FFF3FFFF0044014058
:102D100000480140F8B5060002233C360D0031782A
:102D200004001800012925D0270001213D3731700A
:102D30003B700C2A1AD81000FDF7C2F907181818B2
:102D40001D1818182F181818410029002068FFF7BF
:102D500075FE0822236899690A4304219A619A69D9
:102D60008A439A619A6929690A439A61012300207A
:102D70003B703070F8BD29002068FFF78FFF80227C
:102D80002368120199690A439A619A6915490A40B0
:102D90009A612A6999691202E6E729002068FFF71B
:102DA00089FE08222368D9690A430421DA61DA69B5
:102DB0008A43DA61DA6929690A43DA61D6E72900C8
:102DC0002068FFF7B7FE802223681201D9690A4301
:102DD000DA61DA6903490A40DA612A69D9691202BB
:102DE000EAE7C046FFFBFFFF30B58468034D0A43A6
:102DF0001B022C4013432343836030BDFF00FFFFC1
:102E0000F8B5050002233C352A7804001800012A91
:102E100019D02600012720683D362F703370836853
:102E20004F4A134083600B68402B00D16FE016D8E7
:102E3000102B00D187E007D8002B00D17DE00123C3
:102E4000002033702870F8BD202B00D181E0302B9A
:102E5000F5D17022836893431A00372355E0702B15
:102E600033D01BD8502B3BD0602BE8D110244B68BB
:102E7000CA68016A3B4FA1430162846912033C4066
:102E80002243A024016A82617022A1431B010B43EB
:102E90000362836893431A00672336E0802252015D
:102EA00093420DD0802292019342C8D1CB684A68E8
:102EB0008968FFF799FF80232268DB0191680CE0A5
:102EC0000722836893438360B9E7CB684A688968BF
:102ED000FFF78AFF7721226893680B439360AEE780
:102EE0004A68CB68016A046A1B01BC43F02704628C
:102EF0008469BC4323430A24A1430A4383610262D9
:102F00007022836893431A0057231343DBE74A6810
:102F1000CB68016A046A1B01BC43F0270462846920
:102F2000BC4323430A24A1430A4383610262702203
:102F3000836893431A004723E7E77022836893432B
:102F40001A000723E1E77022836893431A001723CE
:102F5000DBE77022836893431A002723D5E7C04636
:102F60008800FFFFFF0FFFFF10B501248C408A404F
:102F7000036AA3430362036A1A43026210BD00009E
:102F800010B5040001220068FFF7EEFF23680A4A2B
:102F9000934205D0094A934202D0094A934204D190
:102FA0008022596C12020A435A64012219680020D7
:102FB0000A431A6010BDC046002C01400044014085
:102FC0000048014010B5FFF7DBFF10BDF0B5036806
:102FD00085B00500DB0733D42B689B0700D58AE05A
:102FE0002B681B0700D5CAE02B685B0700D5EDE016
:102FF0002B68DB061AD56A69BC4C0423012A00D071
:1030000059E1616B02260B436363636B1A4362638E
:10301000FEF74EFF0700636B334200D144E1F82115
:10302000626BAB698A43DB00134363632B689B06C7
:1030300000D567E1696A002900D0A4E1002018E00A
:103040000C21AA4C62680A40042A0BD063680B402A
:10305000082B10D1C0226368520213408022520212
:10306000934208D123689B03B6D56B68002BB3D17C
:10307000012005B0F0BD6B68012B13D180232268BD
:103080005B0213432360FEF713FF80260700B6029E
:1030900023683342A0D1FEF70BFFC01B6428F7D989
:1030A0000320E6E7002B16D12368914A80261340BF
:1030B000236023688F4AB60213402360FEF7F8FEB0
:1030C00007002368334200D186E7FEF7F1FEC01BFC
:1030D0006428F6D9E4E7052B05D180232268DB02BA
:1030E00013432360CAE72368814A1340236023689F
:1030F000804A1340C6E70C227C4C636813420BD015
:1031000063681340082B15D1C02263685202134034
:103110008022120293420DD123689B0702D5EB68EF
:10312000012BA5D1F82122682B698A43DB001343C8
:10313000236055E7EA680123002A0FD0226802269F
:1031400013432360FEF7B4FE070023683342E9D13E
:10315000FEF7AEFEC01B0228F7D9A1E722680226BF
:103160009A432260FEF7A4FE07002368334200D191
:1031700036E7FEF79DFEC01B0228F6D990E7EA6904
:1031800001235A4C002A10D0626A0226134363625C
:10319000FEF78EFE0700636A334200D024E7FEF795
:1031A00087FEC01B0228F6D97AE7626A02269A4394
:1031B0006262FEF77DFE0700636A334200D113E7C7
:1031C000FEF776FEC01B0228F6D969E780220021AF
:1031D000464C5205E3690091134208D1E369134359
:1031E000E361E36913400393039B0123009380276A
:1031F000414E7F0033683B4206D0AB68012B13D1B0
:10320000226A1343236230E033683B433360FEF7A6
:103210004FFE019033683B42EFD1FEF749FE019B20
:10322000C01A6428F6D93BE70122002B14D1236A87
:10323000022793432362236A033293432362FEF7F8
:1032400037FE0600236A3B4225D0FEF731FE2B4BAA
:10325000801B9842F6D923E7052B0BD1216A013B4D
:103260000B432362236A1A432262FEF721FE0227E0
:1032700006000DE0236A934304222362236A9343EA
:10328000C0E7FEF715FE1D4B801B984200D907E7EB
:10329000236A3B42F5D0009B012B00D0A8E6E369EE
:1032A000174A1340E361A3E6FEF702FEC01B0228A3
:1032B00000D8B0E6F4E6053203D1626B9A4362634C
:1032C000ADE6626B0226134301226363636B934393
:1032D0006363FEF7EDFD0700636B334200D1A5E6A3
:1032E000FEF7E6FDC01B0228F6D9D9E60010024021
:1032F000FFFFFEFFFFFFFBFF007000408813000090
:10330000FFFFFFEF0C21464C62680A408A4209D059
:1033100063680B40082B0ED1C02263685202134031
:10332000934208D1636BDB0300D483E62B6A012B45
:1033300000D09DE67EE62B6A002B11D08026636BC1
:10334000760233436363FEF7B3FD0700636B3342DA
:1033500000D06FE6FEF7ACFDC01B0228F6D99FE651
:10336000636B304A802613406363FEF7A1FD0700BC
:103370007602636B334200D15CE6FEF799FDC01B19
:103380000228F6D98CE60C22254C63681340082BE2
:1033900000D16DE62368244A1340236002292FD10F
:1033A000FEF786FD80260700B6042368334221D14C
:1033B0000F22E36A93432A6B1343E362A96AEB6A21
:1033C00062680B43194980250A40134363608023D8
:1033D00022685B0413432360FEF76AFD0600AD0418
:1033E00023682B4200D029E6FEF762FD801B0228ED
:1033F000F6D955E6FEF75CFDC01B0228D5D94FE68D
:10340000FEF756FD80250600AD0423682B4200D14F
:1034100014E6FEF74DFD801B0228F6D940E6C046B3
:1034200000100240FFFFFEFFFFFFFFFEFF7FC2FF15
:1034300030B51B4C89B010222100684601F038FEDF
:10344000210004AD10221031280001F031FE0C20C3
:10345000144A53681840082809D00C384342584190
:10346000114B40421840114BC01809B030BD0F201D
:103470006C46D26A990C01400240645CA95CC0228F
:103480008020520213404002834201D1074802E0EB
:103490009342FBD10648FCF727FE6043E5E7C046B0
:1034A000D054000800100240005A620200127A0054
:1034B000006CDC02F7B50122504C06002368019134
:1034C00013408B421FD33268930728D4D3072ED4DE
:1034D0000123226801991A408A4200D97EE03368AC
:1034E000474C5B0700D581E0FFF7A2FF6368454AC0
:1034F0001B061B0FD35CD840434B18600020FEF71F
:10350000ADFC00200AE02368019993430B4323603C
:1035100023681340019A9342D5D00120FEBDF020CC
:1035200037494B688343B06803434B60CEE772680A
:10353000334D012A1AD12B689B03EED503216B680A
:103540008B4313436B60FEF7B3FC73680700012BDA
:103550001CD10C226B681340042BB9D0FEF7A8FCD9
:103560002A4BC01B9842F4D90320D7E7022A03D183
:103570002B689B01E2D4D0E7032A03D16B6BDB03FA
:10358000DCD4CAE72B689B07D8D4C6E7022B0BD143
:103590000C226B681340082B9AD0FEF789FC1B4B5A
:1035A000C01B9842F4D9DFE7032B11D00C226B68C3
:1035B000134200D18CE7FEF77BFC144BC01B9842F2
:1035C000F4D9D1E7FEF774FC104BC01B9842CBD85E
:1035D0000C226B6813409342F4D179E722689A4336
:1035E000226022681A4200D179E796E76368084AA8
:1035F0001340F2681343636076E7C0460020024040
:1036000000100240535500084400002088130000B9
:10361000FFF8FFFF014B18687047C04644000020C8
:1036200010B50223002813D085239B00C458002C1A
:1036300001D00024C450002902D084239B00C15033
:10364000FE2301215B00C1540270FCF761FF0023DF
:10365000180010BD0223002903D085239B00C15010
:1036600000231800704710B5FCF798FF002010BD2C
:1036700085239B00C35810B5002B01D1022010BD3B
:103680001B6898470028FAD0F8E7852310B59B00FF
:10369000C3585B689847002010BD000082239B0040
:1036A00070B5C5180400280000F0A6FAFA2301221C
:1036B0005B00E250124BE25A163BE2501033E15CE1
:1036C000EA3BFF3B0B40012B0FD0002B07D0022B16
:1036D00010D07F2320009943FCF792FF03E02900DC
:1036E000200000F0F1F8002070BD2900200000F05B
:1036F000FDF9F8E72900200000F014FAF3E7C046CE
:103700000E02000070B504001500002927D1FA232D
:103710005B00C358032B0FD10530FF308368C268AC
:1037200093420BD99B1A83609A4200D91A0092B235
:103730002900200000F0B7FA002070BD85239B000F
:10374000E3581B69002B06D0FE225200A25C032A1C
:1037500001D120009847200000F0ADFAECE7852366
:103760009B00C3589B69002BE6D0FE225200825C6E
:10377000032AE1D19847DFE7F8B50D0004001100F6
:10378000002D41D1FA235B00C358022B0ED1C26930
:10379000066AB24213D9921BC26192B200F06BFA70
:1037A0002B002A0029002000FCF77EFF80239B00CD
:1037B000E25C012A01D10022E2540020F8BD8769B1
:1037C00031003800FCF7CCFC0D1E0CD1BE420AD8EB
:1037D000FC267600A3599F4205D20A00200000F083
:1037E0004AFAA551DCE785239B00E358DB68002BF0
:1037F00006D0FE225200A25C032A01D12000984785
:10380000200000F064FAD1E785239B00C3585B6970
:10381000002BD2D0FE225200825C032ACDD1290097
:103820009847CAE7002270B5040011004023FCF756
:10383000C5FE23004025FC335D6100222B00802162
:103840002000FCF7BBFEFE2301225B002562E25450
:103850001C33E358002B07D063682000D9B28523BE
:103860009B00E3585B689847002070BD01740020FE
:103870007047FE23FE225B00C15CFF328154FA3A9E
:10388000FF3AC25400207047FE23FF33C25C013B65
:10389000C25400207047FE2310B55B00C35C032BAD
:1038A00006D185239B00C358DB69002B00D09847C5
:1038B000002010BD10B504008021FCF7A1FE0021FE
:1038C0002000FCF79DFE10BD73B5040048780D0084
:1038D000092800D97EE0FCF7FDFBD400F5007D004F
:1038E000E7007D0072000A007D00C30095004B8850
:1038F000180A013806286DD8FCF7E2FB041F2E6C6D
:103900006C4A550084236A469B00E358207C1B6860
:10391000911D98476B469E1D3188002970D0EA881A
:10392000002A6DD00B1C914200D9131C01009AB2E1
:103930003380200000F091F962E08523227C9B0017
:10394000E358002A06D19B6A6A46901D98470223D5
:103950004370DFE7DB6AF7E7D8B205283AD884225C
:103960009200237CA258FCF7ABFB03090B0D0F114F
:1039700052686946180006319047CBE79268F8E72D
:10398000D268F6E71269F4E75269F2E79269F0E764
:10399000237C002B1ED185236A469B00E358901D93
:1039A0005B6B9847B6E7237C002B13D185236A46CF
:1039B0009B00E358901D1B6B98470723C8E78B8833
:1039C000002B07D1CB88002B04D1FE267600A35D07
:1039D000032B03D12000FFF76DFF11E07F234D88FB
:1039E00020001D408033FF33E5542900FCF73CFEE6
:1039F000200000F060F90223002D00D10123A3551F
:103A0000002076BD8978384D29700129E2D8FE233F
:103A10005B00E25C022A0DD0032ADBD1002915D11C
:103A200002222000E2546160FFF72FFE200000F028
:103A300042F9E5E70029F9D0012103226160E2544F
:103A40002000FFF715FE0228F0D1C3E761680129C5
:103A5000ECD0C9B22000FFF718FE29786160EFE7CB
:103A6000CA88012AB6D1FE235B00E35C022B03D097
:103A7000032BAFD1211D5CE700232100A360083197
:103A800057E7FE235B00E35C023B012BA2D8012336
:103A9000E36081239B00E358002B01D00323E36004
:103AA000210002220C3144E74B88012BA8D181224E
:103AB0009200A35085239B00E35829009B682000B7
:103AC0009847B3E7FE235B00E35C023B012B00D980
:103AD00080E74B88012B00D092E7812300229B00D6
:103AE000E2501033E8E7C046F8080020FE2370B526
:103AF0005B00C35C04000D00032B0FD10B79012B7D
:103B00000CD885239B00C3589B689847EB88002BF3
:103B100002D1200000F0CFF8002070BD2000FFF798
:103B2000C9FEF9E760220B7870B5134004000D0060
:103B3000202B06D1F533FF33C3589B6898470020EC
:103B400070BD8A886B78D1B2012B20D0002B2DD08C
:103B5000032BF4D1FA33FF33C35C022B41D0032B88
:103B600003D02000FFF7A6FEE9E76B88002B03D106
:103B70004B0601D0FCF744FD85239B00E358290048
:103B80009B6820009847200000F095F8D7E7FE23B7
:103B90005B00C35C022B24D0032BE2D16B88002B8B
:103BA000CDD14B06EFD0FCF73BFDE5E7FE235B00F4
:103BB000C35C022B15D0032BD3D17F250D402D01E3
:103BC000130614D5143520006519FCF739FD0028BB
:103BD00010D001232B6002222900200000F03DF8C4
:103BE000ADE74B06ABD02000FCF70AFDA7E7053593
:103BF000FF35E8E72860EEE70B7803704B784370F9
:103C0000CA788B7812029B1843804A790B7912028A
:103C10009B188380CA798B7912029B18C3807047E6
:103C2000002330B5984201D130BD2B00C45C5D1C2F
:103C3000002CFAD1DBB201335B0013800B7003233D
:103C40004B70013B0578002DEED05A1CCD54D2B2FA
:103C500002330130DBB28C54F4E71300FA2210B5C2
:103C60000224520084500A008361C3610021FCF7E2
:103C70000BFD002010BD10B513000A000021FCF759
:103C800003FD002010BD1300FA2210B503245200DA
:103C900084500200FC32D36013610A000021FCF75B
:103CA00003FD002010BD10B513000A000021FCF731
:103CB000FBFC002010BDFA2304225B0010B5C250AB
:103CC00000231A001900FCF7DFFC002010BDFA23C6
:103CD00005225B0010B5C25000231A001900FCF742
:103CE000E3FC002010BD86239B00C3580220002B5C
:103CF00003D08522002092009850704787239B00B4
:103D0000C35870B5002B0ED08622802592008458AF
:103D1000AD00605DFF2806D0044A9B68A25C2100CC
:103D20009847FF236355002070BDC0460102000084
:103D30004323038000487047800000204323038012
:103D400000487047C40000204323038000487047A8
:103D5000140100200A230380004870470801002056
:103D600070B58626B60004008559FCF7ADFC8323A8
:103D70009B00E850A3590220002B0AD08323812204
:103D80009B00E9181033E3589200DB68A858984765
:103D9000002070BD60220B7870B51A4004000D0041
:103DA000002A28D0202A1ED1CA884878002A1CD090
:103DB00086215BB289006658002B0BDA87239B00B3
:103DC000E35831009B6898473100EA882000FFF7EC
:103DD00044FF08E080239B00F0540A4B3100F2546A
:103DE0002000FFF750FF002070BD87239B00E358A1
:103DF0009B689847F7E74B780A2BF4D101220249D8
:103E0000E4E7C04601020000F908002070B5040094
:103E100086258121FCF7E4FB01212000FCF7E0FB73
:103E2000AD0082212000FCF7DBFB6359002B09D099
:103E300087239B00E3585B6898476059FCF750FC68
:103E400000236351002070BDF8B5037C0400002BF3
:103E500033D1802302229B008121FCF7AFFB80231A
:103E60009B008725022201212000FCF7A7FBAD0063
:103E70000823032282212000FCF7A0FB86272800CC
:103E8000FCF72AFCBF000600E0510120002E13D0F1
:103E9000635900251B689847852381229B00F550B4
:103EA000F551277C9200AF420ED1143BB25801214C
:103EB0002000FCF7F9FB3800F8BD402302228121E5
:103EC000FCF77CFB4023CCE74023B25801212000C3
:103ED000FCF7EAFB2800EFE70223002903D0872341
:103EE0009B00C15000231800704786239B00C358D5
:103EF0008220800019508421890000205A50704788
:103F000086239B00C258143B0020D1507047862363
:103F10009B00C25810B50223002A11D085218900C8
:103F20005458013B002C0BD1535084239B00D35891
:103F30000C39525888399BB2FF39FCF7A5FB230096
:103F4000180010BD86239B00C25810B50224002A19
:103F500008D0047C143BD258002C05D1043B01212D
:103F6000FCF7A2FB200010BD40230121FCF79CFBC5
:103F70000024F7E71348854613480168090E134AE1
:103F8000914205D112481349016013481349016059
:103F9000002103E0124B5B58435004311148124B8F
:103FA00042189A42F6D3114A02E000231360043209
:103FB0000F4B9A42F9D3FCF7B1FC01F039F800F04D
:103FC00093F9FEE700180020040000001F00000025
:103FD0001810024001000000000001400000000035
:103FE000C856000800000020880500208805002031
:103FF00060100020FEE70000044B10B51B68996BB1
:10400000034B1868FCF7E0FE10BDC0468C09002089
:10401000CC0900200B4B10B5984208D8AF21903B3B
:10402000FF3B5843C900FCF75FF880B210BD064B58
:104030000649C018064B5843FCF756F8FA239B0074
:10404000C018F2E77705000088FAFFFF880A000031
:10405000180C000003000A48AA3BFF3B584310B568
:104060000849FCF787F8084BC018984200D9180097
:10407000FA239B00984200D2180080B210BDC046BF
:10408000E4FBFFFF8B0600000408000010B50D4B99
:10409000026886B004009A4211D1802301937E3BCE
:1040A00002939020002301A903930493C0050133D8
:1040B0000593FEF79DF904212000FEF783FF06B06B
:1040C00010BDC04600040040382330B599B00B93B2
:1040D000373B139310931293C0235B0210220024EA
:1040E0000225159305230BA8119217931495169486
:1040F000FEF76CFF0723210001A8019302950394AA
:104100000494FFF7D7F9C0239B020593802305A8E9
:104110009B0006930A94FDF70BFEFFF77BFAFA214A
:104120008900FBF7E1FFFEF74BFA0420FEF762FA85
:104130000120220021004042FEF70EFA19B030BDE6
:104140001FB5114C114B01222360042100232000D4
:104150006360A360E36022616161A361E361236244
:104160006262E36223636263FDF71EFF082301932B
:1041700080235B010293802301A95B052000039348
:10418000FEF7B6F81FBDC046FC0800200024014021
:1041900030B5164B164C0025236010236360154B79
:1041A0008FB02000E360A5602561FEF741FD80230C
:1041B00003A95B0120000393FEF722FE2000FEF717
:1041C00052FD01A9200001950295FEF726FA602311
:1041D000042207A920000793089509950B95FEF77F
:1041E00099FD2000FFF752FF0FB030BD00040040E2
:1041F0008C090020204E00008021F0B5314C0903CD
:1042000062698BB00A436261636900250B408021BB
:104210000193019B6269C9030A43626163690326D2
:104220000B400293029BE02305A91B02264805933D
:1042300006960795FEF7DCF8244B05A9244805935C
:1042400006960795FEF7D4F89020224B05A9C005E5
:10425000059306960795FEF7CBF806961E4E1F4B64
:1042600005A9300005930795FEF7C2F88021636920
:104270001B4A89021340636163691A4A012713408C
:104280006361626930000A43626163690B408021A7
:104290000393039B6269C9020A436261636918243C
:1042A0000B40049305A9049B059406970795089570
:1042B000FEF79EF83A0021003000FEF743F90BB0FC
:1042C000F0BDC0460010024000080048030800008E
:1042D000001400487F87000000040048E6FC00004E
:1042E000FFFFF7FFFFFFBFFFF0B500244B4BA5B06A
:1042F0001C704B4B1422210003A81C7000F01CFF03
:10430000FDF7BEFDFFF7E0FEFFF776FFFFF718FFB2
:10431000FFF73EFFFCF794FAE121424E10AD320068
:1043200089002800FCF7E2FCE1213F4B2800320025
:1043300089001D60FCF726FD2500FCF79FFD384B2A
:104340001E78F6B2002E25D1384D2800FDF7D0FE9C
:1043500005212800FDF7F8FE2800FDF753FF620055
:10436000013403ABE4B2D052092C00D9340000214F
:1043700008004A009A5A013180180A29F9D1FBF73E
:10438000B3FE85B22800FFF745FEFFF763FE284B1A
:104390001B689863FDF78CFDFA214900FBF7E0FEEE
:1043A000002937D108312348FEF7D2F80A2201A9A3
:1043B000280000F079FE01A908A800F083FF1E4F35
:1043C00008A8390000F056FF2800FFF723FE06007A
:1043D0000A2201A900F068FE01A908A800F04AFF1E
:1043E000390008A800F046FF3000FFF733FE0A222C
:1043F00001A900F059FE01A908A800F03BFF0F49F0
:1044000008A800F037FF08A800F064FF81B208A8F0
:10441000FBF7F2FF0120FDF751FD8EE7FA080020BF
:10442000FB080020F93F0008CC090020FC08002010
:104430008C090020000400486355000866550008F8
:10444000FEE703685A0004D5802212061343C01801
:1044500070475B005B08FAE7F0B587B00490150081
:104460000E1E28D000274B1E02930193019BFB18C0
:10447000DC0FE4186410E3000593049BE2009E182F
:104480003000FFF7DEFF029B0390A34216D0059891
:10449000049B08301818FFF7D4FF039BAB4204D9E4
:1044A000A74207D0631E0193E0E70138A84202D279
:1044B000671CDBE70026300007B0F0BD039BAB4272
:1044C000EED8F8E703000648012B07D00548022B79
:1044D00004D05A42534104485B4218407047C046DA
:1044E000E34A0008ED4A0008D94A0008214B37B5D5
:1044F00004008D1E002B09D001A9280000E000BF98
:10450000002808D100232361093313E01A481B4B0C
:104510001B1ADB1001932A000199FFF79DFF051E6E
:10452000F0D0FFF78EFF6B68A064012B04D100234D
:104530002361053318003EBD281D002B0FDA01232F
:10454000E064E06C23650368002B0DDA1801000FAE
:10455000FFF7B8FF002320619842EBD1D4E7FFF7C3
:1045600070FF0023E064ECE7FFF76BFF002320619E
:10457000E0E7C0460000000094550008BC56000863
:10458000036810B50400DA0704D448309B0719D536
:10459000FBF760FE23685B0703D42000D030FBF7F5
:1045A0005DFE23681B0704D420005130FF30FBF769
:1045B00059FE2368DB0604D42000D130FF30FBF71E
:1045C00055FE10BDFBF742FEE4E70368002B00D068
:1045D0001B1818007047704770B505000C00216C5F
:1045E0002800FFF783FF061E01D000F0F7FC236CC4
:1045F00022006B61290001202B6998470828EED022
:104600000728F2D13000216CFFF7E5FF201DFBF7F2
:1046100007FE0000F0B52B4CC368A54404938369E2
:10462000060015000431402207A8059300F040FD64
:10463000002306AC06930293216C3000FFF756FF6F
:104640006B1E9D4107000390093500282FD1F022F1
:10465000236C5200736121007EA800F029FD3369AC
:104660007EAA3100280098478C9B02906364059BCA
:10467000290001930094330032000120049DA847D3
:10468000002818D1002F18D1F0227EA95200200056
:1046900000F00EFD029B3D00082BCDD0072B0AD168
:1046A0003800216CFFF797FF07A8FBF7B9FD10232F
:1046B0001D43A36BDAE7092303930398F7239B00B9
:1046C0009D44F0BD24FCFFFF70B5CB6BF8B00B64CC
:1046D00004000D004022043101A800F0E9FC012390
:1046E0005B42009310992000FFF700FF00280FD1D4
:1046F0006A4621002369984706000828F2D06846D8
:10470000FFF73EFF062E03D129002000FFF764FFCC
:10471000092078B070BD10B58261DA6BC1601A648F
:1047200019000022FFF776FF10BD70B54369C66817
:1047300005000C000B64002E04D00122FFF76AFF75
:1047400000F04CFC0A002B69010002209847072862
:1047500005D00828F4D121002800FFF73DFF3000E4
:10476000216CFFF738FF201DFBF75AFDC36810B519
:10477000002B02D1FFF7A8FF10BDCB6B00220B640A
:10478000FFF748FFF8E710B50400042905D8080032
:10479000FBF796FC051103111100022010BD022049
:1047A000002BFBD10F2AF9D88240A2185168029A37
:1047B00018001160F2E70120F0E71FB503AB00938A
:1047C00000230A001900FFF7DEFF039805B000BDC3
:1047D00010B50400042905D80800FBF771FC051189
:1047E00003111100022010BD0220002BFBD10F2A63
:1047F000F9D882400299A218096818005160F2E7BE
:104800000120F0E71FB503AB0093002303920A00D9
:104810001900FFF7DDFF05B000BD000070B5184CB2
:10482000D36BA544136404000D0017A8111D40228A
:1048300000F03EFC01235B42169326996846FFF781
:1048400055FE002813D10C2116A86A46FFF7DAFF9F
:10485000290016A8A047002809D1049B16AA69467A
:10486000083098470600052802D00928E5D1092616
:1048700016A8FFF785FE30008E239B009D4470BD77
:10488000C8FDFFFFF0B58DB00C00079303210300B6
:104890000B400193E36C0690079816001F1D09AAB0
:1048A0001B685760002823D11B0209931181019BCB
:1048B000022B00D1A76B0122236D134000D105E12B
:1048C0000023059309A9300000F04AFA002800D01F
:1048D000AAE0059B0820002B72D00F213000FFF7C3
:1048E0006CFF0E2102003000FFF78CFF794A21E0B7
:1048F000190C1B04099302235172C9B29940137217
:104900007F18D4E73B883D1D02937B88049368E0C1
:10491000019B2F1D002B57D0002A55D02800FFF7F0
:1049200090FDA7630500200000E000BF002800D133
:104930007AE02A000F213FE00199002928D1002ABE
:1049400040D02A68D70F6A68911C00D16CE0210022
:1049500058310891013219D0281DFFF736FE3A0070
:10496000010008AB200000E000BF071E2AD00D2187
:104970003000FFF722FF089B2062022F02D1E36282
:1049800023002C336362A562062019E01F00EEE7C6
:104990000D213000276AFFF710FF874212D1A36A6A
:1049A0009D420FD12800FFF74CFD0F21020030007F
:1049B000FFF728FF220000213000FFF723FF072028
:1049C0000DB0F0BD08352F003B680293002B00D1DD
:1049D00078E7079B022B00D094E73D007B68083501
:1049E0000493039B049F0F219F43A36C3000FF1887
:1049F000FFF7E3FE0022874206D8029A039B9A4300
:104A0000D719B84280414242049B03995F000223B8
:104A10001F40029B0B403B43012B00D18CE7002B36
:104A200000D175E7022B01D00920C9E72B68580097
:104A300043080293019B002B2BD1002A20D0069B18
:104A40001B0709D5029B002B1AD10D213000FFF75F
:104A5000B4FE089B206295E7019F029B9F42F4D021
:104A600023000137B800583328180893FFF7ADFD2D
:104A700008AB01000022200000E000BF0028ECD0BD
:104A80002B68002B00DA0435029F0137BF00EF19B5
:104A90009AE70D213000276AFFF78FFE8742EFD19A
:104AA000A36A9D42ECD1029B0027A36204232363E7
:104AB000EB18E76263632B68BB4204DA02980130AB
:104AC000800028186FE7039B0593D9E705930392AD
:104AD0007AE7C0460000000010B50023FFF7D2FEC1
:104AE00010BD10B50123FFF7CDFE10BD10B5022398
:104AF000FFF7C8FE10BDF0B50400C5B016001D00DC
:104B0000042957D80800FBF7DBFA031B556D970003
:104B10000220002B12D1A36B91B201380200AA40EF
:104B2000114204D01F68AA00A2185760043301354F
:104B3000102DF3D10020B20400D4A36345B0F0BD22
:104B400004232A009A43012A34D1B3B2370C0193CB
:104B5000FE18012D00D095E0102E2BD80F2F29D84C
:104B600000260122236813420BD019002000914334
:104B700021604830052D1FD102230B432360FBF732
:104B80006BFB002E00D188E004222368134205D07D
:104B9000200093432360D030FBF762FB012D00D04F
:104BA00083E022A8FBF754FB89E0102ED8D9103EF1
:104BB000052DD6D00220C1E7032293432360FBF7E3
:104BC00047FBDEE703681350043086E00F2F02D85E
:104BD00022A8FBF73FFB002E00D1A4E002A8FBF7C0
:104BE0003DFBA0E0032BE5D1150C96B2AB19102BC1
:104BF000E0D808222368134206D0200093435130A6
:104C00002360FF30FBF730FB22A8FBF72DFBA36BE3
:104C100076001A003100ED00ED1A22A8451901397D
:104C200006D2B6009E19A66322A8FBF71BFB7AE00A
:104C30001068A8500432F2E7002BBBD1102AB9D873
:104C400010222368134206D020009343D130236002
:104C5000FF30FBF70DFB22AD2800FBF709FB00231B
:104C60000121A26B08009840064203D01768980003
:104C70002F5004320133042BF4D1A2632800FBF738
:104C8000F5FA50E0202E95D80F2F8ED9019E002ED8
:104C900008D0052D00D177E78CE7012D45D122A85A
:104CA000FBF7D6FA019B00260BE00F2F04D822A8B1
:104CB000FBF7D2FA002EF5D002A8FBF7D1FA1023A9
:104CC000DB1BA16B0A00002B0FDD08005B00FA0064
:104CD00001939C46521A22AB9A186346013B9C46AC
:104CE00000D36FE7019B9B00CA18002E11D03B0038
:104CF000102F00D21023103B02A9DB005B18190013
:104D0000F3009C460023D058C85004336345FAD1C1
:104D1000D218012D00D10432A263012D00D055E735
:104D200022A8FBF793FA002008E70F2FBAD8BEE7B6
:104D3000027A0300002A11D1427AB020002A0CD056
:104D4000013A5A725A68111D126859601A6003229A
:104D50001A721A68100E12021A607047013AF7E7C9
:104D6000F0B5002305000F0087B002933800FFF76D
:104D7000DFFF0400B02815D10024029BA3420ED10E
:104D800005AE23000E22210000962800FFF7FBFC51
:104D9000009623000F2221002800FFF719FD2000B4
:104DA00007B0F0BD03061BD4FF2386001E4005ABF1
:104DB000009300230D2219002800FFF7E4FC0436BD
:104DC000059B62060AD59E1B05AB05960093002342
:104DD0000D2219002800FFF7FBFCC7E79E19F3E737
:104DE00003000F229343DBB2802B1AD10402380058
:104DF000FFF79EFF802604433602B44201D1092406
:104E0000CDE72301039300232405220C1900280079
:104E1000FFF771FE0028F2D1039B3342A6D0012395
:104E2000A3E7902B0FD10D2603003340B342E6D009
:104E300000230F2205AC0240009419002800FFF760
:104E4000A2FC0094C3E7A02B0FD1FF2307221B0174
:104E50001900824311410A001A40030702D580233A
:104E6000DB011A43002319000FE0B02B56D1B12803
:104E700012D13800FFF75CFF021EC0D001000F23E3
:104E80009943C9B20029BAD10B002800FFF733FEBD
:104E9000002800D16AE7B2E7B22823D1002305AC8D
:104EA0000D22190000942800FFF76DFC3800FFF771
:104EB0003FFF02267F230340B3408021059A014033
:104EC000D318002908D1812292009B18F83A059343
:104ED00000940B00FF3A7DE7380005930736FFF793
:104EE00027FFE7E7B3280CD13800FFF721FFF023B5
:104EF00002031B0313400F22024001321A43012315
:104F0000B1E7FC230340B42B00D178E707238022CC
:104F10001C40013412032243063BA4E7C02B4ED1B0
:104F2000C6280CD13800FFF703FFF02302031B0350
:104F300013400F22024001321A43032393E7C7288C
:104F40000ED13800FFF7F4FE021E00D157E7030030
:104F50000F218B43DBB2002B00D050E70B3994E7D5
:104F6000030007229343DBB2C02B07D1A022B13B41
:104F70001C400134120322430C3B74E7C8280ED1B5
:104F80003800FFF7D5FE0F2302009A43D2B2184033
:104F900010321203013002430A3B012175E7C92890
:104FA00000D02CE73800FFF7C3FEF02302031B03F9
:104FB00013400F22024001321A430523EDE703009C
:104FC00007229343DBB2D02B00D018E71440802295
:104FD000013412032243CB3BDFE7000010B506206B
:104FE00000F026F9012000F065FAC04610B5010076
:104FF00000230022002000F0D7F910BD70B5094B46
:10500000094CE41AA41009D0084AA518AD00ED18FF
:105010002B68013C9847043D002CF9D100F052FA6E
:1050200070BDC046C4560008C8560008FFFFFF3FC9
:1050300070B50D4E0D4DAD1BAD1006D00024A30074
:10504000F35801349847A542F9D100F035FA084EDB
:10505000084DAD1BAD1006D00024A300F358013459
:105060009847A542F9D170BDBC560008BC5600084F
:10507000BC560008C4560008931E10B50C00222B25
:105080000DD80A2A04D0210000F056F9200010BDE6
:105090000028F8DA2D2340420B700131F4E7002399
:1050A00000200B70F3E7C04610B5FFF7E5FF10BD19
:1050B000F0B50F2A37D90D0005430C000300AD07EA
:1050C00035D11500103D2D092E01361810362768F0
:1050D0001F6067685F60A7689F60E7681034DF60E3
:1050E0001033B342F3D10F2401352D014919144077
:1050F0004519032C1DD90023CE58EE500433E61A6F
:10510000032EF9D80323043CA4080134A4001A4058
:105110002D190919002A05D00023CC5CEC54013369
:105120009342FAD1F0BD0500002AF5D1FAE7050057
:10513000F2E72200F8E7C046F0B5830746D0541ED8
:10514000002A42D0CEB20200032502E01A00013C40
:105150003BD3531C16702B42F8D1032C2DD9FF22C0
:105160000A40150215432A0415430F2C16D92700AF
:10517000103F3F093E01B4461E001A001036664437
:10518000156055609560D5601032B242F8D10F229B
:1051900001373F01DB191440032C0ED9261FB60836
:1051A000B700BC461A001F1D674420C2BA42FCD19A
:1051B00003220136B6009B191440002C05D0C9B259
:1051C0001C19197001339C42FBD1F0BD140003007F
:1051D000C3E7C04670B505000C001F2922D8B723CD
:1051E0009B00C358002B0ED08A009B181A68002A17
:1051F00009D0012A10D0511C10D0002120001960C4
:105200009047002070BD280000F030F82200010017
:10521000280000F017F8F5E70020F3E716230360F5
:105220000120EFE71623036001204042EAE7C04671
:1052300010B5034B01001868FFF7CCFF10BDC04646
:1052400058010020002370B5074C0500080011002C
:10525000236000F027F9431C00D070BD2368002BA9
:10526000FBD02B60F9E7C0465C10002010B500F0C1
:1052700011F910BD70B50400830717D102680F4BF8
:10528000D31893430E4A150013420FD1043002681D
:105290000A4BD31893432B4208D104300268074BC2
:1052A000D31893432B42F1D000E001300378002B58
:1052B000FBD100F007F8200070BDC046FFFEFEFEE7
:1052C0008080808003000A7801311A700133002A3F
:1052D000F9D1704710B5040083070AD00378002B7A
:1052E00023D0032202E00378002B1CD001301042AF
:1052F000F9D102680E4B0F49D31893430B420FD1DB
:10530000043002680A4BD31893430B4208D104308F
:105310000268074BD31893430B42F1D000E00130F1
:105320000378002BFBD1001B10BD0020FCE7C0461A
:10533000FFFEFEFE80808080F0B5C64600B58AB0D4
:10534000E846170042460D00164B52CB52C252CBD4
:1053500052C252CB52C21B782E001370BB1E0024C7
:10536000222B01D91BE01C003900FAF7F9FE424656
:10537000525C631C327001360028F4D1E854002CD2
:1053800008D00023EA5C295DE9542A550133013C29
:10539000A342F7DB28000AB004BC9046F0BD2C7095
:1053A0000020F8E76C550008F8B5DE469B46314B07
:1053B00045461C68A4234E4657465B00E0B50500F1
:1053C000E0580E00904600284BD043681F2B0DDCA0
:1053D0005C1C002D21D102339B0044601E50002034
:1053E0003CBC90469946A246AB46F8BD224B002BEA
:1053F0003CD0C820400000E000BF002836D0A422E6
:1054000000235200A15843600160A05040328350F5
:10541000043283500124002DDDD09A00914681444E
:10542000424688214F467A50C4225200904680441A
:1054300042468739994012688A460A439446424652
:1054400061461160842249465F4652008F50022D0A
:10545000C1D1020055468D32FF3211680D431560EF
:10546000B9E720004D30FF30E050AEE70120404268
:10547000B6E7C0466855000800000000034B10B5B1
:10548000002B02D00248FFF7B1FD10BD0000000064
:10549000FD4F000858220120014B40421A6070471E
:1054A0005C10002058220120014B40421A607047D6
:1054B0005C100020FEE7C046F8B5C046F8BC08BC4A
:1054C0009E467047F8B5C046F8BC08BC9E4670477B
:1054D00002030405060708090A0B0C0D0E0F101035
:1054E0000102030405060708090A0B0C0D0E0F1034
:1054F000000201025372632F757362645F636F6E03
:10550000662E630043444320436F6E666967004321
:10551000444320496E746572666163650043656447
:10552000617276696C6C6520556E69766572736917
:1055300074790043616E4E6F64652043414E204490
:10554000657669636500303030303030303030306F
:1055500031410000000000000000000102030406C9
:105560000708092C20000A00600100203031323386
:105570003435363738396162636465666768696AED
:105580006B6C6D6E6F707172737475767778797AF3
:045590000000000017
:10559400E8B3FF7FB0A9068080B4FF7F010000005C
:1055A40024B5FF7FB0AB0C8018B6FF7F010000006C
:1055B40038B7FF7FAB08B180C8B7FF7FB0B0AA800F
:1055C40004B8FF7FA80FB18028B8FF7FAA0FB1806D
:1055D40082B8FF7FB0B0A880A0B8FF7FAB08B180CD
:1055E40050B9FF7F010000000CEAFF7FB0B0A88033
:1055F40020EAFF7F0100000090EAFF7FB0A8058049
:10560400C4EAFF7FB0A9188034EBFF7FA80FB180F4
:105614007CEBFF7FB0A90E80DCEBFF7FB0AB0A8090
:10562400C4ECFF7FB0AB248014EEFF7F01000000C8
:10563400B8EEFF7FA907B18044EFFF7FB0B0A88028
:1056440086EFFF7F010000008CEFFF7FB0B0AA80DF
:10565400C0EFFF7FAB76B2806CF0FF7FAA3F37804C
:10566400B2F0FF7FB0B0A880BEF0FF7FB0B0AA80D8
:10567400F8F0FF7FB0B0A8800AF1FF7F01000000BE
:1056840098F1FF7FAA0DB280F8F1FF7FB0AB0C80D8
:1056940044F4FF7FB0B0A8805AF4FF7FAB3F04808E
:1056A4008CF6FF7F01000000B4F6FF7FB0AB0680EC
:0856B40026F9FF7F0100000050
:0856BC007D5400088D03000875
:0456C4006503000872
:1056C800D1030008AD030008B1030008B5030008C2
:1056D800790800088508000891080008AD08000846
:1056E800C9080008E50800080109000812010002BD
:1056F8000202004083044057000201020301000037
:105708000403090400127A00493E00080D3E00080F
:10571800953D000800000000FD3C0008E73C00083B
:10572800613D0008000000000000000000000000CB
:105738003D3D0008313D0008493D0008553D000841
:1057480009024300020100C03209040000010202FC
:1057580001000524001001052401000104240202AF
:10576800052406000107058203080010090401004A
:10577800020A000000070501024000000705810237
:105788004000000009024300020100C03209040081
:105798000001020201000524001001052401000196
:1057A80004240202052406000107058203080010EC
:1057B80009040100020A00000007050102000200B6
:1057C80007058102000200000A06000200000040EE
:1057D8000100000009074300020104C03209040067
:1057E8000001020201000524001001052401000146
:1057F800042402020524060001070582030800FFAD
:1058080009040100020A0000000705010240000027
:105818000705810240000000600100200000000030
:10582800000000004C040020B40400201C050020E7
:105838000000000000000000000000000000000060
:105848000000000000000000000000000000000050
:105858000000000000000000000000000000000040
:105868000000000000000000000000000000000030
:105878000000000000000000000000000000000020
:105888000000000000000000000000000000000010
:105898000000000000000000000000000000000000
:1058A80000000000000000000000000000000000F0
:1058B80000000000000000000000000000000000E0
:1058C80000000000000000000100000000000000CF
:1058D8000E33CDAB34126DE6ECDE05000B00000094
:1058E80000000000000000000000000000000000B0
:1058F80000000000000000000000000000000000A0
:10590800000000000000000000000000000000008F
:10591800000000000000000000000000000000007F
:0400000508003F753B
:00000001FF
