:020000040800F2
:100000000018002061650008F1340008F33400088E
:1000100000000000000000000000000000000000E0
:10002000000000000000000000000000E165000882
:100030000000000000000000E1650008193500081C
:10004000E1650008E1650008E1650008E165000878
:10005000E1650008FF340008E1650008F534000898
:10006000E1650008E1650008E1650008E165000858
:10007000E1650008E1650008E1650008E165000848
:10008000E16500080000000000000000E1650008D4
:1000900000000000E1650008E1650008E165000876
:1000A00000000000E1650008E1650008E165000866
:1000B000E165000800000000E1650008093500085E
:1000C00010B5064C2378002B07D1054B002B02D02E
:1000D000044800E000BF0123237010BD90050020FC
:1000E0000000000020700008084B10B5002B03D062
:1000F0000749084800E000BF07480368002B00D10B
:1001000010BD064B002BFBD09847F9E7000000001C
:1001100094050020207000088C05002000000000DD
:1001200002B4714649084900095C49008E4402BC8A
:100130007047C04603B47146490840004900095A57
:1001400049008E4403BC7047002243088B4274D39D
:1001500003098B425FD3030A8B4244D3030B8B42C8
:1001600028D3030C8B420DD3FF22090212BA030CD1
:100170008B4202D31212090265D0030B8B4219D3B2
:1001800000E0090AC30B8B4201D3CB03C01A5241D2
:10019000830B8B4201D38B03C01A5241430B8B421A
:1001A00001D34B03C01A5241030B8B4201D30B0303
:1001B000C01A5241C30A8B4201D3CB02C01A52412A
:1001C000830A8B4201D38B02C01A5241430A8B42ED
:1001D00001D34B02C01A5241030A8B4201D30B02D6
:1001E000C01A5241CDD2C3098B4201D3CB01C01AF0
:1001F000524183098B4201D38B01C01A52414309FA
:100200008B4201D34B01C01A524103098B4201D3E7
:100210000B01C01A5241C3088B4201D3CB00C01A54
:10022000524183088B4201D38B00C01A52414308CC
:100230008B4201D34B00C01A5241411A00D20146F1
:10024000524110467047FFE701B5002000F006F864
:1002500002BDC0460029F7D076E770477047C04618
:100260008446081C6146FFE71FB500F073FB0028B9
:1002700001D40021C8421FBD10B500F005FB40426B
:10028000013010BD10B500F065FB002801DB002037
:1002900010BD012010BDC04610B500F05BFB00286A
:1002A00001DD002010BD012010BDC04610B500F0DA
:1002B00011FB002801DC002010BD012010BDC0464C
:1002C00010B500F007FB002801DA002010BD012066
:1002D00010BDC046F0B5C6464E024702760A7B0AFC
:1002E0004400C50FF7004800984600B5240E2A00C8
:1002F000DB00000EC90FBC468D4267D0221A002ACF
:1003000000DCA5E000283AD1002F00D193E0511E77
:10031000002900D0BCE00124DB1B5A0146D59B011B
:100320009E09300003F016F805388640844200DD4F
:100330009DE0041B320020200134E240041BA64053
:1003400033005E1EB341002413435A0704D00F222A
:100350001A40042A00D004335A0129D50134FF2C55
:1003600000D181E02A009B015B0AE4B25B02E40554
:10037000580AD2072043104304BC9046F0BDFF2C1E
:10038000E3D080213800C904084384461B2A00DDDD
:1003900082E020206146D140821A604690400200EF
:1003A000501E82410A439B1A5A01B8D45A07CED133
:1003B000DE082A00FF2C3AD1002E00D1AEE08023C7
:1003C000DB0333435B025B0AFF24CFE7211A0029DA
:1003D00052DD002831D0FF2CB7D080203E00C00471
:1003E0000643B4461B2900DDAAE020266046C8402B
:1003F000711A66468E4031004E1EB14101435B18B2
:100400005901D3D50134FF2C00D187E0012278496E
:100410001A405B080B40134397E7002C00D0A7E07D
:10042000002B00D0B6E03B1E62D1002600227302F2
:100430005B0AE4B29AE7140087E7002F4DD0481E0C
:10044000002857D1634401245A01AFD50224DDE7C7
:10045000002A24D1621CD2B2012ADEDDDE1B720129
:1004600035D5FE1A0D005CE72A0000237EE7330035
:10047000604A241A134068E7002963D1611CC8B29E
:1004800001284EDDFF2949D063445B080C005CE77E
:10049000FF2A41D00A0079E701229B1A84E7002C49
:1004A0001DD0FF2822D08024E404524223431B2A7B
:1004B00000DD8AE01C002025D440AA1A93405A1E71
:1004C0009341234362460400D31A0D0025E7002E12
:1004D00000D026E700220024A9E70C0035E7002B16
:1004E0004DD0D243002AEDD0FF28E0D16346FF244F
:1004F0000D002AE7FF290FD0010073E7002B61D020
:10050000FF24002F00D120E780224146D203114270
:1005100002D0164200D13B00FF2416E7FF2400233F
:1005200024E7002CEAD1002B58D0002F00D10CE793
:1005300063445A0100D439E72E4A0C00134004E703
:1005400001215CE7002C1ED1002B40D0C9430029BB
:100550000BD0FF2836D01B2947DC1C002026CC40BE
:10056000711A8B40591E8B4123436344040047E7B3
:10057000002B18D13B1E2DD00D00FF24E5E63B00DB
:1005800004000D00E1E6FF281CD08024E404494269
:100590002343E0E7002F00D1D7E6DE1B72011FD511
:1005A000FB1A0D00D1E6FF24002F00D1CDE68022FA
:1005B0004046D2031042AFD01642ADD13B000D00F1
:1005C000FF24C2E66346FF24BFE601237AE73B002F
:1005D0000400BAE680260022F603F0E63B00B4E60B
:1005E000331E00D0E2E6002221E70123BDE7C0462A
:1005F000FFFFFF7DFFFFFFFBF0B557464E46DE468F
:100600004546E0B544024300C60F83B00F1C640AA0
:100610001B0EB24653D0FF2B27D08022E400D20419
:1006200014437F22524290469844002399469B46A9
:100630007D027800FB0F6D0A000E009324D0FF2886
:1006400046D080230021ED00DB041D437F38474660
:10065000381A4F460F43BF00B9463300009A874F00
:1006600053404A46BA5801939746002C4ED108236E
:100670009946F7339846FD3B9B467D027800FB0F79
:100680006D0A000E0093DAD1002D26D10020012141
:100690003300009A7A4F53404246101A4A460A43A2
:1006A0009200BA581D009746009B2C009A468B4634
:1006B0005B46022B31D15346FF21002438E0002C49
:1006C00017D1042399460023984601339B46AFE790
:1006D000FF20002D0BD10221DAE7280002F03AFEBC
:1006E000431F9D4076235B42181A0021AFE7032188
:1006F000ADE7200002F02EFE431F9C4076235B42B4
:100700001B1A9846002399469B4691E70C2399466D
:10071000F3339846FC3B9B468AE7032B00D1A5E0C8
:100720005546012B00D081E00123002100242B40FD
:100730006402C905600ADB070843184303B03CBCE8
:1007400090469946A246AB46F0BD80240023E403C0
:10075000FF21EDE7FF210024EAE70123591A1B29B5
:1007600066DD019A134000210024E1E78023DB03CA
:100770001C4238D01D4251D01C436402640A33002D
:10078000FF21D5E763016C01A3423BD21B26002168
:10079000013801251F0049005B00002F01DB9C424E
:1007A00001D81B1B2943013E002EF3D11C00631E00
:1007B0009C410C4301007F310029CEDD630704D04A
:1007C0000F232340042B00D00434230103D5010060
:1007D0002C4B80311C40FE290DDD0123019AFF21A5
:1007E00013400024A4E78023DB031C436402640A53
:1007F0003300FF219CE70123019AA401640AC9B2D6
:10080000134095E71B1B1A260121C2E7009B8B466C
:100810009A4600244CE76302E5D500258024E403D2
:100820002C436402640A009BFF2181E70195C1E724
:1008300023002020CB40411A8C40611E8C411C4378
:10084000630704D00F232340042B00D0043463013A
:1008500005D50123019A01211340002468E70123F3
:10086000019AA401640A1340002161E78023DB039D
:100870001C436402640A5346FF2159E7587000087C
:1008800098700008FFFFFFF770B5420045024E0266
:100890004C00C30F6D0A120E760A240EC90F0120F8
:1008A000FF2A06D0FF2C03D0A24201D1B54206D0C8
:1008B00070BD002DFCD1FF2CFAD1002EF8D18B4257
:1008C00006D00120002AF3D12800451EA841EFE7F9
:1008D0000020EDE7F0B5420045024C02C30F48008E
:1008E0006D0A120E640A000EC90FFF2A1ED0FF28DF
:1008F00021D0002A0AD16E426E41F6B200280FD1F3
:10090000002C0DD10020002D09D005E0002801D1D8
:10091000002C01D08B4211D0012158420843F0BD78
:10092000002EF7D0012001390843F8E7002DDED072
:1009300002204042F3E7002CDBD0F9E78242EBDCF7
:1009400004DBA542E8D80020A542E8D20121581EC8
:100950000843E4E7F0B542004D024C004602760A37
:10096000120EC30F6D0A240EC90FFF2A16D0FF2CDA
:1009700018D0002A0AD170427041C0B2002C15D0A4
:10098000002805D0012001390843F0BD002C13D008
:10099000994214D001205B421843F6E70220002E52
:1009A000F3D1E4E70220002DEFD1E2E7002DE7D1FB
:1009B0000020002EE9D0EDE7002DE9D1EAE7A242C0
:1009C00006DCDFDBAE4203D80020AE42DAD3DCE740
:1009D000012049420843D8E7F8B557464E464546F8
:1009E000DE46E0B54702460088467F0A360EC40F51
:1009F000002E47D0FF2E24D0FB008027FF041F438A
:100A0000002399469A467F3E43465D025800DB0F1D
:100A10006D0A000E984643D0FF283BD0EB0080259E
:100A20000022ED041D437F383618731C41469B4657
:100A30004B46614013430F2B64D875489B00C35845
:100A40009F46002F42D108239946063BFF269A462F
:100A5000DAE74146022A28D0032A00D1CEE0012A53
:100A600000D0ACE0114000200022CCB24002D20500
:100A7000400AE407104320433CBC90469946A246F6
:100A8000AB46F8BD002F15D104239946033B002641
:100A90009A46B9E7FF200222002DC5D00322C3E702
:100AA000002D19D100200122BEE70124FF220C40B5
:100AB0000020DBE7380002F04DFC7626431F9F4004
:100AC00000237642361A99469A469DE70C239946AA
:100AD000093BFF269A4697E7280002F03BFC431F9C
:100AE0009D4076235B42181A00229DE78020002457
:100AF000C003FF22BAE73D005246ABE73D002100AC
:100B00005246A7E73B0C9C462A04120C2B0C1400FF
:100B1000604665463F043F0C7C4342435D437B4354
:100B2000270C9B18FF18BA4203D980235B029C460E
:100B3000654424043A04240C121993015C1EA34159
:100B40003F0C920E7D191A43AD0115432B0104D5BC
:100B500001235E466A081D40154332007F32002A99
:100B600025DD6B0704D00F232B40042B00D0043568
:100B70002B0103D53200274B80321D40FE2A94DC26
:100B80000124A801400AD2B20C406FE78020C003C4
:100B9000074207D0054205D128434002400A444697
:100BA000FF2263E738434002400AFF225EE7012448
:100BB000A31A1B2B05DD0C400022002056E75E46E1
:100BC000CBE72A002020DA40C31A9D402B005D1E8F
:100BD000AB4113435A0704D00F221A40042A00D015
:100BE00004335A0104D5012401220C4000203DE7C2
:100BF00001249B01580A0C40002237E78020012481
:100C0000C00328434002400A0C40FF222EE7C046A2
:100C1000D8700008FFFFFFF7F0B54F46D6464646AE
:100C20004400C0B5C20F47024802400A84466646E7
:100C30007B0A4800C90F9A46240E1500DB00000EFF
:100C40008946F600FF2800D18FE001214F464F4032
:100C50003900914266D0221A002A00DC9DE000286B
:100C60003DD1002E00D18BE0511E002900D0B5E00F
:100C700001249B1B5A0144D59B019F09380002F0B7
:100C800069FB05388740844200DD96E0041B3A008A
:100C900020200134E240041BA7403B005F1EBB4103
:100CA000002413435A0704D00F221A40042A00D00C
:100CB00004335A0127D50134FF2C00D179E00122F9
:100CC0009B015B0AE4B22A405B02E405580AD207A2
:100CD000204310431CBC90469946A246F0BDFF2C11
:100CE000E0D08021C9040E431B2A7BDC3100202088
:100CF000D140821A9640721E96410E439B1B5A01A8
:100D0000BAD45A07D0D10122DF082A40FF2C33D1B0
:100D1000002F00D1A8E08023DB033B435B025B0A8A
:100D2000FF24D1E7211A00294CDD00282AD0FF2C0E
:100D3000B8D08020C00406431B2900DDAFE030009E
:100D40002027C840791A8E40711E8E4106439B1998
:100D50005901D6D50134FF2C00D185E001227A4912
:100D60001A405B080B4013439CE7002E00D070E74D
:100D70006BE73B1EC5D100227B025B0AE4B2A3E70E
:100D800014008FE7002E4DD0481E002857D19B1924
:100D900001245A01B5D50224E0E7002A25D1621CBE
:100DA000D2B2012A72DD9F1B7A0135D5F71A0D00E8
:100DB00064E7012200232A4086E73B00634A241AA5
:100DC00013406FE700296CD1611CC8B201284EDDC9
:100DD000FF2949D09B195B080C0063E7FF2A41D02B
:100DE0000A0081E701269B1B89E7002C1CD0FF2805
:100DF00021D08024E404524223431B2A00DD96E0E4
:100E00001C002025D440AA1A93405A1E9341234324
:100E1000F31A04000D002DE7002F00D02EE700226A
:100E20000024A9E70C003DE7002B58D0D243002A4C
:100E3000EED0FF28E1D13300FF240D0032E7FF2977
:100E400010D0010078E7002B6ED0FF24002E00D1D7
:100E500028E780225146D203114203D06146114255
:100E600000D13300FF241DE7FF2400232CE7002CD2
:100E7000E9D1002B63D0002E00D113E79B195A0152
:100E800000D43EE7314A0C0013400BE7002C1ED182
:100E9000002B2FD1002E4FD033000D0002E701268A
:100EA00055E7002C1FD1002B43D0C94300290BD09C
:100EB000FF2839D01B2944DC1C002027CC40791A9C
:100EC0008B40591E8B4123439B19040040E7002BA4
:100ED0001AD1002E24D180270022FF031BE7330004
:100EE00004000D00DEE6FF281ED08024E404494201
:100EF0002343DFE7002E00D1D4E69F1B7A0100D404
:100F000037E7F31A0D00CDE6FF24002E00D1C9E625
:100F100080225046D2031042A4D060461042A1D194
:100F200033000D00FF24BDE63300FF24BAE60123A1
:100F30006EE733000400B5E6002700221CE733000B
:100F4000B0E60123C0E7C046FFFFFF7DFFFFFFFBC8
:100F500042024B0240004900520A000E5B0A090E91
:100F6000FF2803D00020FF2906D07047FE38002A52
:100F7000FBD10020FF29F8D11800431E9841F4E767
:100F800041024300C20F490A1B0E00207E2B0DDDDB
:100F90009D2B0CDC802000040143952B0ADC96205D
:100FA000C31AD9404842002A00D108007047034BB9
:100FB000D018FBE7963B9940F4E7C046FFFFFF7F60
:100FC00070B5002830D0C317C4185C40C50F20008E
:100FD00002F0C0F99E231B1A962B0DDC9622D21A22
:100FE00094402A006402640ADBB26402DB05600AF2
:100FF000D2071843104370BD992B19DC9922D21ADD
:10100000002A29DD94402200144C1440510704D0DA
:101010000F210A40042A00D00434620113D4A40131
:10102000640ADBB22A00E0E7002200230024DCE7A8
:1010300005222100121AD140B922D21A9440621E10
:1010400094410C43DAE7054B2A001C409F23A4017E
:101050001B1A640ADBB2C8E72200D5E7FFFFFFFBDB
:10106000F0B557464546DE464E46E0B54C000E0309
:1010700087B0834692461D008046360B640DCF0F25
:10108000002C4FD06F4B9C4235D08023420F1B0465
:10109000F600134333439946C30098466A4B002633
:1010A0009C460023644403932B031B0B9B466B005D
:1010B000ED0F50465B0D01955ED0624A934253D0CE
:1010C0005A46D1008022400F120402430A4393463D
:1010D0005246D1005C4A944600226344380068407E
:1010E00084460290E41A16430F2E00D9B4E0574B01
:1010F000B6009B599F460300334399466CD10023A9
:101100009846023308260393CEE7CB464146039A1E
:101110000197022A65D1019B4A4C9C46002300227C
:1011200098466BE00300334399464ED0002E00D121
:10113000BCE1300002F00EF903000B3B1C2B00DD7C
:10114000ACE11D22D31A5A460100DA4008398E401C
:101150001300334399465B468B40984600233C4C32
:101160000026241A03939FE751465A46114329D17A
:10117000002293460232B1E7594601431ED05B4636
:10118000002B00D19EE1584602F0E4F803000B3B2F
:101190001C2B00DD8FE102005946083A91408B4636
:1011A0001D21CB1A5146D9400B0059460B435146DD
:1011B0009B469140264B00221B1A8FE700230122F9
:1011C0009B468BE75146032288E70023984601336C
:1011D00004260024039367E70323B14603930C26F8
:1011E00062E7032A00D15CE2019B012A00D0E4E11E
:1011F00013409C460023002400229846002112033D
:10120000130B0A0D12051A432305124C40462240C7
:10121000134362465B00D2075B081343190007B013
:101220003CBC90469946A246AB46F0BD00238022C6
:101230009C4612039846034CE0E70023014C002231
:101240009846DBE7FF07000001FCFFFF187100086C
:101250000DFCFFFFFFFF0F80D94500D939E100D118
:1012600034E1002346464D469A46013C5B460A0E51
:101270001B021A430B02170C039313041B0C3900B7
:10128000280090460193FEF75FFF0200019B834612
:101290005A43280039009146FEF7DCFF350C09045B
:1012A0000D43A9450DD95B464544013BA84500D9EE
:1012B0003AE1A94500D837E102235B429C46454408
:1012C000E3444B46EB1A390018000493FEF73CFF49
:1012D000019B05004343390004989946FEF7BAFF85
:1012E000330409041B0C0B43994509D943446A1E76
:1012F000984500D91AE1994500D817E1023D4344C9
:101300004A469B1A5A4612042A4303999346100CE4
:101310000A0C914609045A46090C4E460D00120467
:10132000120C4543059151437243704352190E0C00
:10133000B218954203D980256D02AC466044150C65
:1013400009041204090C28185218834200D2CEE076
:1013500000D1C8E01D1A53469E1AB245924152422E
:10136000AB1A9A46984500D117E139001800FEF7EC
:10137000EBFE019B05004343390050460493FEF702
:1013800069FF04980B04310C1943884209D9414480
:101390006B1E884500D907E1884200D804E1023D70
:1013A0004144049BCB1A180039000493FEF7CCFE8D
:1013B000019B82464343390004980193FEF74AFF9C
:1013C00001980B043104090C194388420DD9534686
:1013D0004144013B884500D9E8E0884200D8E5E077
:1013E00002235B429C464144E244019B2D04CE1AF9
:1013F00051462943059D4F462A000B04080C1B0C3F
:101400005A4345437B4378435B19170CFB189D42B5
:1014100003D980256D02AC4660441D0C12041B04E8
:10142000120C28189B18864200D293E000D18EE05F
:1014300001231943A04BE318002B00DC99E04A0775
:1014400000D09EE05A46D20106D55A469B4B1A4020
:1014500080239346DB00E318994A934268DD012319
:10146000029A984C1A400023944698460022C5E6FA
:1014700080224B46120313420AD05B46134206D128
:101480001A431203120BAC4688468E4CB6E64B4606
:101490001A431203120BBC468A4CAFE603005A46AD
:1014A000283B9A4000239146984657E6584601F05B
:1014B00051FF203040E603005246283B9A4000216D
:1014C000934677E601F046FF20305FE6884500D27C
:1014D000C7E64B46DE075D0843465B081E434346AE
:1014E000DB079A46C2E60025924500D333E7039E08
:1014F0005946B446E244B245AD416D424544EB180D
:101500000139984507D2984200D97FE000D1BCE06C
:101510001D1A8B461FE79845FAD1039D5545F2D910
:1015200043468B461D1A16E79B46CAE61500E7E6BA
:101530005A46C90852070A435B0590465C0D5A4655
:101540000123029952021940120B8C4656E6002BD9
:1015500000D16FE746444A1EB04529D911008642A2
:1015600000D065E7039A934200D061E762E701216A
:1015700049420120C21A382A21DD029B03409C46C1
:1015800038E60F220A40042A00D15BE70A00111D49
:10159000914292415242934454E7474BE318002B47
:1015A000E5DD01225242F2E71D00FAE69A461CE709
:1015B000B04239D86ED011003AE702933AE71F2AB9
:1015C0003CDC20239B1A0C005846994098404B1E47
:1015D00099415B46D440D340204308431A00430757
:1015E00009D00F230340042B05D00100081D8842B9
:1015F0009B415B42D21813023AD50123029A01247F
:101600001A400023944698460022F7E502214942F9
:101610008C46039DE344AC46E244AA45AD416D428D
:101620004544ED182D1A96E68A1E03994D008D4209
:10163000894149424144761803958FE71F20404273
:10164000C31A5846D8400300202A28D040205D46BF
:10165000821A954029434A1E9141194307230022CB
:101660000B4009D00F2300220B400800042BBDD1F2
:10167000010053075202120BC9081943012388467F
:101680000299002419408C46B8E55245BED88B46D5
:10169000002560E6039D9D42C6D3110062E7002548
:1016A000D8E780225B4612031A43019B1203120BF8
:1016B0009C468846034CA1E5FF030000FFFFFFFEA8
:1016C000FE070000FF070000F0B557464546DE461E
:1016D0004E46E0B50C0398464E00230B87B007003A
:1016E00092469B46760DCD0F002E6BD06D4B9E42E1
:1016F00035D080245B46420F2404DB0014431C4396
:10170000C3009946684BA3469C46002300276644C5
:10171000029343461C035A00DB0F5046240B520D24
:10172000984600D176E05F4B9A426DD08023410FFE
:101730001B040B435C49E4008C461C43C30000209F
:1017400062444146B6186940721C019194460743B1
:101750000F2F00D9B0E0554ABF00D25997465B46DB
:101760000343994600D087E000239B4602330827B5
:101770000293CEE742460192022867D0032800D1A7
:101780000EE2012800D062E10023002400229946E5
:1017900001990140CDB2002112030B0D120B1B0564
:1017A0001343434A240513401C436400ED076408B7
:1017B0002C434846210007B03CBC90469946A246BF
:1017C000AB46F0BD034399464FD05B46002B00D19A
:1017D00089E1584601F0BEFD03000B3B1C2B00DDE8
:1017E0007AE11D22D31A3A0001005C46DA4008393A
:1017F0008C4013008F4023439B46B94600232D4E57
:101800000027361A029384E7534623432AD1002443
:10181000022096E75346234320D0002C00D157E105
:10182000200001F097FD03000B3B1C2B00DD49E17C
:101830001D21CB1A51460200D9405346083A944024
:1018400093400C431B4A121A00207AE70125019BA2
:10185000144C1D400023002299469CE700240022DE
:1018600001206EE7534603206BE700239B460133BC
:101870000427002602934CE7032381460C2702939A
:1018800047E780220023002512039946054C82E792
:101890005C464B4602986FE75C464B4601950298C2
:1018A0006AE7C046FF07000001FCFFFF587100080F
:1018B000FFFF0F800DFCFFFF4A464946170C1A0C2C
:1018C0001B041B0C08041900000C4143150088463A
:1018D00019007D4379430395894629001500454346
:1018E0004D44029545462D0CAA46029D5544A945F6
:1018F00006D98A46802149028946CA445146039145
:10190000290C0491414609042D04090C884629003C
:10191000250C24044144240C0591210041438846B0
:10192000210079438A466843414650448146080C69
:1019300048446F43824503D98021490289464F4478
:10194000010C894639004944029141460F0404992B
:101950003F0C88460004C019804441460491594612
:101960000F0C0904090C884659438A463900514333
:10197000894641464A435146090C8B467B43D2185F
:101980005A44934203D980235B029B46D944514673
:101990000904090C8A46414661437C43130C120436
:1019A0004B445244A1468A463C0041466C434D4359
:1019B00051464D440F0C7D19A94503D98021490298
:1019C00088464444049F0399B84641448B46834566
:1019D000804141428846514608042F04000C3F18BC
:1019E0005846029910188946904292414F44BA468F
:1019F000524299469346C244D144CB448F42BF41A0
:101A0000C245894199459B41934592417F42494254
:101A10002D0C52420F435B4213437F19FF185B4664
:101A20003C19DB0D059A64021C43430213435D1EFF
:101A3000AB415A46C00D034352021343E20156D54F
:101A400001205A0803401343E207134364085A482D
:101A5000604400284DDD5A0709D00F221A40042A9D
:101A600005D01A1D9A429B415B42E4181300E20123
:101A700004D58020514AC00014406044504A90422E
:101A800000DDE3E60125DB0862071A436402019BDF
:101A90009146220B4405640D1D407CE68022594688
:101AA0001203114208D0144206D122431203120B32
:101AB00045469946434C6EE65B461A431203120BA9
:101AC000404C68E603005446283B9C400023B9E69E
:101AD00001F040FC2030A6E60300283B9F40002395
:101AE000BB4699468AE601F035FC203074E6B446E0
:101AF000ADE701252A1A382A06DD019B00241D4086
:101B000000230022994646E61F2A21DC20252000DA
:101B1000AD1A1E00AB40A840D6405D1EAB4130431D
:101B20001843D440430709D00F230340042B05D0AA
:101B30000300181D98429B415B42E418230221D503
:101B40000125019B01241D4000230022994622E625
:101B50001F2521006D42281AC1400800202A1DD0EF
:101B60005F35AA1A944023435C1EA3410725034313
:101B70001D400022002D09D00F2200241A40180019
:101B8000042AD6D1030065076402220BDB082B432D
:101B900001259946019B00241D40FCE50024E2E755
:101BA000802201251203224301991203120B0D40DA
:101BB0009946044CEFE5C046FF030000FFFFFFFE1F
:101BC000FE070000FF070000F0B54646D6464F4628
:101BD0000C03C0B5CD0F4E00610A440F0C43C10089
:101BE0005800400D84468A460F001903500F490AD9
:101BF0000143C648760DA846DB0FD200844500D1CC
:101C0000D8E001204340AB4200D1A6E06046351A3F
:101C1000002D00DC05E1002810D10B00134300D19A
:101C2000D7E06B1E002B00D04BE153469F1ABA45FC
:101C30008041641A4042241A01261EE0B34B9E42A2
:101C400048D080231B041943382D00DD19E11F2DD6
:101C500000DD4CE120230F005B1B10009A409F40E9
:101C6000E840531E9A41E940074317435346DF1BA0
:101C7000611ABA45A44164420C1B230200D4C5E09A
:101C80006402650A002D00D1F6E0280001F062FB35
:101C90000300083B1F2B00DDE9E020223C00D21AA4
:101CA0009D40D4409F4025439E4200DDDBE09E1BCB
:101CB000731C1F2B00DD0AE120223800D21A2900F4
:101CC00097402C009140D8407A1E9741DC40002676
:101CD00001430F437B0709D00F233B40042B05D062
:101CE0003B1DBB42BF417F42E4191F00230225D5A3
:101CF000864B01369E4200D1AFE0854B01251C404A
:101D000043466207FF08640276051743240B760DED
:101D10001D4000212403230B0C0D7E4A24051C4387
:101D20001440330523435B00ED075B082B43380069
:101D300019001CBC90469946A246F0BD01254346B9
:101D40006207FF081743E4081D40704B9E4236D0DF
:101D500024037605240B760DDBE76346F31A002B8C
:101D600000DC94E06046002835D068488642B1D057
:101D700080273F043943382B00DCFDE00A4317007D
:101D800000217A1E97415744574580410919444222
:101D90000C1923023AD55D4B01369E4200D14BE12E
:101DA00001225B4B1C407B0817401F43E20717438F
:101DB00064088FE70800104300D024E721E72300E0
:101DC0003B4300D1B9E18022120314432403240BC6
:101DD0009FE72E007EE70800104300D1CAE0581E9E
:101DE0008446002800D0E7E0524452458041641800
:101DF0004042241817000126230207D50226CFE708
:101E000064462C4300D1B3E12C0067467B0700D029
:101E100062E76307FF081F4301254346E4081D40AE
:101E200093E7002D78D1751C6D056D0D012D00DC3B
:101E3000F2E05046801A8245BF41651A7F42ED1B91
:101E40008446280200D48CE05046171ABA429241C8
:101E50000C1B5542651B984614E701254346002498
:101E60001D40002755E72A4CF61A2C4032E73D006A
:101E700028388540002717E7380001F06BFA20303A
:101E800006E70A43170000217A1E9741EEE6002B71
:101E900000D0E5E0731C9C465B055B0D012B00DC6C
:101EA0009FE01A4B9C4500D1C5E052445245804109
:101EB000641840422418E70752081743640866462E
:101EC00008E71248854200D185E01D00BCE62900E4
:101ED0001F3EF140202B00D17FE04022D31A9D40CD
:101EE0002F437D1EAF4100240F4300268EE72B00B9
:101EF0000F00203BDF40202D71D040235D1BA94007
:101F00000A43511E8A4100211743AFE6FF07000034
:101F1000FFFF7FFFFFFF0F80002E3ED0B34EB44582
:101F200045D0802636046D423443382D00DDA8E0CC
:101F30001F2D00DD1FE1202627005046761BB740ED
:101F4000E84007435046B040461EB041EC4038439D
:101F5000171ABA4292410C1B5242A41A664698467E
:101F60008BE6644667462C4300D08BE600250026AE
:101F70000027EAE61E00ADE61F2B60DC2027F81ADA
:101F80000F00844687401000D840074360468240D7
:101F9000501E8241D9401743F5E6260050460643BD
:101FA00005D0ED43002DD3D0904EB445BDD10C00EB
:101FB0001700664698468DE68C4883420BD06346F0
:101FC000D9E6002D00D096E00800104300D1E2E0F1
:101FD0000C0017009846854E7CE6002580E700211E
:101FE0008EE7230050460343002E00D0A8E0002BCC
:101FF00000D1DEE00B00134300D16BE652445245A2
:1020000080416418404224181700230200D4FDE6E2
:10201000774B66461C405DE6250050460543002E82
:10202000CFD1002D4FD10C00144300D1A0E00C0003
:10203000170098464EE666460024002785E61F00F6
:102040000800203FF8400700202B00D18EE0402000
:10205000C31A99400A43511E8A410021174392E650
:10206000002E14D126005046064362D0DB43002BDD
:102070005CD187189742924164185242A418664670
:1020800087E650462043441EA041002460E7574E97
:10209000B4454ED0802636045B423443382B00DDF5
:1020A0007FE01F2B00DD8BE0202627005046F61A2C
:1020B000B740D84007435046B040461EB0410743A2
:1020C000DC40BF18D6E70D00154300D102E65046AC
:1020D000801A8245BF41651A7F42ED1B8446280263
:1020E00000D48DE65046171ABA4292410C1B524258
:1020F000A41A9846EEE50D00154300D16BE7504653
:102100006707C00807438020E4080003044207D0A3
:10211000CD08054204D12C009846D70849070F4343
:102120007B0FE4001C43FF00304ED3E52F4EB44537
:10213000B4D10C0017006646CCE500270024E8E582
:10214000002B39D00B00134300D144E7C0086707C8
:1021500007438020E40800030442E1D0CB08034297
:10216000DED1D70849070F431C00D9E7002171E7EA
:1021700000250027E9E52E002700203EF740202D0E
:102180002FD04026751BAC4050462043441EA04132
:1021900000243843DCE6802400252403134E002766
:1021A000D3E5504620430700781E87410024BF181E
:1021B00060E70C0017008DE50C0017000B4E89E559
:1021C0001E002700203EF740202B0CD04026F31A9B
:1021D0009C4050462043441EA04107430024BF18A2
:1021E00048E70024D0E70024F3E7C046FF070000DB
:1021F000FFFF7FFF70B5002830D0C317C4185C40C4
:10220000C50F200001F0A6F8174B184A1B1AD21A66
:102210001F2A18DD164AD21A9440002224035B05B7
:10222000240B5B0D0021100024030A0D240B120562
:102230002243104C1B05224013435B00ED075B0853
:102240002B43190070BD210091400A000B21081A90
:10225000C4405B052403240B5B0DE3E7002500234A
:1022600000240022DEE7C0461E0400003304000004
:1022700013040000FFFF0F804100090E4B1C70B5D6
:10228000DBB24602750AC40F012B14DDE0239B006C
:102290006D07360BCB1800210A0D280012051C4DC6
:1022A00032435B052A405B0813435B00E4075B088D
:1022B0002343190070BD002914D1002D1ED0280021
:1022C00001F048F80A281CDC0B232A001B1ADA400C
:1022D000030015339D400F4B12031B1A5B05160BB1
:1022E0005B0DD8E7002D06D0320B802636036D0734
:1022F0001643094BCFE7084B0026CCE70023002606
:10230000C9E703002A000B3B9A400025E3E7C046DB
:10231000FFFF0F8089030000FF070000F0B54C00AD
:10232000640D0B03621C450F5B0A52052B43C90F5A
:10233000C500520D012A28DD3A4AA618FE2E1BDCE4
:10234000002E3EDD80010200501E82416D0F2A43A7
:10235000DB0013435A0704D00F221A40042A00D08E
:1023600004338022D2041A405AD00136FF2E03D003
:102370009B015B0AF4B201E0FF2400235802E4054C
:10238000400AC90720430843F0BD002C07D01D4375
:10239000F2D08020DB0080040343FF26DAE72B43E2
:1023A00003D00523DB08FF2C03D05B025B0AE4B2F9
:1023B000E4E7002B32D08020C00303435B025B0ABA
:1023C000DCE73200173214DB80221E27120413438D
:1023D000BF1B1F2F0FDC144A944664442A00A540FB
:1023E0002E00A340751EAE41FA403343134300262E
:1023F000B0E70024D5E702225242961B1A00F240B1
:10240000202F09D0094884466444A3402B435D1E15
:10241000AB41002613439DE70023F7E70023ADE718
:102420003400BFE780FCFFFF82FCFFFFA2FCFFFF40
:1024300003685A0003D45B005B08C0187047802211
:1024400012061343F9E7C046F0B557464E46DE463E
:102450004546E0B5814683B09246002925D04B1E03
:102460009B46002701935B46FB18DC0FE4184B46A4
:102470006410E5005E193000FFF7DAFF019B80462B
:10248000A3420BD0280008304844FFF7D1FFD045C5
:1024900006D80138504509D2671CE4E7504505D9F4
:1024A000A74202D0631E9B46DDE70026300003B042
:1024B0003CBC90469946A246AB46F0BD012809D0E7
:1024C000022805D0002801D0002070470248FCE710
:1024D0000248FAE70248F8E7DD2B0008F52B000870
:1024E000E92B000830B5234B83B005008C1E002B70
:1024F0002AD001A9200000E000BF002820D00199C7
:102500002200FFF7A1FF041E1AD0FFF791FF6368B6
:10251000A864012B10D0201D002B1BDBFFF788FFC8
:102520000023E8642B650368002B17DBFFF780FFAF
:102530002861002003B030BD002305202B61F9E79E
:10254000002309202B61F5E70B480C49091AC91033
:102550000191D5E70123E8642B65E4E71801000F3A
:10256000FFF7ACFF2861002801D10930E2E7002025
:10257000E0E7C04600000000187200086873000819
:10258000036810B50400DA0705D49B070FD548305F
:1025900000F084FC23685A070FD51A0714D5DB0610
:1025A00004D42000D130FF3000F084FC10BD48304E
:1025B00000F070FC23685A07EFD42000D03000F000
:1025C00071FC23681A07EAD420005130FF3000F074
:1025D0006DFC2368E3E7C0460368002B00D01B189E
:1025E00018007047092070477047C04670B5040056
:1025F0000D0008E02B6C2A00636121000120236993
:102600009847082807D1296C2000FFF76BFF0028A6
:10261000F0D004F083FB0728FBD10020296CFFF7E2
:10262000E3FF281D00F020FCF0B5CE46474680B5FC
:10263000C368324C9846A5448369060014000431EF
:10264000402205A8994604F09BFB002304AD296CA9
:1026500030000493FFF746FF631E9C4107000934D6
:10266000002F15D0AB6B10216B644B4621430193B7
:10267000C9B20095330032000120C047002833D191
:102680003800F5239B009D440CBC90469946F0BD54
:10269000F0222B6C5200736129007CA804F070FBBF
:1026A0007CAA31003369200098478A9B07006B643D
:1026B00003934B4600950193320033002100012023
:1026C000C047002810D1F0227CA95200280004F055
:1026D00057FB082F06D1296C3000FFF703FF0924B0
:1026E0000700BDE7072F01D00927C9E70020296CA3
:1026F000FFF77AFF05A800F0B7FBC0462CFCFFFFF0
:10270000406C704770B5CB6BFAB00B6404000E00E0
:102710004022043103A804F033FB01235B420293FF
:1027200006E002AA210023699847050008280AD17B
:10273000129B200019000193FFF7D4FE0028F0D06F
:1027400009207AB070BD02A8FFF71AFF062DF7D155
:1027500031002000FFF74AFF10B58261DA6BC160DB
:102760001A6419000022FFF75FFF10BD436970B5BE
:102770000B64C36804000D00002B04D00122FFF796
:1027800053FF04F0CBFA0A002369010002209847A6
:10279000072807D0082803D129002000FFF726FFCB
:1027A00004F0BCFA0020296CFFF71EFF281D00F082
:1027B0005BFBC046C36810B5002B05D0CB6B002275
:1027C0000B64FFF731FF10BDFFF79CFFFBE7C0462E
:1027D0007047C046836810B5002B02D0010001206D
:1027E000984710BD10B5012907D0002907D003393B
:1027F0000224012901D9200010BD0124FBE7022495
:10280000002BF8D10F2AF6D8920082185268029B4A
:1028100000241A60EFE7C04600B585B003AB0A009C
:10282000009300210023FFF7DDFF039805B000BDF2
:1028300010B5012907D0002907D003390224012946
:1028400001D9200010BD0124FBE70224002BF8D1A0
:102850000F2AF6D8029B92001B688218536000244E
:10286000EFE7C04600B585B003AB039200930A00C2
:1028700000230021FFF7DCFF05B000BD70B51A4C46
:10288000D36BA544136406000D0019A8111D402246
:1028900004F076FA01235B42189314E00C2118A887
:1028A00002AAFFF7DFFF290018A8B047002812D1BD
:1028B000069B18AA02A9083001939847040005282E
:1028C0000AD0092807D0289B02A819000193FFF716
:1028D00009FE0028E2D0092418A8FFF751FE2000C5
:1028E00090239B009D4470BDC0FDFFFFF0B5DE4608
:1028F0004E464546574693460322E0B51E00130058
:102900008BB003400193CB6C0D001C1D1B68089419
:102910000793002E66D11B02079306AB5E731A73F2
:10292000019B022B00D16EE02B6DDB0747D4002307
:10293000A846B24602930833034003932568002D4E
:1029400000D137E15346022B49D0258866880434EC
:102950000123370099469F4343469B6C0F219C46B9
:1029600058466744FFF758FF0022874206D82A00DE
:102970004B469A43D719B842804142420223012173
:10298000760033400D402B43012B3ED0002B5AD014
:10299000022B1CD1236801995F007F08002965D1B3
:1029A000002A06D0039A002A00D188E0002F00D127
:1029B000AAE0002B65DB0137BF00E419BEE7002366
:1029C0000293022E47DDFFF70DFE002849D00920B3
:1029D0000BB03CBC90469946A246AB46F0BD66683B
:1029E0000834B5E7022E9BDC1A0C1B040793022364
:1029F00006A90B73FD3313409B00E418019B4A7337
:102A0000022B00D090E7AC6B8EE7019B002B3AD1F4
:102A1000002A16D02368DD0F63689A1CD7D042467F
:102A200058320692013300D1C6E0201DFFF7D4FDD5
:102A300006AB01002A00404600E000BF002800D09D
:102A4000A7E008347AE7019B002B02D0002A00D0CF
:102A50008BE0043472E707A9584600F0D1FA002849
:102A6000B5D1029B002B5DD10820B1E743460D2173
:102A700058461D6AFFF7D0FE854263D02368002BBD
:102A800099DA043497E743460D2158461D6AFFF74B
:102A9000C3FE8542D5D143469B6A9C42D1D145466F
:102AA0002000FFF7C5FC0F2102005846FFF7DAFEB1
:102AB00058462A000021FFF7D5FE072088E7002F9F
:102AC00022D058235146434406AABA46251D002663
:102AD000049405911F00914603E004352600A245A9
:102AE00014D028000697FFF777FD4B46010000221F
:102AF0004046741C00E000BF0028EED05746059BFE
:102B0000049C9A46B742B9D1454601E04546049C2B
:102B10000D215846FFF780FE069B28626B62AC626F
:102B2000062055E70F215846FFF776FE0E210200DA
:102B30005846FFF797FE5846274A0F21FFF792FEA7
:102B4000072045E743469B6A9C4297D1434642464D
:102B50009F620023D36204331363231D53632368EE
:102B6000002B32DB0123029325E72000FFF760FCF6
:102B7000454604340600AC63404600E000BF002830
:102B800000D124E7584632000F21FFF76BFE0720E3
:102B90001EE707000D2158464546FFF73DFE286217
:102BA000022F0FD1069BEB6243462C336B62AC6263
:102BB00006200DE7564604E70D2158464546FFF727
:102BC0002BFE2862069B6B62F1E738000130800023
:102BD0004546201865E7C0460000000010B50023F8
:102BE000FFF784FE10BDC04610B50123FFF77EFE3F
:102BF00010BDC04610B50223FFF778FE10BDC046D9
:102C0000F0B5CE46474680B50600C3B014001D009F
:102C100001294ED0002933D003290AD0042902D13A
:102C2000002B00D189E0022043B00CBC90469946AD
:102C3000F0BD032BF7D11404150C240C2B19102B09
:102C4000F1D8082203681A4200D0E7E020AB180050
:102C5000984600F02DF9B36BED001A00002C09D056
:102C6000E400EA1A1C1942441968D15004339C420A
:102C7000FAD12200B263404600F018F90020D3E7F1
:102C80000220002BD0D1002301271004B56B000CCB
:102C9000321D39009940084202D02968043511607C
:102CA00001330432102BF4D10020A304BCD4B5634B
:102CB000BAE71404170C240C012B5FD0052BB2D1FA
:102CC0003B19202BAFD80F2F7DD9A146002C65D101
:102CD000002223009146B16B002B00DC88E020A885
:102CE0008046FA00DB00521ACB1842440868505064
:102CF00004318B42FAD119004B46002B10D04B46C1
:102D000058003A00102F00D210220023103AD200AF
:102D10006A448000CC58D45004338342FAD1C91895
:102D2000012D5ED0B1630F2F74D94B46002BA5D077
:102D3000684600F0B7F8002076E7102A00D972E75D
:102D4000102203681A4245D120AB1800984600F0C3
:102D5000B3F800230120B16B02009A40144204D062
:102D600045460F689A00AF5004310133042BF3D16C
:102D70004046B16300F09EF8002055E73B19102B48
:102D800000D950E70F2F00D94DE7002399460122C3
:102D900033681A4230D14B46002B5AD00422336894
:102DA0001A4242D1012D47D00F2F06D820AB180070
:102DB00000F076F84B46002B8AD0684600F074F895
:102DC0001023DB1B87E7102BDFD9102252429146DC
:102DD0009944DCE793430360D130FF3000F06CF896
:102DE000B2E7043120A8B16300F054F800201BE7DB
:102DF0004B46002B84D193E7190091430A003160C0
:102E0000052D1ED00322300093433360483000F07C
:102E100043F8C0E720A800F041F886E79343036039
:102E20005130FF3000F044F810E730009343336036
:102E3000D03000F039F8B5E720AB180000F02CF8DE
:102E4000BEE7022330001A433260483000F028F811
:102E5000A1E7012D03D00F2F00D939E7A6E720AB5A
:102E6000180000F019F833E7011C343138C9043B6D
:102E70009C461D60A646011C20313CC990469946DF
:102E8000A246AB46011C0831FCC941680068E54612
:102E900000BDC0467047C0467047C0467047C04638
:102EA0007047C0467047C0467047C0467047C0462E
:102EB0007047C0467047C0467047C04601B401A87D
:102EC00001B585B0FFB408A841464A4653465C4662
:102ED00065463EC001A83EC80F98009000230CB480
:102EE00001A9FFF70FFC109B12B0184701B401A80D
:102EF00001B585B0FFB408A841464A4653465C4632
:102F000065463EC001A83EC80F98009000230CB44F
:102F100001A9FFF72BFC109B12B0184701B401A8C0
:102F200001B585B0FFB408A841464A4653465C4601
:102F300065463EC001A83EC80F98009000230CB41F
:102F400001A9FFF737FC109B12B0184701B401A884
:102F500001B585B0FFB408A841464A4653465C46D1
:102F600065463EC001A83EC80F98009000230CB4EF
:102F700001ABFFF7F1FB109B12B0184701B401A899
:102F800001B585B0FFB408A841464A4653465C46A1
:102F900065463EC001A83EC80F98009000230CB4BF
:102FA00001AAFFF76BFC109B12B01847027A0300CE
:102FB000002A04D1427AB020002A07D17047013A92
:102FC00002720268100E12021A60F7E7013A5A7292
:102FD0005A68111D5960032112681972F2E7C04640
:102FE00000B585B003AB00930C2200230021FFF74E
:102FF000F9FB039805B000BD10B5FFF7F1FF10BD58
:10300000F0B557464E464546DE460023E0B587B04C
:1030100003930F339846083B994680231B03060011
:103020000F009A463800FFF7C1FF0400B02821D0F6
:10303000030632D4FF2583001D4005AB9B46009359
:103040000D220023002130000435FFF7CBFB63067F
:103050004CD5059B5D1B05955B46009300230D2217
:1030600000213000FFF7E4FB3800FFF79FFF04006A
:10307000B028DDD1039B0024002B2FD105AD009596
:103080000E2200213000FFF7ADFB009500230F2238
:1030900000213000FFF7CCFB20E0030042469343C1
:1030A000DBB2802B63D0902B25D0A02B32D0B02B5D
:1030B00045D0C02B00D173E003004A469343DBB2F6
:1030C000D02B0AD15346024001321A430523012175
:1030D0003000FFF795FD0028A4D00924200007B098
:1030E0003CBC90469946A246AB46F0BD059B9C462B
:1030F00065440595B0E7833B03400D2BEDD0424678
:1031000005AD02400095002300213000FFF76AFB67
:103110000095A3E7FF234A461B0119008243114192
:103120000A001A40030702D58023DB011A4300235B
:1031300000213000FFF764FD0028CED172E7B128EE
:103140004AD0B2285ED0B32800D18BE0FC230340E4
:10315000B42BC2D04A465346024001321A430121E1
:1031600001233000FFF74CFD0028B6D15AE70402D6
:103170003800FFF71BFF802520432D02A842ACD06A
:1031800004010005020C002300213000FFF738FD88
:103190000028A2D12C4200D144E70123039341E748
:1031A000C6286AD0C7287CD003004A469343DBB2C6
:1031B000C02B00D18BE0C82800D18FE0C92800D0F7
:1031C0008BE73800FFF7F2FEF02302031B031340E6
:1031D00042460240013278E73800FFF7E7FE002858
:1031E00000D17AE7030042469343DBB2002B00D0C4
:1031F00073E7020000213000FFF702FD002800D035
:103200006BE70FE705AB00939B460D2200230021DF
:103210003000FFF7E7FA3800FFF7C8FE03066AD56B
:103220007F25B03C059B2840A0409C46604405900B
:1032300038000734FFF7BAFE0306F3D48122920068
:103240009446863AFF3A1040A040059B723A634488
:1032500018185B4605900093002100233000FFF70B
:10326000E7FADFE63800FFF7A1FEF02302031B03B5
:10327000134042460240013270E73800FFF796FEE5
:10328000F02302031B0313404246024001321A435B
:10329000032303213000FFF7B3FC002800D01CE714
:1032A000C0E63800FFF782FE002800D115E70300D2
:1032B00042469343DBB2002B00D00EE7020004210C
:1032C0003000FFF79DFC002800D006E7AAE6434641
:1032D000A0221C40013412032243D9E73800FFF733
:1032E00065FE434602009A43D2B2103218401203E0
:1032F00001300243EAE60224A0E7C046030000B51D
:10330000DB6C85B05A680800120201921A0001A90C
:1033100008324A6003220A72DB794B72FFF770FEB3
:1033200005B000BD10B5FFF767FE806C10BDC0464C
:1033300010B5FFF761FEC26CD3799B000833D0183B
:1033400010BDC04610B503F0E9FCC04610B5FFF74C
:10335000F9FFC0461C2101231B04984201D3000C35
:1033600010391B0A984201D3000A08391B099842F8
:1033700001D30009043902A2105C40187047C0460E
:10338000040302020101010100000000000000002E
:10339000382330B599B00B93373B129310931393A6
:1033A000C0235B02102200240225159305230BA8DD
:1033B000119217931495169402F060F807232100D8
:1033C00001A8019302950394049402F09FFAC0238C
:1033D0009B020593802305A89B0006930A9402F0A4
:1033E00085FB02F06FFBFA218900FCF7ADFE01F0CE
:1033F0000FF8042001F026F80120220021004042AD
:1034000000F0CCFF19B030BD07B50120064A916924
:103410000143916193690022034001931100023836
:10342000019B00F0BBFF07BD0010024030B5154BFB
:10343000026887B09A4223D18020134A80009169A4
:103440000024014391619369032503400093009B8D
:10345000012301A90D4801930295039401F006F898
:10346000802301A9094801930295039400F0FEFF0F
:103470000C202200210000F091FF0C2000F0BEFF84
:1034800007B030BD00240140001002400004004895
:1034900010B5144B026886B09A4220D18020124A9F
:1034A0008004D16900240143D161D36901A903409B
:1034B0000093009BC0239B000193022302930133DE
:1034C00004930A4801330593039400F0CFFF1E20B4
:1034D0002200210000F062FF1E2000F08FFF06B0E6
:1034E00010BDC046006400400010024000040048C7
:1034F0007047FEE710B5802001F06CF810BD10B5E4
:10350000012001F067F810BD10B5024801F05CFD24
:1035100010BDC046C80D002010B500F0B3FC00F08F
:10352000A0FF10BD10B5094C00220949200002F08F
:103530008FFB0849200002F0A5FB0749200002F09C
:10354000E5FF200002F0A7FB10BDC046400B0020A5
:103550001000002048000020000000200020014B47
:1035600018707047E60A002010B5034B186802F087
:10357000DDFF002010BDC046640D0020054B06484D
:1035800010B50649186002F0CAFF0122044B002062
:103590001A7010BD640D0020400B0020680D002043
:1035A000E60A002021280AD10023C2220B704A70AB
:1035B000CB70C13A0B714B7108338A708B7100204C
:1035C0007047000007B50B4B02689A4211D180206A
:1035D000094A0004D1690143D161D3690022034043
:1035E00001931F201100019B00F0D8FE1F2000F066
:1035F00005FF07BD005C004000100240010087236A
:1036000010B59B00ED31FF31C05802F05FFB10BDDB
:103610001C234B43C318FC33DA69872310B59B0086
:10362000C05802F087FB10BD1C234B43C3189A6B94
:10363000872310B59B00C05802F0B6FB10BD87234E
:1036400010B59B00C05802F03DFC10BD70B587243A
:103650000500A4000121005902F01FFC285902F0C6
:10366000F9FB70BD872310B504009B00C05802F021
:1036700017FCA369002B04D00623024A11690B43EF
:10368000136110BD00ED00E0836970B504000A4DC0
:10369000002B09D02B68002B06D1FFF779FE0621FD
:1036A000064A13698B43136100232B6087239B0019
:1036B000E05802F000FC70BDAC09002000ED00E015
:1036C000872370B5050017489B00C550164B882608
:1036D0000360082300240322B600A8514360063B80
:1036E0008360C260036144618461046200F07EFF14
:1036F000A85922002100182301F0A6FEA859220093
:103700005823802101F0A0FEA8592200982301210E
:1037100001F09AFEA859D8232200812101F094FEDD
:10372000200070BDC80D0020005C0040882310B54B
:103730009B00C05800F0A0FF002010BD10B5140081
:103740001A0023008824A400005900F0B5FF0020CF
:1037500010BD882310B59B00C05801F00DF9002062
:1037600010BD882310B59B00C05801F06FFA0020EF
:1037700010BD882310B59B00C05801F0B5FA002099
:1037800010BD88239B00C35848B21C22002806DACB
:103790007F2001404A439B182A33187870474A43D8
:1037A0009B18FF33D87AF9E7882310B59B00C058DF
:1037B00000F06BFF002010BD10B58824A400005954
:1037C00001F004FB002010BD10B58824A4000059AE
:1037D00001F084F9002010BD882310B59B00C0586B
:1037E00001F02AFA10BD000000487047AC05002027
:1037F00070470000122301480B8070472C00002006
:10380000042301480B8070474000002010B5044C91
:103810000A000448210002F01FFD200010BDC04630
:10382000E80F0020B171000810B5044C0A000448EC
:10383000210002F011FD200010BDC046E80F00205D
:10384000BC71000810B5044C0A000448210002F0C5
:1038500003FD200010BDC046E80F0020C67100081F
:1038600010B5044C0A000448210002F0F5FC2000C9
:1038700010BDC046E80F00209871000810B5044C38
:103880000A000448210002F0E7FC200010BDC046F9
:10389000E80F0020A371000830B51F4C87B02378D3
:1038A000062B31D180231D4A9B04D16901250B438E
:1038B000D36180230193002301A919480393049342
:1038C000029500F0D3FD1748FFF7E2FD164B1A688A
:1038D0002A431A605A682A42FCD0022001211A6841
:1038E00082431A601148124A0078127800041205C7
:1038F0000243104800880243DA611A68AA431A603A
:103900005A680A40FCD1227000228021044800F04D
:1039100055FE07B030BDC046F5090020001002403A
:1039200000040048B409002000640040B0090020F1
:10393000B1090020F609002000B5082832D81B493B
:103940001B4A1C4BFCF7ECFB050B0F151C21252A11
:103950002F009F2008800321117004220EE06320B5
:103960000880022102E01F20088004211170032238
:1039700004E0132008800321117002221A7011E064
:103980000720088010700622F8E707200880012130
:10399000E2E70120088007211170F4E70220088087
:1039A0001070187000BD0120DAE7C046F60900204B
:1039B000B0090020B109002010B50420FFF7BCFFBA
:1039C000044A054B1A600022044B1A70044B06325D
:1039D0001A7010BD00640040B4090020F4090020F2
:1039E000F509002000230122F0B58DB0944608921D
:1039F0000A9219001A001C00039302930593049382
:103A0000099306930B93009301930C2B65D08726A3
:103A1000334DB600AE59370001269E403E424AD093
:103A20008127BF00EF59374242D02D4ADD00AD1843
:103A300090229200AE58AF583F0C11D09127BF0092
:103A4000AA58E959120C00291AD14001059002A97F
:103A50002448079303960292023400F02DFC0CE0F8
:103A60000793009B0396002B00D005914001029024
:103A700002A91C4800F020FC0134E0B20DB0F0BDFA
:103A8000E959ED592D0C0BD140010591049002A983
:103A90001448079303960292033400F00DFCECE700
:103AA0000125009565460434E4B201950133ACE785
:103AB0000234E4B2FAE7019D002D00D00292009A90
:103AC000002A00D0059140010390DBB202A905480D
:103AD000079300F0F1FBA0B2D0E70348CEE7C04661
:103AE00000640040B4090020FFFF0000F7B5002388
:103AF000020001202A4EDCB2032B4ED019001831EF
:103B0000090189595D1C01423DD10520032C43D098
:103B1000C0241588224918016D05411864000D5113
:103B20001579002D03D002250E5935430D510F256F
:103B3000947816002C407635FF354C51194C1B01FA
:103B4000051900242C60184D0936401904605007EF
:103B5000541D821A13481F1814485B191218019239
:103B6000B44212D0019A3D681019C00084466246E2
:103B7000207990402843386025781868954005439F
:103B80001D600134ECE72B00B5E7C0220123520091
:103B90008858034300208B50FEBD0520FCE7C0463B
:103BA000006400408C65004088650040FBFFFF1FFB
:103BB0001E4B0200D968F0B50220890734D0D82402
:103BC00064001959490D11800021117119590142E0
:103BD00001D001211171DA200F241600DE27DC2527
:103BE0004000195809362140917019585007090AA8
:103BF000D170511D821A0E487F0012186D00B1421B
:103C000009D0DC595018C000C4400C715C59C44044
:103C10000C700131F3E720220020D9680A43DA60F2
:103C2000044A1378013B1370F0BDC04600640040A5
:103C3000FBFFFF1FF4090020034BD8680323184043
:103C4000431E9841C0B2704700640040F8B5214E51
:103C5000050033780C00002B08D1FFF7ADFE0620DD
:103C6000FFF76AFEFFF718FE0123337000221A499E
:103C70001600322A2CD0B300CB580132002BF7D1DA
:103C800028002F002A1D1C3018371380023208C06C
:103C9000BA42FAD1B2008D502000AB64EB642C80A4
:103CA000FFF7A0FE601C80B2FFF79CFEA01C80B254
:103CB0000334FFF797FEA0B2FFF794FE0122B24053
:103CC000064BD117186802431A605A6811435960AD
:103CD0002800F8BDD20A0020FC090020D80A0020E4
:103CE0001FB560236A4653710323937000239171BB
:103CF000137109120388D171684605211380FFF7FB
:103D0000F5FE05B000BD7FB56B466A4618800023FE
:103D100013712A330C1E537119D001256B460022F2
:103D20009D700123072B17DC1900227869444A7122
:103D30000133002A0CD16A462E0093700521684693
:103D4000FFF7D4FE322000F0ABF8002EE6D07FBDA6
:103D5000DBB201342A00E5E7002A01D06A469370FD
:103D60000026EBE7038810B501339BB2816C180085
:103D7000FFF7C9FF10BD038810B502339BB2C16CB9
:103D80001800FFF7C0FF10BDF8B5FFF755FF00287A
:103D900019D0284C05212000FFF70AFF0026264FE6
:103DA000F059002823D0228803889A420CD1217927
:103DB000002909D08369200098470436C82EEED127
:103DC00000221E4B1A70F8BD591C8A4205D1217978
:103DD000002902D0FFF7C6FFEFE7023300259A4221
:103DE00006D12379AB4203D0FFF7C5FFE5E7050015
:103DF0000A2DE2D0BB59002B0DD06A009A18918889
:103E000022888A4209D1AA1D92009A185268002A73
:103E100003D0200090470135EAE7E2788A42FAD1E0
:103E2000AA1D92009B185B68002BF4D020009847D5
:103E3000F1E7C046C40A0020FC090020F809002070
:103E400010B5040001F03EFEFA218900FCF77CF970
:103E500000F0DEFA012000222100404200F09EFA2C
:103E6000002010BD1023064A10B5116800200B4336
:103E70001360FFF7E5FFFFF7C7FA002010BDC0464B
:103E800000200240024A1368013313607047C046A5
:103E9000E00A0020014B18687047C046E00A002085
:103EA00013B50190FFF7F6FF0400FFF7F3FF019B46
:103EB000001B9842F9D313BD002373B5032101936E
:103EC000036804009A680A40012A07D11968114260
:103ED00001D0002076BDDA681204FAD49968194A34
:103EE000114208D010230120626C13436364A36C59
:103EF0000343A364EEE7012299680A439A60124BD8
:103F000012491868FCF720F90190019B002B15D18C
:103F1000FFF7C0FF0125060023681B682B42D8D19C
:103F2000FFF7B8FF801B0228F6D91023626C01202E
:103F300013436364A36C2B43A364CBE7019B013B56
:103F40000193E2E7170000804400002040420F0088
:103F5000F8B504000120002C72D0636C002B06D150
:103F600022004032A36420001370FFF75FFA636CF5
:103F7000DB0600D579E0042223689868104000D061
:103F800073E0626C4249114002220A4303216264D9
:103F90009A680A40012A00D06DE01968114202D1E6
:103FA000DA68120467D5DA683A49256A0A40DA60A5
:103FB000A2696F039103E269D2031143626B013A74
:103FC000561EB2411603E268114322690F43022ACA
:103FD00000D10420226B616A52003A43324302430B
:103FE000012904D1002D2CD1802149020A43C2208D
:103FF000A16AFF30814202D0E06A01430A43802077
:10400000D96840051143D960A16B814202D0481E96
:10401000062807D8072558692940A84358615869D8
:1040200001435961DB681C490B409A4211D10020C1
:104030000322A064636C93431A0001231343636457
:10404000F8BD2020656C28436064A06C0143A16426
:10405000CDE71222636C012093431A00102313430F
:104060006364A36C0343A364EAE71023626C01203A
:1040700013436364E4E71821DA688A43A1680A43BA
:10408000DA601969626889008908114319618AE751
:10409000FDFEFFFF1902FEFFE7FF3F83036870B5D7
:1040A0009B68040002205B071AD4250040352B785A
:1040B000012B15D001232B70E369012B11D1636C07
:1040C0000B4A00201A4080235B0013431C226364C8
:1040D0002368A06428701A609968183A0A439A60A5
:1040E00070BD2000FFF7E8FE0028F9D1E7E7C046E1
:1040F000FEF0FFFFF8B5456904000E00082D0DD055
:1041000003680120DB680C25034207D02023626C82
:1041100040341343636000232370F8BDFFF7BAFEF9
:10412000070023681A682A4223D08022616C92001B
:104130000A436264C022D9681201114212D1226A74
:10414000002A0FD11A6812070CD59A68520723D497
:104150000C215A688A435A60626C1449114001224A
:104160000A4362640020A2698242D6D10C221A60FE
:10417000D3E7721CD6D0002E08D10423626C4034E1
:1041800013436360002303202370C6E7FFF782FE1A
:10419000C01B8642C5D2F0E72022616C0A436264EC
:1041A0000122A16C0A43A264DCE7C046FEFEFFFFC9
:1041B0000368186C70470000F7B5002304000193F2
:1041C0004034237805000220012B2BD001232A68DC
:1041D000AE6B9068237040075AD430484F680D6822
:1041E00087423FD0AB4018008023976A5B05384375
:1041F00090629E420FD0013E062E0CD98B6807219B
:1042000050690840834206D050690B408843506192
:104210005069034353612B00103B022B03D900204C
:1042200000232370FEBD1E4A80231168102D15D077
:10423000112D15D05B040B431360102DEFD1194BDA
:1042400019491868FBF780FF0A2358430190019B26
:10425000002BE4D0019B013B0193F8E71B04EAE744
:10426000DB03E8E7AB40916A99432B00103B916276
:10427000022BD4D80A4B1A68102D05D0112D05D069
:104280000A490A401A60CAE70949FAE70949F8E702
:104290002022696C18000A436A64C1E7011000001B
:1042A000082701404400002040420F00FFFFFFFEAE
:1042B000FFFF7FFFFFFFBFFF70B501252C000368E4
:1042C00080204A69800094401E5835431D501D5877
:1042D000314E35401D504D6A1E582D0235438726FC
:1042E0001D50E543B600985928409851C8690028E8
:1042F00033D1103E9859D20028409851C8688E8812
:104300000004304390269A18B600905188680E88B1
:10431000000430439126B6009051812288699200B2
:1043200000282ED19858284098500A69002A2BD18D
:10433000852080001A5815401D500A6A012A04D1B0
:104340008722920099580C439C50802101208900BB
:104350005A5882435A50002070BD0128DDD183266F
:10436000B6009859D2002043985108688E880004FE
:10437000304390269A18B600905188688E890004C0
:10438000C7E798582043CFE7012AD6D1852080007F
:104390001A5822431A50D0E7FFC0FFFF70B58901B9
:1043A000002814DA0F23C0B20340083B114A9B08CF
:1043B0009B009B18032210409040FC3215001140D6
:1043C00085408140DC69AC432143D96170BD032540
:1043D00083082840A840FC352E00074A9B009B1804
:1043E000C02286402940814092009C58B44321431A
:1043F0009950EBE700ED00E000E100E01F231840DA
:104400001E3B8340014A13607047C04600E100E054
:10441000094A431E012093420DD8C021074A08488B
:104420005360036A09061B021B0A0B430362002048
:104430000723906013607047FFFFFF0010E000E06B
:1044400000ED00E0054B1A68042802D11043186003
:10445000704704218A431A60FAE7C04610E000E082
:10446000704710B5FFF7FCFF10BD0000F0B50B68FA
:1044700087B0039300230291039ADA4001D107B079
:10448000F0BD01229A40039C1440019400D189E0C0
:10449000029A1021526816008E43022E0ED1072573
:1044A0001D40AD000139A940DC08A4000419276AA9
:1044B0008F4302990969A9400F43276203245F00D3
:1044C000BC40E4430568013E2540AC460325154049
:1044D000BD4061460D430560012E10D802998668E3
:1044E000CD682640BD403543856001259D400121B2
:1044F0004668AE4315090D409D4035434560C5688B
:1045000002992C408D688021BD4049052C43C46030
:104510000A4247D00121244C0326A5691E400D43C1
:10452000A561A4699D080C400594059C0F241F49B2
:10453000AD00B6006D18B4409021AF68C905A7431F
:104540000024884208D01A490134884204D019490D
:104550000434884200D1033CB44001993C430E002E
:10456000AC60154CCD4327683E43D10301D43E00D7
:104570002E4026606768019E3E43910301D43E00B1
:104580002E406660A768019E3E43D10201D43E00E2
:104590002E40A660E668019F3743920201D42E4068
:1045A0003700E760013367E7001002400000014078
:1045B000000400480008004800040140002A01D01F
:1045C000816170478162FCE74369594041617047EE
:1045D00070470000044B10B55A69104202D0586170
:1045E000FFF7F6FF10BDC0460004014070B504009F
:1045F0000120002C2BD0EA25FF35635DDBB2002BB8
:1046000005D1F4225200A3542000FEF7DBFF032360
:10461000002263552300110001266068283382427E
:1046200016D10021230008000933FF338A4218D134
:104630000020012123689A1C9E1D5033D187D0870A
:10464000F08718800B4BD387631DD877615570BDF9
:104650001A705E70D970D9601961596101321C33CA
:10466000DDE719705870D870D86018615861013151
:104670001C33DBE700BDFFFF8021036809025833CC
:104680001A8800200A431A807047F42210B552009D
:10469000835C04000220012B09D00123A3540029CC
:1046A00006D1236880314C3319800020A05410BDFE
:1046B000631DD977F9E70000F0B585B0019048B2E5
:1046C0001C24002824DA7F250D406C432834019DEA
:1046D000C00F2C197F25E370F42329402170019924
:1046E0006070E2605B00C95C0220012900D1FAE041
:1046F00001210198C154E078019B1B68032814D85C
:104700002178914D89005918FBF70AFD06520C4D8E
:104710004C430934FF34DAE7088828408025AD008F
:10472000054301E0088805400D802578874FA800E3
:1047300018180188864E39403543294389B20180D3
:10474000A57A21783800B446002D6BD11E0065781B
:1047500050360395A5880295039D002D2CD03288F4
:10476000C900591889188022D20089180122029D97
:1047700095430D80227892009A181188490604D535
:1047800011880F4073490F431780227872499200B5
:104790009B181A88114020224A40614611430A00A2
:1047A00092B21A809AE008882840C025ED00B7E749
:1047B000088828408025F9E73788C900C9190127EA
:1047C000664D59184919029DBD430D8021783588E1
:1047D000C9004919624D5D1949193E2A1CD955096C
:1047E000D20601D1013DADB25E4AAD0215430D8046
:1047F000227892009A181188490404D5118808403B
:104800005949084310802278584992009B181A8809
:104810001140C0229201BFE755083A4200D001354D
:10482000AD02E4E78022890059180D8852002A431E
:104830001D003A40324392B20A80227850352988CE
:10484000D200521880219A18C90052180121E68816
:10485000414F8E43168022782D88D2009A18521923
:104860003E4D521925898D43158080252278617827
:104870009200ED019A18002937D11188294204D0FD
:104880001188394D0140294311802278384D92001A
:104890009A181188490604D511880140294389B224
:1048A0001180227892009A18118808400543ADB211
:1048B000158021782D4A8900591808881040C02297
:1048C000920142406046024392B20A8022789200EE
:1048D0009B181A8817400743BFB21F80F42300209B
:1048E000019A5B00D05405B0F0BD168821492E42D4
:1048F00004D0158805400D43ADB215802278920092
:104900009A1815886D0604D51588124E0540354352
:104910001580227892009A1815882840014389B2A0
:104920001180227892009A1811880F4061460F4337
:10493000BFB2178022780D4992009B181A880A404E
:1049400061460A432CE7C0468F89FFFF0F0F000026
:104950008080FFFFC0800000BF8FFFFF04040000C5
:10496000060400000080FFFF80C000008FBFFFFF33
:10497000C080FFFF80C0FFFF4BB2F0B51C220500D6
:10498000002B33DA7F20084042432832AA187F20C8
:10499000DB0F5370F423014011705B00E95C7D383C
:1049A000012922D00121E954967A50782968137898
:1049B000424C002E2DD19B00CB1800281AD018880D
:1049C000400605D518883E4E30403E4E3043188094
:1049D00013783D4A9B00C9180B8813401C43F423ED
:1049E0000020A4B25B000C80E854F0BD4A430932B9
:1049F000FF32CBE71888400405D51888304E304088
:104A0000324E304318801378314A9B00C9180B8806
:104A1000E3E780279B002A4EFF01CB18002825D111
:104A20001888384204D01888284F304038431880FE
:104A3000137828489B00CB181F887F0604D51F8851
:104A400037400743BFB21F8013789B00CB181F88E5
:104A50003E40304380B2188010781D4E8000081808
:104A60000388334023439BB20380B1E71888384260
:104A700005D01F88184837400743BFB21F801378FE
:104A80009B00CB181F88780604D51F880D48374037
:104A900007431F80137810489B00CB181F883E40A7
:104AA000304380B218801078074E800008180388C1
:104AB000334023439BB20380A5E7C0468080FFFFBD
:104AC0000F0F0000C0800000BF8FFFFF80C00000FC
:104AD0008FBFFFFFC080FFFF80C0FFFF70B50500E4
:104AE0007F2001406338484328180400FC342362C7
:104AF0000026F423FF30E26166625B008672417239
:104B0000EA5C0220012A38D00122EA54226AA36911
:104B10009A4233D9D21A22621C244C432C19FF34F6
:104B2000E07C2A6800282CD11000647A503000887C
:104B3000E40024183B48101824183E2B5CD958096F
:104B400080B2DB0601D1013880B2374B80021843B6
:104B500020801C2359436918FF314B7A33499B004D
:104B6000D218138800201940C0239B014B403049C4
:104B70000B431380F4235B00E85470BD26621300DE
:104B8000CAE7A07A00282AD11000647A5030008841
:104B9000E40024182748101824183E2B17D9580968
:104BA00080B2DE0601D1013880B21F4E8002304350
:104BB00020801C2048432818FF30847A002C23D101
:104BC000140050342688447AE400A419B2E7580847
:104BD00080B2DE0701D5013080B28002E8E701280B
:104BE000E7D1100050300688607A124CC0001018CF
:104BF000801900190380DCE7580880B2DB0701D573
:104C0000013080B28002A3E7012CA2D114005034FD
:104C10002688447A0748E4001419A419241823802C
:104C200097E7C046060400000080FFFF8FBFFFFF2C
:104C300080800000020400007F230B401C215943A8
:104C40004018FC30406A80B270470000F42310B571
:104C50005B00C45C02000220012C22D00138D05439
:104C6000CD3B48B2FF3B00281CDA7F240C40634355
:104C700028330124D3189C707E342140C40F19704E
:104C80005C701468134B002910D120881249014030
:104C90001248484003439BB22380F42300205B006A
:104CA000D05410BD4B430933FF33E2E7890061184C
:104CB000002808DA08880A4C0440102060400343AA
:104CC0009BB20B80E9E70888064C04408020400135
:104CD000F4E7C0468080FFFFBFBFFFFF1010000059
:104CE000BF8FFFFF8FBFFFFF4AB270B51C230400C8
:104CF000002A34DA7F200840434328330020E31899
:104D0000D20F5A70F42298707F300140197052000F
:104D1000A15C7D38012921D00121A1541A78206895
:104D20005D78920019498218002D1CD015886D06F7
:104D300005D51588164E3540164E354315801A7820
:104D400092008218138814481840302343400B43C4
:104D50009BB21380F42300205B00E05470BD4B43F2
:104D60000933FF33CAE715886D0405D51588084E49
:104D700035400A4E354315801A7892008218138800
:104D800007481840C0239B01E0E7C0468080FFFF32
:104D90000F0F0000C0800000BF8FFFFF80C0000029
:104DA0008FBFFFFF70B58024E4000019821808004F
:104DB00001335B10002B00D170BD457804782D02C3
:104DC000461A2C43B4520230013BF3E7F8B57F2575
:104DD0000D401C2169434118CB630B008A630026F8
:104DE000012229330E64013B5A701D70F4235B00CD
:104DF000C75C04000220974236D0E254CB6B4A6B6A
:104E0000934232D99B1ACB631C21694361180B0072
:104E10000F0032331B7896B22837002B28D18A8DA9
:104E20003300896B2068FFF7BDFF23681A005032FA
:104E300011883A78D2009B18524A5B189B181E8042
:104E40001C214D43651928352A78236892009A1849
:104E500013884D490020194030234B404B490B43E8
:104E60001380F4235B00E054F8BDCE631A00CBE757
:104E70003B7820689F00C7193F88293109787F0651
:104E800045D5002937D1010050310988DB005B1876
:104E90003F4941185B183E2A25D9510989B2D206EB
:104EA00001D1013989B23B4A8902114319801C237F
:104EB0006B43E3181A8E1C276F43E7193300B96B55
:104EC000FFF770FF3B0029331B782168002B4DD181
:104ED00028373B789B00CB181A882F490A402F4966
:104EE0000A431A80ACE7510889B2D20701D50131D3
:104EF00089B28902DAE70129D9D101005031098844
:104F0000DB00C3185B181F495B181A80CFE7002924
:104F100020D1010050310988DB005B181949411884
:104F20005B183E2A0ED9510989B2D20601D1013946
:104F300089B2184A8902114319801C236B43E31874
:104F4000DA8DB8E7510889B2D20701D5013189B2AB
:104F50008902F1E70129F0D1010050310988DB0015
:104F6000C3185B1807495B181A80E6E7012B00D0CD
:104F700066E728373A7892008B181A8806490A4063
:104F80000749ADE702040000BF8FFFFF80800000EB
:104F9000060400000080FFFF0F0F0000C08000002B
:104FA00080C0000010B58024E400001982180800B9
:104FB00001335B10002B00D110BD441AA45A013BF1
:104FC00004800230F6E70000F0B5036885B00633D0
:104FD000DB8F04001BB2002B00DA61E0236806338C
:104FE000DA8F52050AD5DA8F874920000A40DA871E
:104FF000FEF72CFB00212000FFF747FB23689A1DDA
:10500000D18F490403D5D18F80480140D187D18FFA
:10501000890403D5D18F7E480140D187D28FD20435
:105020000FD504210233DA8F20008A43DA87794AC8
:10503000DA87FEF729FB236877490633DA8F0A40BF
:10504000DA8723689A1DD18F090512D5D18F73484D
:1050500002330140D1870821D88F0143D987042129
:10506000D88F0143D987D38FDB0402D42000FEF709
:10507000F9FA23680633DA8F920506D5DA8F684984
:1050800020000A40DA87FEF7DAFA23680633DA8F5F
:10509000D20503D5DA8F63490A40DA8705B0F0BD3F
:1050A00002AB9F1D00233B80206803AA831DDB8F7A
:1050B0009BB213801BB2002B00DB8FE70F231688F7
:1050C0001E4000D0BEE0102113881940038800293B
:1050D00026D1554A13400380030050331A88230019
:1050E00028331B78DB00C018504B8018C018038889
:1050F000A26B9B059B0D2364D318A3632000FEF7CE
:1051000093FA631DDA7F002ACED0E06B0028CBD162
:105110008022D97F114322684C321180D877C3E7AF
:105120009BB23B803B881B0520D5030050331A8877
:1051300084235B00E35C2100DB00C3189B183C4A1E
:10514000ED319B1822001B8809329B059B0DFF3215
:105150009361FF319288FFF725FF22683549138854
:1051600020000B401380FEF749FA9DE73B881BB2F5
:10517000002B99DA03882F4A25001340038003008F
:1051800050331A8884235B00E35C0935DB00C318C5
:105190009B18274AFF359B181B889B059B0DAB610D
:1051A00007D0AA882969FFF7FDFE2B69AA699B1819
:1051B0002B6100212000FEF72BFA22681C49130006
:1051C00050331B88E8685118C9183E2813D9430981
:1051D0009BB2C00601D1013B9BB217489B0203431F
:1051E0000B80138815491940C0239B014B4014497B
:1051F0000B43138058E743089BB2C00701D5013326
:105200009BB29B02ECE7C046FFFBFFFFFFBFFFFF27
:10521000FFDFFFFF00BDFFFFFFEFFFFFFFF7FFFF17
:10522000FFFDFFFFFFFEFFFF0F8FFFFF02040000E7
:10523000060400008F0F00000080FFFF8FBFFFFFFC
:1052400080800000B3000193C3181A8892B23A809C
:105250003A8812B2002A3DDA1A8874490A401C21A1
:10526000714361181A800B000200FF33DD7C50325D
:105270005B7A002D73D11288DB00C3189B186C4A2F
:105280009B181D88AD05AD0D07D00B00FC31FE331A
:10529000DA89C9692B00FFF785FE1C2108007043DD
:1052A00020180200FC32536A5B195362D3699C4692
:1052B000AC446346D361136A002B03D092699542D4
:1052C00000D37CE00B007343E318FF33597A2000CE
:1052D000FEF79EF980223B88134200D1E4E6206865
:1052E000B300C3181A8853490A401C21714361183E
:1052F0001A800B00020032331D7850320A3B002D19
:1053000064D11B781288DB00C3189B184A4A9B188B
:105310001B889B059B0D0B6403D08A8D896BFFF75F
:1053200041FD22681300503318881C235E43A619E0
:10533000310028310B78DB00D3183F4A1B189B182B
:105340001A88B36B9205920D32649A18F36BB263AC
:1053500009782000002B66D1FEF766F9A4E69D00CF
:1053600045192D88DB001288C3189B186D041CD5C5
:10537000314A9B181D88AD05AD0D07D00B00FE33DB
:105380001A8AFC312B00C969FFF70CFE1C237343FA
:10539000E318FF335A7A236892009A181388274932
:1053A0000B4027490B43138077E7214A9B181D8840
:1053B000AD05AD0DEAD00B00FE335A8AE1E7FF30B0
:1053C000417A62462000FFF789FB83E71B789D0046
:1053D00045192D88DB001288C3189B186D0619D556
:1053E000154A9B181B889B059B0D0B6403D0CA8D27
:1053F000896BFFF7D7FC1C237343E31828331A7813
:10540000236892009A1813880C490B400D490B43EE
:10541000138086E7064A9B181B889B059B0D0B642F
:10542000E9D00A8EE4E7FFF7D1FC3DE68F0F0000DC
:10543000060400000F8FFFFF020400000F0F0000A2
:10544000C080000080C0000030B51C240D060AD5C5
:105450007F252940614328314118002A07D18A72EB
:105460008B80002030BD61430931FF31F4E7012218
:10547000CB801B0C8A720B81F3E70000F0B5036848
:1054800085B00500DB073AD42B689B0700D5A6E062
:105490002B681B0700D5E7E02B685B0700D451E1C0
:1054A00080218027BD4C4905E269BD4E0A43E26177
:1054B000E3697F000B400393039B33683B433360F6
:1054C000FEF7E8FC019033683B4200D1F3E0012293
:1054D000236A022693432362236A0332934323629F
:1054E000FEF7D8FC0700236A334200D0EBE0AB683C
:1054F000012B00D0EFE0226A134323620CE10C2160
:10550000A64C62680A40042A0BD063680B40082B43
:105510000FD1C0226368520213408022520293428C
:1055200007D123689B03AFD56B68002BACD101205A
:1055300024E023689B4F9C4E3B402360236833400C
:105540002360FEF7A7FC0190802223689202134299
:105550000DD16B68012B13D1802322685B021343AA
:105560002360FEF797FC80260700B60233E0FEF7C3
:1055700091FC019BC01A6428E6D9032005B0F0BD58
:10558000002B14D123681F40276023681E4026602B
:10559000FEF780FC80260700B6022368334200D164
:1055A00072E7FEF777FCC01B6428F6D9E5E7052B08
:1055B00005D180232268DB0213432360CCE72368F4
:1055C0001F40276023681E402660CAE7FEF762FC82
:1055D000C01B6428D1D823683342F7D054E70C228B
:1055E0006E4C636813420BD063681340082B16D1CE
:1055F000C0226368520213408022120293420ED1ED
:1056000023689B0703D5EB68012B00D08FE7F821B7
:1056100022682B698A43DB001343236038E7EA687A
:105620000123002A0FD02268022613432360FEF7CD
:1056300031FC070023683342E9D1FEF72BFCC01B85
:105640000228F7D999E7226802269A432260FEF7DA
:1056500021FC07002368334200D119E7FEF71AFC4A
:10566000C01B0228F6D988E72A6A01234B4C002A7E
:1056700010D0626A022613436362FEF70BFC070038
:10568000636A334200D007E7FEF704FCC01B022820
:10569000F6D972E7626A02269A436262FEF7FAFB63
:1056A0000700636A334200D1F6E6FEF7F3FBC01B46
:1056B0000228F6D961E7FEF7EDFB019BC01A6428CA
:1056C00000D800E759E7FEF7E5FB384BC01B9842CE
:1056D00000D808E751E70122002B14D1236A0226E3
:1056E00093432362236A033293432362FEF7D2FB80
:1056F0000700236A334225D0FEF7CCFB2B4BC01B9F
:105700009842F6D939E7052B0BD1216A013B0B43AF
:105710002362236A1A432262FEF7BCFB02260700BB
:105720000DE0236A934304222362236A9343E4E651
:10573000FEF7B0FB1D4BC01B984200D91DE7236A42
:105740003342F5D02B68DB0608D42B689B0649D47E
:10575000696A002900D084E000200FE76A690F4CD5
:105760000423012A24D1616B02260B436363636B1C
:105770001A436263FEF78EFB0700636B334207D068
:10578000F821626BAB698A43DB0013436363DCE798
:10579000FEF780FBC01B0228EFD9EEE600100240A6
:1057A00000700040FFFFFEFFFFFFFBFF88130000BB
:1057B000053203D1626B9A436263E1E7626B0226B2
:1057C000134301226363636B93436363FEF762FBDE
:1057D0000700636B3342B8D0FEF75CFBC01B0228A6
:1057E000F7D9CAE60C21454C62680A408A4209D0C2
:1057F00063680B40082B0DD1C0226368520213402E
:10580000934207D1636BDB03A2D5EB69012B00D078
:105810008DE69DE7EB69002B10D08026636B760246
:1058200033436363FEF736FB0700636B33428FD16C
:10583000FEF730FBC01B0228F7D99EE6636B304AA7
:10584000802613406363FEF725FB07007602636B37
:10585000334200D17CE7FEF71DFBC01B0228F6D9BE
:105860008BE60C22254C63681340082B00D15EE6C2
:105870002368244A1340236002292FD1FEF70AFB34
:1058800080260700B6042368334221D10F22E36A41
:1058900093432A6B1343E362A96AEB6A62680B4382
:1058A000194980250A4013436360802322685B0402
:1058B00013432360FEF7EEFA0600AD0423682B4283
:1058C00000D049E7FEF7E6FA801B0228F6D954E635
:1058D000FEF7E0FAC01B0228D5D94EE6FEF7DAFA49
:1058E00080250600AD0423682B4200D134E7FEF783
:1058F000D1FA801B0228F6D93FE6C04600100240CC
:10590000FFFFFEFFFFFFFFFEFF7FC2FFF7B5012293
:105910004A4C06002368019113408B4214D332682D
:1059200093071DD4D30723D40123226801991A4079
:10593000914200D272E033685B0700D575E0002029
:10594000FEF77EFA00200AE02368019993430B4397
:10595000236023681340019A9A42E0D00120FEBDE3
:10596000F02037494B688343B06803434B60D9E765
:105970007268334D012A1AD12B689B03EED503219F
:105980006B688B4313436B60FEF784FA7368070000
:10599000012B1CD10C226B681340042BC4D0FEF7E2
:1059A00079FA284BC01B9842F4D90320D7E7022A82
:1059B00003D12B689B01E2D4D0E7032A03D16B6BA0
:1059C000DB03DCD4CAE72B689B07D8D4C6E7022BDD
:1059D0000BD10C226B681340082BA5D0FEF75AFAA6
:1059E000184BC01B9842F4D9DFE7032B10D00C22D0
:1059F0006B68134298D0FEF74DFA124BC01B9842C9
:105A0000F5D9D2E7FEF746FA0E4BC01B9842CCD828
:105A10000C226B6813409342F4D185E722689A43C5
:105A2000226022681A4299D185E7054A06495368DF
:105A30000B40F1680B43536081E7C04600200240F1
:105A40000010024088130000FFF8FFFF70B5194CEA
:105A500088B010222100684601F092F9210004ADBF
:105A600010221031280001F08BF90C22124E7368BD
:105A70001A40082A04D00C2A1AD1104808B070BD68
:105A80000F206A46990C0140545CF26A0240A95CFE
:105A9000C0228020520213404002834201D10848B4
:105AA00002E09342FBD10548FAF74EFB6043E5E77D
:105AB0000348E3E73870000800100240006CDC0285
:105AC00000127A0010B5FFF7C1FF054B054A5B686D
:105AD0001B061B0FD35CD840034B186010BDC0469B
