:020000040800F2
:1000000000180020A1250008E5040008E704000806
:1000100000000000000000000000000000000000E0
:100020000000000000000000000000002126000881
:10003000000000000000000021260008E90400087C
:100040002126000821260008212600082126000874
:100050002126000821260008212600082126000864
:100060002126000821260008212600082126000854
:10007000F504000821260008212600082126000892
:1000800021260008000000000000000021260008D2
:100090000000000021260008212600082126000873
:1000A0000000000021260008212600082126000863
:1000B00021260008000000000505000815050008BD
:1000C00002B4714649084900095C49008E4402BCEB
:1000D0007047C04603B47146490840004900095AB8
:1000E00049008E4403BC7047002934D0012300220C
:1000F00010B488422CD301242407A14204D28142A7
:1001000002D209011B01F8E7E400A14204D28142B6
:1001100002D249005B00F8E7884201D3401A1A4333
:100120004C08A04202D3001B5C0822438C08A0426A
:1001300002D3001B9C082243CC08A04202D3001B20
:10014000DC082243002803D01B0901D00909E3E79A
:10015000101C10BC704701B5002000F00BF802BD68
:100160000029F8D003B5FFF7C1FF0EBC4243891A3E
:100170001847C0467047C046011C343138C9043B9B
:100180009C461D60A646011C20313CC990469946FC
:10019000A246AB46011C0831FCC941680068E5462F
:1001A00000BDC0467047C0467047C0467047C04655
:1001B0007047C0467047C0467047C0467047C0464B
:1001C0007047C0467047C0467047C04601B401A89A
:1001D00001B585B0FFB408A841464A4653465C467F
:1001E00065463EC001A83EC80F98009000230CB49D
:1001F00001A902F037FC109B12B0184701B401A806
:1002000001B585B0FFB408A841464A4653465C464E
:1002100065463EC001A83EC80F98009000230CB46C
:1002200001A902F050FC109B12B0184701B401A8BC
:1002300001B585B0FFB408A841464A4653465C461E
:1002400065463EC001A83EC80F98009000230CB43C
:1002500001A902F059FC109B12B0184701B401A883
:1002600001B585B0FFB408A841464A4653465C46EE
:1002700065463EC001A83EC80F98009000230CB40C
:1002800001AB02F016FC109B12B0184701B401A894
:1002900001B585B0FFB408A841464A4653465C46BE
:1002A00065463EC001A83EC80F98009000230CB4DC
:1002B00001AA02F081FC109B12B0184710B5064C41
:1002C0002378002B07D1054B002B02D0044800E017
:1002D00000BF0123237010BD300400200000000087
:1002E0004C360008044B10B5002B03D003490448DA
:1002F00000E000BF10BDC046000000003404002034
:100300004C3600080100872310B59B00ED31FF310A
:10031000C05801F04DFE10BD1C234B43C318FC33E5
:10032000DA69872310B59B00C05801F075FE10BD37
:100330001C234B43C3189A6B872310B59B00C058EE
:1003400001F0A4FE10BD872310B59B00C05801F03A
:100350002CFF10BD70B587240500A40001210059B1
:1003600001F00EFF285901F0E7FE70BD872310B59C
:1003700004009B00C05801F006FFA369002B04D0C5
:100380000623024A11690B43136110BD00ED00E022
:10039000836910B50400002B06D00621054A1369B5
:1003A0008B43136102F03DF987239B00E05801F075
:1003B000F5FE10BD00ED00E010B514001A0023009A
:1003C0008824A400005900F0F3F80223032801D880
:1003D000014B1B5C180010BD8436000888239B006D
:1003E000C05810B500F0D2FA0223032801D8024BFE
:1003F0001B5C180010BDC0468436000888239B0093
:10040000C05810B500F00CFB0223032801D8024BA2
:100410001B5C180010BDC0468436000888239B0072
:10042000C35848B21C22002806DA7F2001404A4304
:100430009B182A33187870474A439B18FF33D87AA1
:10044000F9E7000088239B00C05810B500F09AF827
:100450000223032801D8024B1B5C180010BDC046C4
:100460008436000810B58824A400005900F046FB2B
:100470000223032801D8024B1B5C180010BDC046A4
:100480008436000810B58824A400005900F0DAF979
:100490000223032801D8024B1B5C180010BDC04684
:1004A0008436000807B501200D4A91690143916126
:1004B0009369002203400430110001934042019BE4
:1004C00001F062F8002202201100404201F05CF8C5
:1004D000002201201100404201F056F807BDC0463D
:1004E000001002407047FEE710B500F007FF01F072
:1004F0009EF810BD10B5024800F022FF10BDC046A6
:100500005004002010B5024801F020F910BDC0468B
:100510009C04002010B5024800F0F6FB10BDC04658
:10052000E00400200121114B11481A680A431A60A7
:100530005A6802405A601A680E4802401A601A68E7
:100540000D4802401A605A680C4802400F205A6059
:10055000DA6A8243DA621A6B094802401A635A6BFC
:100560008A435A6300229A607047C04600100240D6
:100570000CB8FF08FFFFF6FEFFFFFBFFFFFFC0FF09
:100580002CFEFFFFF42210B55200835C0400022011
:10059000012B09D00123A354002906D123688031FF
:1005A0004C3319800020A05410BD631DD977F9E7A2
:1005B000F7B57F264DB204000E401C20002D1DDA39
:1005C0007043010028316118CB70F423ED0F0E70D9
:1005D0004D70CA605B00E55C0220012D00D1EDE0AA
:1005E0000138E054C8782368032814D80D78894E60
:1005F000AD005D19FFF764FD06500C4B4143093116
:10060000FF31E0E7288830408026B600064301E04D
:10061000288806402E8008787F4E844667468500ED
:100620005D19288830407D4E3743384328808D7AC5
:10063000794F0878BC460196002D64D101268D883B
:10064000C000B5434E7837001E005036002F27D02B
:1006500032889A1810188022D200801805800A78F3
:1006600092009A181088450604D5674607406C48E2
:10067000074317800A786B4992009B181A8811402B
:1006800020224A40019911430A001A8092E02888EA
:100690003040C026F600B9E7288830408026F9E7C8
:1006A0003788DF193818604FC019058008783588F9
:1006B000C00040195D4D5D1940193E2A1CD95509ED
:1006C000D20601D1013DADB2594AAD0215430580B4
:1006D0000A7892009A181088450404D56546284087
:1006E000544D284310800A78534992009B181A8869
:1006F0001140C0229201C4E701265508324200D0C1
:10070000AD19AD02E3E78000181802884B4D454F44
:1007100015404B4A2A431D0002800A78503528882C
:10072000D20012188020D218C00012180120CE88E2
:100730008643168080260A782D88D20052193A4DB9
:10074000D21852190D89F601854315800A78487828
:1007500092009A18002832D11088304204D06546A1
:100760002840344D284310800A782D4892009A186A
:1007700015886E0603D566463540054315806646E6
:100780000A7892009A1815883540284310800A7814
:10079000294892009A1815880540C02080016840B9
:1007A000019D284310800A7892009B181A881740F0
:1007B0002F431F80F42300205B00E054FEBD10880F
:1007C0001C4D304203D066463040284310800A78E2
:1007D00092009A181088460604D566463040104E9E
:1007E0003043108066460A7892009A18108830408C
:1007F000054315800A7892009A18108807400198DE
:10080000074317800A780C4992009B181A880A40FF
:1008100002433AE78F89FFFF0F0F00008080FFFF40
:10082000C080FFFFBF8FFFFF04040000060400002C
:100830000080FFFF80C0FFFF8FBFFFFF0F0E000093
:100840008081FFFF70B504007F200140633848437A
:1008500020180500FC35EA612B620022F423FF30EA
:100860006A625B0082724172E65C0220012E38D01F
:100870000138E0542B6AA869834233D91B1A2B62D2
:100880001C224A43A218FF32D67C2568537A002ED8
:100890002BD12A0050321288DB009B18364AAA1846
:1008A0009B183E2860D9420992B2C00601D1013A94
:1008B00092B23248920202431A801C2359436118B3
:1008C000FF314B7A2E4A9B00EB181988002011400B
:1008D000C022920151402B4A0A431A80F4235B0044
:1008E000E05470BD2A621800CAE7927A002A2FD11C
:1008F0002A0050321288DB009B18234AAA189B1842
:100900003E281DD9420992B2C60601D1013A92B2DF
:100910001A4E920232431A801C234B43E318FF33D2
:100920009A7A5B7A002AB4D0012AC6D12A005032C2
:100930001288DB00EB189B180F4A9B181880BCE745
:10094000420892B2C60701D5013292B29202E2E7A2
:10095000012AE1D12A0050321688DA00AA180A4B7F
:100960009219D2181080D7E7420892B2C00701D579
:10097000013292B292029FE7060400000080FFFF5E
:100980008FBFFFFF8080FFFF02040000F42330B51B
:100990005B00C25C04000220012A20D0012248B280
:1009A000E2547E32CD3B0A40FF3B002818DA534325
:1009B00028331900012361188B70C30F0A704B7024
:1009C00025681249002A0FD12B88114A1A40114B71
:1009D000534019432980F42300205B00E05430BDCC
:1009E00059430931FF31E5E79200AA18138800281E
:1009F00006DA094803401020434019431180EAE712
:100A00000648034080204001F6E7C0468080FFFF93
:100A1000BFBFFFFF10100000BF8FFFFF8FBFFFFFA2
:100A200070B57F24020048B20C401C2300282FDA46
:100A3000634328331900002351188B70C00FE9332A
:100A400048700C70FF33D45C0220012C1FD0013899
:100A5000D0544B7808781568184C8000002B1BD0B8
:100A6000281803885E0604D5154E3340154E3343CF
:100A700003800B7814489B00EB181988084030213C
:100A800041400C431C80F42300205B00D05470BD17
:100A900059430931FF31CEE72B181888460404D595
:100AA000074E3040094E304318800B7808489B00B1
:100AB000EB1819880840C0218901E1E78080FFFF19
:100AC0000F0F0000C080FFFFBF8FFFFF80C0FFFF40
:100AD0008FBFFFFF30B58024E40000190133821876
:100AE0005B08521A5418002B00D130BD48780D789D
:100AF000000228432080013B0231F3E7F8B57F254F
:100B00000D401C2169434118CB630B008A6300260A
:100B1000012229330E64013B5A701D70F4235B00DF
:100B2000C75C04000220974236D0E254CB6B4A6B7C
:100B3000934232D99B1ACB631C21694361180B0085
:100B40000F0032331B78206896B22837002B27D14C
:100B50008A8D3300896BFFF7BDFF23681A0050327E
:100B600011883A78D2009B18514A5B189B181E8056
:100B70001C214D43651928352B7822689B00D3181A
:100B800019884C4A00201140302251404A4A0A43F9
:100B90001A80F4235B00E054F8BDCE631A00CBE763
:100BA0003B7829319F003F5A09787F0645D50029B7
:100BB00037D1010050310988DB005B183F494118EB
:100BC0005B183E2A25D9510989B2D20601D10139D3
:100BD00089B23B4A8902114319801C236B43E318F5
:100BE0001A8E1C276F43E7193300B96BFFF772FFAA
:100BF0003B0029331B782168002B4DD128373B78E7
:100C00009B00CB181A882F4911402F4A0A431A809B
:100C1000AEE7510889B2D20701D5013189B2890204
:100C2000DAE70129D9D1020050321288DB00C3185B
:100C30009B18224A9B181E80CFE7002920D1010073
:100C400050310988DB005B18194941185B183E2AAE
:100C50000ED9510989B2D20601D1013989B2184A97
:100C60008902114319801C236B43E318DA8DB8E71E
:100C7000510889B2D20701D5013189B28902F1E761
:100C80000129F0D1020050321288DB00C3189B18F2
:100C9000074A9B181E80E6E7012B00D068E728373B
:100CA0003A7892008B181A8806491140074AADE736
:100CB00002040000BF8FFFFF8080FFFF06040000DA
:100CC0000080FFFF0F0F0000C080FFFF80C0FFFF0C
:100CD000F0B58025ED0040195C0882182600080058
:100CE000571A3D18002E07D1640009191219DB07A5
:100CF00001D513880B70F0BD2D88013E05702D0ABB
:100D000045700230EDE70000F0B5036885B00633AA
:100D1000DB8F04001BB2002B00DA61E0236806338E
:100D2000DA8F52050AD5DA8F864920000A40DA8721
:100D3000FFF710FB00212000FFF724FC2268931D21
:100D4000D98F490403D5D98F7F480140D987D98FDE
:100D5000890403D5D98F7D480140D987DB8FDB0417
:100D60000FD50421931CDA8F20008A43DA87784A52
:100D7000DA87FFF70DFB236876490633DA8F0A40DE
:100D8000DA8723689A1DD18F090512D5D18F724851
:100D900002330140D1870821D88F0143D98704212C
:100DA000D88F0143D987D38FDB0402D42000FFF70B
:100DB000DDFA23680633DA8F920506D5DA8F6749A4
:100DC00020000A40DA87FFF7BEFA23680633DA8F7D
:100DD000D20503D5DA8F62490A40DA8705B0F0BD43
:100DE00002AB9F1D00233B80206803AA831DDB8F7D
:100DF0009BB213801BB2002B00DB8FE70F231688FA
:100E00001E4000D0BCE0102113881940038800293F
:100E100026D1544A13400380030050331A8823001C
:100E200028331B78DB00C0184F4B8018C01803888C
:100E3000A26B9B059B0D2364D318A3632000FFF7CF
:100E400077FA631DDA7F002ACED0E06B0028CBD181
:100E50008022D97F114322684C321180D877C3E7B2
:100E60003B803A88120520D5030050331A8884232A
:100E70005B00E35C2100DB00C3189B183B4AED31AB
:100E80009B1822001B8809329B059B0DFF32936142
:100E9000FF319288FFF71CFF226835491388200034
:100EA0000B401380FFF72EFA9EE73A8812B2002A11
:100EB0009ADA2F4A250013400380030050331A8822
:100EC00084235B00E35C0935DB00C3189B18274AC9
:100ED000FF359B181B889B059B0DAB6107D0AA882B
:100EE0002969FFF7F5FE2B69AA699B182B61002180
:100EF0002000FFF711FA22681C49130050331B88A9
:100F0000E8685118C9183E2813D943099BB2C00696
:100F100001D1013B9BB217489B0203430B80118810
:100F2000154B1940C0239B015940144B0B431380B0
:100F30005AE743089BB2C00701D501339BB29B021D
:100F4000ECE7C046FFFBFFFFFFBFFFFFFFDFFFFF38
:100F500000BDFFFFFFEFFFFFFFF7FFFFFFFDFFFFFC
:100F6000FFFEFFFF0F8FFFFF0204000006040000DA
:100F70008F0F00000080FFFF8FBFFFFF8080FFFF0B
:100F8000B300C11801930B883B803A8812B2002A43
:100F90003BDA774A050013400B801C237343E318A8
:100FA0001A00FF32D17C5035527A002973D129883A
:100FB000D20052186F49121852181588AD05AD0DA0
:100FC00008D01A00FC331900FE32D2892B00C969FF
:100FD000FFF77EFE1C231900714361180800FC30E6
:100FE000426A52194262C26952190192C261026A8E
:100FF000002A03D08069854200D37FE07343E31861
:10100000FF33597A2000FFF787F980223B8813428B
:1010100000D1E9E62068B300C3181A8856490500D4
:101020000A401C21714361181A800B0032331A7870
:1010300050350A3B002A69D11B782A88DB009B18AF
:101040004E4A1B189B181B889B059B0D0B6403D0F5
:101050008A8D896BFFF73EFD226813005033188894
:101060001C235E43A619310028310B78DB00D3180E
:10107000424A1B189B181A88B36B9205920D326472
:101080009A18F36BB26309782000002B00D06CE053
:10109000FFF74EF9A8E6D1009200125A520420D56B
:1010A0002A8882185218354952181588AD05AD0D99
:1010B00008D01A00FE32128AFC3319002B00C969CD
:1010C000FFF706FE1C237343E318FF335B7A2268A5
:1010D0009B00D3181A882A4911402A4A0A431A80C9
:1010E00078E72A8882185218224952181588AD05C7
:1010F000AD0DE7D01A00FE32528ADDE7FF31130052
:10110000497A019A2000FFF79DFB7EE71B78DA0001
:101110009B001B5A5B061CD52B88C3189B18174ACB
:101120009B181B889B059B0D0B6403D0CA8D896B94
:10113000FFF7D0FC1C237343E31828331B78226885
:101140009B00D3181A880E4911400F4A0A431A808F
:1011500082E72B88C3189B18064A9B181B889B059F
:101160009B0D0B64E6D00A8EE1E7FFF7C7FC3BE678
:101170008F0F0000060400000F8FFFFF0204000025
:101180000F0F0000C080FFFF80C0FFFFF0B50368B5
:1011900085B00500DB0328D580220021404C520594
:1011A000E3690091134208D1E3691343E361E36902
:1011B00013400393039B012300938027394E7F0044
:1011C00033683B4238D0C022236A92001340364E27
:1011D00044D1236A1E406B681E43009B2662012B8C
:1011E00003D1E369314A1340E3612A68D30706D586
:1011F00003202B490B6B8343A86803430B639306BF
:1012000006D5102026490B6B8343E86803430B6324
:10121000930306D5802022490B6B834368690343FF
:101220000B630020530517D540211D4A136B8B43D8
:1012300029690B4313630FE033683B43336000F0CD
:1012400065F8019033683B42BDD100F05FF8019B27
:10125000C01A6428F6D9032005B0F0BD69680A40B9
:101260009A42B6D08023226A206A11005B020343AF
:101270002362236A0E483140034023622162D30770
:10128000A7D500F043F807000222236A1342A0D139
:1012900000F03CF8074BC01B9842F5D9DBE7C0468D
:1012A0000010024000700040FFFCFFFFFFFFFFEF57
:1012B000FFFFFEFF8813000010B5040000F05CFE85
:1012C000FA218900FEF710FF00F088F901200022C2
:1012D0002100404200F058F9002010BD1023064ABA
:1012E00010B5116800200B431360FFF7E5FFFFF70F
:1012F000D9F8002010BDC04600200240024A136801
:10130000013313607047C04600070020014B186886
:101310007047C0460007002037B50190FFF7F6FF81
:10132000019C0500631C5A1E9341E418FFF7EEFF71
:10133000401BA042FAD337BD70477047704700008A
:101340000422036870B519680400114202D059687C
:10135000114206D108221968114228D05968114259
:1013600025D0626CD20604D48022616C92000A43BC
:101370006264C022D9681201114212D1226A002A85
:101380000FD11A6812070CD59A6852073CD40C2169
:101390005A688A435A60636C204A1A4001231343F7
:1013A00063642000FFF7C8FF0C2223681A608025C1
:1013B00023681A682A420CD05B682B4209D080232C
:1013C000626C5B02134363642000FFF7B6FF23687F
:1013D0001D60102223681968114214D05968114207
:1013E00011D0626B012A02D0DA68D20708D5022236
:1013F000A16C20000A43A26410221A60FFF79EFF2E
:10140000102223681A6070BD2023626C134363644A
:101410000123A26C1343A364C3E7C046FEFEFFFF93
:10142000F0B50B6887B0039300230191039ADA406B
:1014300001D107B0F0BD01229A4002920299039AAD
:101440000A40009200D188E0019A102152681600EB
:101450008E43022E0ED107251D40AD000139A94053
:10146000DC08A4000419276A8F4301990969A9407F
:101470000F43276203245F00BC40E4430568013E3C
:101480002540AC4603251540BD4061460D4305602F
:10149000012E0FD801998668CD682640BD4035439E
:1014A00085604668029915098E4301210D409D40D3
:1014B00035434560C56801992C408D688021BD4049
:1014C00049052C43C4600A4247D00121244C03261D
:1014D000A5691E400D43A561A4699D080C400594B3
:1014E000059C0F241F49AD00B6006D18B440902133
:1014F000AF68C905A7430024884208D01A490134BF
:10150000884204D019490434884200D1033CB440D5
:1015100000993C430E00AC60154CCD4327683E4318
:10152000D10301D43E002E4026606768009E3E43F2
:10153000910301D43E002E406660A768009E3E43A2
:10154000D10201D43E002E40A660E668009F3743DA
:10155000920201D42E403700E760013366E7C046AF
:10156000001002400000014000040048000800484C
:1015700000040140002A01D0816170478162FCE7CC
:10158000436959404161704730B5FF2503242A0063
:10159000C3B21C40E400A24089012940D243A140CB
:1015A00000280BDA0F200340083B0A489B089B00E9
:1015B0001B18D86902401143D96130BD064B800821
:1015C0008000C018C0239B00C45822401143C15062
:1015D000F3E7C04600ED00E000E100E0094A431EE9
:1015E000012093420DD8C021074A08485360036A7E
:1015F00009061B021B0A0B430362002007239060AD
:1016000013607047FFFFFF0010E000E000ED00E016
:10161000054B1A68042802D1104318607047042152
:101620008A431A60FAE7C04610E000E0704710B540
:10163000FFF7FCFF10BD704770470000F7B50029A9
:1016400061D1436BD82602680C011519019404245A
:101650007600AF5927409F6057D1AF597F0D1F606B
:10166000DA270F24AE597F00B607F60FDE60EE5979
:10167000ED5926402D0A0C01EDB21419DD6125004B
:10168000B935FF351E612E68BD341E752E68FF34D6
:10169000360A5E752E681962360C9E752D682D0E01
:1016A000DD7525681D7625682D0A5D7625682D0C6B
:1016B0009D762468240EDC762023002929D1D46865
:1016C00023430A24D3605369A343536103003D338A
:1016D0001A78222A02D01A78322A04D10468194DC5
:1016E00062692A4062611A78D2B200291BD1622A4B
:1016F00015D0722A15D0422A21D1303A1A70FFF73C
:101700009BFF0020FEBD836B9CE7AF59FF085F6025
:10171000A6E714692343136153695024D4E73222A6
:10172000ECE75222EAE7622A05D0722A05D0522A53
:1017300005D1403AE2E72222E0E74222DEE7012239
:10174000DCE7C046FF70FFFF70470000102203680F
:1017500070B5D96804000025114205D05969090700
:1017600002D58025DA60AD0010221969114206D039
:101770005969490603D58021C9000D431A615A6988
:10178000D2073AD59A6864490A408A4209D09A68D1
:1017900062490A408A4204D09A6861490A408A42F2
:1017A0002BD19A68920706D49A68920503D49A6856
:1017B000920300D492E001215A698A435A612200BF
:1017C0003D321178122903D15969564801405961B7
:1017D0001378DBB2522B00D17AE0722B00D179E082
:1017E000422B00D078E0203B13702000FFF723FF4E
:1017F00022684D4B91680B43936023685A699207A6
:1018000006D5DB689B0703D000212000FFF716FFF9
:1018100023685A69D20606D51B699B0703D00121AC
:101820002000FFF70BFF0122236C1D432368256472
:101830009969114208D05969C90505D55969090442
:1018400002D5216C0A43226402229969114208D010
:101850005969890505D55969090402D5216C0A43DE
:10186000226404229969114208D05969490505D5B5
:101870005969090402D5216C0A43226470219A69CE
:101880000A4212D05A6912050FD55A6912040CD5B2
:101890009A690A40302A35D024D8102A2AD0202A22
:1018A0002DD070219A698A439A61226C002A0ED049
:1018B0000422596820000A435A60220001213D3267
:1018C00011705A6919490A405A61FFF73DFF70BD0E
:1018D000322389E7622387E7012385E780231B0101
:1018E0001D4385E7502A10D0602A11D0402AD8D154
:1018F000216C01E00822216C0A432264D1E7216CAB
:101900001022F9E7216C2022F6E7216C8022F3E710
:101910008022216C5200EFE7010000040001000862
:1019200000000110FF70FFFF19050100A470FFFF08
:10193000F0B5036885B00500DB0733D42B689B073F
:1019400000D58AE02B681B0700D5CAE02B685B072F
:1019500000D5EDE02B68DB061AD56A69BC4C042380
:10196000012A00D059E1616B02260B436363636B6C
:101970001A436263FFF7CAFC0700636B334200D16E
:1019800044E1F821626BAB698A43DB001343636374
:101990002B689B0600D567E1696A002900D0A4E1A5
:1019A000002018E00C21AA4C62680A40042A0BD0DF
:1019B00063680B40082B10D1C022636852021340A9
:1019C00080225202934208D123689B03B6D56B68EC
:1019D000002BB3D1012005B0F0BD6B68012B13D1F2
:1019E000802322685B0213432360FFF78FFC80266D
:1019F0000700B60223683342A0D1FFF787FCC01B63
:101A00006428F7D90320E6E7002B16D12368914A12
:101A100080261340236023688F4AB6021340236058
:101A2000FFF774FC07002368334200D186E7FFF715
:101A30006DFCC01B6428F6D9E4E7052B05D1802393
:101A40002268DB0213432360CAE72368814A1340FC
:101A500023602368804A1340C6E70C227C4C6368ED
:101A600013420BD063681340082B15D1C022636862
:101A7000520213408022120293420DD123689B0729
:101A800002D5EB68012BA5D1F82122682B698A4386
:101A9000DB001343236055E7EA680123002A0FD0D7
:101AA0002268022613432360FFF730FC07002368F7
:101AB0003342E9D1FFF72AFCC01B0228F7D9A1E77E
:101AC000226802269A432260FFF720FC0700236861
:101AD000334200D136E7FFF719FCC01B0228F6D9C4
:101AE00090E7EA6901235A4C002A10D0626A022664
:101AF00013436362FFF70AFC0700636A334200D0B6
:101B000024E7FFF703FCC01B0228F6D97AE7626AD4
:101B100002269A436262FFF7F9FB0700636A3342C9
:101B200000D113E7FFF7F2FBC01B0228F6D969E7E3
:101B300080220021464C5205E3690091134208D1EE
:101B4000E3691343E361E36913400393039B0123B8
:101B500000938027414E7F0033683B4206D0AB683C
:101B6000012B13D1226A1343236230E033683B43D5
:101B70003360FFF7CBFB019033683B42EFD1FFF7B7
:101B8000C5FB019BC01A6428F6D93BE70122002B54
:101B900014D1236A022793432362236A03329343B7
:101BA0002362FFF7B3FB0600236A3B4225D0FFF711
:101BB000ADFB2B4B801B9842F6D923E7052B0BD1AD
:101BC000216A013B0B432362236A1A432262FFF717
:101BD0009DFB022706000DE0236A93430422236243
:101BE000236A9343C0E7FFF791FB1D4B801B98428C
:101BF00000D907E7236A3B42F5D0009B012B00D0B8
:101C0000A8E6E369174A1340E361A3E6FFF77EFB0A
:101C1000C01B022800D8B0E6F4E6053203D1626B9F
:101C20009A436263ADE6626B02261343012263634B
:101C3000636B93436363FFF769FB0700636B334296
:101C400000D1A5E6FFF762FBC01B0228F6D9D9E652
:101C500000100240FFFFFEFFFFFFFBFF007000408F
:101C600088130000FFFFFFEF0C21464C62680A401A
:101C70008A4209D063680B40082B0ED1C0226368EA
:101C800052021340934208D1636BDB0300D483E616
:101C90002B6A012B00D09DE67EE62B6A002B11D02B
:101CA0008026636B760233436363FFF72FFB0700E5
:101CB000636B334200D06FE6FFF728FBC01B02289E
:101CC000F6D99FE6636B304A802613406363FFF7C3
:101CD0001DFB07007602636B334200D15CE6FFF721
:101CE00015FBC01B0228F6D98CE60C22254C636834
:101CF0001340082B00D16DE62368244A134023606B
:101D000002292FD1FFF702FB80260700B6042368C3
:101D1000334221D10F22E36A93432A6B1343E362D8
:101D2000A96AEB6A62680B43194980250A4013438C
:101D30006360802322685B0413432360FFF7E6FAA5
:101D40000600AD0423682B4200D029E6FFF7DEFA37
:101D5000801B0228F6D955E6FFF7D8FAC01B0228E7
:101D6000D5D94FE6FFF7D2FA80250600AD042368E7
:101D70002B4200D114E6FFF7C9FA801B0228F6D9DE
:101D800040E6C04600100240FFFFFEFFFFFFFFFEDF
:101D9000FF7FC2FF30B51B4C89B01022210068467E
:101DA00001F038FB210004AD10221031280001F0B1
:101DB00031FB0C20144A53681840082809D00C380D
:101DC00043425841114B40421840114BC01809B0D2
:101DD00030BD0F206C46D26A990C01400240645C11
:101DE000A95CC0228020520213404002834201D1EC
:101DF000074802E09342FBD10648FEF775F96043BD
:101E0000E5E7C0466436000800100240005A62024E
:101E100000127A00006CDC02F7B50122504C06007B
:101E20002368019113408B421FD33268930728D453
:101E3000D3072ED40123226801991A408A4200D97F
:101E40007EE03368474C5B0700D581E0FFF7A2FFD7
:101E50006368454A1B061B0FD35CD840434B186090
:101E60000020FFF729FA00200AE023680199934334
:101E70000B43236023681340019A9342D5D001207D
:101E8000FEBDF02037494B688343B06803434B6085
:101E9000CEE77268334D012A1AD12B689B03EED529
:101EA00003216B688B4313436B60FFF72FFA736852
:101EB0000700012B1CD10C226B681340042BB9D0F6
:101EC000FFF724FA2A4BC01B9842F4D90320D7E726
:101ED000022A03D12B689B01E2D4D0E7032A03D165
:101EE0006B6BDB03DCD4CAE72B689B07D8D4C6E74F
:101EF000022B0BD10C226B681340082B9AD0FFF7F2
:101F000005FA1B4BC01B9842F4D9DFE7032B11D015
:101F10000C226B68134200D18CE7FFF7F7F9144BE2
:101F2000C01B9842F4D9D1E7FFF7F0F9104BC01B62
:101F30009842CBD80C226B6813409342F4D179E7D6
:101F400022689A43226022681A4200D179E796E714
:101F50006368084A1340F2681343636076E7C0463B
:101F600000200240001002408836000800000020D7
:101F700088130000FFF8FFFF014B18687047C04648
:101F80000000002085239B00C35810B5002B01D111
:101F9000022010BD1B6898470028FAD0F8E7852377
:101FA00010B59B00C3585B689847002010BD000027
:101FB00082239B0070B5C5180400280000F0A6FA23
:101FC000FA2301225B00E250124BE25A163BE25028
:101FD0001033E15CEA3BFF3B0B40012B0FD0002BA1
:101FE00007D0022B10D07F2320009943FEF7F6F98B
:101FF00003E02900200000F0F1F8002070BD290066
:10200000200000F0FDF9F8E72900200000F014FAA4
:10201000F3E7C0460E02000070B504001500002969
:1020200027D1FA235B00C358032B0FD10530FF30B3
:102030008368C26893420BD99B1A83609A4200D985
:102040001A0092B22900200000F08AFA002070BD28
:1020500085239B00E3581B69002B06D0FE2252000B
:10206000A25C032A01D120009847200000F080FAEA
:10207000ECE785239B00C3589B69002BE6D0FE222A
:102080005200825C032AE1D19847DFE7F8B50D00E2
:1020900004001100002D41D1FA235B00C358022B2C
:1020A0000ED1C269066AB24213D9921BC26192B2C2
:1020B00000F04EFA2B002A0029002000FEF7E2F97A
:1020C00080239B00E25C012A01D10022E25400201F
:1020D000F8BD876931003800FEF742F80D1E0CD1BB
:1020E000BE420AD8FC267600A3599F4205D20A00B8
:1020F000200000F02DFAA551DCE785239B00E35872
:10210000DB68002B06D0FE225200A25C032A01D11C
:1021100020009847200000F037FAD1E785239B0084
:10212000C3585B69002BD2D0FE225200825C032A86
:10213000CDD129009847CAE7002270B504001100EC
:102140004023FEF739F923004025FC335D6100226E
:102150002B0080212000FEF72FF9FE2301225B00D7
:102160002562E2541C33E358002B07D0636820003B
:10217000D9B285239B00E3585B689847002070BD67
:10218000017400207047FE23FE225B00C15CFF3219
:102190008154FA3AFF3AC25400207047FE23FF33BD
:1021A000C25C013BC25400207047FE2310B55B00A7
:1021B000C35C032B06D185239B00C358DB69002B2E
:1021C00000D09847002010BD10B504008021FEF714
:1021D00005F900212000FEF701F910BD73B50400D8
:1021E00048780D00092800D97EE0FDF773FFD40080
:1021F000F5007D00E7007D0072000A007D00C3004D
:1022000095004B88180A013806286DD8FDF758FF4D
:10221000041F2E6C6C4A550084236A469B00E358C9
:10222000207C1B68911D98476B469E1D31880029B4
:1022300070D0EA88002A6DD00B1C914200D9131C83
:1022400001009AB23380200000F074F962E0852327
:10225000227C9B00E358002A06D19B6A6A46901DA7
:10226000984702234370DFE7DB6AF7E7D8B2052817
:102270003AD884229200237CA258FDF721FF03095B
:102280000B0D0F1152686946180006319047CBE7D5
:102290009268F8E7D268F6E71269F4E75269F2E764
:1022A0009269F0E7237C002B1ED185236A469B00B0
:1022B000E358901D5B6B9847B6E7237C002B13D146
:1022C00085236A469B00E358901D1B6B98470723A4
:1022D000C8E78B88002B07D1CB88002B04D1FE26C2
:1022E0007600A35D032B03D12000FFF76DFF11E003
:1022F0007F234D8820001D408033FF33E5542900A3
:10230000FEF7A0F8200000F033F90223002D00D1E1
:102310000123A355002076BD8978384D2970012905
:10232000E2D8FE235B00E25C022A0DD0032ADBD157
:10233000002915D102222000E2546160FFF72FFE30
:10234000200000F015F9E5E70029F9D0012103226A
:102350006160E2542000FFF715FE0228F0D1C3E7C8
:1023600061680129ECD0C9B22000FFF718FE297876
:102370006160EFE7CA88012AB6D1FE235B00E35C07
:10238000022B03D0032BAFD1211D5CE700232100DA
:10239000A360083157E7FE235B00E35C023B012B9F
:1023A000A2D80123E36081239B00E358002B01D0D6
:1023B0000323E360210002220C3144E74B88012B08
:1023C000A8D181229200A35085239B00E3582900C5
:1023D0009B6820009847B3E7FE235B00E35C023B69
:1023E000012B00D980E74B88012B00D092E7812395
:1023F00000229B00E2501033E8E7C0464C04002066
:10240000FE2370B55B00C35C04000D00032B0FD1ED
:102410000B79012B0CD885239B00C3589B689847E8
:10242000EB88002B02D1200000F0A2F8002070BD44
:102430002000FFF7C9FEF9E760220B7870B5134062
:1024400004000D00202B06D1F533FF33C3589B68E1
:102450009847002070BD8A886B78D1B2012B20D0BC
:10246000002B2DD0032BF4D1FA33FF33C35C022BA6
:1024700041D0032B03D02000FFF7A6FEE9E76B88CD
:10248000002B03D14B0601D0FDF7A8FF85239B004D
:10249000E35829009B6820009847200000F068F866
:1024A000D7E7FE235B00C35C022B24D0032BE2D1D1
:1024B0006B88002BCDD14B06EFD0FDF79FFFE5E7F2
:1024C000FE235B00C35C022B15D0032BD3D17F25E9
:1024D0000D402D01130614D5143520006519FDF7A4
:1024E0009DFF002810D001232B600222290020002C
:1024F00000F020F8ADE74B06ABD02000FDF76EFFF3
:10250000A7E70535FF35E8E72860EEE70B780370AD
:102510004B784370CA788B7812029B1843804A79B3
:102520000B7912029B188380CA798B7912029B184F
:10253000C38070471300FA2210B502245200845061
:102540000A008361C3610021FDF78CFF002010BDEC
:1025500010B513000A000021FDF784FF002010BD14
:1025600010B513000A000021FDF78CFF002010BDFC
:10257000FA2304225B0010B5C25000231A00190090
:10258000FDF770FF002010BDFA2305225B0010B597
:10259000C25000231A001900FDF774FF002010BD7F
:1025A0001348854613480168090E134A914205D124
:1025B000124813490160134813490160002103E0E8
:1025C000124B5B58435004311148124B42189A4247
:1025D000F6D3114A02E00023136004320F4B9A42F3
:1025E000F9D3FDF79FFF00F0F1FE00F0CFF8FEE712
:1025F00000180020040000001F0000001810024016
:1026000001000000000001400000000050370008F9
:1026100000000020300400203004002008070020C3
:10262000FEE7382330B599B00B93373B13931093E3
:102630001293C0235B021022002402251593052368
:102640000BA81192179314951694FFF771F90723AD
:10265000210001A80193029503940494FFF7DCFB89
:10266000C0239B020593802305A89B0006930A9430
:10267000FEF78CFDFFF780FCFA218900FDF734FDA1
:10268000FEF7ACFF0420FEF7C3FF0120220021006B
:102690004042FEF779FF19B030BD00008021F0B54F
:1026A000314C090362698BB00A436261636900259A
:1026B0000B4080210193019B6269C9030A43626157
:1026C000636903260B400293029BE02305A91B02CA
:1026D0002648059306960795FEF7A2FE244B05A90A
:1026E0002448059306960795FEF79AFE9020224B04
:1026F00005A9C005059306960795FEF791FE069677
:102700001E4E1F4B05A9300005930795FEF788FE66
:10271000802163691B4A89021340636163691A4A15
:10272000012713406361626930000A436261636993
:102730000B4080210393039B6269C9020A436261D3
:10274000636918240B40049305A9049B059406971C
:1027500007950895FEF764FE3A0021003000FEF769
:1027600009FF0BB0F0BDC046001002400008004851
:1027700003080000001400487F87000000040048A0
:10278000E6FC0000FFFFF7FFFFFFBFFF0022114B39
:1027900010B51A70FA24FEF7A1FDFFF742FFFFF70C
:1027A0007DFF10210C48FEF7EBFE6400FEF7AEFD46
:1027B0002100FDF7D5FC002907D108310648FEF7B6
:1027C000DFFE10210448FEF7DBFE0120FEF7A4FD2A
:1027D000ECE7C0464D0400200004004803685A009E
:1027E00004D5802212061343C01870475B005B08B3
:1027F000FAE7F0B587B0049015000E1E28D0002728
:102800004B1E02930193019BFB18DC0FE41864102C
:10281000E3000593049BE2009E183000FFF7DEFF03
:10282000029B0390A34216D00598049B0830181809
:10283000FFF7D4FF039BAB4204D9A74207D0631E26
:102840000193E0E70138A84202D2671CDBE70026CB
:10285000300007B0F0BD039BAB42EED8F8E70000B4
:1028600003000648012B07D00548022B04D05A422A
:10287000534104485B4218407047C0467F2E000811
:10288000892E0008752E0008214B37B504008D1ED7
:10289000002B09D001A9280000E000BF002808D1C2
:1028A00000232361093313E01A481B4B1B1ADB106A
:1028B00001932A000199FFF79CFF051EF0D0FFF756
:1028C0008DFF6B68A064012B04D1002323610533C5
:1028D00018003EBD281D002B0FDA0123E064E06CD8
:1028E00023650368002B0DDA1801000FFFF7B8FF0E
:1028F000002320619842EBD1D4E7FFF76FFF00235C
:10290000E064ECE7FFF76AFF00232061E0E7C046E0
:10291000000000009C36000844370008036810B52A
:102920000400DA0704D448309B0719D5FDF73EFCB4
:1029300023685B0703D42000D030FDF73BFC2368FD
:102940001B0704D420005130FF30FDF737FC23680B
:10295000DB0604D42000D130FF30FDF733FC10BD7E
:10296000FDF720FCE4E70368002B00D01B181800DB
:102970007047704770B505000C00216C2800FFF708
:1029800083FF061E01D000F0F7FC236C22006B6170
:10299000290001202B6998470828EED00728F2D19A
:1029A0003000216CFFF7E5FF201DFDF7E5FB00007F
:1029B000F0B52B4CC368A544049383690600150049
:1029C0000431402207A8059300F024FD002306AC43
:1029D00006930293216C3000FFF756FF6B1E9D415A
:1029E00007000390093500282FD1F022236C5200F4
:1029F000736121007EA800F00DFD33697EAA3100CD
:102A0000280098478C9B02906364059B29000193E2
:102A10000094330032000120049DA847002818D1FB
:102A2000002F18D1F0227EA95200200000F0F2FC05
:102A3000029B3D00082BCDD0072B0AD13800216C1A
:102A4000FFF797FF07A8FDF797FB10231D43A36B24
:102A5000DAE7092303930398F7239B009D44F0BD15
:102A600024FCFFFF70B5CB6BF8B00B6404000D00C5
:102A70004022043101A800F0CDFC01235B42009309
:102A800010992000FFF700FF00280FD16A462100AF
:102A90002369984706000828F2D06846FFF73EFFF2
:102AA000062E03D129002000FFF764FF092078B02B
:102AB00070BD10B58261DA6BC1601A641900002222
:102AC000FFF776FF10BD70B54369C66805000C00BE
:102AD0000B64002E04D00122FFF76AFF00F04CFCCB
:102AE0000A002B69010002209847072805D0082812
:102AF000F4D121002800FFF73DFF3000216CFFF7E3
:102B000038FF201DFDF738FBC36810B5002B02D13C
:102B1000FFF7A8FF10BDCB6B00220B64FFF748FF47
:102B2000F8E710B50400042905D80800FDF7C8FA35
:102B3000051103111100022010BD0220002BFBD152
:102B40000F2AF9D88240A2185168029A1800116021
:102B5000F2E70120F0E71FB503AB009300230A0062
:102B60001900FFF7DEFF039805B000BD10B50400A3
:102B7000042905D80800FDF7A3FA05110311110077
:102B8000022010BD0220002BFBD10F2AF9D8824071
:102B90000299A218096818005160F2E70120F0E7D5
:102BA0001FB503AB0093002303920A001900FFF73F
:102BB000DDFF05B000BD000070B5184CD36BA54417
:102BC000136404000D0017A8111D402200F022FC20
:102BD00001235B42169326996846FFF755FE0028AD
:102BE00013D10C2116A86A46FFF7DAFF290016A8B0
:102BF000A047002809D1049B16AA694608309847C7
:102C00000600052802D00928E5D1092616A8FFF7F5
:102C100085FE30008E239B009D4470BDC8FDFFFFE4
:102C2000F0B58DB00C000793032103000B40019316
:102C3000E36C0690079816001F1D09AA1B685760D1
:102C4000002823D11B0209931181019B022B00D183
:102C5000A76B0122236D134000D105E100230593EA
:102C600009A9300000F04AFA002800D0AAE0059B2C
:102C70000820002B72D00F213000FFF76CFF0E21CF
:102C800002003000FFF78CFF794A21E0190C1B0489
:102C9000099302235172C9B2994013727F18D4E785
:102CA0003B883D1D02937B88049368E0019B2F1DA8
:102CB000002B57D0002A55D02800FFF78FFDA763BF
:102CC0000500200000E000BF002800D17AE02A00C3
:102CD0000F213FE00199002928D1002A40D02A681D
:102CE000D70F6A68911C00D16CE02100583108911F
:102CF000013219D0281DFFF736FE3A00010008AB5B
:102D0000200000E000BF071E2AD00D213000FFF791
:102D100022FF089B2062022F02D1E36223002C33A2
:102D20006362A562062019E01F00EEE70D21300066
:102D3000276AFFF710FF874212D1A36A9D420FD185
:102D40002800FFF74BFD0F2102003000FFF728FF9E
:102D5000220000213000FFF723FF07200DB0F0BD57
:102D600008352F003B680293002B00D178E7079BC2
:102D7000022B00D094E73D007B6808350493039B49
:102D8000049F0F219F43A36C3000FF18FFF7E3FE61
:102D90000022874206D8029A039B9A43D719B84269
:102DA00080414242049B03995F0002231F40029B23
:102DB0000B403B43012B00D18CE7002B00D175E782
:102DC000022B01D00920C9E72B6858004308029361
:102DD000019B002B2BD1002A20D0069B1B0709D575
:102DE000029B002B1AD10D213000FFF7B4FE089B87
:102DF000206295E7019F029B9F42F4D02300013798
:102E0000B800583328180893FFF7ADFD08AB010050
:102E10000022200000E000BF0028ECD02B68002B2F
:102E200000DA0435029F0137BF00EF199AE70D2140
:102E30003000276AFFF78FFE8742EFD1A36A9D42D9
:102E4000ECD1029B0027A36204232363EB18E76203
:102E500063632B68BB4204DA0298013080002818B3
:102E60006FE7039B0593D9E7059303927AE7C04682
:102E70000000000010B50023FFF7D2FE10BD10B512
:102E80000123FFF7CDFE10BD10B50223FFF7C8FEEA
:102E900010BDF0B50400C5B016001D00042957D8B8
:102EA0000800FDF70DF9031B556D97000220002B5C
:102EB00012D1A36B91B201380200AA40114204D092
:102EC0001F68AA00A218576004330135102DF3D1F2
:102ED0000020B20400D4A36345B0F0BD04232A004F
:102EE0009A43012A34D1B3B2370C0193FE18012D55
:102EF00000D095E0102E2BD80F2F29D800260122C4
:102F0000236813420BD01900200091432160483000
:102F1000052D1FD102230B432360FDF749F9002E35
:102F200000D188E004222368134205D02000934397
:102F30002360D030FDF740F9012D00D083E022A8B6
:102F4000FDF732F989E0102ED8D9103E052DD6D0E4
:102F50000220C1E7032293432360FDF725F9DEE752
:102F600003681350043086E00F2F02D822A8FDF723
:102F70001DF9002E00D1A4E002A8FDF71BF9A0E086
:102F8000032BE5D1150C96B2AB19102BE0D8082213
:102F90002368134206D02000934351302360FF3052
:102FA000FDF70EF922A8FDF70BF9A36B76001A00C6
:102FB0003100ED00ED1A22A84519013906D2B600FC
:102FC0009E19A66322A8FDF7F9F87AE01068A850C8
:102FD0000432F2E7002BBBD1102AB9D810222368A3
:102FE000134206D020009343D1302360FF30FDF719
:102FF000EBF822AD2800FDF7E7F800230121A26BD2
:1030000008009840064203D0176898002F500432F9
:103010000133042BF4D1A2632800FDF7D3F850E06C
:10302000202E95D80F2F8ED9019E002E08D0052D69
:1030300000D177E78CE7012D45D122A8FDF7B4F840
:10304000019B00260BE00F2F04D822A8FDF7B0F853
:10305000002EF5D002A8FDF7AFF81023DB1BA16B03
:103060000A00002B0FDD08005B00FA0001939C466C
:10307000521A22AB9A186346013B9C4600D36FE775
:10308000019B9B00CA18002E11D03B00102F00D2CC
:103090001023103B02A9DB005B181900F3009C46CB
:1030A0000023D058C85004336345FAD1D218012DFB
:1030B00000D10432A263012D00D055E722A8FDF70C
:1030C00071F8002008E70F2FBAD8BEE7027A030094
:1030D000002A11D1427AB020002A0CD0013A5A724B
:1030E0005A68111D126859601A6003221A721A6810
:1030F000100E12021A607047013AF7E7F0B500238C
:1031000005000F0087B002933800FFF7DFFF0400CF
:10311000B02815D10024029BA3420ED105AE230096
:103120000E22210000962800FFF7FBFC00962300EA
:103130000F2221002800FFF719FD200007B0F0BD85
:1031400003061BD4FF2386001E4005AB009300231B
:103150000D2219002800FFF7E4FC0436059B6206E7
:103160000AD59E1B05AB0596009300230D2219007E
:103170002800FFF7FBFCC7E79E19F3E703000F22C7
:103180009343DBB2802B1AD104023800FFF79EFF75
:10319000802604433602B44201D10924CDE723013D
:1031A000039300232405220C19002800FFF771FE69
:1031B0000028F2D1039B3342A6D00123A3E7902B32
:1031C0000FD10D2603003340B342E6D000230F2277
:1031D00005AC0240009419002800FFF7A2FC0094FF
:1031E000C3E7A02B0FD1FF2307221B011900824345
:1031F00011410A001A40030702D58023DB011A435C
:10320000002319000FE0B02B56D1B12812D138009D
:10321000FFF75CFF021EC0D001000F239943C9B223
:103220000029BAD10B002800FFF733FE002800D197
:103230006AE7B2E7B22823D1002305AC0D221900BA
:1032400000942800FFF76DFC3800FFF73FFF0226CF
:103250007F230340B3408021059A0140D318002901
:1032600008D1812292009B18F83A059300940B0034
:10327000FF3A7DE7380005930736FFF727FFE7E7BA
:10328000B3280CD13800FFF721FFF02302031B0302
:1032900013400F22024001321A430123B1E7FC23FD
:1032A0000340B42B00D178E7072380221C4001346F
:1032B00012032243063BA4E7C02B4ED1C6280CD1F3
:1032C0003800FFF703FFF02302031B0313400F2214
:1032D000024001321A43032393E7C7280ED1380076
:1032E000FFF7F4FE021E00D157E703000F218B43C6
:1032F000DBB2002B00D050E70B3994E70300072224
:103300009343DBB2C02B07D1A022B13B1C40013458
:10331000120322430C3B74E7C8280ED13800FFF794
:10332000D5FE0F2302009A43D2B218401032120386
:10333000013002430A3B012175E7C92800D02CE780
:103340003800FFF7C3FEF02302031B0313400F22D4
:10335000024001321A430523EDE70300072293439D
:10336000DBB2D02B00D018E71440802201341203C6
:103370002243CB3BDFE7000010B5062000F0BCF88D
:10338000012000F061F9C04610B5010000230022C1
:10339000002000F0D3F810BD70B5094B094CE41AB9
:1033A000A41009D0084AA518AD00ED182B68013CFF
:1033B0009847043D002CF9D100F04EF970BDC0468D
:1033C0004C37000850370008FFFFFF3F70B50D4E27
:1033D0000D4DAD1BAD1006D00024A300F3580134F1
:1033E0009847A542F9D100F031F9084E084DAD1BC0
:1033F000AD1006D00024A300F35801349847A5422D
:10340000F9D170BD4437000844370008443700083C
:103410004C370008F0B50F2A37D90D0005430C00D2
:103420000300AD0735D11500103D2D092E013618CA
:10343000103627681F6067685F60A7689F60E7684D
:103440001034DF601033B342F3D10F2401352D0166
:10345000491914404519032C1DD90023CE58EE50AC
:103460000433E61A032EF9D80323043CA4080134DC
:10347000A4001A402D190919002A05D00023CC5C9C
:10348000EC5401339342FAD1F0BD0500002AF5D186
:10349000FAE70500F2E72200F8E7C04670B505003C
:1034A0000C001F2922D8B7239B00C358002B0ED035
:1034B0008A009B181A68002A09D0012A10D0511CD2
:1034C00010D00021200019609047002070BD280016
:1034D00000F030F822000100280000F017F8F5E7AE
:1034E0000020F3E7162303600120EFE716230360B3
:1034F00001204042EAE7C04610B5034B01001868BE
:10350000FFF7CCFF10BDC04604000020002370B5BB
:10351000074C050008001100236000F08DF8431CE3
:1035200000D070BD2368002BFBD02B60F9E7C046AC
:103530000407002010B500F077F810BDF8B5DE469E
:103540009B46314B45461C68A4234E4657465B00BC
:10355000E0B50500E0580E00904600284BD04368C7
:103560001F2B0DDC5C1C002D21D102339B0044601D
:103570001E5000203CBC90469946A246AB46F8BD82
:10358000224B002B3CD0C820400000E000BF0028A8
:1035900036D0A42200235200A15843600160A050FD
:1035A00040328350043283500124002DDDD09A0034
:1035B00091468144424688214F467A50C4225200A7
:1035C0009046804442468739994012688A460A43A9
:1035D0009446424661461160842249465F46520045
:1035E0008F50022DC1D1020055468D32FF32116835
:1035F0000D431560B9E720004D30FF30E050AEE7D5
:1036000001204042B6E7C04698360008000000009E
:10361000034B10B5002B02D00248FFF7B5FE10BDDA
:10362000000000009933000858220120014B40425D
:103630001A6070470407002058220120014B4042C5
:103640001A60704704070020FEE7C046F8B5C04680
:10365000F8BC08BC9E467047F8B5C046F8BC08BC2C
:043660009E467047CB
:1036640002030405060708090A0B0C0D0E0F1010BF
:103674000102030405060708090A0B0C0D0E0F10BE
:103684000002010200000000000000000102030427
:083694000607080908000020E8
:10369C0086EFFF7FB0A91880F8EFFF7FB0AB0A80F0
:1036AC00E0F0FF7FB0B0A88028F1FF7F01000000A0
:1036BC00CCF1FF7FA907B18058F2FF7FB0B0A88092
:1036CC009AF2FF7F01000000A0F2FF7FB0B0AA8049
:1036DC00D4F2FF7FAB76B28080F3FF7FAA3F3780B6
:1036EC00C6F3FF7FB0B0A880D2F3FF7FB0B0AA8042
:1036FC000CF4FF7FB0B0A8801EF4FF7F0100000027
:10370C00ACF4FF7FAA0DB2800CF5FF7FB0AB0C8040
:10371C0058F7FF7FB0B0A8806EF7FF7FAB3F0480F7
:10372C00A0F9FF7F01000000C8F9FF7FB0AB068055
:08373C003AFCFF7F01000000D0
:0837440011360008E50200083F
:04374C00BD020008B2
:1037500000127A000800002000000000F40200209F
:103760005C030020C40300200000000000000000F3
:103770000000000000000000000000000000000049
:103780000000000000000000000000000000000039
:103790000000000000000000000000000000000029
:1037A0000000000000000000000000000000000019
:1037B0000000000000000000000000000000000009
:1037C00000000000000000000000000000000000F9
:1037D00000000000000000000000000000000000E9
:1037E00000000000000000000000000000000000D9
:1037F00000000000000000000000000000000000C9
:1038000001000000000000000E33CDAB34126DE665
:10381000ECDE05000B0000000000000000000000CE
:103820000000000000000000000000000000000098
:103830000000000000000000000000000000000088
:103840000000000000000000000000000000000078
:103850000000000000000000000000000000000068
:04000005080025A129
:00000001FF
