:020000040800F2
:1000000000180020A1370008690600086B060008E8
:1000100000000000000000000000000000000000E0
:10002000000000000000000000000000213800086F
:100030000000000000000000213800086D060008E4
:10004000213800082138000821380008213800082C
:10005000213800082138000821380008213800081C
:10006000213800082138000821380008213800080C
:1000700079060008213800082138000821380008D6
:1000800021380008000000000000000021380008AE
:10009000000000002138000821380008213800083D
:1000A000000000002138000821380008213800082D
:1000B00021380008000000008906000899060008A1
:1000C00002B4714649084900095C49008E4402BCEB
:1000D0007047C04603B47146490840004900095AB8
:1000E00049008E4403BC7047002934D0012300220C
:1000F00010B488422CD301242407A14204D28142A7
:1001000002D209011B01F8E7E400A14204D28142B6
:1001100002D249005B00F8E7884201D3401A1A4333
:100120004C08A04202D3001B5C0822438C08A0426A
:1001300002D3001B9C082243CC08A04202D3001B20
:10014000DC082243002803D01B0901D00909E3E79A
:10015000101C10BC704701B5002000F05FF802BD14
:100160000029F8D003B5FFF7C1FF0EBC4243891A3E
:100170001847C046002941D010B4041C4C40A44686
:1001800001230022002900D54942002800D5404221
:1001900088422CD301242407A14204D2814202D2F6
:1001A00009011B01F8E7E400A14204D2814202D216
:1001B00049005B00F8E7884201D3401A1A434C0813
:1001C000A04202D3001B5C0822438C08A04202D349
:1001D000001B9C082243CC08A04202D3001BDC0871
:1001E0002243002803D01B0901D00909E3E7101CB2
:1001F0006446002C00D5404210BC704701B5002079
:1002000000F00CF802BDC0460029F7D003B5FFF797
:10021000B3FF0EBC4243891A1847C0467047C04618
:10022000011C343138C9043B9C461D60A646011CA4
:1002300020313CC990469946A246AB46011C083184
:10024000FCC941680068E54600BDC0467047C0462D
:100250007047C0467047C0467047C0467047C046AA
:100260007047C0467047C0467047C0467047C0469A
:100270007047C04601B401A801B585B0FFB408A815
:1002800041464A4653465C4665463EC001A83EC8C4
:100290000F98009000230CB401A903F0ADFD109B52
:1002A00012B0184701B401A801B585B0FFB408A881
:1002B00041464A4653465C4665463EC001A83EC894
:1002C0000F98009000230CB401A903F0C6FD109B09
:1002D00012B0184701B401A801B585B0FFB408A851
:1002E00041464A4653465C4665463EC001A83EC864
:1002F0000F98009000230CB401A903F0CFFD109BD0
:1003000012B0184701B401A801B585B0FFB408A820
:1003100041464A4653465C4665463EC001A83EC833
:100320000F98009000230CB401AB03F08CFD109BE0
:1003300012B0184701B401A801B585B0FFB408A8F0
:1003400041464A4653465C4665463EC001A83EC803
:100350000F98009000230CB401AA03F0F7FD109B46
:1003600012B0184710B5064C2378002B07D1054B67
:10037000002B02D0044800E000BF0123237010BD11
:100380003004002000000000E0490008044B10B5D4
:10039000002B03D00349044800E000BF10BDC04655
:1003A0000000000034040020E04900080100872319
:1003B00010B59B00ED31FF31C05802F0F9FE10BDC1
:1003C0001C234B43C318FC33DA69872310B59B0009
:1003D000C05802F021FF10BD1C234B43C3189A6B79
:1003E000872310B59B00C05802F050FF10BD872333
:1003F00010B59B00C05802F0D8FF10BD70B587241F
:100400000500A4000121005902F0BAFF285902F0AA
:1004100093FF70BD872310B504009B00C05802F005
:10042000B2FFA369002B04D00623024A11690B43D3
:10043000136110BD00ED00E0836910B50400002BCE
:1004400006D00621054A13698B43136103F02AFA8B
:1004500087239B00E05802F0A1FF10BD00ED00E0F3
:1004600010B514001A0023008824A400005900F0DD
:100470003DFC0223032801D8014B1B5C180010BD72
:10048000184A000888239B00C05810B500F01CFED5
:100490000223032801D8024B1B5C180010BDC04684
:1004A000184A000888239B00C05810B500F056FE7B
:1004B0000223032801D8024B1B5C180010BDC04664
:1004C000184A000888239B00C35848B21C22002801
:1004D00006DA7F2001404A439B182A331878704778
:1004E0004A439B18FF33D87AF9E7000088239B0022
:1004F000C05810B500F0E4FB0223032801D8024BDA
:100500001B5C180010BDC046184A000810B58824AE
:10051000A400005900F090FE0223032801D8024BEA
:100520001B5C180010BDC046184A000810B588248E
:10053000A400005900F024FD0223032801D8024B37
:100540001B5C180010BDC046184A000807B5012002
:100550000D4A91690143916193690022034004307F
:10056000110001934042019B01F0A8FD00220220EE
:100570001100404201F0A2FD002201201100404282
:1005800001F09CFD07BDC0460010024010B5114BA4
:10059000026886B09A421BD180200F4A8000916980
:1005A000002401439161936901A903400093009BDA
:1005B00001230A48019302330293039401F0CAFC19
:1005C0000C202200210001F079FD0C2001F0A0FD9B
:1005D00006B010BD00240140001002400004004895
:1005E00010B5144B026886B09A4220D18020124A7E
:1005F0008004D16900240143D161D36901A903407A
:100600000093009BC0239B000193022302930133BC
:1006100004930A4801330593039401F09BFC1E20C8
:100620002200210001F04AFD1E2001F071FD06B0FC
:1006300010BDC046006400400010024000040048A5
:10064000074B026882B09A4208D10220054AD1695C
:100650000143D161D36903400193019B02B070470C
:1006600000040040001002407047FEE710B501F0A2
:10067000E3F901F080FD10BD10B5024801F07AFBEE
:1006800010BDC0468405002010B5024801F096FE5A
:1006900010BDC046D005002010B5024800F0D2FEC3
:1006A00010BDC046580600200121114B11481A68A0
:1006B0000A431A605A6802405A601A680E4802409B
:1006C0001A601A680D4802401A605A680C480240C5
:1006D0000F205A60DA6A8243DA621A6B09480240D4
:1006E0001A635A6B8A435A6300229A607047C04665
:1006F000001002400CB8FF08FFFFF6FEFFFFFBFFF3
:10070000FFFFC0FF2CFEFFFF30B51F4C87B02378E2
:10071000062B31D180231D4A9B04D16901250B434F
:10072000D36180230193002301A919480393049303
:10073000029501F00FFC1748FFF752FF164B1A689D
:100740002A431A605A682A42FCD0022001211A6802
:1007500082431A601148124A007812780004120588
:100760000243104800880243DA611A68AA431A60FB
:100770005A680A40FCD1227000228021044801F00E
:1007800093FC07B030BDC046950400200010024025
:100790000004004850040020006400404C04002085
:1007A0004D0400209604002000B5082832D81B49CB
:1007B0001B4A1C4BFFF784FC050B0F151C21252A37
:1007C0002F009F2008800321117004220EE0632077
:1007D0000880022102E01F200880042111700322FA
:1007E00004E0132008800321117002221A7011E026
:1007F0000720088010700622F8E7072008800121F2
:10080000E2E70120088007211170F4E70220088048
:100810001070187000BD0120DAE7C0469604002071
:100820004C0400204D04002010B50420FFF7BCFF4D
:10083000044B054A1A600022044B1A70044B06321E
:100840001A7010BD50040020006400409404002081
:1008500095040020F0B501268DB008960A96019601
:1008600090260023B60019001A001C00B44603931A
:10087000029305930493099306930B9300938726A1
:10088000304DB600AE593700019E9E403E424AD0E0
:100890008127BF00EF59374242D06246DE00761909
:1008A000B758B258120C12D091256246AD00B2581A
:1008B0007159120C00291AD14001059002A9224851
:1008C000079303970292023401F07CFC0CE007933B
:1008D000009B0397002B00D005914001029002A9D4
:1008E000194801F06FFC0134E0B20DB0F0BD715950
:1008F00075592D0C0BD140010591049002A91248A5
:10090000079303970292033401F05CFCECE7019D2E
:100910000434E4B2009501330C2BB0D10B48E4E76A
:100920000234E4B2F7E7009D002D01D00292059158
:100930004001039002A90448079301F043FCA0B2D0
:10094000D3E7C0460064004050040020FFFF0000D1
:10095000C0230121234A5B0070B5D45800230C4208
:100960000CD09133FF33D4580B000C4206D0A03189
:10097000FF3151580522194232D1DB18194A1B01A7
:100980009918C0220488520064058C500479002C08
:1009900003D002248D582C438C500F2482780530CC
:1009A00022407634FF340A510F4A104C9D18002221
:1009B0001B192A601A6004792E68944034432C6015
:1009C00004781E689440083234431C600130202AA9
:1009D000F1D101236132FF32885803438B5000224A
:1009E000100070BD006400408C65004088650040C8
:1009F0001A4B30B5D968022289072CD0D82149007A
:100A00005A58520D0280002202715A58920701D59D
:100A100001220271DA210F2449005A58DE252240B2
:100A200082705A58AA34120AC270002205306D0032
:100A3000FF345959D14001711959D1400832017020
:100A40000130202AF5D1D9680A43DA60044A1378C4
:100A5000013B13700022100030BDC046006400400E
:100A600094040020034BD86803231840431E984188
:100A7000C0B2704700640040F8B5224E05003378DC
:100A80000C00002B08D1FFF7CFFE0620FFF78CFEED
:100A9000FFF73AFE0123337000261B4BB1005B5871
:100AA000002B04D00136322EF7D12800F8BD1820D3
:100AB0002F0084462A1D1C37AC441380023208C71D
:100AC0006245FAD1104A20005550AB64EB642C808B
:100AD000FFF7C0FE601C80B2FFF7BCFEA01C80B216
:100AE0000334FFF7B7FEA0B2FFF7B4FE0122B24015
:100AF000064BD117186802431A605A6811435960AF
:100B0000D3E7C046720500209C0400207805002031
:100B10000F4B70B50024994212D8A24210D0230086
:100B20005C000419A588002D0CD106339B00C31866
:100B3000A1805A600124342902D90800FFF78AFEF7
:100B4000200070BD01330A2BEAD10024F8E7C0462B
:100B5000FF0700001FB580236A4653710B0AD3714B
:100B60000B0C137200239171090E51720521137140
:100B70000388684691701380FFF7EAFE05B000BD58
:100B80007FB56B466A461880002313712A330C1E0A
:100B900053711CD001256B4600219D700123DAB2F0
:100BA000082B18D018002178684401324171D2B264
:100BB000013300290CD16B462E009A70052168463E
:100BC000FFF7C6FE322000F045FF002EE3D07FBDC8
:100BD00001342900E3E7002901D06A46937000261A
:100BE000ECE7038810B501339BB2816C1800FFF766
:100BF000C7FF10BD038810B502339BB2C16C18004B
:100C0000FFF7BEFF10BD0000F8B5FFF72BFF00286F
:100C10001AD0284C05212000FFF7EAFE264E3700A7
:100C2000C8373068002823D0228803889A420CD124
:100C30002179002909D08369200098470436BE42F3
:100C4000EFD100221D4B1A70F8BD591C8A4205D104
:100C50002179002902D0FFF7C4FFEFE702339A425F
:100C600006D100252379AB4203D0FFF7C3FFE5E7A8
:100C700000253368002B0DD06A009A1891882288CD
:100C80008A420BD1AA1D92009A185268002A05D0F8
:100C90002000904701350A2DEBD1CFE7E2788A4258
:100CA000F8D1AA1D92009B185B68002BF2D020009F
:100CB0009847EFE7640500209C040020980400207A
:100CC000F42210B55200835C04000220012B09D0ED
:100CD0000123A354002906D1236880314C331980A5
:100CE0000020A05410BD631DD977F9E7F7B57F2622
:100CF0004DB204000E401C20002D1DDA704301008F
:100D000028316118CB70F423ED0F0E704D70CA605E
:100D10005B00E55C0220012D00D1EDE00138E054DC
:100D2000C8782368032814D80D78894EAD005D1962
:100D3000FFF7C6F906500C4B41430931FF31E0E79C
:100D4000288830408026B600064301E02888064007
:100D50002E8008787F4E8446674685005D19288876
:100D600030407D4E3743384328808D7A794F08785C
:100D7000BC460196002D64D101268D88C000B54384
:100D80004E7837001E005036002F27D032889A1830
:100D900010188022D200801805800A7892009A18D4
:100DA0001088450604D5674607406C4807431780FE
:100DB0000A786B4992009B181A88114020224A40F9
:100DC000019911430A001A8092E028883040C02619
:100DD000F600B9E7288830408026F9E73788DF1920
:100DE0003818604FC019058008783588C000401950
:100DF0005D4D5D1940193E2A1CD95509D20601D115
:100E0000013DADB2594AAD02154305800A78920002
:100E10009A181088450404D565462840544D284347
:100E200010800A78534992009B181A881140C022FA
:100E30009201C4E701265508324200D0AD19AD0237
:100E4000E3E78000181802884B4D454F15404B4A88
:100E50002A431D0002800A7850352888D2001218D3
:100E60008020D218C00012180120CE888643168038
:100E700080260A782D88D20052193A4DD21852197C
:100E80000D89F601854315800A78487892009A18F2
:100E9000002832D11088304204D065462840344DB5
:100EA000284310800A782D4892009A1815886E06FB
:100EB00003D5664635400543158066460A7892009C
:100EC0009A1815883540284310800A7829489200DE
:100ED0009A1815880540C02080016840019D28436C
:100EE00010800A7892009B181A8817402F431F80A1
:100EF000F42300205B00E054FEBD10881C4D3042FE
:100F000003D066463040284310800A7892009A1831
:100F10001088460604D566463040104E3043108097
:100F200066460A7892009A1810883040054315806A
:100F30000A7892009A181088074001980743178092
:100F40000A780C4992009B181A880A4002433AE733
:100F50008F89FFFF0F0F00008080FFFFC080FFFF21
:100F6000BF8FFFFF04040000060400000080FFFFA5
:100F700080C0FFFF8FBFFFFF0F0E00008081FFFFCB
:100F800070B504007F2001406338484320180500F5
:100F9000FC35EA612B620022F423FF306A625B00B9
:100FA00082724172E65C0220012E38D00138E05492
:100FB0002B6AA869834233D91B1A2B621C224A432D
:100FC000A218FF32D67C2568537A002E2BD12A0036
:100FD00050321288DB009B18364AAA189B183E280C
:100FE00060D9420992B2C00601D1013A92B23248A8
:100FF000920202431A801C2359436118FF314B7A35
:101000002E4A9B00EB18198800201140C022920143
:1010100051402B4A0A431A80F4235B00E05470BD10
:101020002A621800CAE7927A002A2FD12A00503289
:101030001288DB009B18234AAA189B183E281DD94A
:10104000420992B2C60601D1013A92B21A4E9202F8
:1010500032431A801C234B43E318FF339A7A5B7A9E
:10106000002AB4D0012AC6D12A0050321288DB00EF
:10107000EB189B180F4A9B181880BCE7420892B2E5
:10108000C60701D5013292B29202E2E7012AE1D10C
:101090002A0050321688DA00AA180A4B9219D21880
:1010A0001080D7E7420892B2C00701D5013292B250
:1010B00092029FE7060400000080FFFF8FBFFFFF42
:1010C0008080FFFF02040000F42330B55B00C25CA7
:1010D00004000220012A20D0012248B2E2547E32CC
:1010E000CD3B0A40FF3B002818DA53432833190050
:1010F000012361188B70C30F0A704B702568124969
:10110000002A0FD12B88114A1A40114B5340194322
:101110002980F42300205B00E05430BD594309319D
:10112000FF31E5E79200AA181388002806DA09487B
:1011300003401020434019431180EAE7064803406A
:1011400080204001F6E7C0468080FFFFBFBFFFFF61
:1011500010100000BF8FFFFF8FBFFFFF70B57F240F
:10116000020048B20C401C2300282FDA63432833C6
:101170001900002351188B70C00FE93348700C70B0
:10118000FF33D45C0220012C1FD00138D0544B789F
:1011900008781568184C8000002B1BD0281803888D
:1011A0005E0604D5154E3340154E334303800B784D
:1011B00014489B00EB1819880840302141400C432B
:1011C0001C80F42300205B00D05470BD59430931CA
:1011D000FF31CEE72B181888460404D5074E30405F
:1011E000094E304318800B7808489B00EB1819888B
:1011F0000840C0218901E1E78080FFFF0F0F000058
:10120000C080FFFFBF8FFFFF80C0FFFF8FBFFFFFCA
:1012100030B58024E4000019013382185B08521AAB
:101220005418002B00D130BD48780D7800022843B7
:101230002080013B0231F3E7F8B57F250D401C21EA
:1012400069434118CB630B008A63002601222933CE
:101250000E64013B5A701D70F4235B00C75C0400F0
:101260000220974236D0E254CB6B4A6B934232D97C
:101270009B1ACB631C21694361180B000F003233AA
:101280001B78206896B22837002B27D18A8D33002F
:10129000896BFFF7BDFF23681A00503211883A7836
:1012A000D2009B18514A5B189B181E801C214D438D
:1012B000651928352B7822689B00D31819884C4A69
:1012C00000201140302251404A4A0A431A80F42338
:1012D0005B00E054F8BDCE631A00CBE73B782931C0
:1012E0009F003F5A09787F0645D5002937D1010074
:1012F00050310988DB005B183F4941185B183E2AD2
:1013000025D9510989B2D20601D1013989B23B4AA6
:101310008902114319801C236B43E3181A8E1C2782
:101320006F43E7193300B96BFFF772FF3B002933B6
:101330001B782168002B4DD128373B789B00CB18B8
:101340001A882F4911402F4A0A431A80AEE75108E4
:1013500089B2D20701D5013189B28902DAE70129C0
:10136000D9D1020050321288DB00C3189B18224AE0
:101370009B181E80CFE7002920D101005031098839
:10138000DB005B18194941185B183E2A0ED9510938
:1013900089B2D20601D1013989B2184A89021143B2
:1013A00019801C236B43E318DA8DB8E7510889B222
:1013B000D20701D5013189B28902F1E70129F0D1C3
:1013C000020050321288DB00C3189B18074A9B1892
:1013D0001E80E6E7012B00D068E728373A789200B4
:1013E0008B181A8806491140074AADE7020400002D
:1013F000BF8FFFFF8080FFFF060400000080FFFF1B
:101400000F0F0000C080FFFF80C0FFFFF0B58025F8
:10141000ED0040195C08821826000800571A3D1894
:10142000002E07D1640009191219DB0701D51388B2
:101430000B70F0BD2D88013E05702D0A45700230FD
:10144000EDE70000F0B5036885B00633DB8F0400DC
:101450001BB2002B00DA61E023680633DA8F5205F5
:101460000AD5DA8F864920000A40DA87FEF7C6FFE0
:1014700000212000FFF724FC2268931DD98F490426
:1014800003D5D98F7F480140D987D98F890403D5E7
:10149000D98F7D480140D987DB8FDB040FD504212C
:1014A000931CDA8F20008A43DA87784ADA87FEF7BE
:1014B000C3FF236876490633DA8F0A40DA87236848
:1014C0009A1DD18F090512D5D18F72480233014080
:1014D000D1870821D88F0143D9870421D88F0143B0
:1014E000D987D38FDB0402D42000FEF793FF236853
:1014F0000633DA8F920506D5DA8F674920000A4055
:10150000DA87FEF774FF23680633DA8FD20503D536
:10151000DA8F62490A40DA8705B0F0BD02AB9F1D41
:1015200000233B80206803AA831DDB8F9BB21380BE
:101530001BB2002B00DB8FE70F2316881E4000D064
:10154000BCE01021138819400388002926D1544A91
:1015500013400380030050331A88230028331B787C
:10156000DB00C0184F4B8018C0180388A26B9B0586
:101570009B0D2364D318A3632000FEF72DFF631D8A
:10158000DA7F002ACED0E06B0028CBD18022D97F31
:10159000114322684C321180D877C3E73B803A88E8
:1015A000120520D5030050331A8884235B00E35CC6
:1015B0002100DB00C3189B183B4AED319B18220029
:1015C0001B8809329B059B0DFF329361FF31928886
:1015D000FFF71CFF22683549138820000B40138059
:1015E000FEF7E4FE9EE73A8812B2002A9ADA2F4A02
:1015F000250013400380030050331A8884235B00C6
:10160000E35C0935DB00C3189B18274AFF359B189C
:101610001B889B059B0DAB6107D0AA882969FFF742
:10162000F5FE2B69AA699B182B6100212000FEF7AB
:10163000C7FE22681C49130050331B88E868511804
:10164000C9183E2813D943099BB2C00601D1013BFA
:101650009BB217489B0203430B801188154B19401E
:10166000C0239B015940144B0B4313805AE7430896
:101670009BB2C00701D501339BB29B02ECE7C04689
:10168000FFFBFFFFFFBFFFFFFFDFFFFF00BDFFFF0F
:10169000FFEFFFFFFFF7FFFFFFFDFFFFFFFEFFFF75
:1016A0000F8FFFFF02040000060400008F0F0000F0
:1016B0000080FFFF8FBFFFFF8080FFFFB300C118D6
:1016C00001930B883B803A8812B2002A3BDA774AB2
:1016D000050013400B801C237343E3181A00FF32EC
:1016E000D17C5035527A002973D12988D200521802
:1016F0006F49121852181588AD05AD0D08D01A00A3
:10170000FC331900FE32D2892B00C969FFF77EFE37
:101710001C231900714361180800FC30426A5219F9
:101720004262C26952190192C261026A002A03D060
:101730008069854200D37FE07343E318FF33597A11
:101740002000FEF73DFE80223B88134200D1E9E6EF
:101750002068B300C3181A88564905000A401C21A6
:10176000714361181A800B0032331A7850350A3BE6
:10177000002A69D11B782A88DB009B184E4A1B1867
:101780009B181B889B059B0D0B6403D08A8D896B6E
:10179000FFF73EFD22681300503318881C235E4378
:1017A000A619310028310B78DB00D318424A1B18E8
:1017B0009B181A88B36B9205920D32649A18F36BDA
:1017C000B26309782000002B00D06CE0FEF704FE25
:1017D000A8E6D1009200125A520420D52A88821815
:1017E0005218354952181588AD05AD0D08D01A00AC
:1017F000FE32128AFC3319002B00C969FFF706FE7E
:101800001C237343E318FF335B7A22689B00D318D1
:101810001A882A4911402A4A0A431A8078E72A88F6
:1018200082185218224952181588AD05AD0DE7D01F
:101830001A00FE32528ADDE7FF311300497A019A1D
:101840002000FFF79DFB7EE71B78DA009B001B5A08
:101850005B061CD52B88C3189B18174A9B181B883E
:101860009B059B0D0B6403D0CA8D896BFFF7D0FCE1
:101870001C237343E31828331B7822689B00D3187A
:101880001A880E4911400F4A0A431A8082E72B88B2
:10189000C3189B18064A9B181B889B059B0D0B645D
:1018A000E6D00A8EE1E7FFF7C7FC3BE68F0F0000AA
:1018B000060400000F8FFFFF020400000F0F00005E
:1018C000C080FFFF80C0FFFFF0B5036885B0050052
:1018D000DB0328D580220021404C5205E3690091AA
:1018E000134208D1E3691343E361E36913400393AF
:1018F000039B012300938027394E7F0033683B42CE
:1019000038D0C022236A92001340364E44D1236A55
:101910001E406B681E43009B2662012B03D1E369C6
:10192000314A1340E3612A68D30706D503202B49C7
:101930000B6B8343A86803430B63930606D5102003
:1019400026490B6B8343E86803430B63930306D577
:10195000802022490B6B8343686903430B6300209B
:10196000530517D540211D4A136B8B4329690B433F
:1019700013630FE033683B43336000F065F8019078
:1019800033683B42BDD100F05FF8019BC01A642868
:10199000F6D9032005B0F0BD69680A409A42B6D076
:1019A0008023226A206A11005B0203432362236AB8
:1019B0000E483140034023622162D307A7D500F0CF
:1019C00043F807000222236A1342A0D100F03CF83A
:1019D000074BC01B9842F5D9DBE7C0460010024018
:1019E00000700040FFFCFFFFFFFFFFEFFFFFFEFF67
:1019F0008813000010B5040001F0BEFBFA21890035
:101A0000FEF772FB00F08EFB012000222100404215
:101A100000F054FB002010BD1023064A10B51168D9
:101A200000200B431360FFF7E5FFFEF78FFD00205A
:101A300010BDC04600200240024A13680133136003
:101A40007047C04678080020014B18687047C046B0
:101A50007808002037B50190FFF7F6FF019C0500DC
:101A6000631C5A1E9341E418FFF7EEFF401BA0428F
:101A7000FAD337BD002373B5032101930368040033
:101A80009A680A40012A07D11968114201D0002042
:101A900076BDDA681204FAD49968194A114208D05E
:101AA00010230120626C13436364A36C0343A3649B
:101AB000EEE7012299680A439A60124B12491868AE
:101AC000FEF712FB0190019B002B15D1FFF7BCFF25
:101AD0000125060023681B682B42D8D1FFF7B4FF0D
:101AE000801B0228F6D91023626C01201343636423
:101AF000A36C2B43A364CBE7019B013B0193E2E77B
:101B0000170000800000002040420F00F8B50400DC
:101B10000120002C7DD0636C002B06D122004032C6
:101B2000A36420001370FEF731FD636CDB0600D563
:101B300084E0042223689868104000D07EE0626C44
:101B40004149114002220A43032162649A680A4013
:101B5000012A05D1196811420ED1DA6812040BD49A
:101B60001821DA688A43A1680A43DA601969626851
:101B70008900890811431961DA683449256A0A40E5
:101B8000DA60A2696F039103E269D2031143626BC9
:101B9000013A561EB2411603E268114322690F430F
:101BA000022A00D10420226B616A52003A43324378
:101BB0000243012904D1002D2CD1802149020A437E
:101BC000C220A16AFF30814202D0E06A01430A4389
:101BD0008020D96840051143D960A16B814202D0B1
:101BE000481E062807D8072558692940A843586188
:101BF000586901435961DB6815490B40934211D183
:101C000000200322A064636C93431A000123134352
:101C10006364F8BD2020656C28436064A06C0143B8
:101C2000A164CDE71222636C012093431A001023B4
:101C300013436364A36C0343A364EAE71023626C59
:101C4000012013436364E4E7FDFEFFFF1902FEFF7A
:101C5000E7FF3F83036870B59B68040002205B07C1
:101C60001AD4250040352B78012B15D001232B7079
:101C7000E369012B11D1636C0B4A00201A408023C9
:101C80005B0013431C2263642368A06428701A60FD
:101C90009968183A0A439A6070BD2000FFF7EAFE7F
:101CA0000028E8D0F8E7C046FEF0FFFFF8B5456928
:101CB00004000E00082D0DD003680120DB680C2500
:101CC000034207D02023626C403413436360002337
:101CD0002370F8BDFFF7B8FE070023681A681542A5
:101CE00023D08022616C92000A436264C022D968CA
:101CF0001201114212D1226A002A0FD11A6812076A
:101D00000CD59A68520723D40C215A688A435A602A
:101D1000626C1449114001220A4362640020A269E6
:101D20008242D6D10C221A60D3E7721CD6D0002E84
:101D300008D10423626C4034134363600023032002
:101D40002370C6E7FFF780FEC01BB042C5D9F0E79D
:101D50002022616C0A4362640122A16C0A43A264DE
:101D6000DCE7C046FEFEFFFF0368186C7047704753
:101D7000704770470422036870B519680400114267
:101D800002D05968114206D108221968114228D0A0
:101D90005968114225D0626CD20604D48022616C4D
:101DA00092000A436264C022D9681201114212D122
:101DB000226A002A0FD11A6812070CD59A685207B6
:101DC0003CD40C215A688A435A60636C204A1A40FA
:101DD0000123134363642000FFF7C9FF0C2223682B
:101DE0001A60802523681A682A420CD05B682B424F
:101DF00009D08023626C5B02134363642000FFF709
:101E0000B7FF23681D60102223681968114214D09F
:101E10005968114211D0626B012A02D0DA68D207E8
:101E200008D50222A16C20000A43A26410221A6085
:101E3000FFF79FFF102223681A6070BD2023626C99
:101E4000134363640123A26C1343A364C3E7C04636
:101E5000FEFEFFFFF7B50022040001924034227815
:101E600003000220012A2BD001221D689E6BA86866
:101E7000227040075AD40B682F481F0084464868D8
:101E80009A40103F60453BD0A86A10438022A86268
:101E9000520596420FD0013E062E0CD98A680721C2
:101EA00068690840824206D068690A4088436861D0
:101EB000686902436A61022F03D90020002323705E
:101EC000FEBD1E4A80201168102B15D0112B15D194
:101ED000C00301431160102BEFD1194B1949186849
:101EE000FEF702F90A2358430190019B002BE4D02E
:101EF000019B013B0193F8E70004EAE74004E8E7AF
:101F0000A96A9143A962022FD7D80C4A1168102BF5
:101F10000AD0113B581E83410B485B4203400B48DB
:101F20001B180B401360C8E7094BFAE72021586CD7
:101F3000014359641000C1E7011000000827014067
:101F40000000002040420F00000040FFFFFFBFFFE5
:101F5000FFFF7FFFF0B50B6887B00393002301916B
:101F6000039ADA4001D107B0F0BD01229A400292F3
:101F70000299039A0A40009200D188E0019A102148
:101F8000526816008E43022E0ED107251D40AD006B
:101F90000139A940DC08A4000419276A8F4301997C
:101FA0000969A9400F43276203245F00BC40E44352
:101FB0000568013E2540AC4603251540BD406146FD
:101FC0000D430560012E0FD801998668CD68264023
:101FD000BD40354385604668029915098E4301214D
:101FE0000D409D4035434560C56801992C408D6882
:101FF0008021BD4049052C43C4600A4247D00121DD
:10200000244C0326A5691E400D43A561A4699D08C3
:102010000C400594059C0F241F49AD00B6006D18B7
:10202000B4409021AF68C905A7430024884208D076
:102030001A490134884204D019490434884200D135
:10204000033CB44000993C430E00AC60154CCD43BA
:1020500027683E43D10301D43E002E4026606768C6
:10206000009E3E43910301D43E002E406660A76867
:10207000009E3E43D10201D43E002E40A660E66899
:10208000009F3743920201D42E403700E7600133AE
:1020900066E7C0460010024000000140000400480E
:1020A0000008004800040140002A01D08161704707
:1020B0008162FCE7436959404161704730B5FF25B3
:1020C00003242A00C3B21C40E400A2408901294035
:1020D000D243A14000280BDA0F200340083B0A48F6
:1020E0009B089B001B18D86902401143D96130BD81
:1020F000064B80088000C018C0239B00C4582240B3
:102100001143C150F3E7C04600ED00E000E100E0FC
:102110001F2318401E3B8340014A13607047C0468E
:1021200000E100E0094A431E012093420DD8C0217E
:10213000074A08485360036A09061B021B0A0B433F
:10214000036200200723906013607047FFFFFF00C9
:1021500010E000E000ED00E0054B1A68042802D111
:1021600010431860704704218A431A60FAE7C0469A
:1021700010E000E0704710B5FFF7FCFF10BD30B570
:10218000040002223C34257803001000012D17D0F2
:102190001D001B683D352A705A686E3082435A60B4
:1021A0005A6808684968024380205A609A688243E6
:1021B0009A609A6800200A439A6001232B7020706D
:1021C00030BD0000F7B50126802734000368BF004A
:1021D000D8594D6A009028020190009D31484A6903
:1021E000054028009440019D284330438726E5435D
:1021F000D851B600985928409851C869002835D15F
:10220000103E9859D20028409851C8684E68000482
:10221000B6B2304390269A18B600905188680E687E
:102220000004B6B230439126B600905181228869ED
:10223000920000282FD1985828409850852208698C
:10224000920000282AD1985805409D500A6A012A18
:1022500004D1872189005A5814435C508021012001
:1022600089005A5882435A500020FEBD0128DDD112
:102270008326B6009859D2002043985108684E68CA
:102280000004B6B2304390269A18B6009051886880
:10229000CE680004C5E798582043CEE798582043FD
:1022A0009850D3E7FFC0FFFF70477047F7B500298C
:1022B00061D1436BD82602680C01151901940424DE
:1022C0007600AF5927409F6057D1AF597F0D1F60EF
:1022D000DA270F24AE597F00B607F60FDE60EE59FD
:1022E000ED5926402D0A0C01EDB21419DD612500CF
:1022F000B935FF351E612E68BD341E752E68FF345A
:10230000360A5E752E681962360C9E752D682D0E84
:10231000DD7525681D7625682D0A5D7625682D0CEE
:102320009D762468240EDC762023002929D1D468E8
:1023300023430A24D3605369A343536103003D330D
:102340001A78222A02D01A78322A04D10468194D48
:1023500062692A4062611A78D2B200291BD1622ACE
:1023600015D0722A15D0422A21D1303A1A70FFF7BF
:102370009CFF0020FEBD836B9CE7AF59FF085F60A8
:10238000A6E714692343136153695024D4E732222A
:10239000ECE75222EAE7622A05D0722A05D0522AD7
:1023A00005D1403AE2E72222E0E74222DEE70122BD
:1023B000DCE7C046FF70FFFF704700001022036893
:1023C00070B5D96804000025114205D05969090784
:1023D00002D58025DA60AD0010221969114206D0BD
:1023E0005969490603D58021C9000D431A615A690C
:1023F000D2073AD59A6864490A408A4209D09A6855
:1024000062490A408A4204D09A6861490A408A4275
:102410002BD19A68920706D49A68920503D49A68D9
:10242000920300D492E001215A698A435A61220042
:102430003D321178122903D159695648014059613A
:102440001378DBB2522B00D17AE0722B00D179E005
:10245000422B00D078E0203B13702000FFF724FFD0
:1024600022684D4B91680B43936023685A69920729
:1024700006D5DB689B0703D000212000FFF716FF7D
:1024800023685A69D20606D51B699B0703D0012130
:102490002000FFF70BFF0122236C1D4323682564F6
:1024A0009969114208D05969C90505D559690904C6
:1024B00002D5216C0A43226402229969114208D094
:1024C0005969890505D55969090402D5216C0A4362
:1024D000226404229969114208D05969490505D539
:1024E0005969090402D5216C0A43226470219A6952
:1024F0000A4212D05A6912050FD55A6912040CD536
:102500009A690A40302A35D024D8102A2AD0202AA5
:102510002DD070219A698A439A61226C002A0ED0CC
:102520000422596820000A435A60220001213D32EA
:1025300011705A6919490A405A61FFF73DFF70BD91
:10254000322389E7622387E7012385E780231B0184
:102550001D4385E7502A10D0602A11D0402AD8D1D7
:10256000216C01E00822216C0A432264D1E7216C2E
:102570001022F9E7216C2022F6E7216C8022F3E794
:102580008022216C5200EFE70100000400010008E6
:1025900000000110FF70FFFF19050100A470FFFF8C
:1025A0000122036A70B593430362036A4468856934
:1025B000723295430A681543022293438A68134393
:1025C000114A904205D0114EB04202D0104EB04296
:1025D00013D10826B343CE6833430426B343904255
:1025E00005D00A4A904202D0094A904205D1094AD0
:1025F0008E6922404C69344314434A6844608561C3
:102600004263036270BDC046002C0140004401409B
:1026100000480140FFFCFFFF70B57325036A164AAE
:1026200013400362036A4268C469AC430D682C43DB
:10263000124D2B408D682D022B43114DA8420ED117
:10264000104D1D40CB681B022B430F4D2B400F4DEF
:102650004E6915408A69324312012A4305E00C4D48
:10266000A842F4D00B4DA842F1D042604A68C46140
:10267000C263036270BDC046FFFEFFFFFFFDFFFFA8
:10268000002C0140FFF7FFFFFFFBFFFFFFCFFFFF25
:102690000044014000480140036A124A30B513402B
:1026A0000362026A104C4368C56925400C68240225
:1026B00025430E4C22408C68240322430C4CA0423C
:1026C00005D00C4CA04202D00B4CA04204D10B4CC4
:1026D00023404C69A401234343604B68C5610364F4
:1026E000026230BDFFEFFFFFFF8CFFFFFFDFFFFF48
:1026F000002C01400044014000480140FFBFFFFFA3
:10270000704700001D4A10B50368904206D080242F
:10271000E405A04202D01A4CA0420CD17024A3437D
:102720004C68234390420FD08024E405A0420BD094
:10273000134CA04208D0134CA04205D0124CA0422A
:1027400002D0124CA04203D1114C2340CC68234349
:102750008024A3434C69234303608B68C3620B68E6
:102760008362904205D0084B984202D0074B9842B2
:1027700001D10B6903630123436110BD002C0140AB
:102780000004004000200040004401400048014097
:10279000FFFCFFFF70B504000120002C14D02500C1
:1027A0003D352B78DBB2002B05D122003C32137073
:1027B0002000FDF745FF022320682B70211DFFF745
:1027C000A1FF012300202B7070BD70B50400012013
:1027D000002C14D025003D352B78DBB2002B05D121
:1027E00022003C3213702000FFF78AFF022320688A
:1027F0002B70211DFFF786FF012300202B7070BD79
:102800001022036A70B593430362026A154D436850
:1028100084692C400D682D022C432025AA438D6825
:102820002D012A43104DA8420FD18025AA4315003F
:10283000CA6812012A434025AA430C4D4E691D4027
:102840008B6933439B002B4305E0094DA842F4D02C
:10285000084DA842F1D043604B68846183630262F3
:1028600070BDC046FF8CFFFF002C0140FFF3FFFF4F
:102870000044014000480140F8B5060002233C3600
:102880000D00317804001800012925D0270001210E
:102890003D3731703B700C2A1AD81000FDF710FC40
:1028A000071818181D1818182F1818184100290093
:1028B0002068FFF775FE0822236899690A430421FE
:1028C0009A619A698A439A619A6929690A439A6165
:1028D000012300203B703070F8BD29002068FFF70D
:1028E0008FFF80222368120199690A439A619A69CD
:1028F00015490A409A612A6999691202E6E7290096
:102900002068FFF789FE08222368D9690A43042159
:10291000DA61DA698A43DA61DA6929690A43DA61D4
:10292000D6E729002068FFF7B7FE8022236812014E
:10293000D9690A43DA61DA6903490A40DA612A6926
:10294000D9691202EAE7C046FFFBFFFF30B5846891
:10295000034D0A431B022C4013432343836030BDC5
:10296000FF00FFFFF8B5050002233C352A7804007C
:102970001800012A19D02600012720683D362F7043
:10298000337083684F4A134083600B68402B00D13B
:102990006FE016D8102B00D187E007D8002B00D1AC
:1029A0007DE00123002033702870F8BD202B00D17A
:1029B00081E0302BF5D17022836893431A003723CE
:1029C00055E0702B33D01BD8502B3BD0602BE8D177
:1029D00010244B68CA68016A3B4FA14301628469B5
:1029E00012033C402243A024016A82617022A14369
:1029F0001B010B430362836893431A00672336E08D
:102A00008022520193420DD0802292019342C8D17C
:102A1000CB684A688968FFF799FF80232268DB0149
:102A200091680CE00722836893438360B9E7CB6821
:102A30004A688968FFF78AFF7721226893680B4309
:102A40009360AEE74A68CB68016A046A1B01BC4325
:102A5000F02704628469BC4323430A24A1430A4348
:102A6000836102627022836893431A0057231343E1
:102A7000DBE74A68CB68016A046A1B01BC43F027A4
:102A800004628469BC4323430A24A1430A4383614B
:102A900002627022836893431A004723E7E770229B
:102AA000836893431A000723E1E770228368934306
:102AB0001A001723DBE77022836893431A00272349
:102AC000D5E7C0468800FFFFFF0FFFFF10B50124C8
:102AD0008C408A40036AA3430362036A1A4302627A
:102AE00010BD000010B5040001220068FFF7EEFFE2
:102AF00023680A4A934205D0094A934202D0094A00
:102B0000934204D18022596C12020A435A64012272
:102B1000196800200A431A6010BDC046002C01400D
:102B2000004401400048014010B5FFF7DBFF10BD35
:102B3000F0B5036885B00500DB0733D42B689B072D
:102B400000D58AE02B681B0700D5CAE02B685B071D
:102B500000D5EDE02B68DB061AD56A69BC4C04236E
:102B6000012A00D059E1616B02260B436363636B5A
:102B70001A436263FEF768FF0700636B334200D1BC
:102B800044E1F821626BAB698A43DB001343636362
:102B90002B689B0600D567E1696A002900D0A4E193
:102BA000002018E00C21AA4C62680A40042A0BD0CD
:102BB00063680B40082B10D1C02263685202134097
:102BC00080225202934208D123689B03B6D56B68DA
:102BD000002BB3D1012005B0F0BD6B68012B13D1E0
:102BE000802322685B0213432360FEF72DFF8026BB
:102BF0000700B60223683342A0D1FEF725FFC01BB1
:102C00006428F7D90320E6E7002B16D12368914A00
:102C100080261340236023688F4AB6021340236046
:102C2000FEF712FF07002368334200D186E7FEF764
:102C30000BFFC01B6428F6D9E4E7052B05D18023E0
:102C40002268DB0213432360CAE72368814A1340EA
:102C500023602368804A1340C6E70C227C4C6368DB
:102C600013420BD063681340082B15D1C022636850
:102C7000520213408022120293420DD123689B0717
:102C800002D5EB68012BA5D1F82122682B698A4374
:102C9000DB001343236055E7EA680123002A0FD0C5
:102CA0002268022613432360FEF7CEFE0700236846
:102CB0003342E9D1FEF7C8FEC01B0228F7D9A1E7CD
:102CC000226802269A432260FEF7BEFE07002368B0
:102CD000334200D136E7FEF7B7FEC01B0228F6D913
:102CE00090E7EA6901235A4C002A10D0626A022652
:102CF00013436362FEF7A8FE0700636A334200D005
:102D000024E7FEF7A1FEC01B0228F6D97AE7626A23
:102D100002269A436262FEF797FE0700636A334217
:102D200000D113E7FEF790FEC01B0228F6D969E731
:102D300080220021464C5205E3690091134208D1DC
:102D4000E3691343E361E36913400393039B0123A6
:102D500000938027414E7F0033683B4206D0AB682A
:102D6000012B13D1226A1343236230E033683B43C3
:102D70003360FEF769FE019033683B42EFD1FEF706
:102D800063FE019BC01A6428F6D93BE70122002BA1
:102D900014D1236A022793432362236A03329343A5
:102DA0002362FEF751FE0600236A3B4225D0FEF760
:102DB0004BFE2B4B801B9842F6D923E7052B0BD1FA
:102DC000216A013B0B432362236A1A432262FEF706
:102DD0003BFE022706000DE0236A93430422236290
:102DE000236A9343C0E7FEF72FFE1D4B801B9842DA
:102DF00000D907E7236A3B42F5D0009B012B00D0A6
:102E0000A8E6E369174A1340E361A3E6FEF71CFE58
:102E1000C01B022800D8B0E6F4E6053203D1626B8D
:102E20009A436263ADE6626B022613430122636339
:102E3000636B93436363FEF707FE0700636B3342E4
:102E400000D1A5E6FEF700FEC01B0228F6D9D9E6A0
:102E500000100240FFFFFEFFFFFFFBFF007000407D
:102E600088130000FFFFFFEF0C21464C62680A4008
:102E70008A4209D063680B40082B0ED1C0226368D8
:102E800052021340934208D1636BDB0300D483E604
:102E90002B6A012B00D09DE67EE62B6A002B11D019
:102EA0008026636B760233436363FEF7CDFD070034
:102EB000636B334200D06FE6FEF7C6FDC01B0228ED
:102EC000F6D99FE6636B304A802613406363FEF7B2
:102ED000BBFD07007602636B334200D15CE6FEF770
:102EE000B3FDC01B0228F6D98CE60C22254C636882
:102EF0001340082B00D16DE62368244A1340236059
:102F000002292FD1FEF7A0FD80260700B604236812
:102F1000334221D10F22E36A93432A6B1343E362C6
:102F2000A96AEB6A62680B43194980250A4013437A
:102F30006360802322685B0413432360FEF784FDF3
:102F40000600AD0423682B4200D029E6FEF77CFD85
:102F5000801B0228F6D955E6FEF776FDC01B022835
:102F6000D5D94FE6FEF770FD80250600AD04236835
:102F70002B4200D114E6FEF767FD801B0228F6D92C
:102F800040E6C04600100240FFFFFEFFFFFFFFFECD
:102F9000FF7FC2FF30B51B4C89B01022210068466C
:102FA00001F002FC210004AD10221031280001F0D4
:102FB000FBFB0C20144A53681840082809D00C3831
:102FC00043425841114B40421840114BC01809B0C0
:102FD00030BD0F206C46D26A990C01400240645CFF
:102FE000A95CC0228020520213404002834201D1DA
:102FF000074802E09342FBD10648FDF775F86043AD
:10300000E5E7C046F849000800100240005A620295
:1030100000127A00006CDC02F7B50122504C060069
:103020002368019113408B421FD33268930728D441
:10303000D3072ED40123226801991A408A4200D96D
:103040007EE03368474C5B0700D581E0FFF7A2FFC5
:103050006368454A1B061B0FD35CD840434B18607E
:103060000020FEF7C7FC00200AE023680199934383
:103070000B43236023681340019A9342D5D001206B
:10308000FEBDF02037494B688343B06803434B6073
:10309000CEE77268334D012A1AD12B689B03EED517
:1030A00003216B688B4313436B60FEF7CDFC7368A1
:1030B0000700012B1CD10C226B681340042BB9D0E4
:1030C000FEF7C2FC2A4BC01B9842F4D90320D7E775
:1030D000022A03D12B689B01E2D4D0E7032A03D153
:1030E0006B6BDB03DCD4CAE72B689B07D8D4C6E73D
:1030F000022B0BD10C226B681340082B9AD0FEF7E1
:10310000A3FC1B4BC01B9842F4D9DFE7032B11D063
:103110000C226B68134200D18CE7FEF795FC144B30
:10312000C01B9842F4D9D1E7FEF78EFC104BC01BB0
:103130009842CBD80C226B6813409342F4D179E7C4
:1031400022689A43226022681A4200D179E796E702
:103150006368084A1340F2681343636076E7C04629
:1031600000200240001002401C4A0008000000201D
:1031700088130000FFF8FFFF014B18687047C04636
:103180000000002085239B00C35810B5002B01D1FF
:10319000022010BD1B6898470028FAD0F8E7852365
:1031A00010B59B00C3585B689847002010BD000015
:1031B00082239B0070B5C5180400280000F0A6FA11
:1031C000FA2301225B00E250124BE25A163BE25016
:1031D0001033E15CEA3BFF3B0B40012B0FD0002B8F
:1031E00007D0022B10D07F2320009943FDF74AF926
:1031F00003E02900200000F0F1F8002070BD290054
:10320000200000F0FDF9F8E72900200000F014FA92
:10321000F3E7C0460E02000070B504001500002957
:1032200027D1FA235B00C358032B0FD10530FF30A1
:103230008368C26893420BD99B1A83609A4200D973
:103240001A0092B22900200000F08AFA002070BD16
:1032500085239B00E3581B69002B06D0FE225200F9
:10326000A25C032A01D120009847200000F080FAD8
:10327000ECE785239B00C3589B69002BE6D0FE2218
:103280005200825C032AE1D19847DFE7F8B50D00D0
:1032900004001100002D41D1FA235B00C358022B1A
:1032A0000ED1C269066AB24213D9921BC26192B2B0
:1032B00000F04EFA2B002A0029002000FDF736F915
:1032C00080239B00E25C012A01D10022E25400200D
:1032D000F8BD876931003800FCF742FF0D1E0CD1A4
:1032E000BE420AD8FC267600A3599F4205D20A00A6
:1032F000200000F02DFAA551DCE785239B00E35860
:10330000DB68002B06D0FE225200A25C032A01D10A
:1033100020009847200000F037FAD1E785239B0072
:10332000C3585B69002BD2D0FE225200825C032A74
:10333000CDD129009847CAE7002270B504001100DA
:103340004023FDF78DF823004025FC335D6100220A
:103350002B0080212000FDF783F8FE2301225B0073
:103360002562E2541C33E358002B07D06368200029
:10337000D9B285239B00E3585B689847002070BD55
:10338000017400207047FE23FE225B00C15CFF3207
:103390008154FA3AFF3AC25400207047FE23FF33AB
:1033A000C25C013BC25400207047FE2310B55B0095
:1033B000C35C032B06D185239B00C358DB69002B1C
:1033C00000D09847002010BD10B504008021FDF703
:1033D00059F800212000FDF755F810BD73B5040021
:1033E00048780D00092800D97EE0FCF773FED40070
:1033F000F5007D00E7007D0072000A007D00C3003B
:1034000095004B88180A013806286DD8FCF758FE3D
:10341000041F2E6C6C4A550084236A469B00E358B7
:10342000207C1B68911D98476B469E1D31880029A2
:1034300070D0EA88002A6DD00B1C914200D9131C71
:1034400001009AB23380200000F074F962E0852315
:10345000227C9B00E358002A06D19B6A6A46901D95
:10346000984702234370DFE7DB6AF7E7D8B2052805
:103470003AD884229200237CA258FCF721FE03094B
:103480000B0D0F1152686946180006319047CBE7C3
:103490009268F8E7D268F6E71269F4E75269F2E752
:1034A0009269F0E7237C002B1ED185236A469B009E
:1034B000E358901D5B6B9847B6E7237C002B13D134
:1034C00085236A469B00E358901D1B6B9847072392
:1034D000C8E78B88002B07D1CB88002B04D1FE26B0
:1034E0007600A35D032B03D12000FFF76DFF11E0F1
:1034F0007F234D8820001D408033FF33E554290091
:10350000FCF7F4FF200000F033F90223002D00D176
:103510000123A355002076BD8978384D29700129F3
:10352000E2D8FE235B00E25C022A0DD0032ADBD145
:10353000002915D102222000E2546160FFF72FFE1E
:10354000200000F015F9E5E70029F9D00121032258
:103550006160E2542000FFF715FE0228F0D1C3E7B6
:1035600061680129ECD0C9B22000FFF718FE297864
:103570006160EFE7CA88012AB6D1FE235B00E35CF5
:10358000022B03D0032BAFD1211D5CE700232100C8
:10359000A360083157E7FE235B00E35C023B012B8D
:1035A000A2D80123E36081239B00E358002B01D0C4
:1035B0000323E360210002220C3144E74B88012BF6
:1035C000A8D181229200A35085239B00E3582900B3
:1035D0009B6820009847B3E7FE235B00E35C023B57
:1035E000012B00D980E74B88012B00D092E7812383
:1035F00000229B00E2501033E8E7C046800500201F
:10360000FE2370B55B00C35C04000D00032B0FD1DB
:103610000B79012B0CD885239B00C3589B689847D6
:10362000EB88002B02D1200000F0A2F8002070BD32
:103630002000FFF7C9FEF9E760220B7870B5134050
:1036400004000D00202B06D1F533FF33C3589B68CF
:103650009847002070BD8A886B78D1B2012B20D0AA
:10366000002B2DD0032BF4D1FA33FF33C35C022B94
:1036700041D0032B03D02000FFF7A6FEE9E76B88BB
:10368000002B03D14B0601D0FCF7FCFE85239B00E9
:10369000E35829009B6820009847200000F068F854
:1036A000D7E7FE235B00C35C022B24D0032BE2D1BF
:1036B0006B88002BCDD14B06EFD0FCF7F3FEE5E78E
:1036C000FE235B00C35C022B15D0032BD3D17F25D7
:1036D0000D402D01130614D5143520006519FCF793
:1036E000F1FE002810D001232B60022229002000C7
:1036F00000F020F8ADE74B06ABD02000FCF7C2FE8F
:10370000A7E70535FF35E8E72860EEE70B7803709B
:103710004B784370CA788B7812029B1843804A79A1
:103720000B7912029B188380CA798B7912029B183D
:10373000C38070471300FA2210B50224520084504F
:103740000A008361C3610021FCF7E0FE002010BD88
:1037500010B513000A000021FCF7D8FE002010BDB0
:1037600010B513000A000021FCF7E0FE002010BD98
:10377000FA2304225B0010B5C25000231A0019007E
:10378000FCF7C4FE002010BDFA2305225B0010B533
:10379000C25000231A001900FCF7C8FE002010BD1B
:1037A0001348854613480168090E134A914205D112
:1037B000124813490160134813490160002103E0D6
:1037C000124B5B58435004311148124B42189A4235
:1037D000F6D3114A02E00023136004320F4B9A42E1
:1037E000F9D3FCF761FF00F0BBFF00F06BF9FEE7D7
:1037F00000180020040000001F0000001810024004
:10380000010000000000014000000000644B0008BF
:103810000000002030040020300400208008002038
:10382000FEE70000044B10B51B68996B034B18684A
:10383000FDF790F910BDC046140600205406002084
:10384000054B10B5C318054805495843FCF792FCD1
:10385000044BC01880B210BD7EFDFFFF4AFCFFFF85
:103860009E0A00009E07000010B50D4B026886B04E
:1038700004009A4211D1802301937E3B0293902051
:10388000002301A903930493C00501330593FEF7B8
:1038900061FB04212000FFF747F906B010BDC046C8
:1038A00000040040382330B599B00B93373B139395
:1038B00010931293C0235B0210220024022515935B
:1038C00005230BA81192179314951694FFF730F95E
:1038D0000723210001A80193029503940494FFF7A4
:1038E0009BFBC0239B020593802305A89B000693A6
:1038F0000A94FDF7E9FFFFF73FFCFA218900FCF786
:10390000F3FBFEF70FFC0420FEF726FC012022004B
:1039100021004042FEF7D2FB19B030BD1FB5114C5B
:10392000114B012223600421002320006360A36067
:10393000E36022616161A361E36123626262E36229
:1039400023636263FEF7E2F80823019380235B019F
:103950000293802301A95B0520000393FEF77AFA06
:103960001FBDC046840500200024014030B5164B21
:10397000164C0025236010236360154B8FB0200088
:10398000E360A5602561FEF705FF802303A95B01C5
:1039900020000393FEF7E6FF2000FEF716FF01A9C3
:1039A000200001950295FEF7EAFB6023042207A997
:1039B00020000793089509950B95FEF75DFF200001
:1039C000FFF752FF0FB030BD000400401406002086
:1039D000204E00008021F0B5314C090362698BB0A4
:1039E0000A436261636900250B4080210193019BBA
:1039F0006269C9030A436261636903260B4002934B
:103A0000029BE02305A91B0226480593069607950D
:103A1000FEF7A0FA244B05A92448059306960795BE
:103A2000FEF798FA9020224B05A9C005059306964B
:103A30000795FEF78FFA06961E4E1F4B05A930001C
:103A400005930795FEF786FA802163691B4A890270
:103A50001340636163691A4A012713406361626915
:103A600030000A43626163690B4080210393039B2A
:103A70006269C9020A436261636918240B400493B6
:103A800005A9049B0594069707950895FEF762FA29
:103A90003A0021003000FEF707FB0BB0F0BDC04636
:103AA000001002400008004803080000001400480D
:103AB0007F87000000040048E6FC0000FFFFF7FFDE
:103AC000FFFFBFFF002370B5224A234C94B0137050
:103AD0002370FDF7A1FFFFF7E5FEFFF77BFFFFF780
:103AE0001DFFFFF743FFE1211C4D89002A006846B6
:103AF000FCF7C2FF6A46E121194B89001A6068464B
:103B00002A00FA25FDF704F86D00FDF77DF823780B
:103B1000002B10D1134E3000FEF79CF80521300029
:103B2000FEF7C4F83000FEF71FF980B2FFF788FEF9
:103B30000D4B1B689863FDF787FF2900FCF710FB0E
:103B4000002903D108310948FEF7B4FA0120FDF736
:103B500081FFDAE781050020820500202538000872
:103B600054060020840500201406002000040048AC
:103B700003685A0004D5802212061343C018704708
:103B80005B005B08FAE7F0B587B0049015000E1EE5
:103B900028D000274B1E02930193019BFB18DC0FDA
:103BA000E4186410E3000593049BE2009E183000C3
:103BB000FFF7DEFF029B0390A34216D00598049BFB
:103BC00008301818FFF7D4FF039BAB4204D9A74273
:103BD00007D0631E0193E0E70138A84202D2671CB8
:103BE000DBE70026300007B0F0BD039BAB42EED808
:103BF000F8E7000003000648012B07D00548022B18
:103C000004D05A42534104485B4218407047C046B2
:103C1000134200081D42000809420008214B37B535
:103C200004008D1E002B09D001A9280000E000BF70
:103C3000002808D100232361093313E01A481B4BE5
:103C40001B1ADB1001932A000199FFF79CFF051E48
:103C5000F0D0FFF78DFF6B68A064012B04D1002327
:103C60002361053318003EBD281D002B0FDA012308
:103C7000E064E06C23650368002B0DDA1801000F87
:103C8000FFF7B8FF002320619842EBD1D4E7FFF79C
:103C90006FFF0023E064ECE7FFF76AFF0023206179
:103CA000E0E7C04600000000304A0008584B00081A
:103CB000036810B50400DA0704D448309B0719D50F
:103CC000FCF7C8FA23685B0703D42000D030FCF768
:103CD000C5FA23681B0704D420005130FF30FCF7DD
:103CE000C1FA2368DB0604D42000D130FF30FCF792
:103CF000BDFA10BDFCF7AAFAE4E70368002B00D078
:103D00001B1818007047704770B505000C00216C37
:103D10002800FFF783FF061E01D000F0F7FC236C9C
:103D200022006B61290001202B6998470828EED0FA
:103D30000728F2D13000216CFFF7E5FF201DFCF7CA
:103D40006FFA0000F0B52B4CC368A5440493836957
:103D5000060015000431402207A8059300F024FD59
:103D6000002306AC06930293216C3000FFF756FF48
:103D70006B1E9D4107000390093500282FD1F022CA
:103D8000236C5200736121007EA800F00DFD3369A1
:103D90007EAA3100280098478C9B02906364059BA3
:103DA000290001930094330032000120049DA847AC
:103DB000002818D1002F18D1F0227EA9520020002F
:103DC00000F0F2FC029B3D00082BCDD0072B0AD15E
:103DD0003800216CFFF797FF07A8FCF721FA1023A2
:103DE0001D43A36BDAE7092303930398F7239B0092
:103DF0009D44F0BD24FCFFFF70B5CB6BF8B00B64A5
:103E000004000D004022043101A800F0CDFC012384
:103E10005B42009310992000FFF700FF00280FD1AC
:103E20006A4621002369984706000828F2D06846B0
:103E3000FFF73EFF062E03D129002000FFF764FFA5
:103E4000092078B070BD10B58261DA6BC1601A6468
:103E500019000022FFF776FF10BD70B54369C668F0
:103E600005000C000B64002E04D00122FFF76AFF4E
:103E700000F04CFC0A002B6901000220984707283B
:103E800005D00828F4D121002800FFF73DFF3000BD
:103E9000216CFFF738FF201DFCF7C2F9C36810B58D
:103EA000002B02D1FFF7A8FF10BDCB6B00220B64E3
:103EB000FFF748FFF8E710B50400042905D808000B
:103EC000FCF7FEF8051103111100022010BD0220BD
:103ED000002BFBD10F2AF9D88240A2185168029A10
:103EE00018001160F2E70120F0E71FB503AB009363
:103EF00000230A001900FFF7DEFF039805B000BD9C
:103F000010B50400042905D80800FCF7D9F80511FC
:103F100003111100022010BD0220002BFBD10F2A3B
:103F2000F9D882400299A218096818005160F2E796
:103F30000120F0E71FB503AB0093002303920A00B2
:103F40001900FFF7DDFF05B000BD000070B5184C8B
:103F5000D36BA544136404000D0017A8111D402263
:103F600000F022FC01235B42169326996846FFF776
:103F700055FE002813D10C2116A86A46FFF7DAFF78
:103F8000290016A8A047002809D1049B16AA694653
:103F9000083098470600052802D00928E5D10926EF
:103FA00016A8FFF785FE30008E239B009D4470BD50
:103FB000C8FDFFFFF0B58DB00C000793032103008F
:103FC0000B400193E36C0690079816001F1D09AA89
:103FD0001B685760002823D11B0209931181019BA4
:103FE000022B00D1A76B0122236D134000D105E104
:103FF0000023059309A9300000F04AFA002800D0F8
:10400000AAE0059B0820002B72D00F213000FFF79B
:104010006CFF0E2102003000FFF78CFF794A21E08F
:10402000190C1B04099302235172C9B299401372EF
:104030007F18D4E73B883D1D02937B88049368E09A
:10404000019B2F1D002B57D0002A55D02800FFF7C9
:104050008FFDA7630500200000E000BF002800D10D
:104060007AE02A000F213FE00199002928D1002A97
:1040700040D02A68D70F6A68911C00D16CE02100FB
:1040800058310891013219D0281DFFF736FE3A0049
:10409000010008AB200000E000BF071E2AD00D2160
:1040A0003000FFF722FF089B2062022F02D1E3625B
:1040B00023002C336362A562062019E01F00EEE79F
:1040C0000D213000276AFFF710FF874212D1A36A43
:1040D0009D420FD12800FFF74BFD0F210200300059
:1040E000FFF728FF220000213000FFF723FF072001
:1040F0000DB0F0BD08352F003B680293002B00D1B6
:1041000078E7079B022B00D094E73D007B680835D9
:104110000493039B049F0F219F43A36C3000FF185F
:10412000FFF7E3FE0022874206D8029A039B9A43D8
:10413000D719B84280414242049B03995F00022391
:104140001F40029B0B403B43012B00D18CE7002B0F
:1041500000D175E7022B01D00920C9E72B68580070
:1041600043080293019B002B2BD1002A20D0069BF1
:104170001B0709D5029B002B1AD10D213000FFF738
:10418000B4FE089B206295E7019F029B9F42F4D0FA
:1041900023000137B800583328180893FFF7ADFD06
:1041A00008AB01000022200000E000BF0028ECD096
:1041B0002B68002B00DA0435029F0137BF00EF198E
:1041C0009AE70D213000276AFFF78FFE8742EFD173
:1041D000A36A9D42ECD1029B0027A36204232363C0
:1041E000EB18E76263632B68BB4204DA0298013084
:1041F000800028186FE7039B0593D9E70593039286
:104200007AE7C0460000000010B50023FFF7D2FE99
:1042100010BD10B50123FFF7CDFE10BD10B5022370
:10422000FFF7C8FE10BDF0B50400C5B016001D00B4
:10423000042957D80800FBF743FF031B556D97006F
:104240000220002B12D1A36B91B201380200AA40C8
:10425000114204D01F68AA00A21857600433013528
:10426000102DF3D10020B20400D4A36345B0F0BDFB
:1042700004232A009A43012A34D1B3B2370C0193A4
:10428000FE18012D00D095E0102E2BD80F2F29D825
:1042900000260122236813420BD01900200091430D
:1042A00021604830052D1FD102230B432360FBF70B
:1042B000D3FF002E00D188E004222368134205D0EA
:1042C000200093432360D030FBF7CAFF012D00D0BC
:1042D00083E022A8FBF7BCFF89E0102ED8D9103E5E
:1042E000052DD6D00220C1E7032293432360FBF7BC
:1042F000AFFFDEE703681350043086E00F2F02D8CB
:1043000022A8FBF7A7FF002E00D1A4E002A8FBF72C
:10431000A5FFA0E0032BE5D1150C96B2AB19102B2D
:10432000E0D808222368134206D02000934351307E
:104330002360FF30FBF798FF22A8FBF795FFA36BE4
:1043400076001A003100ED00ED1A22A84519013956
:1043500006D2B6009E19A66322A8FBF783FF7AE077
:104360001068A8500432F2E7002BBBD1102AB9D84C
:1043700010222368134206D020009343D1302360DB
:10438000FF30FBF775FF22AD2800FBF771FF00231C
:104390000121A26B08009840064203D017689800DC
:1043A0002F5004320133042BF4D1A2632800FBF711
:1043B0005DFF50E0202E95D80F2F8ED9019E002E44
:1043C00008D0052D00D177E78CE7012D45D122A833
:1043D000FBF73EFF019B00260BE00F2F04D822A81D
:1043E000FBF73AFF002EF5D002A8FBF739FF1023A8
:1043F000DB1BA16B0A00002B0FDD08005B00FA003D
:1044000001939C46521A22AB9A186346013B9C4684
:1044100000D36FE7019B9B00CA18002E11D03B0010
:10442000102F00D21023103B02A9DB005B181900EB
:10443000F3009C460023D058C85004336345FAD19A
:10444000D218012D00D10432A263012D00D055E70E
:1044500022A8FBF7FBFE002008E70F2FBAD8BEE723
:10446000027A0300002A11D1427AB020002A0CD02F
:10447000013A5A725A68111D126859601A60032273
:104480001A721A68100E12021A607047013AF7E7A2
:10449000F0B5002305000F0087B002933800FFF746
:1044A000DFFF0400B02815D10024029BA3420ED1E7
:1044B00005AE23000E22210000962800FFF7FBFC2A
:1044C000009623000F2221002800FFF719FD20008D
:1044D00007B0F0BD03061BD4FF2386001E4005ABCA
:1044E000009300230D2219002800FFF7E4FC043696
:1044F000059B62060AD59E1B05AB0596009300231B
:104500000D2219002800FFF7FBFCC7E79E19F3E70F
:1045100003000F229343DBB2802B1AD10402380030
:10452000FFF79EFF802604433602B44201D10924DE
:10453000CDE72301039300232405220C1900280052
:10454000FFF771FE0028F2D1039B3342A6D001236E
:10455000A3E7902B0FD10D2603003340B342E6D0E2
:1045600000230F2205AC0240009419002800FFF739
:10457000A2FC0094C3E7A02B0FD1FF2307221B014D
:104580001900824311410A001A40030702D5802313
:10459000DB011A43002319000FE0B02B56D1B128DC
:1045A00012D13800FFF75CFF021EC0D001000F23BC
:1045B0009943C9B20029BAD10B002800FFF733FE96
:1045C000002800D16AE7B2E7B22823D1002305AC66
:1045D0000D22190000942800FFF76DFC3800FFF74A
:1045E0003FFF02267F230340B3408021059A01400C
:1045F000D318002908D1812292009B18F83A05931C
:1046000000940B00FF3A7DE7380005930736FFF76B
:1046100027FFE7E7B3280CD13800FFF721FFF0238D
:1046200002031B0313400F22024001321A430123ED
:10463000B1E7FC230340B42B00D178E707238022A5
:104640001C40013412032243063BA4E7C02B4ED189
:10465000C6280CD13800FFF703FFF02302031B0329
:1046600013400F22024001321A43032393E7C72865
:104670000ED13800FFF7F4FE021E00D157E7030009
:104680000F218B43DBB2002B00D050E70B3994E7AE
:10469000030007229343DBB2C02B07D1A022B13B1A
:1046A0001C400134120322430C3B74E7C8280ED18E
:1046B0003800FFF7D5FE0F2302009A43D2B218400C
:1046C00010321203013002430A3B012175E7C92869
:1046D00000D02CE73800FFF7C3FEF02302031B03D2
:1046E00013400F22024001321A430523EDE7030075
:1046F00007229343DBB2D02B00D018E7144080226E
:10470000013412032243CB3BDFE7000010B5062043
:1047100000F0BCF8012000F061F9C04610B50100BE
:1047200000230022002000F0D3F810BD70B5094B23
:10473000094CE41AA41009D0084AA518AD00ED18D8
:104740002B68013C9847043D002CF9D100F04EF94C
:1047500070BDC046604B0008644B0008FFFFFF3F80
:1047600070B50D4E0D4DAD1BAD1006D00024A3004D
:10477000F35801349847A542F9D100F031F9084EB9
:10478000084DAD1BAD1006D00024A300F358013432
:104790009847A542F9D170BD584B0008584B000806
:1047A000584B0008604B0008F0B50F2A37D90D00B0
:1047B00005430C000300AD0735D11500103D2D0950
:1047C0002E013618103627681F6067685F60A7687B
:1047D0009F60E7681034DF601033B342F3D10F24D9
:1047E00001352D01491914404519032C1DD9002309
:1047F000CE58EE500433E61A032EF9D80323043CB6
:10480000A4080134A4001A402D190919002A05D062
:104810000023CC5CEC5401339342FAD1F0BD050087
:10482000002AF5D1FAE70500F2E72200F8E7C046D2
:1048300070B505000C001F2922D8B7239B00C35870
:10484000002B0ED08A009B181A68002A09D0012A72
:1048500010D0511C10D0002120001960904700207A
:1048600070BD280000F030F822000100280000F0A0
:1048700017F8F5E70020F3E7162303600120EFE7C0
:104880001623036001204042EAE7C04610B5034BFF
:1048900001001868FFF7CCFF10BDC04604000020DF
:1048A000002370B5074C050008001100236000F0DC
:1048B0008DF8431C00D070BD2368002BFBD02B600B
:1048C000F9E7C0467C08002010B500F077F810BD6D
:1048D000F8B5DE469B46314B45461C68A4234E4640
:1048E00057465B00E0B50500E0580E0090460028F2
:1048F0004BD043681F2B0DDC5C1C002D21D10233F3
:104900009B0044601E5000203CBC90469946A24645
:10491000AB46F8BD224B002B3CD0C820400000E045
:1049200000BF002836D0A42200235200A1584360C3
:104930000160A05040328350043283500124002D86
:10494000DDD09A0091468144424688214F467A50F4
:10495000C4225200904680444246873999401268EA
:104960008A460A439446424661461160842249467B
:104970005F4652008F50022DC1D1020055468D3244
:10498000FF3211680D431560B9E720004D30FF304C
:10499000E050AEE701204042B6E7C0462C4A00088E
:1049A00000000000034B10B5002B02D00248FFF7B7
:1049B000B5FE10BD000000002D4700085822012060
:1049C000014B40421A6070477C08002058220120A9
:1049D000014B40421A6070477C080020FEE7C04649
:1049E000F8B5C046F8BC08BC9E467047F8B5C0464E
:0849F000F8BC08BC9E467047AC
:1049F80002030405060708090A0B0C0D0E0F101018
:104A08000102030405060708090A0B0C0D0E0F1016
:104A1800000201020000000000000000010203047F
:084A2800060708090800002040
:104A3000D8BCFF7FB0A9068070BDFF7F01000000D9
:104A400014BEFF7FB0AB0C8008BFFF7F01000000E9
:104A500028C0FF7FAB08B180B8C0FF7FB0B0AA808C
:104A6000F4C0FF7FA80FB18018C1FF7FAA0FB180EB
:104A700072C1FF7FB0B0A88090C1FF7FAB08B1804A
:104A800040C2FF7F010000009CEDFF7FB0B0A88016
:104A9000B0EDFF7F01000000D0EDFF7FB0A80580E2
:104AA00004EEFF7FB0A9188074EEFF7FA80FB180DD
:104AB000BCEEFF7FB0A90E801CEFFF7FB0AB0A8079
:104AC00004F0FF7FB0AA1380A8F0FF7F0100000070
:104AD0004CF1FF7FA907B180D8F1FF7FB0B0A8806B
:104AE0001AF2FF7F0100000020F2FF7FB0B0AA8021
:104AF00054F2FF7FAB76B28000F3FF7FAA3F37808E
:104B000046F3FF7FB0B0A88052F3FF7FB0B0AA8019
:104B10008CF3FF7FB0B0A8809EF3FF7F0100000000
:104B20002CF4FF7FAA0DB2808CF4FF7FB0AB0C8019
:104B3000D8F6FF7FB0B0A880EEF6FF7FAB3F0480D1
:104B400020F9FF7F0100000048F9FF7FB0AB06802D
:084B5000BAFBFF7F0100000029
:084B5800A54900088D030008C7
:044B600065030008E1
:104B640000127A000800002000000000F402002077
:104B74005C030020C40300200000000000000000CB
:104B84000000000000000000000000000000000021
:104B94000000000000000000000000000000000011
:104BA4000000000000000000000000000000000001
:104BB40000000000000000000000000000000000F1
:104BC40000000000000000000000000000000000E1
:104BD40000000000000000000000000000000000D1
:104BE40000000000000000000000000000000000C1
:104BF40000000000000000000000000000000000B1
:104C040000000000000000000000000000000000A0
:104C140001000000000000000E33CDAB34126DE63D
:104C2400ECDE05000B0000000000000000000000A6
:104C34000000000000000000000000000000000070
:104C44000000000000000000000000000000000060
:104C54000000000000000000000000000000000050
:104C64000000000000000000000000000000000040
:04000005080037A117
:00000001FF
