:020000040800F2
:1000000000180020DD300008990500089B05000855
:1000100000000000000000000000000000000000E0
:100020000000000000000000000000005D3100083A
:1000300000000000000000005D3100089D05000880
:100040005D3100085D3100085D3100085D31000858
:100050005D310008D30500085D310008C9050008BE
:100060005D3100085D3100085D3100085D31000838
:10007000A90500085D3100085D3100085D31000808
:100080005D31000800000000000000005D31000844
:10009000000000005D3100085D3100085D3100089E
:1000A000000000005D3100085D3100085D3100088E
:1000B0005D31000800000000B9050008DD050008FA
:1000C00002B4714649084900095C49008E4402BCEB
:1000D0007047C04603B47146490840004900095AB8
:1000E00049008E4403BC7047002934D0012300220C
:1000F00010B488422CD301242407A14204D28142A7
:1001000002D209011B01F8E7E400A14204D28142B6
:1001100002D249005B00F8E7884201D3401A1A4333
:100120004C08A04202D3001B5C0822438C08A0426A
:1001300002D3001B9C082243CC08A04202D3001B20
:10014000DC082243002803D01B0901D00909E3E79A
:10015000101C10BC704701B5002000F00BF802BD68
:100160000029F8D003B5FFF7C1FF0EBC4243891A3E
:100170001847C0467047C046011C343138C9043B9B
:100180009C461D60A646011C20313CC990469946FC
:10019000A246AB46011C0831FCC941680068E5462F
:1001A00000BDC0467047C0467047C0467047C04655
:1001B0007047C0467047C0467047C0467047C0464B
:1001C0007047C0467047C0467047C04601B401A89A
:1001D00001B585B0FFB408A841464A4653465C467F
:1001E00065463EC001A83EC80F98009000230CB49D
:1001F00001A903F057FA109B12B0184701B401A8E7
:1002000001B585B0FFB408A841464A4653465C464E
:1002100065463EC001A83EC80F98009000230CB46C
:1002200001A903F070FA109B12B0184701B401A89D
:1002300001B585B0FFB408A841464A4653465C461E
:1002400065463EC001A83EC80F98009000230CB43C
:1002500001A903F079FA109B12B0184701B401A864
:1002600001B585B0FFB408A841464A4653465C46EE
:1002700065463EC001A83EC80F98009000230CB40C
:1002800001AB03F036FA109B12B0184701B401A875
:1002900001B585B0FFB408A841464A4653465C46BE
:1002A00065463EC001A83EC80F98009000230CB4DC
:1002B00001AA03F0A1FA109B12B0184710B5064C22
:1002C0002378002B07D1054B002B02D0044800E017
:1002D00000BF0123237010BD300400200000000087
:1002E00064420008044B10B5002B03D003490448B6
:1002F00000E000BF10BDC046000000003404002034
:10030000644200080100872310B59B00ED31FF31E6
:10031000C05802F0E9FB10BD1C234B43C318FC334B
:10032000DA69872310B59B00C05802F011FC10BD9C
:100330001C234B43C3189A6B872310B59B00C058EE
:1003400002F040FC10BD872310B59B00C05802F09E
:10035000C8FC10BD70B587240500A4000121005918
:1003600002F0AAFC285902F083FC70BD872310B567
:1003700004009B00C05802F0A2FCA369002B04D02B
:100380000623024A11690B43136110BD00ED00E022
:10039000836910B50400002B06D00621054A1369B5
:1003A0008B43136102F0DCFE87239B00E05802F0D0
:1003B00091FC10BD00ED00E010B514001A00230000
:1003C0008824A400005900F005FC0223032801D86A
:1003D000014B1B5C180010BD9C42000888239B0049
:1003E000C05810B500F0E4FD0223032801D8024BE9
:1003F0001B5C180010BDC0469C42000888239B006F
:10040000C05810B500F01EFE0223032801D8024B8D
:100410001B5C180010BDC0469C42000888239B004E
:10042000C35848B21C22002806DA7F2001404A4304
:100430009B182A33187870474A439B18FF33D87AA1
:10044000F9E7000088239B00C05810B500F0ACFB12
:100450000223032801D8024B1B5C180010BDC046C4
:100460009C42000810B58824A400005900F05AFEF0
:100470000223032801D8024B1B5C180010BDC046A4
:100480009C42000810B58824A400005900F0ECFC40
:100490000223032801D8024B1B5C180010BDC04684
:1004A0009C42000807B501200D4A91690143916102
:1004B0009369002203400430110001934042019BE4
:1004C00001F084FD002202201100404201F07EFD77
:1004D000002201201100404201F078FD07BDC04616
:1004E0000010024010B5114B026886B09A421BD131
:1004F00080200F4A80009169002401439161936933
:1005000001A903400093009B01230A480193023391
:100510000293039401F098FC0C202200210001F0CA
:1005200055FD0C2001F07CFD06B010BD00240140FB
:10053000001002400004004810B5144B026886B059
:100540009A4220D18020124A8004D16900240143BC
:10055000D161D36901A903400093009BC0239B0094
:10056000019302230293013304930A480133059354
:10057000039401F069FC1E202200210001F026FDF9
:100580001E2001F04DFD06B010BDC04600640040C5
:1005900000100240000400487047FEE710B501F06B
:1005A000BFF901F070FD10BD10B5024801F056FB17
:1005B00010BDC046CC04002010B5024801F062FE18
:1005C00010BDC0461805002010B5802001F0F2FCD7
:1005D00010BD10B5012001F0EDFC10BD10B50248B2
:1005E00000F0A4FE10BDC046680500200121114B9B
:1005F00011481A680A431A605A6802405A601A6819
:100600000E4802401A601A680D4802401A605A6883
:100610000C4802400F205A60DA6A8243DA621A6B91
:10062000094802401A635A6B8A435A6300229A604F
:100630007047C046001002400CB8FF08FFFFF6FEEE
:10064000FFFFFBFFFFFFC0FF2CFEFFFF30B51F4C7D
:1006500087B02378062B31D180231D4A9B04D169B2
:1006600001250B43D36180230193002301A919487D
:1006700003930493029501F0E7FB1748FFF75CFF33
:10068000164B1A682A431A605A682A42FCD0022084
:1006900001211A6882431A601148124A00781278C0
:1006A000000412050243104800880243DA611A6808
:1006B000AA431A605A680A40FCD1227000228021A5
:1006C000044801F06BFC07B030BDC0469504002023
:1006D0000010024000040048500400200064004064
:1006E0004C0400204D0400209604002000B508288A
:1006F00032D81B491B4A1C4BFFF7E2FC050B0F15B8
:100700001C21252A2F009F2008800321117004221C
:100710000EE063200880022102E01F2008800421EF
:100720001170032204E013200880032111700222BB
:100730001A7011E00720088010700622F8E70720E1
:1007400008800121E2E70120088007211170F4E709
:10075000022008801070187000BD0120DAE7C04642
:10076000960400204C0400204D04002010B5042005
:10077000FFF7BCFF044B054A1A600022044B1A70B5
:10078000044B06321A7010BD500400200064004073
:10079000940400209504002000230121F0B51A00E4
:1007A0009C461C000D008FB00190059304930793A5
:1007B00006930A910B9308930D930C910393029364
:1007C0008720374E8000375828009840384254D050
:1007D0008127BF00F65906424CD0314ADE00B618D8
:1007E0003C37F259120C501E8241F059002812D1A8
:1007F000099363460792002B03D0029B0693039B49
:100800000493019B04A92748059301F041FC01349E
:10081000E0B20FB0F0BD9127BF00F059F659844601
:100820003700781E87416046000C0BD10993019B6D
:1008300004A91C480792059504970693023401F019
:1008400027FCE5E7002E0BD10993019B04A915486D
:100850000792059506950493033401F019FCD7E738
:100860008C460434E4B20395029101330C2BA7D1DA
:100870000D48CEE70234E4B2F7E76146002904D020
:100880000792029A0692039A0492019A04A95001CF
:1008900005900448099301F0FBFBA0B2B9E7C046FC
:1008A0000064004050040020FFFF0000C02301212D
:1008B000234A5B0070B5D45800230C420CD091330E
:1008C000FF33D4580B000C4206D0A031FF315158F1
:1008D0000522194232D1DB18194A1B019918C0228E
:1008E0000488520064058C500479002C03D0022443
:1008F0008D582C438C500F2482780530224076345A
:10090000FF340A510F4A104C9D1800221B192A600F
:100910001A6004792E68944034432C6004781E6871
:100920009440083234431C600130202AF1D1012365
:100930006132FF32885803438B500022100070BD93
:10094000006400408C650040886500401A4B30B55B
:10095000D968022289072CD0D82149005A58520D53
:100960000280002202715A58920701D501220271B9
:10097000DA210F2449005A58DE25224082705A5845
:10098000AA34120AC270002205306D00FF34595992
:10099000D14001711959D140083201700130202A2B
:1009A000F5D1D9680A43DA60044A1378013B137021
:1009B0000022100030BDC0460064004094040020B6
:1009C000034BD86803231840431E9841C0B27047B8
:1009D00000640040F7B5244E050033780C00002B6E
:1009E00008D1FFF7C3FE0620FFF780FEFFF72EFEBB
:1009F0000123337000261D4BB000C358002B04D0D8
:100A00000136042EF7D12800FEBD290018310191CE
:100A100069428C462A1D6746510014311380CB5120
:100A2000019902328A42F6D1104AAB641550EB6448
:100A30002C802000FFF7B0FE601C80B2FFF7ACFEF8
:100A4000A01C80B20334FFF7A7FEA0B2FFF7A4FEFC
:100A50000122B240064BD117186802431A605A6847
:100A600011435960CFE7C046BA0400209C0400201F
:100A7000C00400201FB56B466A469971022393702B
:100A8000002393800388052168461380FFF70EFF3B
:100A900005B000BD7FB56B461880A8236A469B0150
:100AA0000C0093800125002914D06A460123217887
:100AB00001339171DBB2013200290CD16A462E005C
:100AC000937005216846FFF7F1FE322000F036FFF3
:100AD000002EEAD07FBD0134082BE8D16A460026FB
:100AE0009370EEE7038810B501339BB2816C180058
:100AF000FFF7D0FF10BD038810B502339BB2C16C65
:100B00001800FFF7C7FF10BDF8B5FFF759FF002821
:100B10001AD0224C05212000FFF718FF204E370085
:100B200010373068002809D0228803889A420CD1F7
:100B30002179002909D08369200098470436BE42F4
:100B4000EFD10022174B1A70F8BD591C8A4205D10B
:100B50002179002902D0FFF7C5FFEFE702339A425F
:100B600005D12579002D03D0FFF7C5FFE6E7002565
:100B700033686A009A1892882188914206D1AA1D8A
:100B800092009B185B682000984702E0E178914250
:100B9000F5D001350A2DEBD1D0E7C046AC040020DA
:100BA0009C04002098040020F42210B55200835CBD
:100BB00004000220012B09D00123A354002906D1EF
:100BC000236880314C3319800020A05410BD631D70
:100BD000D977F9E7F7B57F264DB204000E401C2007
:100BE000002D1DDA7043010028316118CB70F42309
:100BF000ED0F0E704D70CA605B00E55C0220012DA8
:100C000000D1ECE00138E054C8782368032814D8F8
:100C10000D78894EAD005D19FFF752FA064E0C496A
:100C200041430931FF31E0E7288830408026B60093
:100C3000064301E0288806402E800E787F4FB500DD
:100C40005D192888BC46384030437D4E30432880AB
:100C50008D7A08780096002D66D101268D88C00017
:100C60000190B5434E7830001E005036002827D042
:100C7000328801989A1810188022D20080180580B6
:100C80000A7892009A181088450603D507406D48E7
:100C9000074317800A786C4992009B181A88114004
:100CA00020224A40009911430A001A8093E02888C4
:100CB0003040C026F600BBE7288830408026F9E7A0
:100CC00037880198DF193818604FC01905800878F7
:100CD0003588C00040195E4D5D1940193E2A1CD967
:100CE0005509D20601D1013DADB25A4AAD021543B4
:100CF00005800A7892009A181088450404D5654644
:100D00002840554D284310800A78544992009B187A
:100D10001A881140C0229201C3E7012655083242C9
:100D200000D0AD19AD02E3E78000181802884C4DE1
:100D3000454F15404B4A2A431D0002800A78503522
:100D40002888D20012188020D218C0001218012062
:100D5000CE888643168080260A782D88D2005219C4
:100D60003A4DD21852190D89F601854315800A783B
:100D7000487892009A18002832D11088304204D066
:100D800065462840344D284310800A782D4892004B
:100D90009A1815886E0603D56646354005431580BA
:100DA00066460A7892009A181588354028431080C4
:100DB0000A782A4892009A1815880540C0208001B8
:100DC0006840009D284310800A7892009B181A887A
:100DD00017402F431F80F42300205B00E054FEBD2A
:100DE00010881D4D304203D06646304028431080A5
:100DF0000A7892009A181088460604D56646304054
:100E0000104E3043108066460A7892009A18108877
:100E10003040054315800A7892009A1810880740E0
:100E20000098074317800A780C4992009B181A888B
:100E30000A40024339E7C0468F89FFFF0F0F0000C9
:100E40008080FFFFC080FFFFBF8FFFFF0404000012
:100E5000060400000080FFFF80C0FFFF8FBFFFFF80
:100E60000F0E00008081FFFF70B504007F2001405D
:100E70006338484320180500FC35EA612B62F422F0
:100E80000023FF306B62520083724172A65C022025
:100E9000012E3BD00138A054286AAA69904201D99A
:100EA000831A10001C224A43A2181500FC352B623D
:100EB000FF32D67C2568537A002E28D12A00503282
:100EC0001288DB009B18354AAA189B183E285DD96A
:100ED000420992B2C00601D1013A92B23048920260
:100EE00002431A801C2359436118FF314B7A2D4A63
:100EF0009B00EB18198800201140C022920151403C
:100F0000294A0A431A80F4235B00E05470BD927AA8
:100F1000002A2FD12A0050321288DB009B18234A66
:100F2000AA189B183E281DD9420992B2C60601D1C3
:100F3000013A92B21A4E920232431A801C234B435A
:100F4000E318FF339A7A5B7A002AB7D0012AC9D115
:100F50002A0050321288DB00EB189B180F4A9B18AE
:100F60001880BFE7420892B2C60701D5013292B29B
:100F70009202E2E7012AE1D12A0050321688DA0013
:100F8000AA180A4B9219D2181080D7E7420892B2D9
:100F9000C00701D5013292B29202A2E70604000016
:100FA0000080FFFF8FBFFFFF8080FFFF0204000073
:100FB000F42330B55B00C25C04000220012A20D07B
:100FC000012248B2E2547E32CD3B0A40FF3B00286A
:100FD00018DA534328331900012361188B70C30FAB
:100FE0000A704B7025681249002A0FD12B88114ACC
:100FF0001A40114B534019432980F42300205B0011
:10100000E05430BD59430931FF31E5E79200AA1899
:101010001388002806DA094803401020434019438A
:101020001180EAE70648034080204001F6E7C04609
:101030008080FFFFBFBFFFFF10100000BF8FFFFFCA
:101040008FBFFFFF70B57F24020048B20C401C2305
:1010500000282FDA634328331900002351188B70BE
:10106000C00FE93348700C70FF33D45C0220012CB0
:101070001FD00138D0544B7808781568184C800080
:10108000002B1BD0281803885E0604D5154E33406C
:10109000154E334303800B7814489B00EB181988D6
:1010A0000840302141400C431C80F42300205B00A9
:1010B000D05470BD59430931FF31CEE72B18188841
:1010C000460404D5074E3040094E304318800B7853
:1010D00008489B00EB1819880840C0218901E1E706
:1010E0008080FFFF0F0F0000C080FFFFBF8FFFFF5A
:1010F00080C0FFFF8FBFFFFF30B580240133E400C5
:1011000000195B0880185B00CB18401A44189942FC
:1011100000D130BD4A780D7812022A432280023174
:10112000F4E70000F8B57F250D401C216943411804
:101130008A630A00CB630126002329320B64013A3B
:1011400056701570F4225200875C04000220B742EA
:1011500037D0A654CA6B496B8A4201D9531A0A0088
:101160001C2169436118CB630B000F0032331B78DD
:10117000206896B22837002B24D18A8D3300896BE2
:10118000FFF7BAFF22681300503319883B78DB0061
:10119000D318504A5B189B181E801C214D436519BB
:1011A00028352B7822689B00D31819884A4A0020DA
:1011B000114030225140494A0A431A80F4235B000F
:1011C000E054F8BD3B7829319F003F5A09787F06EB
:1011D00045D5002937D1010050310988DB005B1863
:1011E0003F4941185B183E2A25D9510989B2D206D8
:1011F00001D1013989B23B4A8902114319801C236C
:101200006B43E3181A8E1C276F43E7193300B96B41
:10121000FFF772FF3B0029331B782168002B4DD16B
:1012200028373B789B00CB181A882F4911402F4A4A
:101230000A431A80B1E7510889B2D20701D50131BA
:1012400089B28902DAE70129D9D102005032128825
:10125000DB00C3189B18224A9B181E80CFE7002989
:1012600020D1010050310988DB005B181949411871
:101270005B183E2A0ED9510989B2D20601D1013933
:1012800089B2184A8902114319801C236B43E31861
:10129000DA8DB8E7510889B2D20701D5013189B298
:1012A0008902F1E70129F0D1020050321288DB00F7
:1012B000C3189B18074A9B181E80E6E7012B00D035
:1012C0006BE728373A7892008B181A880649114044
:1012D000074AADE702040000BF8FFFFF8080FFFFD9
:1012E000060400000080FFFF0F0F0000C080FFFF1A
:1012F00080C0FFFFF0B58025ED0040195C08821822
:1013000026000800571A3D18002E07D1640009195D
:101310001419DB0701D523880B70F0BD2D88013E21
:1013200005702D0A45700230EDE70000F0B5036846
:1013300085B00633DB8F04001BB2002B00DA61E0BE
:1013400023680633DA8F52050AD5DA8F86492000E2
:101350000A40DA87FEF7FEFF00212000FFF724FC99
:101360002268931DD98F490403D5D98F7F48014046
:10137000D987D98F890403D5D98F7D480140D98772
:10138000DB8FDB040FD50421931CDA8F20008A4306
:10139000DA87784ADA87FEF7FBFF23687649063357
:1013A000DA8F0A40DA8723689A1DD18F090512D592
:1013B000D18F724802330140D1870821D88F014371
:1013C000D9870421D88F0143D987D38FDB0402D476
:1013D0002000FEF7CBFF23680633DA8F920506D58F
:1013E000DA8F674920000A40DA87FEF7ACFF2368EE
:1013F0000633DA8FD20503D5DA8F62490A40DA87DD
:1014000005B0F0BD02AB9F1D00233B80206803AAFE
:10141000831DDB8F9BB213801BB2002B00DB8FE799
:101420000F2316881E4000D0BCE0102113881940FD
:101430000388002926D1544A134003800300503307
:101440001A88230028331B78DB00C3189B184F4AE7
:1014500020009B181B88A26B9B059B0D2364D3184F
:10146000A363FEF765FF631DDA7F002ACED0E06B31
:101470000028CBD18022D97F114322684C321180C1
:10148000D877C3E73B803A88120520D50300503354
:101490001A8884235B00E35C2100DB00C3189B18DF
:1014A0003B4AED319B1822001B8809329B059B0D9E
:1014B000FF329361FF319288FFF71CFF22683549A4
:1014C000138820000B401380FEF71CFF9EE73A882C
:1014D00012B2002A9ADA2F4A250013400380030033
:1014E00050331A8884235B00E35C0935DB00C318A2
:1014F0009B18274AFF359B181B889B059B0DAB61EA
:1015000007D0AA882969FFF7F5FE2B69AA699B18FD
:101510002B6100212000FEF7FFFE22681C4913000A
:1015200050331B88E8685118C9183E2813D943095D
:101530009BB2C00601D1013B9BB217489B020343FB
:101540000B801188154B1940C0239B015940144B47
:101550000B4313805AE743089BB2C00701D5013300
:101560009BB29B02ECE7C046FFFBFFFFFFBFFFFF04
:10157000FFDFFFFF00BDFFFFFFEFFFFFFFF7FFFFF4
:10158000FFFDFFFFFFFEFFFF0F8FFFFF02040000C4
:10159000060400008F0F00000080FFFF8FBFFFFFD9
:1015A0008080FFFFB300C11801930B883B803A880D
:1015B00012B2002A3BDA774A050013400B801C2345
:1015C0007343E3181A00FF32D17C5035527A002958
:1015D00073D12988D20052186F49121852181588F1
:1015E000AD05AD0D08D01A00FC331900FE32D289CA
:1015F0002B00C969FFF77EFE1C21080070432018EC
:101600000300FC335A6A52195A62DA69521901927C
:10161000DA611A6A002A03D09B699D4200D37FE0F9
:1016200071436118FF31497A2000FEF775FE802270
:101630003B88134200D1E9E62068B300C3181A883A
:10164000564905000A401C21714361181A800B009D
:1016500032331A7850350A3B002A69D11B782A8820
:10166000DB009B184E4A1B189B181B889B059B0D83
:101670000B6403D08A8D896BFFF73EFD226813004F
:10168000503318881C235E43A619310028310B788B
:10169000DB00D318424A1B189B181A88B36B9205BB
:1016A000920D32649A18F36BB26309782000002B14
:1016B00000D06CE0FEF73CFEA8E6D1009200125A82
:1016C000520420D52A888218521835495218158894
:1016D000AD05AD0D08D01A00FE32128AFC33190098
:1016E0002B00C969FFF706FE1C237343E318FF3381
:1016F0005B7A22689B00D3181A882A4911402A4A2B
:101700000A431A8078E72A88821852182249521808
:101710001588AD05AD0DE7D01A00FE32528ADDE71F
:10172000FF30417A13002000019AFFF79DFB7EE70E
:101730001B78DA009B001B5A5B061CD52B88C3184C
:101740009B18174A9B181B889B059B0D0B6403D0A5
:10175000CA8D896BFFF7D0FC1C237343E318283331
:101760001B7822689B00D3181A880E4911400F4A33
:101770000A431A8082E72B88C3189B18064A9B18D5
:101780001B889B059B0D0B64E6D00A8EE1E7FFF7F3
:10179000C9FC3BE68F0F0000060400000F8FFFFF1F
:1017A000020400000F0F0000C080FFFF80C0FFFF99
:1017B000F0B5036885B00500DB0328D58022002141
:1017C000404C5205E3690091134208D1E369134389
:1017D000E361E36913400393039B01230093802794
:1017E000394E7F0033683B4238D0C022236A9200D2
:1017F0001340364E44D1236A1E406B681E43009B43
:101800002662012B03D1E369314A1340E3612A6860
:10181000D30706D503202B490B6B8343A8680343EA
:101820000B63930606D5102026490B6B8343E868AB
:1018300003430B63930306D5802022490B6B83433C
:10184000686903430B630020530517D540211D4AE7
:10185000136B8B4329690B4313630FE033683B43DE
:10186000336000F065F8019033683B42BDD100F071
:101870005FF8019BC01A6428F6D9032005B0F0BDBB
:1018800069680A409A42B6D08023226A206A110011
:101890005B0203432362236A0E4831400340236204
:1018A0002162D307A7D500F043F807000222236A7C
:1018B0001342A0D100F03CF8074BC01B9842F5D969
:1018C000DBE7C0460010024000700040FFFCFFFF55
:1018D000FFFFFFEFFFFFFEFF8813000010B50400BD
:1018E00001F0E6F8FA218900FEF7FEFB00F0A2FB0A
:1018F000012000222100404200F068FB002010BDC2
:101900001023064A10B5116800200B431360FFF73F
:10191000E5FFFEF7C7FD002010BDC04600200240D5
:10192000024A1368013313607047C04688070020DD
:10193000014B18687047C0468807002037B50190F2
:10194000FFF7F6FF019C0500631C5A1E9341E41843
:10195000FFF7EEFF401BA042FAD337BD002373B55B
:1019600003210193036804009A680A40012A07D101
:101970001968114201D0002076BDDA681204FAD449
:101980009968194A114208D010230120626C134350
:101990006364A36C0343A364EEE7012299680A43DE
:1019A0009A60124B12491868FEF79EFB0190019B4A
:1019B000002B15D1FFF7BCFF0125060023681B682B
:1019C0002B42D8D1FFF7B4FF801B0228F6D9102391
:1019D000626C012013436364A36C2B43A364CBE7C5
:1019E000019B013B0193E2E717000080000000200B
:1019F00040420F00F8B504000120002C7DD0636C3C
:101A0000002B06D122004032A36420001370FEF7A1
:101A100069FD636CDB0600D584E0042223689868C6
:101A2000104000D07EE0626C4149114002220A431E
:101A3000032162649A680A40012A05D1196811429B
:101A40000ED1DA6812040BD41821DA688A43A1682F
:101A50000A43DA60196962688900890811431961CB
:101A6000DA683449256A0A40DA60A2696F03910393
:101A7000E269D2031143626B013A561EB24116036A
:101A8000E268114322690F43022A00D10420226B2D
:101A9000616A52003A4332430243012904D1002DC6
:101AA0002CD1802149020A43C220A16AFF30814221
:101AB00002D0E06A01430A438020D96840051143FF
:101AC000D960A16B814202D0481E062807D807259D
:101AD00058692940A8435861586901435961DB6836
:101AE00015490B40934211D100200322A064636C7E
:101AF00093431A00012313436364F8BD2020656CEF
:101B000028436064A06C0143A164CDE71222636C9A
:101B1000012093431A00102313436364A36C03430F
:101B2000A364EAE71023626C012013436364E4E7D3
:101B3000FDFEFFFF1902FEFFE7FF3F83036870B55C
:101B40009B68040002205B071AD4250040352B78DF
:101B5000012B15D001232B70E369012B11D1636C8C
:101B60000B4A00201A4080235B0013431C2263644D
:101B70002368A06428701A609968183A0A439A602A
:101B800070BD2000FFF7EAFE0028E8D0F8E7C04665
:101B9000FEF0FFFFF8B5456904000E00082D0DD0DA
:101BA00003680120DB680C25034207D02023626C08
:101BB00040341343636000232370F8BDFFF7B8FE81
:101BC000070023681A68154223D08022616C9200B6
:101BD0000A436264C022D9681201114212D1226AFA
:101BE000002A0FD11A6812070CD59A68520723D41D
:101BF0000C215A688A435A60626C144911400122D0
:101C00000A4362640020A2698242D6D10C221A6083
:101C1000D3E7721CD6D0002E08D10423626C403466
:101C200013436360002303202370C6E7FFF780FEA1
:101C3000C01BB042C5D9F0E72022616C0A43626440
:101C40000122A16C0A43A264DCE7C046FEFEFFFF4E
:101C50000368186C70477047704770470422036828
:101C600070B519680400114202D05968114206D1BA
:101C700008221968114228D05968114225D0626C97
:101C8000D20604D48022616C92000A436264C022AE
:101C9000D9681201114212D1226A002A0FD11A68A2
:101CA00012070CD59A6852073CD40C215A688A4313
:101CB0005A60636C204A1A40012313436364200076
:101CC000FFF7C9FF0C2223681A60802523681A6871
:101CD0002A420CD05B682B4209D08023626C5B02E5
:101CE000134363642000FFF7B7FF23681D601022D1
:101CF00023681968114214D05968114211D0626BDF
:101D0000012A02D0DA68D20708D50222A16C20008D
:101D10000A43A26410221A60FFF79FFF1022236873
:101D20001A6070BD2023626C134363640123A26CAC
:101D30001343A364C3E7C046FEFEFFFFF7B50022CE
:101D400004000192403422780300866B0220012AAD
:101D50002AD001221D682270A86840075FD40B6852
:101D600032481F00844648689A40103F60453FD083
:101D7000A86A10438022A862520596420FD0013E05
:101D8000062E0CD98A68072168690840824206D06D
:101D900068690A4088436861686902436A61022F82
:101DA00003D9002000232370FEBD21480568102BB5
:101DB0001BD0190011394A4251414A421D490A407B
:101DC0008021490452182A430260102BE9D11A4B92
:101DD0001A491868FEF788F90A2343430193019BC7
:101DE000002BDED0019B013BF8E780221204EAE7DA
:101DF000A96A9143A962022FD3D80D490868102B14
:101E00000BD0113B5A425A415342C0221204134094
:101E10000B4A9B1803400B60C3E70A4BFAE72021EB
:101E2000586C014359641000BCE7C0460110000023
:101E300008270140000040FF0000002040420F0042
:101E4000FFFFFFFEFFFF7FFFF0B50B6887B0039336
:101E500000230191039ADA4001D107B0F0BD0122BD
:101E60009A4002920299039A0A40009200D188E0B7
:101E7000019A1021526816008E43022E0ED10725BA
:101E80001D40AD000139A940DC08A4000419276AEF
:101E90008F4301990969A9400F43276203245F001A
:101EA000BC40E4430568013E2540AC46032515408F
:101EB000BD4061460D430560012E0FD8019986682B
:101EC000CD682640BD4035438560466802991509B6
:101ED0008E4301210D409D4035434560C568019901
:101EE0002C408D688021BD4049052C43C4600A42C6
:101EF00047D00121244C0326A5691E400D43A5614E
:101F0000A4699D080C400594059C0F241F49AD0051
:101F1000B6006D18B4409021AF68C905A7430024EE
:101F2000884208D01A490134884204D01949013442
:101F3000884200D00334B44000993C430E00AC60AA
:101F4000154CCD4327683E43D10301D43E002E40BB
:101F500026606768009E3E43910301D43E002E40F8
:101F60006660A768009E3E43D10201D43E002E4029
:101F7000A660E668009F3743920201D42E403700E6
:101F8000E760013366E7C0460010024000000140F0
:101F9000000400480008004800040140002A01D065
:101FA000816170478162FCE7436959404161704734
:101FB00070470000044B10B55A69104202D05861B6
:101FC000FFF7F6FF10BDC0460004014030B5FF2505
:101FD00003242A00C3B21C40E400A2408901294026
:101FE000D243A14000280BDA0F200340083B0A48E7
:101FF0009B089B001B18D86902401143D96130BD72
:10200000064B80088000C018C0239B00C4582240A3
:102010001143C150F3E7C04600ED00E000E100E0ED
:102020001F2318401E3B8340014A13607047C0467F
:1020300000E100E0094A431E012093420DD8C0216F
:10204000074A08485360036A09061B021B0A0B4330
:10205000036200200723906013607047FFFFFF00BA
:1020600010E000E000ED00E0054B1A68042802D102
:1020700010431860704704218A431A60FAE7C0468B
:1020800010E000E0704710B5FFF7FCFF10BD000046
:10209000F7B50126802734000368BF00D8594D6A80
:1020A000009028020190009D31484A6905402800AF
:1020B0009440019D284330438726E543D851B6001C
:1020C000985928409851C869002835D1103E985930
:1020D000D20028409851C8684E680004B6B2304318
:1020E00090269A18B600905188680E680004B6B21F
:1020F00030439126B60090518122886992000028D1
:102100002FD19858284098508522086992000028BD
:102110002AD1985805409D500A6A012A04D1872186
:1021200089005A5814435C508021012089005A5874
:1021300082435A500020FEBD0128DDD18326B6001F
:102140009859D2002043985108684E680004B6B2EE
:10215000304390269A18B60090518868CE680004E3
:10216000C5E798582043CEE7985820439850D3E7C6
:10217000FFC0FFFF70477047F7B5002960D1436B80
:10218000D82602680C011519019404247600AF5971
:1021900027409F6056D1AF597F0D1F60DA270F246B
:1021A000AE597F00B607F60FDE60EE59ED592640B6
:1021B0002D0A0C01EDB21419DD612500B935FF358A
:1021C0001E612E68BD341E752E68FF34360A5E759A
:1021D0002E681962360C9E752D682D0EDD752568EA
:1021E0001D7625682D0A5D7625682D0C9D76246860
:1021F000240EDC762023002928D1D46823430A2426
:10220000D3605369A343536103003D331C78222CF0
:1022100002D01C78322C03D15469184D2C405461E3
:102220001A78D2B200291BD1622A15D0722A15D091
:10223000422A21D1303A1A70FFF79DFF0020FEBDDF
:10224000836B9DE7AF59FF085F60A7E714692343DD
:10225000136153695024D5E73222ECE75222EAE7B2
:10226000622A05D0722A05D0522A05D1403AE2E707
:102270002222E0E74222DEE70122DCE7FF70FFFFD7
:10228000704700001022036870B5D968040000256B
:10229000114205D05969090702D58025DA60AD00E1
:1022A00010221969114206D05969490603D58021C7
:1022B000C9000D431A615A69D2073AD59A68644930
:1022C0000A408A4209D09A6862490A408A4204D088
:1022D0009A6861490A408A422BD19A68920706D4CB
:1022E0009A68920503D49A68920300D492E001217F
:1022F0005A698A435A6122003D321178122903D16A
:1023000059695648014059611378DBB2522B00D10C
:102310007AE0722B00D179E0422B00D078E0203BAC
:1023200013702000FFF726FF22684D4B91680B4386
:10233000936023685A69920706D5DB689B0703D030
:1023400000212000FFF718FF23685A69D20606D53E
:102350001B699B0703D001212000FFF70DFF01221D
:10236000236C1D43236825649969114208D059697B
:10237000C90505D55969090402D5216C0A432264AF
:1023800002229969114208D05969890505D5596910
:10239000090402D5216C0A4322640422996911427E
:1023A00008D05969490505D55969090402D5216C38
:1023B0000A43226470219A690A4212D05A691205AE
:1023C0000FD55A6912040CD59A690A40302A35D0C3
:1023D00024D8102A2AD0202A2DD070219A698A4325
:1023E0009A61226C002A0ED00422596820000A4308
:1023F0005A60220001213D3211705A6919490A4080
:102400005A61FFF73DFF70BD322389E7622387E7FA
:10241000012385E780231B011D4385E7502A10D047
:10242000602A11D0402AD8D1216C01E00822216C09
:102430000A432264D1E7216C1022F9E7216C2022A3
:10244000F6E7216C8022F3E78022216C5200EFE74F
:10245000010000040001000800000110FF70FFFFF0
:1024600019050100A470FFFFF0B5036885B00500F1
:10247000DB0733D42B689B0700D58AE02B681B074A
:1024800000D5CAE02B685B0700D5EDE02B68DB06C2
:102490001AD56A69BC4C0423012A00D059E1616B4A
:1024A00002260B436363636B1A436263FFF740FAD0
:1024B0000700636B334200D144E1F821626BAB69E2
:1024C0008A43DB00134363632B689B0600D567E1F7
:1024D000696A002900D0A4E1002018E00C21AA4C70
:1024E00062680A40042A0BD063680B40082B10D1A5
:1024F000C02263685202134080225202934208D1E4
:1025000023689B03B6D56B68002BB3D1012005B0BF
:10251000F0BD6B68012B13D1802322685B0213434B
:102520002360FFF705FA80260700B60223683342CE
:10253000A0D1FFF7FDF9C01B6428F7D90320E6E717
:10254000002B16D12368914A80261340236023680C
:102550008F4AB60213402360FFF7EAF907002368A9
:10256000334200D186E7FFF7E3F9C01B6428F6D9B0
:10257000E4E7052B05D180232268DB0213432360A7
:10258000CAE72368814A134023602368804A1340C6
:10259000C6E70C227C4C636813420BD0636813407F
:1025A000082B15D1C0226368520213408022120208
:1025B00093420DD123689B0702D5EB68012BA5D16F
:1025C000F82122682B698A43DB001343236055E717
:1025D000EA680123002A0FD02268022613432360F1
:1025E000FFF7A6F9070023683342E9D1FFF7A0F906
:1025F000C01B0228F7D9A1E7226802269A4322606D
:10260000FFF796F907002368334200D136E7FFF75A
:102610008FF9C01B0228F6D990E7EA6901235A4CCA
:10262000002A10D0626A022613436362FFF780F922
:102630000700636A334200D024E7FFF779F9C01B33
:102640000228F6D97AE7626A02269A436262FFF7A5
:102650006FF90700636A334200D113E7FFF768F9A7
:10266000C01B0228F6D969E780220021464C52059A
:10267000E3690091134208D1E3691343E361E3691D
:1026800013400393039B012300938027414E7F0057
:1026900033683B4206D0AB68012B13D1226A134347
:1026A000236230E033683B433360FFF741F9019028
:1026B00033683B42EFD1FFF73BF9019BC01A642816
:1026C000F6D93BE70122002B14D1236A022793435A
:1026D0002362236A033293432362FFF729F906003A
:1026E000236A3B4225D0FFF723F92B4B801B9842EE
:1026F000F6D923E7052B0BD1216A013B0B4323625B
:10270000236A1A432262FFF713F9022706000DE03D
:10271000236A934304222362236A9343C0E7FFF7AB
:1027200007F91D4B801B984200D907E7236A3B42FB
:10273000F5D0009B012B00D0A8E6E369174A1340AF
:10274000E361A3E6FFF7F4F8C01B022800D8B0E667
:10275000F4E6053203D1626B9A436263ADE6626BC5
:102760000226134301226363636B93436363FFF7A2
:10277000DFF80700636B334200D1A5E6FFF7D8F816
:10278000C01B0228F6D9D9E600100240FFFFFEFF69
:10279000FFFFFBFF0070004088130000FFFFFFEF0A
:1027A0000C21464C62680A408A4209D063680B409B
:1027B000082B0ED1C022636852021340934208D105
:1027C000636BDB0300D483E62B6A012B00D09DE60C
:1027D0007EE62B6A002B11D08026636B7602334392
:1027E0006363FFF7A5F80700636B334200D06FE621
:1027F000FFF79EF8C01B0228F6D99FE6636B304AAC
:10280000802613406363FFF793F807007602636B3B
:10281000334200D15CE6FFF78BF8C01B0228F6D9E3
:102820008CE60C22254C63681340082B00D16DE622
:102830002368244A1340236002292FD1FFF778F838
:1028400080260700B6042368334221D10F22E36AB1
:1028500093432A6B1343E362A96AEB6A62680B43F2
:10286000194980250A4013436360802322685B0472
:1028700013432360FFF75CF80600AD0423682B4286
:1028800000D029E6FFF754F8801B0228F6D955E658
:10289000FFF74EF8C01B0228D5D94FE6FFF748F8DE
:1028A00080250600AD0423682B4200D114E6FFF713
:1028B0003FF8801B0228F6D940E6C04600100240CF
:1028C000FFFFFEFFFFFFFFFEFF7FC2FF30B51B4C87
:1028D00089B010222100684601F0A2FB210004AD5E
:1028E00010221031280001F09BFB0C20144A536881
:1028F0001840082809D00C3843425841114B404237
:102900001840114BC01809B030BD0F206C46D26A78
:10291000990C01400240645CA95CC02280205202F4
:1029200013404002834201D1074802E09342FBD1A9
:102930000648FDF7D9FB6043E5E7C0467C42000846
:1029400000100240005A620200127A00006CDC02A1
:10295000F7B50122504C06002368019113408B42C9
:102960001FD33268930728D4D3072ED401232268BB
:1029700001991A408A4200D97EE03368474C5B07D0
:1029800000D581E0FFF7A2FF6368454A1B061B0FD5
:10299000D35CD840434B18600020FEF79FFF002017
:1029A0000AE02368019993430B4323602368134093
:1029B000019A9342D5D00120FEBDF02037494B68E3
:1029C0008343B06803434B60CEE77268334D012AFE
:1029D0001AD12B689B03EED503216B688B431343FD
:1029E0006B60FEF7A5FF73680700012B1CD10C225A
:1029F0006B681340042BB9D0FEF79AFF2A4BC01B1B
:102A00009842F4D90320D7E7022A03D12B689B010F
:102A1000E2D4D0E7032A03D16B6BDB03DCD4CAE733
:102A20002B689B07D8D4C6E7022B0BD10C226B680E
:102A30001340082B9AD0FEF77BFF1B4BC01B98421C
:102A4000F4D9DFE7032B11D00C226B68134200D1BD
:102A50008CE7FEF76DFF144BC01B9842F4D9D1E709
:102A6000FEF766FF104BC01B9842CBD80C226B6858
:102A700013409342F4D179E722689A432260226896
:102A80001A4200D179E796E76368084A1340F26872
:102A90001343636076E7C046002002400010024006
:102AA000A04200080000002088130000FFF8FFFF8C
:102AB000014B18687047C0460000002085239B002A
:102AC000C35810B5002B01D1022010BD1B689847D8
:102AD0000028FAD0F8E7852310B59B00C3585B683F
:102AE0009847002010BD000082239B0070B5C518D8
:102AF0000400280000F0A7FAFA2301225B00E2504C
:102B0000124BE25A163BE2501033E15CEA3BFF3BCA
:102B10000B40012B0FD0002B07D0022B10D07F23AE
:102B200020009943FDF75AFC03E02900200000F043
:102B3000F1F8002070BD2900200000F0FDF9F8E751
:102B40002900200000F014FAF3E7C0460E0200004E
:102B500070B504001500002927D1FA235B00C35883
:102B6000032B0FD10530FF308368C26893420BD925
:102B70009B1A83609A4200D91A0092B22900200061
:102B800000F08BFA002070BD85239B00E3581B6981
:102B9000002B06D0FE225200A25C032A01D12000A5
:102BA0009847200000F081FAECE785239B00C3588A
:102BB0009B69002BE6D0FE225200825C032AE1D101
:102BC0009847DFE7F8B50D0004001100002D41D152
:102BD000FA235B00C358022B0ED1C269066AB242C7
:102BE00013D9921BC26192B200F04FFA2B002A0057
:102BF00029002000FDF746FC80239B00E25C012AAF
:102C000001D10022E2540020F8BD8769310038006C
:102C1000FDF7A6FA0D1E0CD1BE420AD8FC2676009E
:102C2000A3599F4205D20A00200000F02EFAA551B8
:102C3000DCE785239B00E358DB68002B06D0FE22EF
:102C40005200A25C032A01D120009847200000F026
:102C500038FAD1E785239B00C3585B69002BD2D09B
:102C6000FE225200825C032ACDD129009847CAE790
:102C7000002270B5040011004023FDF79DFB2300E6
:102C80004025FC335D6100222B0080212000FDF7F0
:102C900093FBFE2301225B002562E2541C33E358C0
:102CA000002B07D063682000D9B285239B00E3582E
:102CB0005B689847002070BD017400207047FE23B8
:102CC000FE225B00C15CFF328154FA3AFF3AC254E3
:102CD00000207047FE23FF33C25C013BC25400203A
:102CE0007047FE2310B55B00C35C032B06D1852320
:102CF0009B00C358DB69002B00D09847002010BD13
:102D000010B504008021FDF769FB00212000FDF7CC
:102D100065FB10BD73B5040048780D00092800D983
:102D20007EE0FDF7D7F9D400F5007D00E7007D00D7
:102D300072000A007D00C30095004B88180A013814
:102D400006286DD8FDF7BCF9041F2E6C6C4A55009F
:102D500084236A469B00E358207C1B68911D98479A
:102D60006B469E1D3188002970D0EA88002A6DD0FC
:102D70000B1C914200D9131C01009AB23380200031
:102D800000F075F962E08523227C9B00E358002A5D
:102D900006D19B6A6A46901D984702234370DFE77D
:102DA000DB6AF7E7D8B205283AD884229200237C60
:102DB000A258FDF785F903090B0D0F1152686946FA
:102DC000180006319047CBE79268F8E7D268F6E73B
:102DD0001269F4E75269F2E79269F0E7237C002B6D
:102DE0001ED185236A469B00E358901D5B6B984774
:102DF000B6E7237C002B13D185236A469B00E3585A
:102E0000901D1B6B98470723C8E78B88002B07D1C1
:102E1000CB88002B04D1FE267600A35D032B03D1C3
:102E20002000FFF76DFF11E07F234D8820001D403B
:102E30008033FF33E5542900FDF704FB200000F048
:102E400034F90223002D00D10123A355002076BDC3
:102E50008978384D29700129E2D8FE235B00E25CB5
:102E6000022A0DD0032ADBD1002915D1022220002D
:102E7000E2546160FFF72FFE200000F016F9E5E74D
:102E80000029F9D0012103226160E2542000FFF7FC
:102E900015FE0228F0D1C3E761680129ECD0C9B260
:102EA0002000FFF718FE29786160EFE7CA88012A41
:102EB000B6D1FE235B00E35C022B03D0032BAFD122
:102EC000211D5CE700232100A360083157E7FE23A2
:102ED0005B00E35C023B012BA2D80123E36081236A
:102EE0009B00E358002B01D00323E3602100022262
:102EF0000C3144E74B88012BA8D181229200A350CA
:102F000085239B00E35829009B6820009847B3E77E
:102F1000FE235B00E35C023B012B00D980E74B887A
:102F2000012B00D092E7812300229B00E250103356
:102F3000E8E7C046C8040020FE2370B55B00C35C10
:102F400004000D00032B0FD10B79012B0CD8852326
:102F50009B00C3589B689847EB88002B02D1200048
:102F600000F0A3F8002070BD2000FFF7C9FEF9E7CC
:102F700070B50D00040060208A882B78D1B2034020
:102F8000202B08D1F533FF33E35829009B6820003C
:102F90009847002070BD6B78012B21D0002B2FD0DB
:102FA000032BF6D1FA33FF33E35C022B42D0032B21
:102FB00003D02000FFF7A4FEEBE76B88002B04D1C1
:102FC0004B0602D02000FDF709FA85239B00E35849
:102FD00029009B6820009847200000F066F8D8E799
:102FE000FE235B00E35C022B24D0032BE1D16B8832
:102FF000002BCED14B06EFD02000FDF7FFF9E4E720
:10300000FE235B00E35C022B14D0032BD1D17F2580
:103010000D402D01130613D514352000FDF7FEF9E0
:10302000431E98416519286002222900200000F003
:103030001EF8AEE74B06ACD02000FDF7CFF9A8E7AD
:103040000535FF35E9E70B7803704B784370CA7894
:103050008B7812029B1843804A790B7912029B18D5
:103060008380CA798B7912029B18C3807047130042
:10307000FA2210B50224520084500A008361C36111
:103080000021FDF7EFF9002010BD10B513000A0074
:103090000021FDF7E7F9002010BD10B513000A006C
:1030A0000021FDF7EFF9002010BDFA2304225B0098
:1030B00010B5C25000231A001900FDF7D3F9002003
:1030C00010BDFA2305225B0010B5C25000231A0080
:1030D0001900FDF7D7F9002010BD00001348854600
:1030E00013480168090E134A914205D11248134949
:1030F0000160134813490160002103E0124B5B5843
:10310000435004311148124B42189A42F6D3114AE7
:1031100002E00023136004320F4B9A42F9D3FDF70B
:1031200065FA00F05BFF00F0F7F8FEE700180020FA
:10313000040000001F000000181002400100000001
:103140000000014000000000C04300080000002013
:10315000300400203004002090070020FEE7704774
:10316000382330B599B00B93373B139310931293D8
:10317000C0235B02102200240225159305230BA80F
:103180001192179314951694FFF76EF907232100F7
:1031900001A80193029503940494FFF7D9FBC0237F
:1031A0009B020593802305A89B0006930A94FEF7D3
:1031B000FFFAFFF77DFCFA218900FCF795FFFEF787
:1031C00039FF0420FEF750FF012022002100404279
:1031D000FEF7FCFE19B030BD1FB5114C114B01229A
:1031E00023600421002320006360A360E360226168
:1031F0006161A361E36123626262E36223636263EC
:10320000FEF7F8FB0823019380235B0102938023E0
:1032100001A95B0520000393FEF790FD1FBDC0468A
:10322000CC040020002401408021F0B5314C09037A
:1032300062698BB00A436261636900250B4080219B
:103240000193019B6269C9030A43626163690326B2
:103250000B400293029BE02305A91B02264805931D
:1032600006960795FEF7F0FD244B05A92448059323
:1032700006960795FEF7E8FD9020224B05A9C005AC
:10328000059306960795FEF7DFFD06961E4E1F4B2B
:1032900005A9300005930795FEF7D6FD80216369E7
:1032A0001B4A89021340636163691A4A012713406C
:1032B0006361626930000A43626163690B40802187
:1032C0000393039B6269C9020A436261636918241C
:1032D0000B40049305A9049B059406970795089550
:1032E000FEF7B2FD3A0021003000FEF757FE0BB0AA
:1032F000F0BDC0460010024000080048030800006E
:10330000001400487F87000000040048E6FC00002D
:10331000FFFFF7FFFFFFBFFF0022F0B5374BBDB047
:103320001A70FEF7EDFAFFF71BFFFFF77DFFFFF7BF
:1033300053FFE521324D89002A006846FDF74AFB1C
:103340006A46E4212F4B14AC1A6089002A00200041
:10335000FDF740FBE7212A0000252B4E8900346051
:1033600028AC2000FDF736FB284F3C60FDF7CCFB76
:10337000FEF7DEFA05210400FCF7F2FE00290ED16B
:10338000234D2800FEF7DAFB05212800FEF702FC9A
:103390002800FEF75DFC1F4D80B24543AD0A642155
:1033A0002000FCF7DDFE00290AD1C7221A4B52008B
:1033B000EB189BB2934212D830680131FDF75AFBEB
:1033C000FA2120008900FCF7CBFE002903D110313F
:1033D0001248FEF7E9FD0120FEF7B0FAC6E7104BF0
:1033E000EB18F82B03D8074B01211868E6E70D4BC3
:1033F000EB18C62BE4D801213868DFE7C9040020A8
:103400005F31000860050020640500205C05002095
:10341000CC040020390300007FF3FFFF00040048C4
:1034200041F5FFFF3BF6FFFF03685A0004D58022F9
:1034300012061343C01870475B005B08FAE7F0B54B
:1034400085B0029015000E1E26D000274B1E01935A
:103450000093009BFB18DC0FE4186410E300039357
:10346000029BE2009E183000FFF7DEFF019BA342A3
:1034700015D0A84204D9A7420DD0631E0093E8E7F7
:103480000398029B08301818FFF7CEFF0138A842B6
:1034900002D2671CDDE70026300005B0F0BDA8426F
:1034A000E9D8F9E7054B012806D0054B022803D0DF
:1034B0000023984200D1034B18007047BB3A000824
:1034C000C53A0008B13A0008214B37B504008D1EFB
:1034D000002B09D001A9280000E000BF002808D176
:1034E00000232361093313E01A481B4B1B1ADB101E
:1034F00001932A000199FFF7A2FF051EF0D0FFF704
:1035000093FF6B68A064012B04D100232361053372
:1035100018003EBD281D002B0FDA0123E064E06C8B
:1035200023650368002B0DDA1801000FFFF7BAFFBF
:10353000002320619842EBD1D4E7FFF775FF002309
:10354000E064ECE7FFF770FF00232061E0E7C0468E
:1035500000000000B4420008B4430008036810B53E
:103560000400DA0704D448309B0719D5FCF71EFE87
:1035700023685B0703D42000D030FCF71BFE2368D0
:103580001B0704D420005130FF30FCF717FE2368DE
:10359000DB0604D42000D130FF30FCF713FE10BD51
:1035A000FCF700FEE4E70368002B00D01B181800AE
:1035B0007047704770B505000C00216C2800FFF7BC
:1035C00083FF061E01D000F0E5FC236C22006B6136
:1035D000290001202B6998470828EED00728F2D14E
:1035E0003000216CFFF7E5FF201DFCF7C5FD000052
:1035F000F0B52B4CC368A5440493836906001500FD
:103600000431402207A8059300F00AFD002306AC10
:1036100006930293216C3000FFF756FF6B1E9D410D
:1036200007000390093500282FD1F022236C5200A7
:10363000736121007EA800F0F3FC33697EAA31009B
:10364000280098478C9B02906364059B2900019396
:103650000094330032000120049DA847002818D1AF
:10366000002F18D1F0227EA95200200000F0D8FCD3
:10367000029B3D00082BCDD0072B0AD13800216CCE
:10368000FFF797FF07A8FCF777FD10231D43A36BF7
:10369000DAE7092303930398F7239B009D44F0BDC9
:1036A00024FCFFFF70B5CB6BF8B00B6404000D0079
:1036B0004022043101A800F0B3FC01235B420093D7
:1036C00010992000FFF700FF00280FD16A46210063
:1036D0002369984706000828F2D06846FFF73EFFA6
:1036E000062E03D129002000FFF764FF092078B0DF
:1036F00070BD10B58261DA6BC1601A6419000022D6
:10370000FFF776FF10BD70B54369C66805000C0071
:103710000B64002E04D00122FFF76AFF00F03AFC90
:103720000A002B69010002209847072805D00828C5
:10373000F4D121002800FFF73DFF3000216CFFF796
:1037400038FF201DFCF718FDC36810B5002B02D10F
:10375000FFF7A8FF10BDCB6B00220B64FFF748FFFB
:10376000F8E710B50400042905D80800FCF7A8FC08
:10377000051103111100022010BD0220002BFBD106
:103780000F2AF9D88240A2185168029A18001160D5
:10379000F2E70120F0E71FB503AB009300230A0016
:1037A0001900FFF7DEFF039805B000BD10B5040057
:1037B000042905D80800FCF783FC0511031111004A
:1037C000022010BD0220002BFBD10F2AF9D8824025
:1037D0000299A218096818005160F2E70120F0E789
:1037E0001FB503AB0093002303920A001900FFF7F3
:1037F000DDFF05B000BD000070B5184CD36BA544CB
:10380000136404000D0017A8111D402200F008FCED
:1038100001235B42169326996846FFF755FE002860
:1038200013D10C2116A86A46FFF7DAFF290016A863
:10383000A047002809D1049B16AA6946083098477A
:103840000600052802D00928E5D1092616A8FFF7A9
:1038500085FE30008E239B009D4470BDC8FDFFFF98
:10386000F0B50C008DB0079303210300E76C0B400B
:1038700006900193079808CF160009AA5760002800
:1038800023D11B0209931181019B022B00D1A76B4D
:103890000122236D134000D105E10023059309A9FE
:1038A000300000F03AFA002800D0AAE0059B08207A
:1038B000002B57D00F213000FFF76DFF0E210200C3
:1038C0003000FFF78DFF794A21E0190C1B040993A2
:1038D00002235172C9B2994013727F18D4E73B8812
:1038E0003D1D02937B88049368E0019B2F1D002BF4
:1038F00057D0002A55D02800FFF796FDA763050092
:10390000200000E000BF002800D17AE02A000F214B
:1039100040E00199002929D1002A40D02A68D70F18
:103920006A68911C00D16CE0210058310891013285
:103930001AD0281DFFF737FE3A00010008AB20001F
:1039400000E000BF071E2AD00D213000FFF723FF43
:10395000089B2062022F02D1E36223002C33062051
:103960006362A5620DB0F0BD1F00EDE70D213000D0
:10397000276AFFF710FF874211D1A36A9D420ED13B
:103980002800FFF751FD0F2102003000FFF728FF4C
:10399000220000213000FFF723FF0720E2E708356F
:1039A0002F003B680293002B00D178E7079B022B86
:1039B00000D094E73D007B6808350493039B049F87
:1039C0000F219F43A36C3000FF18FFF7E4FE002295
:1039D000874206D8029A039B9A43D719B84280417E
:1039E0004242049B03995F0002231F40029B0B404D
:1039F0003B43012B00D18CE7002B00D175E7022B54
:103A000001D00920AEE72B68580043080293019BC0
:103A1000002B2BD1002A20D0069B1B0709D5029B27
:103A2000002B1AD10D213000FFF7B5FE089B206254
:103A300095E7019F029B9F42F4D023000137B80015
:103A4000583328180893FFF7AEFD08AB0100002299
:103A5000200000E000BF0028ECD02B68002B00DA2B
:103A60000435029F0137BF00EF199AE70D2130009E
:103A7000276AFFF790FE8742EFD1A36A9D42ECD1FF
:103A8000029B0027A36204232363EB18E7626363AE
:103A90002B68BB4204DA029801308000281870E7D6
:103AA000039B0593D9E7059303927AE70000000092
:103AB00010B50023FFF7D4FE10BD10B50123FFF7AA
:103AC000CFFE10BD10B50223FFF7CAFE10BDF0B542
:103AD0000400C5B016001D0004295AD80800FCF7E0
:103AE000EFFA031B58AAD1000220002B12D1A36BBE
:103AF00092B2201D0127AF403A4204D080CBBC4691
:103B00006146AF00C1510135102DF3D10020B20440
:103B100000D4A36345B0F0BD93B2170C01932A0003
:103B200004239A43012A34D1019BFE18012D00D0B1
:103B3000CDE0102E2DD80F2F2BD800260122236880
:103B400013420BD019002000914321604830052D0D
:103B500021D102230B432360FCF72AFB002E09D05E
:103B600004222368134205D0200093432360D03001
:103B7000FCF722FB012D14D122A8FCF715FB002E27
:103B800019D1019B002618E0102ED6D9103E052D24
:103B9000D4D00220BEE7032293432360FCF704FB4A
:103BA000DCE70F2F02D822A8FCF702FB002EE8D09A
:103BB00002A8FCF701FB1023DB1BA16B0A00002B02
:103BC0000CDDDB00CA1894460A00F8000193401A85
:103BD00022AB181862451FD1019BCA18002E10D0C5
:103BE0003B00102F00D21023103B02A9DB005B1812
:103BF000F1008C4600215058585004318C45FAD1C0
:103C00006244012D00D10432A263012D08D122A803
:103C1000FCF7C8FA00207DE7136883500432D9E727
:103C20000F2F02D822A8FCF7C1FA002EF2D002A86A
:103C3000FCF7C0FAEEE7032BABD1150C96B2AB192B
:103C4000102BA6D808222368134206D020009343E5
:103C500051302360FF30FCF7B3FA22A8FCF7B0FA2A
:103C6000A36BED00F600ED1A22AA9E1955199E428B
:103C700004D1A66322A8FCF7A1FACBE71A68EA50A0
:103C80000433F4E7002B84D1102A82D81022236851
:103C9000134206D020009343D1302360FF30FCF75D
:103CA00093FA22AD2800FCF78FFA00220121A36BC2
:103CB00008009040064202D080CB90002F50013285
:103CC000042AF5D1A3632800FCF77CFAA2E7202E92
:103CD00000D95EE70F2F00D856E7019E002E00D1D5
:103CE0004FE7052D00D054E73AE7027A0300002A97
:103CF00011D1427AB020002A0CD0013A5A725A6887
:103D0000111D126859601A6003221A721A68100E87
:103D100012021A607047013AF7E7F0B50023050078
:103D20000F0087B002933800FFF7DFFF0400B028D0
:103D300015D10024029BA3420ED105AE23000E2212
:103D4000210000962800FFF70CFD009623000F22AB
:103D500021002800FFF72AFD200007B0F0BD030670
:103D60001AD4FF2386001E4005AB009300230D22CA
:103D700019002800FFF7F5FC059A0436B318610610
:103D800000D5931B059305AB009300230D2219006A
:103D90002800FFF70BFDC6E703000F229343DBB2B9
:103DA000802B1AD104023800FFF79FFF80260443BE
:103DB0003602B44201D10924CEE723010393002344
:103DC0002405220C19002800FFF781FE0028F2D1FB
:103DD000039B3342A7D00123A4E7902B0FD10D26DC
:103DE00003003340B342E6D000230F2205AC02406B
:103DF000009419002800FFF7B4FC0094C5E7A02B3D
:103E00000FD1FF2307221B011900824311410A0031
:103E10001A40030702D58023DB011A43002319004F
:103E20000FE0B02B56D1B12812D13800FFF75DFF5B
:103E3000021EC0D001000F239943C9B20029BAD194
:103E40000B002800FFF743FE002800D16BE7B2E724
:103E5000B22823D1002305AC0D22190000942800BC
:103E6000FFF77FFC3800FFF740FF02267F23034067
:103E7000B3408021059A01409B18002908D1812276
:103E800092009B18F83A059300940B00FF3A7FE7E5
:103E9000380005930736FFF728FFE7E7B3280CD172
:103EA0003800FFF722FFF02302031B0313400F2209
:103EB000024001321A430123B1E7FC230340B42B33
:103EC00000D178E7072380221C40013412032243EB
:103ED000063BA4E7C02B4ED1C6280CD13800FFF713
:103EE00004FFF02302031B0313400F2202400132A0
:103EF0001A43032393E7C7280ED13800FFF7F5FED6
:103F0000021E00D157E703000F218B43DBB2002BC9
:103F100000D050E70B3994E7030007229343DBB24C
:103F2000C02B07D1A022B13B1C4001341203224315
:103F30000C3B74E7C8280ED13800FFF7D6FE0F23DC
:103F400002009A43D2B218401032120301300243E9
:103F50000A3B012175E7C92800D02CE73800FFF79C
:103F6000C4FEF02302031B0313400F220240013260
:103F70001A430523EDE7030007229343DBB2D02B5E
:103F800000D018E714408022013412032243CB3BB7
:103F9000DFE7000010B5062000F0BCF8012000F0BB
:103FA0005FF9C04610B5010000230022002000F098
:103FB000D3F810BD70B5074D074C641BA41005D095
:103FC000013CA300EB589847002CF9D100F050F9C0
:103FD00070BDC046BC430008C043000870B50C4D1E
:103FE0000C4E761BB61005D0002408CD013498473E
:103FF000A642FAD100F036F9074D084E761BB610EE
:1040000005D0002408CD01349847A642FAD170BDEE
:10401000B4430008B4430008B4430008BC4300089C
:10402000F0B50F2A3DD90C0004430D000300A4078E
:104030003CD11400103C240927013F1800E0330054
:104040002E681E606E685E60AE689E60EE68103519
:10405000DE601E001036BB42F1D10F250C23013467
:104060002401091915400419134222D00023CE5807
:10407000E6500433EE1A032EF9D80323043DAD08AD
:104080000135AD001A4064194919551E002A07D0A0
:10409000002300E01300CA5CE2545A1C9D42F9D18F
:1040A000F0BD0400551E002AF2D1F9E7551E0400A8
:1040B000EEE72A00F6E7C04670B505000C001F29A0
:1040C00022D8B7239B00C358002B0ED08A009B1820
:1040D0001A68002A09D0012A14D0511C0ED00021E0
:1040E000200019609047002070BD280000F030F8D3
:1040F00022000100280000F017F8F5E716230360FE
:104100000120F1E70020EFE7162303600120404281
:10411000EAE7C04610B5034B01001868FFF7CCFF73
:1041200010BDC04604000020002370B5074C0500F8
:1041300008001100236000F08BF8431C00D070BD14
:104140002368002BFBD02B60F9E7C0468C070020CA
:1041500010B500F075F810BDF8B5DE469B46304B43
:1041600045461C68A4234E4657465B00E0B5050053
:10417000E0580E00904600284AD043681F2B31DCDF
:104180005C1C002D0AD102339B0044601E500020AD
:104190003CBC90469946A246AB46F8BD9A00914673
:1041A0008144424688214F467A50C42252009046AC
:1041B000804442468739994012688A460A439446A9
:1041C000424661461160842249465F4652008F5044
:1041D000022DD8D1020055468D32FF3211680D43B1
:1041E0001560D0E70F4B002B17D0C820400000E02F
:1041F00000BF002811D0A42200235200A158436020
:104200000160A05040328350043283500124B8E74B
:1042100020004D30FF30E050AFE701204042B7E7CB
:10422000B042000800000000034B10B5002B02D084
:104230000248FFF7B7FE10BD00000000B53F0008C0
:1042400058220120014B40421A6070478C07002021
:1042500058220120014B40421A6070478C07002011
:10426000FEE7C046F8B5C046F8BC08BC9E4670479D
:0C427000F8B5C046F8BC08BC9E4670477C
:10427C0002030405060708090A0B0C0D0E0F10109B
:10428C000102030405060708090A0B0C0D0E0F109A
:10429C000002010200000000000000000102030403
:0842AC000607080908000020C4
:1042B40098C3FF7FB0A9068030C4FF7F01000000CF
:1042C400D4C4FF7FB0AB0E80E0C5FF7F01000000C7
:1042D40000C7FF7FAB07B18098C7FF7FA80FB180ED
:1042E400B0C7FF7FAA0FB180F8C7FF7FB0B0A88026
:1042F40014C8FF7FAB08B180ACC8FF7F0100000089
:104304005CEEFF7FB0A91880CCEEFF7FA80FB180D0
:1043140014EFFF7FB0AB0A80FCEFFF7FB0AB3C80B3
:1043240004F1FF7F010000009CF1FF7FA907B18029
:1043340028F2FF7FB0B0A8806AF2FF7F010000007E
:1043440070F2FF7FB0B0AA80A4F2FF7FAB76B28098
:1043540050F3FF7FAA3F378096F3FF7FB0B0A88069
:10436400A2F3FF7FB0B0AA80DCF3FF7FB0B0A880D7
:10437400EEF3FF7F010000007CF4FF7FAA0DB28002
:10438400DCF4FF7FB0AB0C8024F7FF7FB0B0A880D3
:104394003AF7FF7FAB3F04804EF9FF7F0100000036
:1043A40076F9FF7FB0AB0680E6FBFF7F01000000DB
:0843B40029420008E50200089F
:0443BC00BD02000836
:1043C00000127A000800002000000000F402002023
:1043D0005C030020C4030020000000000000000077
:1043E00000000000000000000000000000000000CD
:1043F00000000000000000000000000000000000BD
:1044000000000000000000000000000000000000AC
:10441000000000000000000000000000000000009C
:10442000000000000000000000000000000000008C
:10443000000000000000000000000000000000007C
:10444000000000000000000000000000000000006C
:10445000000000000000000000000000000000005C
:10446000000000000000000000000000000000004C
:1044700001000000000000000E33CDAB34126DE6E9
:10448000ECDE05000B000000000000000000000052
:10449000000000000000000000000000000000001C
:1044A000000000000000000000000000000000000C
:1044B00000000000000000000000000000000000FC
:1044C00000000000000000000000000000000000EC
:04000005080030DDE2
:00000001FF
